{
	"contracts/SoftCRStoragewCounter.sol": {
		"SoftCRStoragewCounter": {
			"abi": [
				{
					"inputs": [
						{
							"internalType": "uint32",
							"name": "counter_",
							"type": "uint32"
						}
					],
					"stateMutability": "nonpayable",
					"type": "constructor"
				},
				{
					"inputs": [],
					"name": "getInfo",
					"outputs": [
						{
							"internalType": "string",
							"name": "",
							"type": "string"
						}
					],
					"stateMutability": "view",
					"type": "function"
				},
				{
					"inputs": [],
					"name": "getInfoChanges",
					"outputs": [
						{
							"internalType": "uint32",
							"name": "",
							"type": "uint32"
						}
					],
					"stateMutability": "view",
					"type": "function"
				},
				{
					"inputs": [],
					"name": "getOwner",
					"outputs": [
						{
							"internalType": "address",
							"name": "",
							"type": "address"
						}
					],
					"stateMutability": "view",
					"type": "function"
				},
				{
					"inputs": [
						{
							"internalType": "string",
							"name": "data",
							"type": "string"
						}
					],
					"name": "setInfo",
					"outputs": [],
					"stateMutability": "nonpayable",
					"type": "function"
				}
			],
			"devdoc": {
				"kind": "dev",
				"methods": {},
				"version": 1
			},
			"evm": {
				"assembly": "    /* \"contracts/SoftCRStoragewCounter.sol\":108:885  contract SoftCRStoragewCounter {... */\n  mstore(0x40, 0x80)\n    /* \"contracts/SoftCRStoragewCounter.sol\":218:310  constructor(uint32 counter_) {... */\n  callvalue\n  dup1\n  iszero\n  tag_1\n  jumpi\n  0x00\n  dup1\n  revert\ntag_1:\n  pop\n  mload(0x40)\n  sub(codesize, bytecodeSize)\n  dup1\n  bytecodeSize\n  dup4\n  codecopy\n  dup2\n  dup2\n  add\n  0x40\n  mstore\n  dup2\n  add\n  swap1\n  tag_2\n  swap2\n  swap1\n  tag_3\n  jump\t// in\ntag_2:\n    /* \"contracts/SoftCRStoragewCounter.sol\":267:275  counter_ */\n  dup1\n    /* \"contracts/SoftCRStoragewCounter.sol\":257:264  counter */\n  0x01\n  0x14\n    /* \"contracts/SoftCRStoragewCounter.sol\":257:275  counter = counter_ */\n  0x0100\n  exp\n  dup2\n  sload\n  dup2\n  0xffffffff\n  mul\n  not\n  and\n  swap1\n  dup4\n  0xffffffff\n  and\n  mul\n  or\n  swap1\n  sstore\n  pop\n    /* \"contracts/SoftCRStoragewCounter.sol\":293:303  msg.sender */\n  caller\n    /* \"contracts/SoftCRStoragewCounter.sol\":285:290  owner */\n  0x01\n  0x00\n    /* \"contracts/SoftCRStoragewCounter.sol\":285:303  owner = msg.sender */\n  0x0100\n  exp\n  dup2\n  sload\n  dup2\n  0xffffffffffffffffffffffffffffffffffffffff\n  mul\n  not\n  and\n  swap1\n  dup4\n  0xffffffffffffffffffffffffffffffffffffffff\n  and\n  mul\n  or\n  swap1\n  sstore\n  pop\n    /* \"contracts/SoftCRStoragewCounter.sol\":218:310  constructor(uint32 counter_) {... */\n  pop\n    /* \"contracts/SoftCRStoragewCounter.sol\":108:885  contract SoftCRStoragewCounter {... */\n  jump(tag_6)\n    /* \"#utility.yul\":88:205   */\ntag_8:\n    /* \"#utility.yul\":197:198   */\n  0x00\n    /* \"#utility.yul\":194:195   */\n  dup1\n    /* \"#utility.yul\":187:199   */\n  revert\n    /* \"#utility.yul\":334:427   */\ntag_10:\n    /* \"#utility.yul\":370:377   */\n  0x00\n    /* \"#utility.yul\":410:420   */\n  0xffffffff\n    /* \"#utility.yul\":403:408   */\n  dup3\n    /* \"#utility.yul\":399:421   */\n  and\n    /* \"#utility.yul\":388:421   */\n  swap1\n  pop\n    /* \"#utility.yul\":334:427   */\n  swap2\n  swap1\n  pop\n  jump\t// out\n    /* \"#utility.yul\":433:553   */\ntag_11:\n    /* \"#utility.yul\":505:528   */\n  tag_19\n    /* \"#utility.yul\":522:527   */\n  dup2\n    /* \"#utility.yul\":505:528   */\n  tag_10\n  jump\t// in\ntag_19:\n    /* \"#utility.yul\":498:503   */\n  dup2\n    /* \"#utility.yul\":495:529   */\n  eq\n    /* \"#utility.yul\":485:547   */\n  tag_20\n  jumpi\n    /* \"#utility.yul\":543:544   */\n  0x00\n    /* \"#utility.yul\":540:541   */\n  dup1\n    /* \"#utility.yul\":533:545   */\n  revert\n    /* \"#utility.yul\":485:547   */\ntag_20:\n    /* \"#utility.yul\":433:553   */\n  pop\n  jump\t// out\n    /* \"#utility.yul\":559:700   */\ntag_12:\n    /* \"#utility.yul\":615:620   */\n  0x00\n    /* \"#utility.yul\":646:652   */\n  dup2\n    /* \"#utility.yul\":640:653   */\n  mload\n    /* \"#utility.yul\":631:653   */\n  swap1\n  pop\n    /* \"#utility.yul\":662:694   */\n  tag_22\n    /* \"#utility.yul\":688:693   */\n  dup2\n    /* \"#utility.yul\":662:694   */\n  tag_11\n  jump\t// in\ntag_22:\n    /* \"#utility.yul\":559:700   */\n  swap3\n  swap2\n  pop\n  pop\n  jump\t// out\n    /* \"#utility.yul\":706:1055   */\ntag_3:\n    /* \"#utility.yul\":775:781   */\n  0x00\n    /* \"#utility.yul\":824:826   */\n  0x20\n    /* \"#utility.yul\":812:821   */\n  dup3\n    /* \"#utility.yul\":803:810   */\n  dup5\n    /* \"#utility.yul\":799:822   */\n  sub\n    /* \"#utility.yul\":795:827   */\n  slt\n    /* \"#utility.yul\":792:911   */\n  iszero\n  tag_24\n  jumpi\n    /* \"#utility.yul\":830:909   */\n  tag_25\n  tag_8\n  jump\t// in\ntag_25:\n    /* \"#utility.yul\":792:911   */\ntag_24:\n    /* \"#utility.yul\":950:951   */\n  0x00\n    /* \"#utility.yul\":975:1038   */\n  tag_26\n    /* \"#utility.yul\":1030:1037   */\n  dup5\n    /* \"#utility.yul\":1021:1027   */\n  dup3\n    /* \"#utility.yul\":1010:1019   */\n  dup6\n    /* \"#utility.yul\":1006:1028   */\n  add\n    /* \"#utility.yul\":975:1038   */\n  tag_12\n  jump\t// in\ntag_26:\n    /* \"#utility.yul\":965:1038   */\n  swap2\n  pop\n    /* \"#utility.yul\":921:1048   */\n  pop\n    /* \"#utility.yul\":706:1055   */\n  swap3\n  swap2\n  pop\n  pop\n  jump\t// out\n    /* \"contracts/SoftCRStoragewCounter.sol\":108:885  contract SoftCRStoragewCounter {... */\ntag_6:\n  dataSize(sub_0)\n  dup1\n  dataOffset(sub_0)\n  0x00\n  codecopy\n  0x00\n  return\nstop\n\nsub_0: assembly {\n        /* \"contracts/SoftCRStoragewCounter.sol\":108:885  contract SoftCRStoragewCounter {... */\n      mstore(0x40, 0x80)\n      callvalue\n      dup1\n      iszero\n      tag_1\n      jumpi\n      0x00\n      dup1\n      revert\n    tag_1:\n      pop\n      jumpi(tag_2, lt(calldatasize, 0x04))\n      shr(0xe0, calldataload(0x00))\n      dup1\n      0x5a9b0b89\n      eq\n      tag_3\n      jumpi\n      dup1\n      0x893d20e8\n      eq\n      tag_4\n      jumpi\n      dup1\n      0x937f6e77\n      eq\n      tag_5\n      jumpi\n      dup1\n      0xf840cdb9\n      eq\n      tag_6\n      jumpi\n    tag_2:\n      0x00\n      dup1\n      revert\n        /* \"contracts/SoftCRStoragewCounter.sol\":606:699  function getInfo() external view returns (string memory) {... */\n    tag_3:\n      tag_7\n      tag_8\n      jump\t// in\n    tag_7:\n      mload(0x40)\n      tag_9\n      swap2\n      swap1\n      tag_10\n      jump\t// in\n    tag_9:\n      mload(0x40)\n      dup1\n      swap2\n      sub\n      swap1\n      return\n        /* \"contracts/SoftCRStoragewCounter.sol\":800:882  function getOwner () external view returns (address) {... */\n    tag_4:\n      tag_11\n      tag_12\n      jump\t// in\n    tag_11:\n      mload(0x40)\n      tag_13\n      swap2\n      swap1\n      tag_14\n      jump\t// in\n    tag_13:\n      mload(0x40)\n      dup1\n      swap2\n      sub\n      swap1\n      return\n        /* \"contracts/SoftCRStoragewCounter.sol\":316:600  function setInfo(string memory data) external {... */\n    tag_5:\n      tag_15\n      0x04\n      dup1\n      calldatasize\n      sub\n      dup2\n      add\n      swap1\n      tag_16\n      swap2\n      swap1\n      tag_17\n      jump\t// in\n    tag_16:\n      tag_18\n      jump\t// in\n    tag_15:\n      stop\n        /* \"contracts/SoftCRStoragewCounter.sol\":705:794  function getInfoChanges () external view returns (uint32) {... */\n    tag_6:\n      tag_19\n      tag_20\n      jump\t// in\n    tag_19:\n      mload(0x40)\n      tag_21\n      swap2\n      swap1\n      tag_22\n      jump\t// in\n    tag_21:\n      mload(0x40)\n      dup1\n      swap2\n      sub\n      swap1\n      return\n        /* \"contracts/SoftCRStoragewCounter.sol\":606:699  function getInfo() external view returns (string memory) {... */\n    tag_8:\n        /* \"contracts/SoftCRStoragewCounter.sol\":648:661  string memory */\n      0x60\n        /* \"contracts/SoftCRStoragewCounter.sol\":680:692  storedDataBC */\n      0x00\n        /* \"contracts/SoftCRStoragewCounter.sol\":673:692  return storedDataBC */\n      dup1\n      sload\n      tag_24\n      swap1\n      tag_25\n      jump\t// in\n    tag_24:\n      dup1\n      0x1f\n      add\n      0x20\n      dup1\n      swap2\n      div\n      mul\n      0x20\n      add\n      mload(0x40)\n      swap1\n      dup2\n      add\n      0x40\n      mstore\n      dup1\n      swap3\n      swap2\n      swap1\n      dup2\n      dup2\n      mstore\n      0x20\n      add\n      dup3\n      dup1\n      sload\n      tag_26\n      swap1\n      tag_25\n      jump\t// in\n    tag_26:\n      dup1\n      iszero\n      tag_27\n      jumpi\n      dup1\n      0x1f\n      lt\n      tag_28\n      jumpi\n      0x0100\n      dup1\n      dup4\n      sload\n      div\n      mul\n      dup4\n      mstore\n      swap2\n      0x20\n      add\n      swap2\n      jump(tag_27)\n    tag_28:\n      dup3\n      add\n      swap2\n      swap1\n      0x00\n      mstore\n      keccak256(0x00, 0x20)\n      swap1\n    tag_29:\n      dup2\n      sload\n      dup2\n      mstore\n      swap1\n      0x01\n      add\n      swap1\n      0x20\n      add\n      dup1\n      dup4\n      gt\n      tag_29\n      jumpi\n      dup3\n      swap1\n      sub\n      0x1f\n      and\n      dup3\n      add\n      swap2\n    tag_27:\n      pop\n      pop\n      pop\n      pop\n      pop\n      swap1\n      pop\n        /* \"contracts/SoftCRStoragewCounter.sol\":606:699  function getInfo() external view returns (string memory) {... */\n      swap1\n      jump\t// out\n        /* \"contracts/SoftCRStoragewCounter.sol\":800:882  function getOwner () external view returns (address) {... */\n    tag_12:\n        /* \"contracts/SoftCRStoragewCounter.sol\":844:851  address */\n      0x00\n        /* \"contracts/SoftCRStoragewCounter.sol\":870:875  owner */\n      0x01\n      0x00\n      swap1\n      sload\n      swap1\n      0x0100\n      exp\n      swap1\n      div\n      0xffffffffffffffffffffffffffffffffffffffff\n      and\n        /* \"contracts/SoftCRStoragewCounter.sol\":863:875  return owner */\n      swap1\n      pop\n        /* \"contracts/SoftCRStoragewCounter.sol\":800:882  function getOwner () external view returns (address) {... */\n      swap1\n      jump\t// out\n        /* \"contracts/SoftCRStoragewCounter.sol\":316:600  function setInfo(string memory data) external {... */\n    tag_18:\n        /* \"contracts/SoftCRStoragewCounter.sol\":394:399  owner */\n      0x01\n      0x00\n      swap1\n      sload\n      swap1\n      0x0100\n      exp\n      swap1\n      div\n      0xffffffffffffffffffffffffffffffffffffffff\n      and\n        /* \"contracts/SoftCRStoragewCounter.sol\":380:399  msg.sender != owner */\n      0xffffffffffffffffffffffffffffffffffffffff\n      and\n        /* \"contracts/SoftCRStoragewCounter.sol\":380:390  msg.sender */\n      caller\n        /* \"contracts/SoftCRStoragewCounter.sol\":380:399  msg.sender != owner */\n      0xffffffffffffffffffffffffffffffffffffffff\n      and\n      sub\n        /* \"contracts/SoftCRStoragewCounter.sol\":372:446  require(msg.sender != owner, \"Unicamente el owner puede cambiar el valor\") */\n      tag_32\n      jumpi\n      mload(0x40)\n      0x08c379a000000000000000000000000000000000000000000000000000000000\n      dup2\n      mstore\n      0x04\n      add\n      tag_33\n      swap1\n      tag_34\n      jump\t// in\n    tag_33:\n      mload(0x40)\n      dup1\n      swap2\n      sub\n      swap1\n      revert\n    tag_32:\n        /* \"contracts/SoftCRStoragewCounter.sol\":485:486  4 */\n      0x04\n        /* \"contracts/SoftCRStoragewCounter.sol\":470:474  data */\n      dup2\n        /* \"contracts/SoftCRStoragewCounter.sol\":464:482  bytes(data).length */\n      mload\n        /* \"contracts/SoftCRStoragewCounter.sol\":464:486  bytes(data).length > 4 */\n      gt\n        /* \"contracts/SoftCRStoragewCounter.sol\":456:545  require(bytes(data).length > 4, \"La variable data debe ser mayor o igual a 5 caracteres\") */\n      tag_35\n      jumpi\n      mload(0x40)\n      0x08c379a000000000000000000000000000000000000000000000000000000000\n      dup2\n      mstore\n      0x04\n      add\n      tag_36\n      swap1\n      tag_37\n      jump\t// in\n    tag_36:\n      mload(0x40)\n      dup1\n      swap2\n      sub\n      swap1\n      revert\n    tag_35:\n        /* \"contracts/SoftCRStoragewCounter.sol\":570:574  data */\n      dup1\n        /* \"contracts/SoftCRStoragewCounter.sol\":555:567  storedDataBC */\n      0x00\n        /* \"contracts/SoftCRStoragewCounter.sol\":555:574  storedDataBC = data */\n      swap1\n      dup2\n      tag_38\n      swap2\n      swap1\n      tag_39\n      jump\t// in\n    tag_38:\n      pop\n        /* \"contracts/SoftCRStoragewCounter.sol\":584:591  counter */\n      0x01\n      0x14\n        /* \"contracts/SoftCRStoragewCounter.sol\":584:593  counter++ */\n      dup2\n      dup2\n      swap1\n      sload\n      swap1\n      0x0100\n      exp\n      swap1\n      div\n      0xffffffff\n      and\n      dup1\n      swap3\n      swap2\n      swap1\n      tag_40\n      swap1\n      tag_41\n      jump\t// in\n    tag_40:\n      swap2\n      swap1\n      0x0100\n      exp\n      dup2\n      sload\n      dup2\n      0xffffffff\n      mul\n      not\n      and\n      swap1\n      dup4\n      0xffffffff\n      and\n      mul\n      or\n      swap1\n      sstore\n      pop\n      pop\n        /* \"contracts/SoftCRStoragewCounter.sol\":316:600  function setInfo(string memory data) external {... */\n      pop\n      jump\t// out\n        /* \"contracts/SoftCRStoragewCounter.sol\":705:794  function getInfoChanges () external view returns (uint32) {... */\n    tag_20:\n        /* \"contracts/SoftCRStoragewCounter.sol\":755:761  uint32 */\n      0x00\n        /* \"contracts/SoftCRStoragewCounter.sol\":780:787  counter */\n      0x01\n      0x14\n      swap1\n      sload\n      swap1\n      0x0100\n      exp\n      swap1\n      div\n      0xffffffff\n      and\n        /* \"contracts/SoftCRStoragewCounter.sol\":773:787  return counter */\n      swap1\n      pop\n        /* \"contracts/SoftCRStoragewCounter.sol\":705:794  function getInfoChanges () external view returns (uint32) {... */\n      swap1\n      jump\t// out\n        /* \"#utility.yul\":7:106   */\n    tag_43:\n        /* \"#utility.yul\":59:65   */\n      0x00\n        /* \"#utility.yul\":93:98   */\n      dup2\n        /* \"#utility.yul\":87:99   */\n      mload\n        /* \"#utility.yul\":77:99   */\n      swap1\n      pop\n        /* \"#utility.yul\":7:106   */\n      swap2\n      swap1\n      pop\n      jump\t// out\n        /* \"#utility.yul\":112:281   */\n    tag_44:\n        /* \"#utility.yul\":196:207   */\n      0x00\n        /* \"#utility.yul\":230:236   */\n      dup3\n        /* \"#utility.yul\":225:228   */\n      dup3\n        /* \"#utility.yul\":218:237   */\n      mstore\n        /* \"#utility.yul\":270:274   */\n      0x20\n        /* \"#utility.yul\":265:268   */\n      dup3\n        /* \"#utility.yul\":261:275   */\n      add\n        /* \"#utility.yul\":246:275   */\n      swap1\n      pop\n        /* \"#utility.yul\":112:281   */\n      swap3\n      swap2\n      pop\n      pop\n      jump\t// out\n        /* \"#utility.yul\":287:426   */\n    tag_45:\n        /* \"#utility.yul\":376:382   */\n      dup3\n        /* \"#utility.yul\":371:374   */\n      dup2\n        /* \"#utility.yul\":366:369   */\n      dup4\n        /* \"#utility.yul\":360:383   */\n      mcopy\n        /* \"#utility.yul\":417:418   */\n      0x00\n        /* \"#utility.yul\":408:414   */\n      dup4\n        /* \"#utility.yul\":403:406   */\n      dup4\n        /* \"#utility.yul\":399:415   */\n      add\n        /* \"#utility.yul\":392:419   */\n      mstore\n        /* \"#utility.yul\":287:426   */\n      pop\n      pop\n      pop\n      jump\t// out\n        /* \"#utility.yul\":432:534   */\n    tag_46:\n        /* \"#utility.yul\":473:479   */\n      0x00\n        /* \"#utility.yul\":524:526   */\n      0x1f\n        /* \"#utility.yul\":520:527   */\n      not\n        /* \"#utility.yul\":515:517   */\n      0x1f\n        /* \"#utility.yul\":508:513   */\n      dup4\n        /* \"#utility.yul\":504:518   */\n      add\n        /* \"#utility.yul\":500:528   */\n      and\n        /* \"#utility.yul\":490:528   */\n      swap1\n      pop\n        /* \"#utility.yul\":432:534   */\n      swap2\n      swap1\n      pop\n      jump\t// out\n        /* \"#utility.yul\":540:917   */\n    tag_47:\n        /* \"#utility.yul\":628:631   */\n      0x00\n        /* \"#utility.yul\":656:695   */\n      tag_93\n        /* \"#utility.yul\":689:694   */\n      dup3\n        /* \"#utility.yul\":656:695   */\n      tag_43\n      jump\t// in\n    tag_93:\n        /* \"#utility.yul\":711:782   */\n      tag_94\n        /* \"#utility.yul\":775:781   */\n      dup2\n        /* \"#utility.yul\":770:773   */\n      dup6\n        /* \"#utility.yul\":711:782   */\n      tag_44\n      jump\t// in\n    tag_94:\n        /* \"#utility.yul\":704:782   */\n      swap4\n      pop\n        /* \"#utility.yul\":791:856   */\n      tag_95\n        /* \"#utility.yul\":849:855   */\n      dup2\n        /* \"#utility.yul\":844:847   */\n      dup6\n        /* \"#utility.yul\":837:841   */\n      0x20\n        /* \"#utility.yul\":830:835   */\n      dup7\n        /* \"#utility.yul\":826:842   */\n      add\n        /* \"#utility.yul\":791:856   */\n      tag_45\n      jump\t// in\n    tag_95:\n        /* \"#utility.yul\":881:910   */\n      tag_96\n        /* \"#utility.yul\":903:909   */\n      dup2\n        /* \"#utility.yul\":881:910   */\n      tag_46\n      jump\t// in\n    tag_96:\n        /* \"#utility.yul\":876:879   */\n      dup5\n        /* \"#utility.yul\":872:911   */\n      add\n        /* \"#utility.yul\":865:911   */\n      swap2\n      pop\n        /* \"#utility.yul\":632:917   */\n      pop\n        /* \"#utility.yul\":540:917   */\n      swap3\n      swap2\n      pop\n      pop\n      jump\t// out\n        /* \"#utility.yul\":923:1236   */\n    tag_10:\n        /* \"#utility.yul\":1036:1040   */\n      0x00\n        /* \"#utility.yul\":1074:1076   */\n      0x20\n        /* \"#utility.yul\":1063:1072   */\n      dup3\n        /* \"#utility.yul\":1059:1077   */\n      add\n        /* \"#utility.yul\":1051:1077   */\n      swap1\n      pop\n        /* \"#utility.yul\":1123:1132   */\n      dup2\n        /* \"#utility.yul\":1117:1121   */\n      dup2\n        /* \"#utility.yul\":1113:1133   */\n      sub\n        /* \"#utility.yul\":1109:1110   */\n      0x00\n        /* \"#utility.yul\":1098:1107   */\n      dup4\n        /* \"#utility.yul\":1094:1111   */\n      add\n        /* \"#utility.yul\":1087:1134   */\n      mstore\n        /* \"#utility.yul\":1151:1229   */\n      tag_98\n        /* \"#utility.yul\":1224:1228   */\n      dup2\n        /* \"#utility.yul\":1215:1221   */\n      dup5\n        /* \"#utility.yul\":1151:1229   */\n      tag_47\n      jump\t// in\n    tag_98:\n        /* \"#utility.yul\":1143:1229   */\n      swap1\n      pop\n        /* \"#utility.yul\":923:1236   */\n      swap3\n      swap2\n      pop\n      pop\n      jump\t// out\n        /* \"#utility.yul\":1242:1368   */\n    tag_48:\n        /* \"#utility.yul\":1279:1286   */\n      0x00\n        /* \"#utility.yul\":1319:1361   */\n      0xffffffffffffffffffffffffffffffffffffffff\n        /* \"#utility.yul\":1312:1317   */\n      dup3\n        /* \"#utility.yul\":1308:1362   */\n      and\n        /* \"#utility.yul\":1297:1362   */\n      swap1\n      pop\n        /* \"#utility.yul\":1242:1368   */\n      swap2\n      swap1\n      pop\n      jump\t// out\n        /* \"#utility.yul\":1374:1470   */\n    tag_49:\n        /* \"#utility.yul\":1411:1418   */\n      0x00\n        /* \"#utility.yul\":1440:1464   */\n      tag_101\n        /* \"#utility.yul\":1458:1463   */\n      dup3\n        /* \"#utility.yul\":1440:1464   */\n      tag_48\n      jump\t// in\n    tag_101:\n        /* \"#utility.yul\":1429:1464   */\n      swap1\n      pop\n        /* \"#utility.yul\":1374:1470   */\n      swap2\n      swap1\n      pop\n      jump\t// out\n        /* \"#utility.yul\":1476:1594   */\n    tag_50:\n        /* \"#utility.yul\":1563:1587   */\n      tag_103\n        /* \"#utility.yul\":1581:1586   */\n      dup2\n        /* \"#utility.yul\":1563:1587   */\n      tag_49\n      jump\t// in\n    tag_103:\n        /* \"#utility.yul\":1558:1561   */\n      dup3\n        /* \"#utility.yul\":1551:1588   */\n      mstore\n        /* \"#utility.yul\":1476:1594   */\n      pop\n      pop\n      jump\t// out\n        /* \"#utility.yul\":1600:1822   */\n    tag_14:\n        /* \"#utility.yul\":1693:1697   */\n      0x00\n        /* \"#utility.yul\":1731:1733   */\n      0x20\n        /* \"#utility.yul\":1720:1729   */\n      dup3\n        /* \"#utility.yul\":1716:1734   */\n      add\n        /* \"#utility.yul\":1708:1734   */\n      swap1\n      pop\n        /* \"#utility.yul\":1744:1815   */\n      tag_105\n        /* \"#utility.yul\":1812:1813   */\n      0x00\n        /* \"#utility.yul\":1801:1810   */\n      dup4\n        /* \"#utility.yul\":1797:1814   */\n      add\n        /* \"#utility.yul\":1788:1794   */\n      dup5\n        /* \"#utility.yul\":1744:1815   */\n      tag_50\n      jump\t// in\n    tag_105:\n        /* \"#utility.yul\":1600:1822   */\n      swap3\n      swap2\n      pop\n      pop\n      jump\t// out\n        /* \"#utility.yul\":1828:1903   */\n    tag_51:\n        /* \"#utility.yul\":1861:1867   */\n      0x00\n        /* \"#utility.yul\":1894:1896   */\n      0x40\n        /* \"#utility.yul\":1888:1897   */\n      mload\n        /* \"#utility.yul\":1878:1897   */\n      swap1\n      pop\n        /* \"#utility.yul\":1828:1903   */\n      swap1\n      jump\t// out\n        /* \"#utility.yul\":1909:2026   */\n    tag_52:\n        /* \"#utility.yul\":2018:2019   */\n      0x00\n        /* \"#utility.yul\":2015:2016   */\n      dup1\n        /* \"#utility.yul\":2008:2020   */\n      revert\n        /* \"#utility.yul\":2032:2149   */\n    tag_53:\n        /* \"#utility.yul\":2141:2142   */\n      0x00\n        /* \"#utility.yul\":2138:2139   */\n      dup1\n        /* \"#utility.yul\":2131:2143   */\n      revert\n        /* \"#utility.yul\":2155:2272   */\n    tag_54:\n        /* \"#utility.yul\":2264:2265   */\n      0x00\n        /* \"#utility.yul\":2261:2262   */\n      dup1\n        /* \"#utility.yul\":2254:2266   */\n      revert\n        /* \"#utility.yul\":2278:2395   */\n    tag_55:\n        /* \"#utility.yul\":2387:2388   */\n      0x00\n        /* \"#utility.yul\":2384:2385   */\n      dup1\n        /* \"#utility.yul\":2377:2389   */\n      revert\n        /* \"#utility.yul\":2401:2581   */\n    tag_56:\n        /* \"#utility.yul\":2449:2526   */\n      0x4e487b7100000000000000000000000000000000000000000000000000000000\n        /* \"#utility.yul\":2446:2447   */\n      0x00\n        /* \"#utility.yul\":2439:2527   */\n      mstore\n        /* \"#utility.yul\":2546:2550   */\n      0x41\n        /* \"#utility.yul\":2543:2544   */\n      0x04\n        /* \"#utility.yul\":2536:2551   */\n      mstore\n        /* \"#utility.yul\":2570:2574   */\n      0x24\n        /* \"#utility.yul\":2567:2568   */\n      0x00\n        /* \"#utility.yul\":2560:2575   */\n      revert\n        /* \"#utility.yul\":2587:2868   */\n    tag_57:\n        /* \"#utility.yul\":2670:2697   */\n      tag_113\n        /* \"#utility.yul\":2692:2696   */\n      dup3\n        /* \"#utility.yul\":2670:2697   */\n      tag_46\n      jump\t// in\n    tag_113:\n        /* \"#utility.yul\":2662:2668   */\n      dup2\n        /* \"#utility.yul\":2658:2698   */\n      add\n        /* \"#utility.yul\":2800:2806   */\n      dup2\n        /* \"#utility.yul\":2788:2798   */\n      dup2\n        /* \"#utility.yul\":2785:2807   */\n      lt\n        /* \"#utility.yul\":2764:2782   */\n      0xffffffffffffffff\n        /* \"#utility.yul\":2752:2762   */\n      dup3\n        /* \"#utility.yul\":2749:2783   */\n      gt\n        /* \"#utility.yul\":2746:2808   */\n      or\n        /* \"#utility.yul\":2743:2831   */\n      iszero\n      tag_114\n      jumpi\n        /* \"#utility.yul\":2811:2829   */\n      tag_115\n      tag_56\n      jump\t// in\n    tag_115:\n        /* \"#utility.yul\":2743:2831   */\n    tag_114:\n        /* \"#utility.yul\":2851:2861   */\n      dup1\n        /* \"#utility.yul\":2847:2849   */\n      0x40\n        /* \"#utility.yul\":2840:2862   */\n      mstore\n        /* \"#utility.yul\":2630:2868   */\n      pop\n        /* \"#utility.yul\":2587:2868   */\n      pop\n      pop\n      jump\t// out\n        /* \"#utility.yul\":2874:3003   */\n    tag_58:\n        /* \"#utility.yul\":2908:2914   */\n      0x00\n        /* \"#utility.yul\":2935:2955   */\n      tag_117\n      tag_51\n      jump\t// in\n    tag_117:\n        /* \"#utility.yul\":2925:2955   */\n      swap1\n      pop\n        /* \"#utility.yul\":2964:2997   */\n      tag_118\n        /* \"#utility.yul\":2992:2996   */\n      dup3\n        /* \"#utility.yul\":2984:2990   */\n      dup3\n        /* \"#utility.yul\":2964:2997   */\n      tag_57\n      jump\t// in\n    tag_118:\n        /* \"#utility.yul\":2874:3003   */\n      swap2\n      swap1\n      pop\n      jump\t// out\n        /* \"#utility.yul\":3009:3317   */\n    tag_59:\n        /* \"#utility.yul\":3071:3075   */\n      0x00\n        /* \"#utility.yul\":3161:3179   */\n      0xffffffffffffffff\n        /* \"#utility.yul\":3153:3159   */\n      dup3\n        /* \"#utility.yul\":3150:3180   */\n      gt\n        /* \"#utility.yul\":3147:3203   */\n      iszero\n      tag_120\n      jumpi\n        /* \"#utility.yul\":3183:3201   */\n      tag_121\n      tag_56\n      jump\t// in\n    tag_121:\n        /* \"#utility.yul\":3147:3203   */\n    tag_120:\n        /* \"#utility.yul\":3221:3250   */\n      tag_122\n        /* \"#utility.yul\":3243:3249   */\n      dup3\n        /* \"#utility.yul\":3221:3250   */\n      tag_46\n      jump\t// in\n    tag_122:\n        /* \"#utility.yul\":3213:3250   */\n      swap1\n      pop\n        /* \"#utility.yul\":3305:3309   */\n      0x20\n        /* \"#utility.yul\":3299:3303   */\n      dup2\n        /* \"#utility.yul\":3295:3310   */\n      add\n        /* \"#utility.yul\":3287:3310   */\n      swap1\n      pop\n        /* \"#utility.yul\":3009:3317   */\n      swap2\n      swap1\n      pop\n      jump\t// out\n        /* \"#utility.yul\":3323:3471   */\n    tag_60:\n        /* \"#utility.yul\":3421:3427   */\n      dup3\n        /* \"#utility.yul\":3416:3419   */\n      dup2\n        /* \"#utility.yul\":3411:3414   */\n      dup4\n        /* \"#utility.yul\":3398:3428   */\n      calldatacopy\n        /* \"#utility.yul\":3462:3463   */\n      0x00\n        /* \"#utility.yul\":3453:3459   */\n      dup4\n        /* \"#utility.yul\":3448:3451   */\n      dup4\n        /* \"#utility.yul\":3444:3460   */\n      add\n        /* \"#utility.yul\":3437:3464   */\n      mstore\n        /* \"#utility.yul\":3323:3471   */\n      pop\n      pop\n      pop\n      jump\t// out\n        /* \"#utility.yul\":3477:3902   */\n    tag_61:\n        /* \"#utility.yul\":3555:3560   */\n      0x00\n        /* \"#utility.yul\":3580:3646   */\n      tag_125\n        /* \"#utility.yul\":3596:3645   */\n      tag_126\n        /* \"#utility.yul\":3638:3644   */\n      dup5\n        /* \"#utility.yul\":3596:3645   */\n      tag_59\n      jump\t// in\n    tag_126:\n        /* \"#utility.yul\":3580:3646   */\n      tag_58\n      jump\t// in\n    tag_125:\n        /* \"#utility.yul\":3571:3646   */\n      swap1\n      pop\n        /* \"#utility.yul\":3669:3675   */\n      dup3\n        /* \"#utility.yul\":3662:3667   */\n      dup2\n        /* \"#utility.yul\":3655:3676   */\n      mstore\n        /* \"#utility.yul\":3707:3711   */\n      0x20\n        /* \"#utility.yul\":3700:3705   */\n      dup2\n        /* \"#utility.yul\":3696:3712   */\n      add\n        /* \"#utility.yul\":3745:3748   */\n      dup5\n        /* \"#utility.yul\":3736:3742   */\n      dup5\n        /* \"#utility.yul\":3731:3734   */\n      dup5\n        /* \"#utility.yul\":3727:3743   */\n      add\n        /* \"#utility.yul\":3724:3749   */\n      gt\n        /* \"#utility.yul\":3721:3833   */\n      iszero\n      tag_127\n      jumpi\n        /* \"#utility.yul\":3752:3831   */\n      tag_128\n      tag_55\n      jump\t// in\n    tag_128:\n        /* \"#utility.yul\":3721:3833   */\n    tag_127:\n        /* \"#utility.yul\":3842:3896   */\n      tag_129\n        /* \"#utility.yul\":3889:3895   */\n      dup5\n        /* \"#utility.yul\":3884:3887   */\n      dup3\n        /* \"#utility.yul\":3879:3882   */\n      dup6\n        /* \"#utility.yul\":3842:3896   */\n      tag_60\n      jump\t// in\n    tag_129:\n        /* \"#utility.yul\":3561:3902   */\n      pop\n        /* \"#utility.yul\":3477:3902   */\n      swap4\n      swap3\n      pop\n      pop\n      pop\n      jump\t// out\n        /* \"#utility.yul\":3922:4262   */\n    tag_62:\n        /* \"#utility.yul\":3978:3983   */\n      0x00\n        /* \"#utility.yul\":4027:4030   */\n      dup3\n        /* \"#utility.yul\":4020:4024   */\n      0x1f\n        /* \"#utility.yul\":4012:4018   */\n      dup4\n        /* \"#utility.yul\":4008:4025   */\n      add\n        /* \"#utility.yul\":4004:4031   */\n      slt\n        /* \"#utility.yul\":3994:4116   */\n      tag_131\n      jumpi\n        /* \"#utility.yul\":4035:4114   */\n      tag_132\n      tag_54\n      jump\t// in\n    tag_132:\n        /* \"#utility.yul\":3994:4116   */\n    tag_131:\n        /* \"#utility.yul\":4152:4158   */\n      dup2\n        /* \"#utility.yul\":4139:4159   */\n      calldataload\n        /* \"#utility.yul\":4177:4256   */\n      tag_133\n        /* \"#utility.yul\":4252:4255   */\n      dup5\n        /* \"#utility.yul\":4244:4250   */\n      dup3\n        /* \"#utility.yul\":4237:4241   */\n      0x20\n        /* \"#utility.yul\":4229:4235   */\n      dup7\n        /* \"#utility.yul\":4225:4242   */\n      add\n        /* \"#utility.yul\":4177:4256   */\n      tag_61\n      jump\t// in\n    tag_133:\n        /* \"#utility.yul\":4168:4256   */\n      swap2\n      pop\n        /* \"#utility.yul\":3984:4262   */\n      pop\n        /* \"#utility.yul\":3922:4262   */\n      swap3\n      swap2\n      pop\n      pop\n      jump\t// out\n        /* \"#utility.yul\":4268:4777   */\n    tag_17:\n        /* \"#utility.yul\":4337:4343   */\n      0x00\n        /* \"#utility.yul\":4386:4388   */\n      0x20\n        /* \"#utility.yul\":4374:4383   */\n      dup3\n        /* \"#utility.yul\":4365:4372   */\n      dup5\n        /* \"#utility.yul\":4361:4384   */\n      sub\n        /* \"#utility.yul\":4357:4389   */\n      slt\n        /* \"#utility.yul\":4354:4473   */\n      iszero\n      tag_135\n      jumpi\n        /* \"#utility.yul\":4392:4471   */\n      tag_136\n      tag_52\n      jump\t// in\n    tag_136:\n        /* \"#utility.yul\":4354:4473   */\n    tag_135:\n        /* \"#utility.yul\":4540:4541   */\n      0x00\n        /* \"#utility.yul\":4529:4538   */\n      dup3\n        /* \"#utility.yul\":4525:4542   */\n      add\n        /* \"#utility.yul\":4512:4543   */\n      calldataload\n        /* \"#utility.yul\":4570:4588   */\n      0xffffffffffffffff\n        /* \"#utility.yul\":4562:4568   */\n      dup2\n        /* \"#utility.yul\":4559:4589   */\n      gt\n        /* \"#utility.yul\":4556:4673   */\n      iszero\n      tag_137\n      jumpi\n        /* \"#utility.yul\":4592:4671   */\n      tag_138\n      tag_53\n      jump\t// in\n    tag_138:\n        /* \"#utility.yul\":4556:4673   */\n    tag_137:\n        /* \"#utility.yul\":4697:4760   */\n      tag_139\n        /* \"#utility.yul\":4752:4759   */\n      dup5\n        /* \"#utility.yul\":4743:4749   */\n      dup3\n        /* \"#utility.yul\":4732:4741   */\n      dup6\n        /* \"#utility.yul\":4728:4750   */\n      add\n        /* \"#utility.yul\":4697:4760   */\n      tag_62\n      jump\t// in\n    tag_139:\n        /* \"#utility.yul\":4687:4760   */\n      swap2\n      pop\n        /* \"#utility.yul\":4483:4770   */\n      pop\n        /* \"#utility.yul\":4268:4777   */\n      swap3\n      swap2\n      pop\n      pop\n      jump\t// out\n        /* \"#utility.yul\":4783:4876   */\n    tag_63:\n        /* \"#utility.yul\":4819:4826   */\n      0x00\n        /* \"#utility.yul\":4859:4869   */\n      0xffffffff\n        /* \"#utility.yul\":4852:4857   */\n      dup3\n        /* \"#utility.yul\":4848:4870   */\n      and\n        /* \"#utility.yul\":4837:4870   */\n      swap1\n      pop\n        /* \"#utility.yul\":4783:4876   */\n      swap2\n      swap1\n      pop\n      jump\t// out\n        /* \"#utility.yul\":4882:4997   */\n    tag_64:\n        /* \"#utility.yul\":4967:4990   */\n      tag_142\n        /* \"#utility.yul\":4984:4989   */\n      dup2\n        /* \"#utility.yul\":4967:4990   */\n      tag_63\n      jump\t// in\n    tag_142:\n        /* \"#utility.yul\":4962:4965   */\n      dup3\n        /* \"#utility.yul\":4955:4991   */\n      mstore\n        /* \"#utility.yul\":4882:4997   */\n      pop\n      pop\n      jump\t// out\n        /* \"#utility.yul\":5003:5221   */\n    tag_22:\n        /* \"#utility.yul\":5094:5098   */\n      0x00\n        /* \"#utility.yul\":5132:5134   */\n      0x20\n        /* \"#utility.yul\":5121:5130   */\n      dup3\n        /* \"#utility.yul\":5117:5135   */\n      add\n        /* \"#utility.yul\":5109:5135   */\n      swap1\n      pop\n        /* \"#utility.yul\":5145:5214   */\n      tag_144\n        /* \"#utility.yul\":5211:5212   */\n      0x00\n        /* \"#utility.yul\":5200:5209   */\n      dup4\n        /* \"#utility.yul\":5196:5213   */\n      add\n        /* \"#utility.yul\":5187:5193   */\n      dup5\n        /* \"#utility.yul\":5145:5214   */\n      tag_64\n      jump\t// in\n    tag_144:\n        /* \"#utility.yul\":5003:5221   */\n      swap3\n      swap2\n      pop\n      pop\n      jump\t// out\n        /* \"#utility.yul\":5227:5407   */\n    tag_65:\n        /* \"#utility.yul\":5275:5352   */\n      0x4e487b7100000000000000000000000000000000000000000000000000000000\n        /* \"#utility.yul\":5272:5273   */\n      0x00\n        /* \"#utility.yul\":5265:5353   */\n      mstore\n        /* \"#utility.yul\":5372:5376   */\n      0x22\n        /* \"#utility.yul\":5369:5370   */\n      0x04\n        /* \"#utility.yul\":5362:5377   */\n      mstore\n        /* \"#utility.yul\":5396:5400   */\n      0x24\n        /* \"#utility.yul\":5393:5394   */\n      0x00\n        /* \"#utility.yul\":5386:5401   */\n      revert\n        /* \"#utility.yul\":5413:5733   */\n    tag_25:\n        /* \"#utility.yul\":5457:5463   */\n      0x00\n        /* \"#utility.yul\":5494:5495   */\n      0x02\n        /* \"#utility.yul\":5488:5492   */\n      dup3\n        /* \"#utility.yul\":5484:5496   */\n      div\n        /* \"#utility.yul\":5474:5496   */\n      swap1\n      pop\n        /* \"#utility.yul\":5541:5542   */\n      0x01\n        /* \"#utility.yul\":5535:5539   */\n      dup3\n        /* \"#utility.yul\":5531:5543   */\n      and\n        /* \"#utility.yul\":5562:5580   */\n      dup1\n        /* \"#utility.yul\":5552:5633   */\n      tag_147\n      jumpi\n        /* \"#utility.yul\":5618:5622   */\n      0x7f\n        /* \"#utility.yul\":5610:5616   */\n      dup3\n        /* \"#utility.yul\":5606:5623   */\n      and\n        /* \"#utility.yul\":5596:5623   */\n      swap2\n      pop\n        /* \"#utility.yul\":5552:5633   */\n    tag_147:\n        /* \"#utility.yul\":5680:5682   */\n      0x20\n        /* \"#utility.yul\":5672:5678   */\n      dup3\n        /* \"#utility.yul\":5669:5683   */\n      lt\n        /* \"#utility.yul\":5649:5667   */\n      dup2\n        /* \"#utility.yul\":5646:5684   */\n      sub\n        /* \"#utility.yul\":5643:5727   */\n      tag_148\n      jumpi\n        /* \"#utility.yul\":5699:5717   */\n      tag_149\n      tag_65\n      jump\t// in\n    tag_149:\n        /* \"#utility.yul\":5643:5727   */\n    tag_148:\n        /* \"#utility.yul\":5464:5733   */\n      pop\n        /* \"#utility.yul\":5413:5733   */\n      swap2\n      swap1\n      pop\n      jump\t// out\n        /* \"#utility.yul\":5739:5968   */\n    tag_66:\n        /* \"#utility.yul\":5879:5913   */\n      0x556e6963616d656e746520656c206f776e65722070756564652063616d626961\n        /* \"#utility.yul\":5875:5876   */\n      0x00\n        /* \"#utility.yul\":5867:5873   */\n      dup3\n        /* \"#utility.yul\":5863:5877   */\n      add\n        /* \"#utility.yul\":5856:5914   */\n      mstore\n        /* \"#utility.yul\":5948:5960   */\n      0x7220656c2076616c6f7200000000000000000000000000000000000000000000\n        /* \"#utility.yul\":5943:5945   */\n      0x20\n        /* \"#utility.yul\":5935:5941   */\n      dup3\n        /* \"#utility.yul\":5931:5946   */\n      add\n        /* \"#utility.yul\":5924:5961   */\n      mstore\n        /* \"#utility.yul\":5739:5968   */\n      pop\n      jump\t// out\n        /* \"#utility.yul\":5974:6340   */\n    tag_67:\n        /* \"#utility.yul\":6116:6119   */\n      0x00\n        /* \"#utility.yul\":6137:6204   */\n      tag_152\n        /* \"#utility.yul\":6201:6203   */\n      0x2a\n        /* \"#utility.yul\":6196:6199   */\n      dup4\n        /* \"#utility.yul\":6137:6204   */\n      tag_44\n      jump\t// in\n    tag_152:\n        /* \"#utility.yul\":6130:6204   */\n      swap2\n      pop\n        /* \"#utility.yul\":6213:6306   */\n      tag_153\n        /* \"#utility.yul\":6302:6305   */\n      dup3\n        /* \"#utility.yul\":6213:6306   */\n      tag_66\n      jump\t// in\n    tag_153:\n        /* \"#utility.yul\":6331:6333   */\n      0x40\n        /* \"#utility.yul\":6326:6329   */\n      dup3\n        /* \"#utility.yul\":6322:6334   */\n      add\n        /* \"#utility.yul\":6315:6334   */\n      swap1\n      pop\n        /* \"#utility.yul\":5974:6340   */\n      swap2\n      swap1\n      pop\n      jump\t// out\n        /* \"#utility.yul\":6346:6765   */\n    tag_34:\n        /* \"#utility.yul\":6512:6516   */\n      0x00\n        /* \"#utility.yul\":6550:6552   */\n      0x20\n        /* \"#utility.yul\":6539:6548   */\n      dup3\n        /* \"#utility.yul\":6535:6553   */\n      add\n        /* \"#utility.yul\":6527:6553   */\n      swap1\n      pop\n        /* \"#utility.yul\":6599:6608   */\n      dup2\n        /* \"#utility.yul\":6593:6597   */\n      dup2\n        /* \"#utility.yul\":6589:6609   */\n      sub\n        /* \"#utility.yul\":6585:6586   */\n      0x00\n        /* \"#utility.yul\":6574:6583   */\n      dup4\n        /* \"#utility.yul\":6570:6587   */\n      add\n        /* \"#utility.yul\":6563:6610   */\n      mstore\n        /* \"#utility.yul\":6627:6758   */\n      tag_155\n        /* \"#utility.yul\":6753:6757   */\n      dup2\n        /* \"#utility.yul\":6627:6758   */\n      tag_67\n      jump\t// in\n    tag_155:\n        /* \"#utility.yul\":6619:6758   */\n      swap1\n      pop\n        /* \"#utility.yul\":6346:6765   */\n      swap2\n      swap1\n      pop\n      jump\t// out\n        /* \"#utility.yul\":6771:7012   */\n    tag_68:\n        /* \"#utility.yul\":6911:6945   */\n      0x4c61207661726961626c652064617461206465626520736572206d61796f7220\n        /* \"#utility.yul\":6907:6908   */\n      0x00\n        /* \"#utility.yul\":6899:6905   */\n      dup3\n        /* \"#utility.yul\":6895:6909   */\n      add\n        /* \"#utility.yul\":6888:6946   */\n      mstore\n        /* \"#utility.yul\":6980:7004   */\n      0x6f20696775616c20612035206361726163746572657300000000000000000000\n        /* \"#utility.yul\":6975:6977   */\n      0x20\n        /* \"#utility.yul\":6967:6973   */\n      dup3\n        /* \"#utility.yul\":6963:6978   */\n      add\n        /* \"#utility.yul\":6956:7005   */\n      mstore\n        /* \"#utility.yul\":6771:7012   */\n      pop\n      jump\t// out\n        /* \"#utility.yul\":7018:7384   */\n    tag_69:\n        /* \"#utility.yul\":7160:7163   */\n      0x00\n        /* \"#utility.yul\":7181:7248   */\n      tag_158\n        /* \"#utility.yul\":7245:7247   */\n      0x36\n        /* \"#utility.yul\":7240:7243   */\n      dup4\n        /* \"#utility.yul\":7181:7248   */\n      tag_44\n      jump\t// in\n    tag_158:\n        /* \"#utility.yul\":7174:7248   */\n      swap2\n      pop\n        /* \"#utility.yul\":7257:7350   */\n      tag_159\n        /* \"#utility.yul\":7346:7349   */\n      dup3\n        /* \"#utility.yul\":7257:7350   */\n      tag_68\n      jump\t// in\n    tag_159:\n        /* \"#utility.yul\":7375:7377   */\n      0x40\n        /* \"#utility.yul\":7370:7373   */\n      dup3\n        /* \"#utility.yul\":7366:7378   */\n      add\n        /* \"#utility.yul\":7359:7378   */\n      swap1\n      pop\n        /* \"#utility.yul\":7018:7384   */\n      swap2\n      swap1\n      pop\n      jump\t// out\n        /* \"#utility.yul\":7390:7809   */\n    tag_37:\n        /* \"#utility.yul\":7556:7560   */\n      0x00\n        /* \"#utility.yul\":7594:7596   */\n      0x20\n        /* \"#utility.yul\":7583:7592   */\n      dup3\n        /* \"#utility.yul\":7579:7597   */\n      add\n        /* \"#utility.yul\":7571:7597   */\n      swap1\n      pop\n        /* \"#utility.yul\":7643:7652   */\n      dup2\n        /* \"#utility.yul\":7637:7641   */\n      dup2\n        /* \"#utility.yul\":7633:7653   */\n      sub\n        /* \"#utility.yul\":7629:7630   */\n      0x00\n        /* \"#utility.yul\":7618:7627   */\n      dup4\n        /* \"#utility.yul\":7614:7631   */\n      add\n        /* \"#utility.yul\":7607:7654   */\n      mstore\n        /* \"#utility.yul\":7671:7802   */\n      tag_161\n        /* \"#utility.yul\":7797:7801   */\n      dup2\n        /* \"#utility.yul\":7671:7802   */\n      tag_69\n      jump\t// in\n    tag_161:\n        /* \"#utility.yul\":7663:7802   */\n      swap1\n      pop\n        /* \"#utility.yul\":7390:7809   */\n      swap2\n      swap1\n      pop\n      jump\t// out\n        /* \"#utility.yul\":7815:7956   */\n    tag_70:\n        /* \"#utility.yul\":7864:7868   */\n      0x00\n        /* \"#utility.yul\":7887:7890   */\n      dup2\n        /* \"#utility.yul\":7879:7890   */\n      swap1\n      pop\n        /* \"#utility.yul\":7910:7913   */\n      dup2\n        /* \"#utility.yul\":7907:7908   */\n      0x00\n        /* \"#utility.yul\":7900:7914   */\n      mstore\n        /* \"#utility.yul\":7944:7948   */\n      0x20\n        /* \"#utility.yul\":7941:7942   */\n      0x00\n        /* \"#utility.yul\":7931:7949   */\n      keccak256\n        /* \"#utility.yul\":7923:7949   */\n      swap1\n      pop\n        /* \"#utility.yul\":7815:7956   */\n      swap2\n      swap1\n      pop\n      jump\t// out\n        /* \"#utility.yul\":7962:8055   */\n    tag_71:\n        /* \"#utility.yul\":7999:8005   */\n      0x00\n        /* \"#utility.yul\":8046:8048   */\n      0x20\n        /* \"#utility.yul\":8041:8043   */\n      0x1f\n        /* \"#utility.yul\":8034:8039   */\n      dup4\n        /* \"#utility.yul\":8030:8044   */\n      add\n        /* \"#utility.yul\":8026:8049   */\n      div\n        /* \"#utility.yul\":8016:8049   */\n      swap1\n      pop\n        /* \"#utility.yul\":7962:8055   */\n      swap2\n      swap1\n      pop\n      jump\t// out\n        /* \"#utility.yul\":8061:8168   */\n    tag_72:\n        /* \"#utility.yul\":8105:8113   */\n      0x00\n        /* \"#utility.yul\":8155:8160   */\n      dup3\n        /* \"#utility.yul\":8149:8153   */\n      dup3\n        /* \"#utility.yul\":8145:8161   */\n      shl\n        /* \"#utility.yul\":8124:8161   */\n      swap1\n      pop\n        /* \"#utility.yul\":8061:8168   */\n      swap3\n      swap2\n      pop\n      pop\n      jump\t// out\n        /* \"#utility.yul\":8174:8567   */\n    tag_73:\n        /* \"#utility.yul\":8243:8249   */\n      0x00\n        /* \"#utility.yul\":8293:8294   */\n      0x08\n        /* \"#utility.yul\":8281:8291   */\n      dup4\n        /* \"#utility.yul\":8277:8295   */\n      mul\n        /* \"#utility.yul\":8316:8413   */\n      tag_166\n        /* \"#utility.yul\":8346:8412   */\n      0xffffffffffffffffffffffffffffffffffffffffffffffffffffffffffffffff\n        /* \"#utility.yul\":8335:8344   */\n      dup3\n        /* \"#utility.yul\":8316:8413   */\n      tag_72\n      jump\t// in\n    tag_166:\n        /* \"#utility.yul\":8434:8473   */\n      tag_167\n        /* \"#utility.yul\":8464:8472   */\n      dup7\n        /* \"#utility.yul\":8453:8462   */\n      dup4\n        /* \"#utility.yul\":8434:8473   */\n      tag_72\n      jump\t// in\n    tag_167:\n        /* \"#utility.yul\":8422:8473   */\n      swap6\n      pop\n        /* \"#utility.yul\":8506:8510   */\n      dup1\n        /* \"#utility.yul\":8502:8511   */\n      not\n        /* \"#utility.yul\":8495:8500   */\n      dup5\n        /* \"#utility.yul\":8491:8512   */\n      and\n        /* \"#utility.yul\":8482:8512   */\n      swap4\n      pop\n        /* \"#utility.yul\":8555:8559   */\n      dup1\n        /* \"#utility.yul\":8545:8553   */\n      dup7\n        /* \"#utility.yul\":8541:8560   */\n      and\n        /* \"#utility.yul\":8534:8539   */\n      dup5\n        /* \"#utility.yul\":8531:8561   */\n      or\n        /* \"#utility.yul\":8521:8561   */\n      swap3\n      pop\n        /* \"#utility.yul\":8250:8567   */\n      pop\n      pop\n        /* \"#utility.yul\":8174:8567   */\n      swap4\n      swap3\n      pop\n      pop\n      pop\n      jump\t// out\n        /* \"#utility.yul\":8573:8650   */\n    tag_74:\n        /* \"#utility.yul\":8610:8617   */\n      0x00\n        /* \"#utility.yul\":8639:8644   */\n      dup2\n        /* \"#utility.yul\":8628:8644   */\n      swap1\n      pop\n        /* \"#utility.yul\":8573:8650   */\n      swap2\n      swap1\n      pop\n      jump\t// out\n        /* \"#utility.yul\":8656:8716   */\n    tag_75:\n        /* \"#utility.yul\":8684:8687   */\n      0x00\n        /* \"#utility.yul\":8705:8710   */\n      dup2\n        /* \"#utility.yul\":8698:8710   */\n      swap1\n      pop\n        /* \"#utility.yul\":8656:8716   */\n      swap2\n      swap1\n      pop\n      jump\t// out\n        /* \"#utility.yul\":8722:8864   */\n    tag_76:\n        /* \"#utility.yul\":8772:8781   */\n      0x00\n        /* \"#utility.yul\":8805:8858   */\n      tag_171\n        /* \"#utility.yul\":8823:8857   */\n      tag_172\n        /* \"#utility.yul\":8832:8856   */\n      tag_173\n        /* \"#utility.yul\":8850:8855   */\n      dup5\n        /* \"#utility.yul\":8832:8856   */\n      tag_74\n      jump\t// in\n    tag_173:\n        /* \"#utility.yul\":8823:8857   */\n      tag_75\n      jump\t// in\n    tag_172:\n        /* \"#utility.yul\":8805:8858   */\n      tag_74\n      jump\t// in\n    tag_171:\n        /* \"#utility.yul\":8792:8858   */\n      swap1\n      pop\n        /* \"#utility.yul\":8722:8864   */\n      swap2\n      swap1\n      pop\n      jump\t// out\n        /* \"#utility.yul\":8870:8945   */\n    tag_77:\n        /* \"#utility.yul\":8913:8916   */\n      0x00\n        /* \"#utility.yul\":8934:8939   */\n      dup2\n        /* \"#utility.yul\":8927:8939   */\n      swap1\n      pop\n        /* \"#utility.yul\":8870:8945   */\n      swap2\n      swap1\n      pop\n      jump\t// out\n        /* \"#utility.yul\":8951:9220   */\n    tag_78:\n        /* \"#utility.yul\":9061:9100   */\n      tag_176\n        /* \"#utility.yul\":9092:9099   */\n      dup4\n        /* \"#utility.yul\":9061:9100   */\n      tag_76\n      jump\t// in\n    tag_176:\n        /* \"#utility.yul\":9122:9213   */\n      tag_177\n        /* \"#utility.yul\":9171:9212   */\n      tag_178\n        /* \"#utility.yul\":9195:9211   */\n      dup3\n        /* \"#utility.yul\":9171:9212   */\n      tag_77\n      jump\t// in\n    tag_178:\n        /* \"#utility.yul\":9163:9169   */\n      dup5\n        /* \"#utility.yul\":9156:9160   */\n      dup5\n        /* \"#utility.yul\":9150:9161   */\n      sload\n        /* \"#utility.yul\":9122:9213   */\n      tag_73\n      jump\t// in\n    tag_177:\n        /* \"#utility.yul\":9116:9120   */\n      dup3\n        /* \"#utility.yul\":9109:9214   */\n      sstore\n        /* \"#utility.yul\":9027:9220   */\n      pop\n        /* \"#utility.yul\":8951:9220   */\n      pop\n      pop\n      pop\n      jump\t// out\n        /* \"#utility.yul\":9226:9299   */\n    tag_79:\n        /* \"#utility.yul\":9271:9274   */\n      0x00\n        /* \"#utility.yul\":9226:9299   */\n      swap1\n      jump\t// out\n        /* \"#utility.yul\":9305:9494   */\n    tag_80:\n        /* \"#utility.yul\":9382:9414   */\n      tag_181\n      tag_79\n      jump\t// in\n    tag_181:\n        /* \"#utility.yul\":9423:9488   */\n      tag_182\n        /* \"#utility.yul\":9481:9487   */\n      dup2\n        /* \"#utility.yul\":9473:9479   */\n      dup5\n        /* \"#utility.yul\":9467:9471   */\n      dup5\n        /* \"#utility.yul\":9423:9488   */\n      tag_78\n      jump\t// in\n    tag_182:\n        /* \"#utility.yul\":9358:9494   */\n      pop\n        /* \"#utility.yul\":9305:9494   */\n      pop\n      pop\n      jump\t// out\n        /* \"#utility.yul\":9500:9686   */\n    tag_81:\n        /* \"#utility.yul\":9560:9680   */\n    tag_184:\n        /* \"#utility.yul\":9577:9580   */\n      dup2\n        /* \"#utility.yul\":9570:9575   */\n      dup2\n        /* \"#utility.yul\":9567:9581   */\n      lt\n        /* \"#utility.yul\":9560:9680   */\n      iszero\n      tag_186\n      jumpi\n        /* \"#utility.yul\":9631:9670   */\n      tag_187\n        /* \"#utility.yul\":9668:9669   */\n      0x00\n        /* \"#utility.yul\":9661:9666   */\n      dup3\n        /* \"#utility.yul\":9631:9670   */\n      tag_80\n      jump\t// in\n    tag_187:\n        /* \"#utility.yul\":9604:9605   */\n      0x01\n        /* \"#utility.yul\":9597:9602   */\n      dup2\n        /* \"#utility.yul\":9593:9606   */\n      add\n        /* \"#utility.yul\":9584:9606   */\n      swap1\n      pop\n        /* \"#utility.yul\":9560:9680   */\n      jump(tag_184)\n    tag_186:\n        /* \"#utility.yul\":9500:9686   */\n      pop\n      pop\n      jump\t// out\n        /* \"#utility.yul\":9692:10235   */\n    tag_82:\n        /* \"#utility.yul\":9793:9795   */\n      0x1f\n        /* \"#utility.yul\":9788:9791   */\n      dup3\n        /* \"#utility.yul\":9785:9796   */\n      gt\n        /* \"#utility.yul\":9782:10228   */\n      iszero\n      tag_189\n      jumpi\n        /* \"#utility.yul\":9827:9865   */\n      tag_190\n        /* \"#utility.yul\":9859:9864   */\n      dup2\n        /* \"#utility.yul\":9827:9865   */\n      tag_70\n      jump\t// in\n    tag_190:\n        /* \"#utility.yul\":9911:9940   */\n      tag_191\n        /* \"#utility.yul\":9929:9939   */\n      dup5\n        /* \"#utility.yul\":9911:9940   */\n      tag_71\n      jump\t// in\n    tag_191:\n        /* \"#utility.yul\":9901:9909   */\n      dup2\n        /* \"#utility.yul\":9897:9941   */\n      add\n        /* \"#utility.yul\":10094:10096   */\n      0x20\n        /* \"#utility.yul\":10082:10092   */\n      dup6\n        /* \"#utility.yul\":10079:10097   */\n      lt\n        /* \"#utility.yul\":10076:10125   */\n      iszero\n      tag_192\n      jumpi\n        /* \"#utility.yul\":10115:10123   */\n      dup2\n        /* \"#utility.yul\":10100:10123   */\n      swap1\n      pop\n        /* \"#utility.yul\":10076:10125   */\n    tag_192:\n        /* \"#utility.yul\":10138:10218   */\n      tag_193\n        /* \"#utility.yul\":10194:10216   */\n      tag_194\n        /* \"#utility.yul\":10212:10215   */\n      dup6\n        /* \"#utility.yul\":10194:10216   */\n      tag_71\n      jump\t// in\n    tag_194:\n        /* \"#utility.yul\":10184:10192   */\n      dup4\n        /* \"#utility.yul\":10180:10217   */\n      add\n        /* \"#utility.yul\":10167:10178   */\n      dup3\n        /* \"#utility.yul\":10138:10218   */\n      tag_81\n      jump\t// in\n    tag_193:\n        /* \"#utility.yul\":9797:10228   */\n      pop\n      pop\n        /* \"#utility.yul\":9782:10228   */\n    tag_189:\n        /* \"#utility.yul\":9692:10235   */\n      pop\n      pop\n      pop\n      jump\t// out\n        /* \"#utility.yul\":10241:10358   */\n    tag_83:\n        /* \"#utility.yul\":10295:10303   */\n      0x00\n        /* \"#utility.yul\":10345:10350   */\n      dup3\n        /* \"#utility.yul\":10339:10343   */\n      dup3\n        /* \"#utility.yul\":10335:10351   */\n      shr\n        /* \"#utility.yul\":10314:10351   */\n      swap1\n      pop\n        /* \"#utility.yul\":10241:10358   */\n      swap3\n      swap2\n      pop\n      pop\n      jump\t// out\n        /* \"#utility.yul\":10364:10533   */\n    tag_84:\n        /* \"#utility.yul\":10408:10414   */\n      0x00\n        /* \"#utility.yul\":10441:10492   */\n      tag_197\n        /* \"#utility.yul\":10489:10490   */\n      0x00\n        /* \"#utility.yul\":10485:10491   */\n      not\n        /* \"#utility.yul\":10477:10482   */\n      dup5\n        /* \"#utility.yul\":10474:10475   */\n      0x08\n        /* \"#utility.yul\":10470:10483   */\n      mul\n        /* \"#utility.yul\":10441:10492   */\n      tag_83\n      jump\t// in\n    tag_197:\n        /* \"#utility.yul\":10437:10493   */\n      not\n        /* \"#utility.yul\":10522:10526   */\n      dup1\n        /* \"#utility.yul\":10516:10520   */\n      dup4\n        /* \"#utility.yul\":10512:10527   */\n      and\n        /* \"#utility.yul\":10502:10527   */\n      swap2\n      pop\n        /* \"#utility.yul\":10415:10533   */\n      pop\n        /* \"#utility.yul\":10364:10533   */\n      swap3\n      swap2\n      pop\n      pop\n      jump\t// out\n        /* \"#utility.yul\":10538:10833   */\n    tag_85:\n        /* \"#utility.yul\":10614:10618   */\n      0x00\n        /* \"#utility.yul\":10760:10789   */\n      tag_199\n        /* \"#utility.yul\":10785:10788   */\n      dup4\n        /* \"#utility.yul\":10779:10783   */\n      dup4\n        /* \"#utility.yul\":10760:10789   */\n      tag_84\n      jump\t// in\n    tag_199:\n        /* \"#utility.yul\":10752:10789   */\n      swap2\n      pop\n        /* \"#utility.yul\":10822:10825   */\n      dup3\n        /* \"#utility.yul\":10819:10820   */\n      0x02\n        /* \"#utility.yul\":10815:10826   */\n      mul\n        /* \"#utility.yul\":10809:10813   */\n      dup3\n        /* \"#utility.yul\":10806:10827   */\n      or\n        /* \"#utility.yul\":10798:10827   */\n      swap1\n      pop\n        /* \"#utility.yul\":10538:10833   */\n      swap3\n      swap2\n      pop\n      pop\n      jump\t// out\n        /* \"#utility.yul\":10838:12233   */\n    tag_39:\n        /* \"#utility.yul\":10955:10992   */\n      tag_201\n        /* \"#utility.yul\":10988:10991   */\n      dup3\n        /* \"#utility.yul\":10955:10992   */\n      tag_43\n      jump\t// in\n    tag_201:\n        /* \"#utility.yul\":11057:11075   */\n      0xffffffffffffffff\n        /* \"#utility.yul\":11049:11055   */\n      dup2\n        /* \"#utility.yul\":11046:11076   */\n      gt\n        /* \"#utility.yul\":11043:11099   */\n      iszero\n      tag_202\n      jumpi\n        /* \"#utility.yul\":11079:11097   */\n      tag_203\n      tag_56\n      jump\t// in\n    tag_203:\n        /* \"#utility.yul\":11043:11099   */\n    tag_202:\n        /* \"#utility.yul\":11123:11161   */\n      tag_204\n        /* \"#utility.yul\":11155:11159   */\n      dup3\n        /* \"#utility.yul\":11149:11160   */\n      sload\n        /* \"#utility.yul\":11123:11161   */\n      tag_25\n      jump\t// in\n    tag_204:\n        /* \"#utility.yul\":11208:11275   */\n      tag_205\n        /* \"#utility.yul\":11268:11274   */\n      dup3\n        /* \"#utility.yul\":11260:11266   */\n      dup3\n        /* \"#utility.yul\":11254:11258   */\n      dup6\n        /* \"#utility.yul\":11208:11275   */\n      tag_82\n      jump\t// in\n    tag_205:\n        /* \"#utility.yul\":11302:11303   */\n      0x00\n        /* \"#utility.yul\":11326:11330   */\n      0x20\n        /* \"#utility.yul\":11313:11330   */\n      swap1\n      pop\n        /* \"#utility.yul\":11358:11360   */\n      0x1f\n        /* \"#utility.yul\":11350:11356   */\n      dup4\n        /* \"#utility.yul\":11347:11361   */\n      gt\n        /* \"#utility.yul\":11375:11376   */\n      0x01\n        /* \"#utility.yul\":11370:11988   */\n      dup2\n      eq\n      tag_207\n      jumpi\n        /* \"#utility.yul\":12032:12033   */\n      0x00\n        /* \"#utility.yul\":12049:12055   */\n      dup5\n        /* \"#utility.yul\":12046:12123   */\n      iszero\n      tag_208\n      jumpi\n        /* \"#utility.yul\":12098:12107   */\n      dup3\n        /* \"#utility.yul\":12093:12096   */\n      dup8\n        /* \"#utility.yul\":12089:12108   */\n      add\n        /* \"#utility.yul\":12083:12109   */\n      mload\n        /* \"#utility.yul\":12074:12109   */\n      swap1\n      pop\n        /* \"#utility.yul\":12046:12123   */\n    tag_208:\n        /* \"#utility.yul\":12149:12216   */\n      tag_209\n        /* \"#utility.yul\":12209:12215   */\n      dup6\n        /* \"#utility.yul\":12202:12207   */\n      dup3\n        /* \"#utility.yul\":12149:12216   */\n      tag_85\n      jump\t// in\n    tag_209:\n        /* \"#utility.yul\":12143:12147   */\n      dup7\n        /* \"#utility.yul\":12136:12217   */\n      sstore\n        /* \"#utility.yul\":12005:12227   */\n      pop\n        /* \"#utility.yul\":11340:12227   */\n      jump(tag_206)\n        /* \"#utility.yul\":11370:11988   */\n    tag_207:\n        /* \"#utility.yul\":11422:11426   */\n      0x1f\n        /* \"#utility.yul\":11418:11427   */\n      not\n        /* \"#utility.yul\":11410:11416   */\n      dup5\n        /* \"#utility.yul\":11406:11428   */\n      and\n        /* \"#utility.yul\":11456:11493   */\n      tag_210\n        /* \"#utility.yul\":11488:11492   */\n      dup7\n        /* \"#utility.yul\":11456:11493   */\n      tag_70\n      jump\t// in\n    tag_210:\n        /* \"#utility.yul\":11515:11516   */\n      0x00\n        /* \"#utility.yul\":11529:11737   */\n    tag_211:\n        /* \"#utility.yul\":11543:11550   */\n      dup3\n        /* \"#utility.yul\":11540:11541   */\n      dup2\n        /* \"#utility.yul\":11537:11551   */\n      lt\n        /* \"#utility.yul\":11529:11737   */\n      iszero\n      tag_213\n      jumpi\n        /* \"#utility.yul\":11622:11631   */\n      dup5\n        /* \"#utility.yul\":11617:11620   */\n      dup10\n        /* \"#utility.yul\":11613:11632   */\n      add\n        /* \"#utility.yul\":11607:11633   */\n      mload\n        /* \"#utility.yul\":11599:11605   */\n      dup3\n        /* \"#utility.yul\":11592:11634   */\n      sstore\n        /* \"#utility.yul\":11673:11674   */\n      0x01\n        /* \"#utility.yul\":11665:11671   */\n      dup3\n        /* \"#utility.yul\":11661:11675   */\n      add\n        /* \"#utility.yul\":11651:11675   */\n      swap2\n      pop\n        /* \"#utility.yul\":11720:11722   */\n      0x20\n        /* \"#utility.yul\":11709:11718   */\n      dup6\n        /* \"#utility.yul\":11705:11723   */\n      add\n        /* \"#utility.yul\":11692:11723   */\n      swap5\n      pop\n        /* \"#utility.yul\":11566:11570   */\n      0x20\n        /* \"#utility.yul\":11563:11564   */\n      dup2\n        /* \"#utility.yul\":11559:11571   */\n      add\n        /* \"#utility.yul\":11554:11571   */\n      swap1\n      pop\n        /* \"#utility.yul\":11529:11737   */\n      jump(tag_211)\n    tag_213:\n        /* \"#utility.yul\":11765:11771   */\n      dup7\n        /* \"#utility.yul\":11756:11763   */\n      dup4\n        /* \"#utility.yul\":11753:11772   */\n      lt\n        /* \"#utility.yul\":11750:11929   */\n      iszero\n      tag_214\n      jumpi\n        /* \"#utility.yul\":11823:11832   */\n      dup5\n        /* \"#utility.yul\":11818:11821   */\n      dup10\n        /* \"#utility.yul\":11814:11833   */\n      add\n        /* \"#utility.yul\":11808:11834   */\n      mload\n        /* \"#utility.yul\":11866:11914   */\n      tag_215\n        /* \"#utility.yul\":11908:11912   */\n      0x1f\n        /* \"#utility.yul\":11900:11906   */\n      dup10\n        /* \"#utility.yul\":11896:11913   */\n      and\n        /* \"#utility.yul\":11885:11894   */\n      dup3\n        /* \"#utility.yul\":11866:11914   */\n      tag_84\n      jump\t// in\n    tag_215:\n        /* \"#utility.yul\":11858:11864   */\n      dup4\n        /* \"#utility.yul\":11851:11915   */\n      sstore\n        /* \"#utility.yul\":11773:11929   */\n      pop\n        /* \"#utility.yul\":11750:11929   */\n    tag_214:\n        /* \"#utility.yul\":11975:11976   */\n      0x01\n        /* \"#utility.yul\":11971:11972   */\n      0x02\n        /* \"#utility.yul\":11963:11969   */\n      dup9\n        /* \"#utility.yul\":11959:11973   */\n      mul\n        /* \"#utility.yul\":11955:11977   */\n      add\n        /* \"#utility.yul\":11949:11953   */\n      dup9\n        /* \"#utility.yul\":11942:11978   */\n      sstore\n        /* \"#utility.yul\":11377:11988   */\n      pop\n      pop\n      pop\n        /* \"#utility.yul\":11340:12227   */\n    tag_206:\n      pop\n        /* \"#utility.yul\":10930:12233   */\n      pop\n      pop\n      pop\n        /* \"#utility.yul\":10838:12233   */\n      pop\n      pop\n      jump\t// out\n        /* \"#utility.yul\":12239:12419   */\n    tag_86:\n        /* \"#utility.yul\":12287:12364   */\n      0x4e487b7100000000000000000000000000000000000000000000000000000000\n        /* \"#utility.yul\":12284:12285   */\n      0x00\n        /* \"#utility.yul\":12277:12365   */\n      mstore\n        /* \"#utility.yul\":12384:12388   */\n      0x11\n        /* \"#utility.yul\":12381:12382   */\n      0x04\n        /* \"#utility.yul\":12374:12389   */\n      mstore\n        /* \"#utility.yul\":12408:12412   */\n      0x24\n        /* \"#utility.yul\":12405:12406   */\n      0x00\n        /* \"#utility.yul\":12398:12413   */\n      revert\n        /* \"#utility.yul\":12425:12600   */\n    tag_41:\n        /* \"#utility.yul\":12463:12466   */\n      0x00\n        /* \"#utility.yul\":12486:12509   */\n      tag_218\n        /* \"#utility.yul\":12503:12508   */\n      dup3\n        /* \"#utility.yul\":12486:12509   */\n      tag_63\n      jump\t// in\n    tag_218:\n        /* \"#utility.yul\":12477:12509   */\n      swap2\n      pop\n        /* \"#utility.yul\":12531:12541   */\n      0xffffffff\n        /* \"#utility.yul\":12524:12529   */\n      dup3\n        /* \"#utility.yul\":12521:12542   */\n      sub\n        /* \"#utility.yul\":12518:12565   */\n      tag_219\n      jumpi\n        /* \"#utility.yul\":12545:12563   */\n      tag_220\n      tag_86\n      jump\t// in\n    tag_220:\n        /* \"#utility.yul\":12518:12565   */\n    tag_219:\n        /* \"#utility.yul\":12592:12593   */\n      0x01\n        /* \"#utility.yul\":12585:12590   */\n      dup3\n        /* \"#utility.yul\":12581:12594   */\n      add\n        /* \"#utility.yul\":12574:12594   */\n      swap1\n      pop\n        /* \"#utility.yul\":12425:12600   */\n      swap2\n      swap1\n      pop\n      jump\t// out\n\n    auxdata: 0xa2646970667358221220a590ebfa900cf4505d59d5d34a6de4616a585a4131ade38c11e0ffe7822f89fb64736f6c634300081a0033\n}\n",
				"bytecode": {
					"linkReferences": {},
					"object": "608060405234801561000f575f80fd5b50604051610ae6380380610ae6833981810160405281019061003191906100d5565b80600160146101000a81548163ffffffff021916908363ffffffff1602179055503360015f6101000a81548173ffffffffffffffffffffffffffffffffffffffff021916908373ffffffffffffffffffffffffffffffffffffffff16021790555050610100565b5f80fd5b5f63ffffffff82169050919050565b6100b48161009c565b81146100be575f80fd5b50565b5f815190506100cf816100ab565b92915050565b5f602082840312156100ea576100e9610098565b5b5f6100f7848285016100c1565b91505092915050565b6109d98061010d5f395ff3fe608060405234801561000f575f80fd5b506004361061004a575f3560e01c80635a9b0b891461004e578063893d20e81461006c578063937f6e771461008a578063f840cdb9146100a6575b5f80fd5b6100566100c4565b604051610063919061032a565b60405180910390f35b610074610153565b6040516100819190610389565b60405180910390f35b6100a4600480360381019061009f91906104df565b61017b565b005b6100ae6102a1565b6040516100bb9190610544565b60405180910390f35b60605f80546100d29061058a565b80601f01602080910402602001604051908101604052809291908181526020018280546100fe9061058a565b80156101495780601f1061012057610100808354040283529160200191610149565b820191905f5260205f20905b81548152906001019060200180831161012c57829003601f168201915b5050505050905090565b5f60015f9054906101000a900473ffffffffffffffffffffffffffffffffffffffff16905090565b60015f9054906101000a900473ffffffffffffffffffffffffffffffffffffffff1673ffffffffffffffffffffffffffffffffffffffff163373ffffffffffffffffffffffffffffffffffffffff160361020a576040517f08c379a00000000000000000000000000000000000000000000000000000000081526004016102019061062a565b60405180910390fd5b600481511161024e576040517f08c379a0000000000000000000000000000000000000000000000000000000008152600401610245906106b8565b60405180910390fd5b805f908161025c919061087c565b506001601481819054906101000a900463ffffffff168092919061027f90610978565b91906101000a81548163ffffffff021916908363ffffffff1602179055505050565b5f600160149054906101000a900463ffffffff16905090565b5f81519050919050565b5f82825260208201905092915050565b8281835e5f83830152505050565b5f601f19601f8301169050919050565b5f6102fc826102ba565b61030681856102c4565b93506103168185602086016102d4565b61031f816102e2565b840191505092915050565b5f6020820190508181035f83015261034281846102f2565b905092915050565b5f73ffffffffffffffffffffffffffffffffffffffff82169050919050565b5f6103738261034a565b9050919050565b61038381610369565b82525050565b5f60208201905061039c5f83018461037a565b92915050565b5f604051905090565b5f80fd5b5f80fd5b5f80fd5b5f80fd5b7f4e487b71000000000000000000000000000000000000000000000000000000005f52604160045260245ffd5b6103f1826102e2565b810181811067ffffffffffffffff821117156104105761040f6103bb565b5b80604052505050565b5f6104226103a2565b905061042e82826103e8565b919050565b5f67ffffffffffffffff82111561044d5761044c6103bb565b5b610456826102e2565b9050602081019050919050565b828183375f83830152505050565b5f61048361047e84610433565b610419565b90508281526020810184848401111561049f5761049e6103b7565b5b6104aa848285610463565b509392505050565b5f82601f8301126104c6576104c56103b3565b5b81356104d6848260208601610471565b91505092915050565b5f602082840312156104f4576104f36103ab565b5b5f82013567ffffffffffffffff811115610511576105106103af565b5b61051d848285016104b2565b91505092915050565b5f63ffffffff82169050919050565b61053e81610526565b82525050565b5f6020820190506105575f830184610535565b92915050565b7f4e487b71000000000000000000000000000000000000000000000000000000005f52602260045260245ffd5b5f60028204905060018216806105a157607f821691505b6020821081036105b4576105b361055d565b5b50919050565b7f556e6963616d656e746520656c206f776e65722070756564652063616d6269615f8201527f7220656c2076616c6f7200000000000000000000000000000000000000000000602082015250565b5f610614602a836102c4565b915061061f826105ba565b604082019050919050565b5f6020820190508181035f83015261064181610608565b9050919050565b7f4c61207661726961626c652064617461206465626520736572206d61796f72205f8201527f6f20696775616c20612035206361726163746572657300000000000000000000602082015250565b5f6106a26036836102c4565b91506106ad82610648565b604082019050919050565b5f6020820190508181035f8301526106cf81610696565b9050919050565b5f819050815f5260205f209050919050565b5f6020601f8301049050919050565b5f82821b905092915050565b5f600883026107327fffffffffffffffffffffffffffffffffffffffffffffffffffffffffffffffff826106f7565b61073c86836106f7565b95508019841693508086168417925050509392505050565b5f819050919050565b5f819050919050565b5f61078061077b61077684610754565b61075d565b610754565b9050919050565b5f819050919050565b61079983610766565b6107ad6107a582610787565b848454610703565b825550505050565b5f90565b6107c16107b5565b6107cc818484610790565b505050565b5b818110156107ef576107e45f826107b9565b6001810190506107d2565b5050565b601f82111561083457610805816106d6565b61080e846106e8565b8101602085101561081d578190505b610831610829856106e8565b8301826107d1565b50505b505050565b5f82821c905092915050565b5f6108545f1984600802610839565b1980831691505092915050565b5f61086c8383610845565b9150826002028217905092915050565b610885826102ba565b67ffffffffffffffff81111561089e5761089d6103bb565b5b6108a8825461058a565b6108b38282856107f3565b5f60209050601f8311600181146108e4575f84156108d2578287015190505b6108dc8582610861565b865550610943565b601f1984166108f2866106d6565b5f5b82811015610919578489015182556001820191506020850194506020810190506108f4565b868310156109365784890151610932601f891682610845565b8355505b6001600288020188555050505b505050505050565b7f4e487b71000000000000000000000000000000000000000000000000000000005f52601160045260245ffd5b5f61098282610526565b915063ffffffff82036109985761099761094b565b5b60018201905091905056fea2646970667358221220a590ebfa900cf4505d59d5d34a6de4616a585a4131ade38c11e0ffe7822f89fb64736f6c634300081a0033",
					"opcodes": "PUSH1 0x80 PUSH1 0x40 MSTORE CALLVALUE DUP1 ISZERO PUSH2 0xF JUMPI PUSH0 DUP1 REVERT JUMPDEST POP PUSH1 0x40 MLOAD PUSH2 0xAE6 CODESIZE SUB DUP1 PUSH2 0xAE6 DUP4 CODECOPY DUP2 DUP2 ADD PUSH1 0x40 MSTORE DUP2 ADD SWAP1 PUSH2 0x31 SWAP2 SWAP1 PUSH2 0xD5 JUMP JUMPDEST DUP1 PUSH1 0x1 PUSH1 0x14 PUSH2 0x100 EXP DUP2 SLOAD DUP2 PUSH4 0xFFFFFFFF MUL NOT AND SWAP1 DUP4 PUSH4 0xFFFFFFFF AND MUL OR SWAP1 SSTORE POP CALLER PUSH1 0x1 PUSH0 PUSH2 0x100 EXP DUP2 SLOAD DUP2 PUSH20 0xFFFFFFFFFFFFFFFFFFFFFFFFFFFFFFFFFFFFFFFF MUL NOT AND SWAP1 DUP4 PUSH20 0xFFFFFFFFFFFFFFFFFFFFFFFFFFFFFFFFFFFFFFFF AND MUL OR SWAP1 SSTORE POP POP PUSH2 0x100 JUMP JUMPDEST PUSH0 DUP1 REVERT JUMPDEST PUSH0 PUSH4 0xFFFFFFFF DUP3 AND SWAP1 POP SWAP2 SWAP1 POP JUMP JUMPDEST PUSH2 0xB4 DUP2 PUSH2 0x9C JUMP JUMPDEST DUP2 EQ PUSH2 0xBE JUMPI PUSH0 DUP1 REVERT JUMPDEST POP JUMP JUMPDEST PUSH0 DUP2 MLOAD SWAP1 POP PUSH2 0xCF DUP2 PUSH2 0xAB JUMP JUMPDEST SWAP3 SWAP2 POP POP JUMP JUMPDEST PUSH0 PUSH1 0x20 DUP3 DUP5 SUB SLT ISZERO PUSH2 0xEA JUMPI PUSH2 0xE9 PUSH2 0x98 JUMP JUMPDEST JUMPDEST PUSH0 PUSH2 0xF7 DUP5 DUP3 DUP6 ADD PUSH2 0xC1 JUMP JUMPDEST SWAP2 POP POP SWAP3 SWAP2 POP POP JUMP JUMPDEST PUSH2 0x9D9 DUP1 PUSH2 0x10D PUSH0 CODECOPY PUSH0 RETURN INVALID PUSH1 0x80 PUSH1 0x40 MSTORE CALLVALUE DUP1 ISZERO PUSH2 0xF JUMPI PUSH0 DUP1 REVERT JUMPDEST POP PUSH1 0x4 CALLDATASIZE LT PUSH2 0x4A JUMPI PUSH0 CALLDATALOAD PUSH1 0xE0 SHR DUP1 PUSH4 0x5A9B0B89 EQ PUSH2 0x4E JUMPI DUP1 PUSH4 0x893D20E8 EQ PUSH2 0x6C JUMPI DUP1 PUSH4 0x937F6E77 EQ PUSH2 0x8A JUMPI DUP1 PUSH4 0xF840CDB9 EQ PUSH2 0xA6 JUMPI JUMPDEST PUSH0 DUP1 REVERT JUMPDEST PUSH2 0x56 PUSH2 0xC4 JUMP JUMPDEST PUSH1 0x40 MLOAD PUSH2 0x63 SWAP2 SWAP1 PUSH2 0x32A JUMP JUMPDEST PUSH1 0x40 MLOAD DUP1 SWAP2 SUB SWAP1 RETURN JUMPDEST PUSH2 0x74 PUSH2 0x153 JUMP JUMPDEST PUSH1 0x40 MLOAD PUSH2 0x81 SWAP2 SWAP1 PUSH2 0x389 JUMP JUMPDEST PUSH1 0x40 MLOAD DUP1 SWAP2 SUB SWAP1 RETURN JUMPDEST PUSH2 0xA4 PUSH1 0x4 DUP1 CALLDATASIZE SUB DUP2 ADD SWAP1 PUSH2 0x9F SWAP2 SWAP1 PUSH2 0x4DF JUMP JUMPDEST PUSH2 0x17B JUMP JUMPDEST STOP JUMPDEST PUSH2 0xAE PUSH2 0x2A1 JUMP JUMPDEST PUSH1 0x40 MLOAD PUSH2 0xBB SWAP2 SWAP1 PUSH2 0x544 JUMP JUMPDEST PUSH1 0x40 MLOAD DUP1 SWAP2 SUB SWAP1 RETURN JUMPDEST PUSH1 0x60 PUSH0 DUP1 SLOAD PUSH2 0xD2 SWAP1 PUSH2 0x58A JUMP JUMPDEST DUP1 PUSH1 0x1F ADD PUSH1 0x20 DUP1 SWAP2 DIV MUL PUSH1 0x20 ADD PUSH1 0x40 MLOAD SWAP1 DUP2 ADD PUSH1 0x40 MSTORE DUP1 SWAP3 SWAP2 SWAP1 DUP2 DUP2 MSTORE PUSH1 0x20 ADD DUP3 DUP1 SLOAD PUSH2 0xFE SWAP1 PUSH2 0x58A JUMP JUMPDEST DUP1 ISZERO PUSH2 0x149 JUMPI DUP1 PUSH1 0x1F LT PUSH2 0x120 JUMPI PUSH2 0x100 DUP1 DUP4 SLOAD DIV MUL DUP4 MSTORE SWAP2 PUSH1 0x20 ADD SWAP2 PUSH2 0x149 JUMP JUMPDEST DUP3 ADD SWAP2 SWAP1 PUSH0 MSTORE PUSH1 0x20 PUSH0 KECCAK256 SWAP1 JUMPDEST DUP2 SLOAD DUP2 MSTORE SWAP1 PUSH1 0x1 ADD SWAP1 PUSH1 0x20 ADD DUP1 DUP4 GT PUSH2 0x12C JUMPI DUP3 SWAP1 SUB PUSH1 0x1F AND DUP3 ADD SWAP2 JUMPDEST POP POP POP POP POP SWAP1 POP SWAP1 JUMP JUMPDEST PUSH0 PUSH1 0x1 PUSH0 SWAP1 SLOAD SWAP1 PUSH2 0x100 EXP SWAP1 DIV PUSH20 0xFFFFFFFFFFFFFFFFFFFFFFFFFFFFFFFFFFFFFFFF AND SWAP1 POP SWAP1 JUMP JUMPDEST PUSH1 0x1 PUSH0 SWAP1 SLOAD SWAP1 PUSH2 0x100 EXP SWAP1 DIV PUSH20 0xFFFFFFFFFFFFFFFFFFFFFFFFFFFFFFFFFFFFFFFF AND PUSH20 0xFFFFFFFFFFFFFFFFFFFFFFFFFFFFFFFFFFFFFFFF AND CALLER PUSH20 0xFFFFFFFFFFFFFFFFFFFFFFFFFFFFFFFFFFFFFFFF AND SUB PUSH2 0x20A JUMPI PUSH1 0x40 MLOAD PUSH32 0x8C379A000000000000000000000000000000000000000000000000000000000 DUP2 MSTORE PUSH1 0x4 ADD PUSH2 0x201 SWAP1 PUSH2 0x62A JUMP JUMPDEST PUSH1 0x40 MLOAD DUP1 SWAP2 SUB SWAP1 REVERT JUMPDEST PUSH1 0x4 DUP2 MLOAD GT PUSH2 0x24E JUMPI PUSH1 0x40 MLOAD PUSH32 0x8C379A000000000000000000000000000000000000000000000000000000000 DUP2 MSTORE PUSH1 0x4 ADD PUSH2 0x245 SWAP1 PUSH2 0x6B8 JUMP JUMPDEST PUSH1 0x40 MLOAD DUP1 SWAP2 SUB SWAP1 REVERT JUMPDEST DUP1 PUSH0 SWAP1 DUP2 PUSH2 0x25C SWAP2 SWAP1 PUSH2 0x87C JUMP JUMPDEST POP PUSH1 0x1 PUSH1 0x14 DUP2 DUP2 SWAP1 SLOAD SWAP1 PUSH2 0x100 EXP SWAP1 DIV PUSH4 0xFFFFFFFF AND DUP1 SWAP3 SWAP2 SWAP1 PUSH2 0x27F SWAP1 PUSH2 0x978 JUMP JUMPDEST SWAP2 SWAP1 PUSH2 0x100 EXP DUP2 SLOAD DUP2 PUSH4 0xFFFFFFFF MUL NOT AND SWAP1 DUP4 PUSH4 0xFFFFFFFF AND MUL OR SWAP1 SSTORE POP POP POP JUMP JUMPDEST PUSH0 PUSH1 0x1 PUSH1 0x14 SWAP1 SLOAD SWAP1 PUSH2 0x100 EXP SWAP1 DIV PUSH4 0xFFFFFFFF AND SWAP1 POP SWAP1 JUMP JUMPDEST PUSH0 DUP2 MLOAD SWAP1 POP SWAP2 SWAP1 POP JUMP JUMPDEST PUSH0 DUP3 DUP3 MSTORE PUSH1 0x20 DUP3 ADD SWAP1 POP SWAP3 SWAP2 POP POP JUMP JUMPDEST DUP3 DUP2 DUP4 MCOPY PUSH0 DUP4 DUP4 ADD MSTORE POP POP POP JUMP JUMPDEST PUSH0 PUSH1 0x1F NOT PUSH1 0x1F DUP4 ADD AND SWAP1 POP SWAP2 SWAP1 POP JUMP JUMPDEST PUSH0 PUSH2 0x2FC DUP3 PUSH2 0x2BA JUMP JUMPDEST PUSH2 0x306 DUP2 DUP6 PUSH2 0x2C4 JUMP JUMPDEST SWAP4 POP PUSH2 0x316 DUP2 DUP6 PUSH1 0x20 DUP7 ADD PUSH2 0x2D4 JUMP JUMPDEST PUSH2 0x31F DUP2 PUSH2 0x2E2 JUMP JUMPDEST DUP5 ADD SWAP2 POP POP SWAP3 SWAP2 POP POP JUMP JUMPDEST PUSH0 PUSH1 0x20 DUP3 ADD SWAP1 POP DUP2 DUP2 SUB PUSH0 DUP4 ADD MSTORE PUSH2 0x342 DUP2 DUP5 PUSH2 0x2F2 JUMP JUMPDEST SWAP1 POP SWAP3 SWAP2 POP POP JUMP JUMPDEST PUSH0 PUSH20 0xFFFFFFFFFFFFFFFFFFFFFFFFFFFFFFFFFFFFFFFF DUP3 AND SWAP1 POP SWAP2 SWAP1 POP JUMP JUMPDEST PUSH0 PUSH2 0x373 DUP3 PUSH2 0x34A JUMP JUMPDEST SWAP1 POP SWAP2 SWAP1 POP JUMP JUMPDEST PUSH2 0x383 DUP2 PUSH2 0x369 JUMP JUMPDEST DUP3 MSTORE POP POP JUMP JUMPDEST PUSH0 PUSH1 0x20 DUP3 ADD SWAP1 POP PUSH2 0x39C PUSH0 DUP4 ADD DUP5 PUSH2 0x37A JUMP JUMPDEST SWAP3 SWAP2 POP POP JUMP JUMPDEST PUSH0 PUSH1 0x40 MLOAD SWAP1 POP SWAP1 JUMP JUMPDEST PUSH0 DUP1 REVERT JUMPDEST PUSH0 DUP1 REVERT JUMPDEST PUSH0 DUP1 REVERT JUMPDEST PUSH0 DUP1 REVERT JUMPDEST PUSH32 0x4E487B7100000000000000000000000000000000000000000000000000000000 PUSH0 MSTORE PUSH1 0x41 PUSH1 0x4 MSTORE PUSH1 0x24 PUSH0 REVERT JUMPDEST PUSH2 0x3F1 DUP3 PUSH2 0x2E2 JUMP JUMPDEST DUP2 ADD DUP2 DUP2 LT PUSH8 0xFFFFFFFFFFFFFFFF DUP3 GT OR ISZERO PUSH2 0x410 JUMPI PUSH2 0x40F PUSH2 0x3BB JUMP JUMPDEST JUMPDEST DUP1 PUSH1 0x40 MSTORE POP POP POP JUMP JUMPDEST PUSH0 PUSH2 0x422 PUSH2 0x3A2 JUMP JUMPDEST SWAP1 POP PUSH2 0x42E DUP3 DUP3 PUSH2 0x3E8 JUMP JUMPDEST SWAP2 SWAP1 POP JUMP JUMPDEST PUSH0 PUSH8 0xFFFFFFFFFFFFFFFF DUP3 GT ISZERO PUSH2 0x44D JUMPI PUSH2 0x44C PUSH2 0x3BB JUMP JUMPDEST JUMPDEST PUSH2 0x456 DUP3 PUSH2 0x2E2 JUMP JUMPDEST SWAP1 POP PUSH1 0x20 DUP2 ADD SWAP1 POP SWAP2 SWAP1 POP JUMP JUMPDEST DUP3 DUP2 DUP4 CALLDATACOPY PUSH0 DUP4 DUP4 ADD MSTORE POP POP POP JUMP JUMPDEST PUSH0 PUSH2 0x483 PUSH2 0x47E DUP5 PUSH2 0x433 JUMP JUMPDEST PUSH2 0x419 JUMP JUMPDEST SWAP1 POP DUP3 DUP2 MSTORE PUSH1 0x20 DUP2 ADD DUP5 DUP5 DUP5 ADD GT ISZERO PUSH2 0x49F JUMPI PUSH2 0x49E PUSH2 0x3B7 JUMP JUMPDEST JUMPDEST PUSH2 0x4AA DUP5 DUP3 DUP6 PUSH2 0x463 JUMP JUMPDEST POP SWAP4 SWAP3 POP POP POP JUMP JUMPDEST PUSH0 DUP3 PUSH1 0x1F DUP4 ADD SLT PUSH2 0x4C6 JUMPI PUSH2 0x4C5 PUSH2 0x3B3 JUMP JUMPDEST JUMPDEST DUP2 CALLDATALOAD PUSH2 0x4D6 DUP5 DUP3 PUSH1 0x20 DUP7 ADD PUSH2 0x471 JUMP JUMPDEST SWAP2 POP POP SWAP3 SWAP2 POP POP JUMP JUMPDEST PUSH0 PUSH1 0x20 DUP3 DUP5 SUB SLT ISZERO PUSH2 0x4F4 JUMPI PUSH2 0x4F3 PUSH2 0x3AB JUMP JUMPDEST JUMPDEST PUSH0 DUP3 ADD CALLDATALOAD PUSH8 0xFFFFFFFFFFFFFFFF DUP2 GT ISZERO PUSH2 0x511 JUMPI PUSH2 0x510 PUSH2 0x3AF JUMP JUMPDEST JUMPDEST PUSH2 0x51D DUP5 DUP3 DUP6 ADD PUSH2 0x4B2 JUMP JUMPDEST SWAP2 POP POP SWAP3 SWAP2 POP POP JUMP JUMPDEST PUSH0 PUSH4 0xFFFFFFFF DUP3 AND SWAP1 POP SWAP2 SWAP1 POP JUMP JUMPDEST PUSH2 0x53E DUP2 PUSH2 0x526 JUMP JUMPDEST DUP3 MSTORE POP POP JUMP JUMPDEST PUSH0 PUSH1 0x20 DUP3 ADD SWAP1 POP PUSH2 0x557 PUSH0 DUP4 ADD DUP5 PUSH2 0x535 JUMP JUMPDEST SWAP3 SWAP2 POP POP JUMP JUMPDEST PUSH32 0x4E487B7100000000000000000000000000000000000000000000000000000000 PUSH0 MSTORE PUSH1 0x22 PUSH1 0x4 MSTORE PUSH1 0x24 PUSH0 REVERT JUMPDEST PUSH0 PUSH1 0x2 DUP3 DIV SWAP1 POP PUSH1 0x1 DUP3 AND DUP1 PUSH2 0x5A1 JUMPI PUSH1 0x7F DUP3 AND SWAP2 POP JUMPDEST PUSH1 0x20 DUP3 LT DUP2 SUB PUSH2 0x5B4 JUMPI PUSH2 0x5B3 PUSH2 0x55D JUMP JUMPDEST JUMPDEST POP SWAP2 SWAP1 POP JUMP JUMPDEST PUSH32 0x556E6963616D656E746520656C206F776E65722070756564652063616D626961 PUSH0 DUP3 ADD MSTORE PUSH32 0x7220656C2076616C6F7200000000000000000000000000000000000000000000 PUSH1 0x20 DUP3 ADD MSTORE POP JUMP JUMPDEST PUSH0 PUSH2 0x614 PUSH1 0x2A DUP4 PUSH2 0x2C4 JUMP JUMPDEST SWAP2 POP PUSH2 0x61F DUP3 PUSH2 0x5BA JUMP JUMPDEST PUSH1 0x40 DUP3 ADD SWAP1 POP SWAP2 SWAP1 POP JUMP JUMPDEST PUSH0 PUSH1 0x20 DUP3 ADD SWAP1 POP DUP2 DUP2 SUB PUSH0 DUP4 ADD MSTORE PUSH2 0x641 DUP2 PUSH2 0x608 JUMP JUMPDEST SWAP1 POP SWAP2 SWAP1 POP JUMP JUMPDEST PUSH32 0x4C61207661726961626C652064617461206465626520736572206D61796F7220 PUSH0 DUP3 ADD MSTORE PUSH32 0x6F20696775616C20612035206361726163746572657300000000000000000000 PUSH1 0x20 DUP3 ADD MSTORE POP JUMP JUMPDEST PUSH0 PUSH2 0x6A2 PUSH1 0x36 DUP4 PUSH2 0x2C4 JUMP JUMPDEST SWAP2 POP PUSH2 0x6AD DUP3 PUSH2 0x648 JUMP JUMPDEST PUSH1 0x40 DUP3 ADD SWAP1 POP SWAP2 SWAP1 POP JUMP JUMPDEST PUSH0 PUSH1 0x20 DUP3 ADD SWAP1 POP DUP2 DUP2 SUB PUSH0 DUP4 ADD MSTORE PUSH2 0x6CF DUP2 PUSH2 0x696 JUMP JUMPDEST SWAP1 POP SWAP2 SWAP1 POP JUMP JUMPDEST PUSH0 DUP2 SWAP1 POP DUP2 PUSH0 MSTORE PUSH1 0x20 PUSH0 KECCAK256 SWAP1 POP SWAP2 SWAP1 POP JUMP JUMPDEST PUSH0 PUSH1 0x20 PUSH1 0x1F DUP4 ADD DIV SWAP1 POP SWAP2 SWAP1 POP JUMP JUMPDEST PUSH0 DUP3 DUP3 SHL SWAP1 POP SWAP3 SWAP2 POP POP JUMP JUMPDEST PUSH0 PUSH1 0x8 DUP4 MUL PUSH2 0x732 PUSH32 0xFFFFFFFFFFFFFFFFFFFFFFFFFFFFFFFFFFFFFFFFFFFFFFFFFFFFFFFFFFFFFFFF DUP3 PUSH2 0x6F7 JUMP JUMPDEST PUSH2 0x73C DUP7 DUP4 PUSH2 0x6F7 JUMP JUMPDEST SWAP6 POP DUP1 NOT DUP5 AND SWAP4 POP DUP1 DUP7 AND DUP5 OR SWAP3 POP POP POP SWAP4 SWAP3 POP POP POP JUMP JUMPDEST PUSH0 DUP2 SWAP1 POP SWAP2 SWAP1 POP JUMP JUMPDEST PUSH0 DUP2 SWAP1 POP SWAP2 SWAP1 POP JUMP JUMPDEST PUSH0 PUSH2 0x780 PUSH2 0x77B PUSH2 0x776 DUP5 PUSH2 0x754 JUMP JUMPDEST PUSH2 0x75D JUMP JUMPDEST PUSH2 0x754 JUMP JUMPDEST SWAP1 POP SWAP2 SWAP1 POP JUMP JUMPDEST PUSH0 DUP2 SWAP1 POP SWAP2 SWAP1 POP JUMP JUMPDEST PUSH2 0x799 DUP4 PUSH2 0x766 JUMP JUMPDEST PUSH2 0x7AD PUSH2 0x7A5 DUP3 PUSH2 0x787 JUMP JUMPDEST DUP5 DUP5 SLOAD PUSH2 0x703 JUMP JUMPDEST DUP3 SSTORE POP POP POP POP JUMP JUMPDEST PUSH0 SWAP1 JUMP JUMPDEST PUSH2 0x7C1 PUSH2 0x7B5 JUMP JUMPDEST PUSH2 0x7CC DUP2 DUP5 DUP5 PUSH2 0x790 JUMP JUMPDEST POP POP POP JUMP JUMPDEST JUMPDEST DUP2 DUP2 LT ISZERO PUSH2 0x7EF JUMPI PUSH2 0x7E4 PUSH0 DUP3 PUSH2 0x7B9 JUMP JUMPDEST PUSH1 0x1 DUP2 ADD SWAP1 POP PUSH2 0x7D2 JUMP JUMPDEST POP POP JUMP JUMPDEST PUSH1 0x1F DUP3 GT ISZERO PUSH2 0x834 JUMPI PUSH2 0x805 DUP2 PUSH2 0x6D6 JUMP JUMPDEST PUSH2 0x80E DUP5 PUSH2 0x6E8 JUMP JUMPDEST DUP2 ADD PUSH1 0x20 DUP6 LT ISZERO PUSH2 0x81D JUMPI DUP2 SWAP1 POP JUMPDEST PUSH2 0x831 PUSH2 0x829 DUP6 PUSH2 0x6E8 JUMP JUMPDEST DUP4 ADD DUP3 PUSH2 0x7D1 JUMP JUMPDEST POP POP JUMPDEST POP POP POP JUMP JUMPDEST PUSH0 DUP3 DUP3 SHR SWAP1 POP SWAP3 SWAP2 POP POP JUMP JUMPDEST PUSH0 PUSH2 0x854 PUSH0 NOT DUP5 PUSH1 0x8 MUL PUSH2 0x839 JUMP JUMPDEST NOT DUP1 DUP4 AND SWAP2 POP POP SWAP3 SWAP2 POP POP JUMP JUMPDEST PUSH0 PUSH2 0x86C DUP4 DUP4 PUSH2 0x845 JUMP JUMPDEST SWAP2 POP DUP3 PUSH1 0x2 MUL DUP3 OR SWAP1 POP SWAP3 SWAP2 POP POP JUMP JUMPDEST PUSH2 0x885 DUP3 PUSH2 0x2BA JUMP JUMPDEST PUSH8 0xFFFFFFFFFFFFFFFF DUP2 GT ISZERO PUSH2 0x89E JUMPI PUSH2 0x89D PUSH2 0x3BB JUMP JUMPDEST JUMPDEST PUSH2 0x8A8 DUP3 SLOAD PUSH2 0x58A JUMP JUMPDEST PUSH2 0x8B3 DUP3 DUP3 DUP6 PUSH2 0x7F3 JUMP JUMPDEST PUSH0 PUSH1 0x20 SWAP1 POP PUSH1 0x1F DUP4 GT PUSH1 0x1 DUP2 EQ PUSH2 0x8E4 JUMPI PUSH0 DUP5 ISZERO PUSH2 0x8D2 JUMPI DUP3 DUP8 ADD MLOAD SWAP1 POP JUMPDEST PUSH2 0x8DC DUP6 DUP3 PUSH2 0x861 JUMP JUMPDEST DUP7 SSTORE POP PUSH2 0x943 JUMP JUMPDEST PUSH1 0x1F NOT DUP5 AND PUSH2 0x8F2 DUP7 PUSH2 0x6D6 JUMP JUMPDEST PUSH0 JUMPDEST DUP3 DUP2 LT ISZERO PUSH2 0x919 JUMPI DUP5 DUP10 ADD MLOAD DUP3 SSTORE PUSH1 0x1 DUP3 ADD SWAP2 POP PUSH1 0x20 DUP6 ADD SWAP5 POP PUSH1 0x20 DUP2 ADD SWAP1 POP PUSH2 0x8F4 JUMP JUMPDEST DUP7 DUP4 LT ISZERO PUSH2 0x936 JUMPI DUP5 DUP10 ADD MLOAD PUSH2 0x932 PUSH1 0x1F DUP10 AND DUP3 PUSH2 0x845 JUMP JUMPDEST DUP4 SSTORE POP JUMPDEST PUSH1 0x1 PUSH1 0x2 DUP9 MUL ADD DUP9 SSTORE POP POP POP JUMPDEST POP POP POP POP POP POP JUMP JUMPDEST PUSH32 0x4E487B7100000000000000000000000000000000000000000000000000000000 PUSH0 MSTORE PUSH1 0x11 PUSH1 0x4 MSTORE PUSH1 0x24 PUSH0 REVERT JUMPDEST PUSH0 PUSH2 0x982 DUP3 PUSH2 0x526 JUMP JUMPDEST SWAP2 POP PUSH4 0xFFFFFFFF DUP3 SUB PUSH2 0x998 JUMPI PUSH2 0x997 PUSH2 0x94B JUMP JUMPDEST JUMPDEST PUSH1 0x1 DUP3 ADD SWAP1 POP SWAP2 SWAP1 POP JUMP INVALID LOG2 PUSH5 0x6970667358 0x22 SLT KECCAK256 0xA5 SWAP1 0xEB STATICCALL SWAP1 0xC DELEGATECALL POP TSTORE MSIZE 0xD5 0xD3 BLOBBASEFEE PUSH14 0xE4616A585A4131ADE38C11E0FFE7 DUP3 0x2F DUP10 0xFB PUSH5 0x736F6C6343 STOP ADDMOD BYTE STOP CALLER "
				},
				"gasEstimates": {
					"creation": {
						"codeDepositCost": "504200",
						"executionCost": "infinite",
						"totalCost": "infinite"
					},
					"external": {
						"getInfo()": "infinite",
						"getInfoChanges()": "2568",
						"getOwner()": "2515",
						"setInfo(string)": "infinite"
					}
				},
				"methodIdentifiers": {
					"getInfo()": "5a9b0b89",
					"getInfoChanges()": "f840cdb9",
					"getOwner()": "893d20e8",
					"setInfo(string)": "937f6e77"
				}
			},
			"storageLayout": {
				"storage": [
					{
						"astId": 3,
						"contract": "contracts/SoftCRStoragewCounter.sol:SoftCRStoragewCounter",
						"label": "storedDataBC",
						"offset": 0,
						"slot": "0",
						"type": "t_string_storage"
					},
					{
						"astId": 5,
						"contract": "contracts/SoftCRStoragewCounter.sol:SoftCRStoragewCounter",
						"label": "owner",
						"offset": 0,
						"slot": "1",
						"type": "t_address"
					},
					{
						"astId": 7,
						"contract": "contracts/SoftCRStoragewCounter.sol:SoftCRStoragewCounter",
						"label": "counter",
						"offset": 20,
						"slot": "1",
						"type": "t_uint32"
					}
				],
				"types": {
					"t_address": {
						"encoding": "inplace",
						"label": "address",
						"numberOfBytes": "20"
					},
					"t_string_storage": {
						"encoding": "bytes",
						"label": "string",
						"numberOfBytes": "32"
					},
					"t_uint32": {
						"encoding": "inplace",
						"label": "uint32",
						"numberOfBytes": "4"
					}
				}
			},
			"userdoc": {
				"kind": "user",
				"methods": {},
				"version": 1
			}
		}
	}
}