{
	"contracts/SoftCRStorageM2C1.sol": {
		"SoftCRStorageM2C1": {
			"abi": [
				{
					"inputs": [
						{
							"internalType": "string",
							"name": "storedInfo_",
							"type": "string"
						}
					],
					"stateMutability": "nonpayable",
					"type": "constructor"
				},
				{
					"inputs": [],
					"name": "getInfo",
					"outputs": [
						{
							"internalType": "string",
							"name": "",
							"type": "string"
						}
					],
					"stateMutability": "view",
					"type": "function"
				},
				{
					"inputs": [],
					"name": "getOwner",
					"outputs": [
						{
							"internalType": "address",
							"name": "",
							"type": "address"
						}
					],
					"stateMutability": "view",
					"type": "function"
				},
				{
					"inputs": [],
					"name": "getStoredInfoChanges",
					"outputs": [
						{
							"internalType": "uint256",
							"name": "",
							"type": "uint256"
						}
					],
					"stateMutability": "view",
					"type": "function"
				},
				{
					"inputs": [],
					"name": "lastExecutioner",
					"outputs": [
						{
							"internalType": "address",
							"name": "",
							"type": "address"
						}
					],
					"stateMutability": "view",
					"type": "function"
				},
				{
					"inputs": [
						{
							"internalType": "string",
							"name": "storedInfo_",
							"type": "string"
						}
					],
					"name": "setInfo",
					"outputs": [],
					"stateMutability": "nonpayable",
					"type": "function"
				}
			],
			"devdoc": {
				"kind": "dev",
				"methods": {},
				"version": 1
			},
			"evm": {
				"assembly": "    /* \"contracts/SoftCRStorageM2C1.sol\":108:1007  contract SoftCRStorageM2C1 {... */\n  mstore(0x40, 0x80)\n    /* \"contracts/SoftCRStorageM2C1.sol\":243:377  constructor(string memory storedInfo_) {... */\n  callvalue\n  dup1\n  iszero\n  tag_1\n  jumpi\n  0x00\n  dup1\n  revert\ntag_1:\n  pop\n  mload(0x40)\n  sub(codesize, bytecodeSize)\n  dup1\n  bytecodeSize\n  dup4\n  codecopy\n  dup2\n  dup2\n  add\n  0x40\n  mstore\n  dup2\n  add\n  swap1\n  tag_2\n  swap2\n  swap1\n  tag_3\n  jump\t// in\ntag_2:\n    /* \"contracts/SoftCRStorageM2C1.sol\":305:316  storedInfo_ */\n  dup1\n    /* \"contracts/SoftCRStorageM2C1.sol\":292:302  storedInfo */\n  0x00\n    /* \"contracts/SoftCRStorageM2C1.sol\":292:316  storedInfo = storedInfo_ */\n  swap1\n  dup2\n  tag_6\n  swap2\n  swap1\n  tag_7\n  jump\t// in\ntag_6:\n  pop\n    /* \"contracts/SoftCRStorageM2C1.sol\":341:342  0 */\n  0x00\n    /* \"contracts/SoftCRStorageM2C1.sol\":326:338  countChanges */\n  0x03\n    /* \"contracts/SoftCRStorageM2C1.sol\":326:342  countChanges = 0 */\n  dup2\n  swap1\n  sstore\n  pop\n    /* \"contracts/SoftCRStorageM2C1.sol\":360:370  msg.sender */\n  caller\n    /* \"contracts/SoftCRStorageM2C1.sol\":352:357  owner */\n  0x01\n  0x00\n    /* \"contracts/SoftCRStorageM2C1.sol\":352:370  owner = msg.sender */\n  0x0100\n  exp\n  dup2\n  sload\n  dup2\n  0xffffffffffffffffffffffffffffffffffffffff\n  mul\n  not\n  and\n  swap1\n  dup4\n  0xffffffffffffffffffffffffffffffffffffffff\n  and\n  mul\n  or\n  swap1\n  sstore\n  pop\n    /* \"contracts/SoftCRStorageM2C1.sol\":243:377  constructor(string memory storedInfo_) {... */\n  pop\n    /* \"contracts/SoftCRStorageM2C1.sol\":108:1007  contract SoftCRStorageM2C1 {... */\n  jump(tag_8)\n    /* \"#utility.yul\":7:82   */\ntag_9:\n    /* \"#utility.yul\":40:46   */\n  0x00\n    /* \"#utility.yul\":73:75   */\n  0x40\n    /* \"#utility.yul\":67:76   */\n  mload\n    /* \"#utility.yul\":57:76   */\n  swap1\n  pop\n    /* \"#utility.yul\":7:82   */\n  swap1\n  jump\t// out\n    /* \"#utility.yul\":88:205   */\ntag_10:\n    /* \"#utility.yul\":197:198   */\n  0x00\n    /* \"#utility.yul\":194:195   */\n  dup1\n    /* \"#utility.yul\":187:199   */\n  revert\n    /* \"#utility.yul\":211:328   */\ntag_11:\n    /* \"#utility.yul\":320:321   */\n  0x00\n    /* \"#utility.yul\":317:318   */\n  dup1\n    /* \"#utility.yul\":310:322   */\n  revert\n    /* \"#utility.yul\":334:451   */\ntag_12:\n    /* \"#utility.yul\":443:444   */\n  0x00\n    /* \"#utility.yul\":440:441   */\n  dup1\n    /* \"#utility.yul\":433:445   */\n  revert\n    /* \"#utility.yul\":457:574   */\ntag_13:\n    /* \"#utility.yul\":566:567   */\n  0x00\n    /* \"#utility.yul\":563:564   */\n  dup1\n    /* \"#utility.yul\":556:568   */\n  revert\n    /* \"#utility.yul\":580:682   */\ntag_14:\n    /* \"#utility.yul\":621:627   */\n  0x00\n    /* \"#utility.yul\":672:674   */\n  0x1f\n    /* \"#utility.yul\":668:675   */\n  not\n    /* \"#utility.yul\":663:665   */\n  0x1f\n    /* \"#utility.yul\":656:661   */\n  dup4\n    /* \"#utility.yul\":652:666   */\n  add\n    /* \"#utility.yul\":648:676   */\n  and\n    /* \"#utility.yul\":638:676   */\n  swap1\n  pop\n    /* \"#utility.yul\":580:682   */\n  swap2\n  swap1\n  pop\n  jump\t// out\n    /* \"#utility.yul\":688:868   */\ntag_15:\n    /* \"#utility.yul\":736:813   */\n  0x4e487b7100000000000000000000000000000000000000000000000000000000\n    /* \"#utility.yul\":733:734   */\n  0x00\n    /* \"#utility.yul\":726:814   */\n  mstore\n    /* \"#utility.yul\":833:837   */\n  0x41\n    /* \"#utility.yul\":830:831   */\n  0x04\n    /* \"#utility.yul\":823:838   */\n  mstore\n    /* \"#utility.yul\":857:861   */\n  0x24\n    /* \"#utility.yul\":854:855   */\n  0x00\n    /* \"#utility.yul\":847:862   */\n  revert\n    /* \"#utility.yul\":874:1155   */\ntag_16:\n    /* \"#utility.yul\":957:984   */\n  tag_50\n    /* \"#utility.yul\":979:983   */\n  dup3\n    /* \"#utility.yul\":957:984   */\n  tag_14\n  jump\t// in\ntag_50:\n    /* \"#utility.yul\":949:955   */\n  dup2\n    /* \"#utility.yul\":945:985   */\n  add\n    /* \"#utility.yul\":1087:1093   */\n  dup2\n    /* \"#utility.yul\":1075:1085   */\n  dup2\n    /* \"#utility.yul\":1072:1094   */\n  lt\n    /* \"#utility.yul\":1051:1069   */\n  0xffffffffffffffff\n    /* \"#utility.yul\":1039:1049   */\n  dup3\n    /* \"#utility.yul\":1036:1070   */\n  gt\n    /* \"#utility.yul\":1033:1095   */\n  or\n    /* \"#utility.yul\":1030:1118   */\n  iszero\n  tag_51\n  jumpi\n    /* \"#utility.yul\":1098:1116   */\n  tag_52\n  tag_15\n  jump\t// in\ntag_52:\n    /* \"#utility.yul\":1030:1118   */\ntag_51:\n    /* \"#utility.yul\":1138:1148   */\n  dup1\n    /* \"#utility.yul\":1134:1136   */\n  0x40\n    /* \"#utility.yul\":1127:1149   */\n  mstore\n    /* \"#utility.yul\":917:1155   */\n  pop\n    /* \"#utility.yul\":874:1155   */\n  pop\n  pop\n  jump\t// out\n    /* \"#utility.yul\":1161:1290   */\ntag_17:\n    /* \"#utility.yul\":1195:1201   */\n  0x00\n    /* \"#utility.yul\":1222:1242   */\n  tag_54\n  tag_9\n  jump\t// in\ntag_54:\n    /* \"#utility.yul\":1212:1242   */\n  swap1\n  pop\n    /* \"#utility.yul\":1251:1284   */\n  tag_55\n    /* \"#utility.yul\":1279:1283   */\n  dup3\n    /* \"#utility.yul\":1271:1277   */\n  dup3\n    /* \"#utility.yul\":1251:1284   */\n  tag_16\n  jump\t// in\ntag_55:\n    /* \"#utility.yul\":1161:1290   */\n  swap2\n  swap1\n  pop\n  jump\t// out\n    /* \"#utility.yul\":1296:1604   */\ntag_18:\n    /* \"#utility.yul\":1358:1362   */\n  0x00\n    /* \"#utility.yul\":1448:1466   */\n  0xffffffffffffffff\n    /* \"#utility.yul\":1440:1446   */\n  dup3\n    /* \"#utility.yul\":1437:1467   */\n  gt\n    /* \"#utility.yul\":1434:1490   */\n  iszero\n  tag_57\n  jumpi\n    /* \"#utility.yul\":1470:1488   */\n  tag_58\n  tag_15\n  jump\t// in\ntag_58:\n    /* \"#utility.yul\":1434:1490   */\ntag_57:\n    /* \"#utility.yul\":1508:1537   */\n  tag_59\n    /* \"#utility.yul\":1530:1536   */\n  dup3\n    /* \"#utility.yul\":1508:1537   */\n  tag_14\n  jump\t// in\ntag_59:\n    /* \"#utility.yul\":1500:1537   */\n  swap1\n  pop\n    /* \"#utility.yul\":1592:1596   */\n  0x20\n    /* \"#utility.yul\":1586:1590   */\n  dup2\n    /* \"#utility.yul\":1582:1597   */\n  add\n    /* \"#utility.yul\":1574:1597   */\n  swap1\n  pop\n    /* \"#utility.yul\":1296:1604   */\n  swap2\n  swap1\n  pop\n  jump\t// out\n    /* \"#utility.yul\":1610:1749   */\ntag_19:\n    /* \"#utility.yul\":1699:1705   */\n  dup3\n    /* \"#utility.yul\":1694:1697   */\n  dup2\n    /* \"#utility.yul\":1689:1692   */\n  dup4\n    /* \"#utility.yul\":1683:1706   */\n  mcopy\n    /* \"#utility.yul\":1740:1741   */\n  0x00\n    /* \"#utility.yul\":1731:1737   */\n  dup4\n    /* \"#utility.yul\":1726:1729   */\n  dup4\n    /* \"#utility.yul\":1722:1738   */\n  add\n    /* \"#utility.yul\":1715:1742   */\n  mstore\n    /* \"#utility.yul\":1610:1749   */\n  pop\n  pop\n  pop\n  jump\t// out\n    /* \"#utility.yul\":1755:2189   */\ntag_20:\n    /* \"#utility.yul\":1844:1849   */\n  0x00\n    /* \"#utility.yul\":1869:1935   */\n  tag_62\n    /* \"#utility.yul\":1885:1934   */\n  tag_63\n    /* \"#utility.yul\":1927:1933   */\n  dup5\n    /* \"#utility.yul\":1885:1934   */\n  tag_18\n  jump\t// in\ntag_63:\n    /* \"#utility.yul\":1869:1935   */\n  tag_17\n  jump\t// in\ntag_62:\n    /* \"#utility.yul\":1860:1935   */\n  swap1\n  pop\n    /* \"#utility.yul\":1958:1964   */\n  dup3\n    /* \"#utility.yul\":1951:1956   */\n  dup2\n    /* \"#utility.yul\":1944:1965   */\n  mstore\n    /* \"#utility.yul\":1996:2000   */\n  0x20\n    /* \"#utility.yul\":1989:1994   */\n  dup2\n    /* \"#utility.yul\":1985:2001   */\n  add\n    /* \"#utility.yul\":2034:2037   */\n  dup5\n    /* \"#utility.yul\":2025:2031   */\n  dup5\n    /* \"#utility.yul\":2020:2023   */\n  dup5\n    /* \"#utility.yul\":2016:2032   */\n  add\n    /* \"#utility.yul\":2013:2038   */\n  gt\n    /* \"#utility.yul\":2010:2122   */\n  iszero\n  tag_64\n  jumpi\n    /* \"#utility.yul\":2041:2120   */\n  tag_65\n  tag_13\n  jump\t// in\ntag_65:\n    /* \"#utility.yul\":2010:2122   */\ntag_64:\n    /* \"#utility.yul\":2131:2183   */\n  tag_66\n    /* \"#utility.yul\":2176:2182   */\n  dup5\n    /* \"#utility.yul\":2171:2174   */\n  dup3\n    /* \"#utility.yul\":2166:2169   */\n  dup6\n    /* \"#utility.yul\":2131:2183   */\n  tag_19\n  jump\t// in\ntag_66:\n    /* \"#utility.yul\":1850:2189   */\n  pop\n    /* \"#utility.yul\":1755:2189   */\n  swap4\n  swap3\n  pop\n  pop\n  pop\n  jump\t// out\n    /* \"#utility.yul\":2209:2564   */\ntag_21:\n    /* \"#utility.yul\":2276:2281   */\n  0x00\n    /* \"#utility.yul\":2325:2328   */\n  dup3\n    /* \"#utility.yul\":2318:2322   */\n  0x1f\n    /* \"#utility.yul\":2310:2316   */\n  dup4\n    /* \"#utility.yul\":2306:2323   */\n  add\n    /* \"#utility.yul\":2302:2329   */\n  slt\n    /* \"#utility.yul\":2292:2414   */\n  tag_68\n  jumpi\n    /* \"#utility.yul\":2333:2412   */\n  tag_69\n  tag_12\n  jump\t// in\ntag_69:\n    /* \"#utility.yul\":2292:2414   */\ntag_68:\n    /* \"#utility.yul\":2443:2449   */\n  dup2\n    /* \"#utility.yul\":2437:2450   */\n  mload\n    /* \"#utility.yul\":2468:2558   */\n  tag_70\n    /* \"#utility.yul\":2554:2557   */\n  dup5\n    /* \"#utility.yul\":2546:2552   */\n  dup3\n    /* \"#utility.yul\":2539:2543   */\n  0x20\n    /* \"#utility.yul\":2531:2537   */\n  dup7\n    /* \"#utility.yul\":2527:2544   */\n  add\n    /* \"#utility.yul\":2468:2558   */\n  tag_20\n  jump\t// in\ntag_70:\n    /* \"#utility.yul\":2459:2558   */\n  swap2\n  pop\n    /* \"#utility.yul\":2282:2564   */\n  pop\n    /* \"#utility.yul\":2209:2564   */\n  swap3\n  swap2\n  pop\n  pop\n  jump\t// out\n    /* \"#utility.yul\":2570:3094   */\ntag_3:\n    /* \"#utility.yul\":2650:2656   */\n  0x00\n    /* \"#utility.yul\":2699:2701   */\n  0x20\n    /* \"#utility.yul\":2687:2696   */\n  dup3\n    /* \"#utility.yul\":2678:2685   */\n  dup5\n    /* \"#utility.yul\":2674:2697   */\n  sub\n    /* \"#utility.yul\":2670:2702   */\n  slt\n    /* \"#utility.yul\":2667:2786   */\n  iszero\n  tag_72\n  jumpi\n    /* \"#utility.yul\":2705:2784   */\n  tag_73\n  tag_10\n  jump\t// in\ntag_73:\n    /* \"#utility.yul\":2667:2786   */\ntag_72:\n    /* \"#utility.yul\":2846:2847   */\n  0x00\n    /* \"#utility.yul\":2835:2844   */\n  dup3\n    /* \"#utility.yul\":2831:2848   */\n  add\n    /* \"#utility.yul\":2825:2849   */\n  mload\n    /* \"#utility.yul\":2876:2894   */\n  0xffffffffffffffff\n    /* \"#utility.yul\":2868:2874   */\n  dup2\n    /* \"#utility.yul\":2865:2895   */\n  gt\n    /* \"#utility.yul\":2862:2979   */\n  iszero\n  tag_74\n  jumpi\n    /* \"#utility.yul\":2898:2977   */\n  tag_75\n  tag_11\n  jump\t// in\ntag_75:\n    /* \"#utility.yul\":2862:2979   */\ntag_74:\n    /* \"#utility.yul\":3003:3077   */\n  tag_76\n    /* \"#utility.yul\":3069:3076   */\n  dup5\n    /* \"#utility.yul\":3060:3066   */\n  dup3\n    /* \"#utility.yul\":3049:3058   */\n  dup6\n    /* \"#utility.yul\":3045:3067   */\n  add\n    /* \"#utility.yul\":3003:3077   */\n  tag_21\n  jump\t// in\ntag_76:\n    /* \"#utility.yul\":2993:3077   */\n  swap2\n  pop\n    /* \"#utility.yul\":2796:3087   */\n  pop\n    /* \"#utility.yul\":2570:3094   */\n  swap3\n  swap2\n  pop\n  pop\n  jump\t// out\n    /* \"#utility.yul\":3100:3199   */\ntag_22:\n    /* \"#utility.yul\":3152:3158   */\n  0x00\n    /* \"#utility.yul\":3186:3191   */\n  dup2\n    /* \"#utility.yul\":3180:3192   */\n  mload\n    /* \"#utility.yul\":3170:3192   */\n  swap1\n  pop\n    /* \"#utility.yul\":3100:3199   */\n  swap2\n  swap1\n  pop\n  jump\t// out\n    /* \"#utility.yul\":3205:3385   */\ntag_23:\n    /* \"#utility.yul\":3253:3330   */\n  0x4e487b7100000000000000000000000000000000000000000000000000000000\n    /* \"#utility.yul\":3250:3251   */\n  0x00\n    /* \"#utility.yul\":3243:3331   */\n  mstore\n    /* \"#utility.yul\":3350:3354   */\n  0x22\n    /* \"#utility.yul\":3347:3348   */\n  0x04\n    /* \"#utility.yul\":3340:3355   */\n  mstore\n    /* \"#utility.yul\":3374:3378   */\n  0x24\n    /* \"#utility.yul\":3371:3372   */\n  0x00\n    /* \"#utility.yul\":3364:3379   */\n  revert\n    /* \"#utility.yul\":3391:3711   */\ntag_24:\n    /* \"#utility.yul\":3435:3441   */\n  0x00\n    /* \"#utility.yul\":3472:3473   */\n  0x02\n    /* \"#utility.yul\":3466:3470   */\n  dup3\n    /* \"#utility.yul\":3462:3474   */\n  div\n    /* \"#utility.yul\":3452:3474   */\n  swap1\n  pop\n    /* \"#utility.yul\":3519:3520   */\n  0x01\n    /* \"#utility.yul\":3513:3517   */\n  dup3\n    /* \"#utility.yul\":3509:3521   */\n  and\n    /* \"#utility.yul\":3540:3558   */\n  dup1\n    /* \"#utility.yul\":3530:3611   */\n  tag_80\n  jumpi\n    /* \"#utility.yul\":3596:3600   */\n  0x7f\n    /* \"#utility.yul\":3588:3594   */\n  dup3\n    /* \"#utility.yul\":3584:3601   */\n  and\n    /* \"#utility.yul\":3574:3601   */\n  swap2\n  pop\n    /* \"#utility.yul\":3530:3611   */\ntag_80:\n    /* \"#utility.yul\":3658:3660   */\n  0x20\n    /* \"#utility.yul\":3650:3656   */\n  dup3\n    /* \"#utility.yul\":3647:3661   */\n  lt\n    /* \"#utility.yul\":3627:3645   */\n  dup2\n    /* \"#utility.yul\":3624:3662   */\n  sub\n    /* \"#utility.yul\":3621:3705   */\n  tag_81\n  jumpi\n    /* \"#utility.yul\":3677:3695   */\n  tag_82\n  tag_23\n  jump\t// in\ntag_82:\n    /* \"#utility.yul\":3621:3705   */\ntag_81:\n    /* \"#utility.yul\":3442:3711   */\n  pop\n    /* \"#utility.yul\":3391:3711   */\n  swap2\n  swap1\n  pop\n  jump\t// out\n    /* \"#utility.yul\":3717:3858   */\ntag_25:\n    /* \"#utility.yul\":3766:3770   */\n  0x00\n    /* \"#utility.yul\":3789:3792   */\n  dup2\n    /* \"#utility.yul\":3781:3792   */\n  swap1\n  pop\n    /* \"#utility.yul\":3812:3815   */\n  dup2\n    /* \"#utility.yul\":3809:3810   */\n  0x00\n    /* \"#utility.yul\":3802:3816   */\n  mstore\n    /* \"#utility.yul\":3846:3850   */\n  0x20\n    /* \"#utility.yul\":3843:3844   */\n  0x00\n    /* \"#utility.yul\":3833:3851   */\n  keccak256\n    /* \"#utility.yul\":3825:3851   */\n  swap1\n  pop\n    /* \"#utility.yul\":3717:3858   */\n  swap2\n  swap1\n  pop\n  jump\t// out\n    /* \"#utility.yul\":3864:3957   */\ntag_26:\n    /* \"#utility.yul\":3901:3907   */\n  0x00\n    /* \"#utility.yul\":3948:3950   */\n  0x20\n    /* \"#utility.yul\":3943:3945   */\n  0x1f\n    /* \"#utility.yul\":3936:3941   */\n  dup4\n    /* \"#utility.yul\":3932:3946   */\n  add\n    /* \"#utility.yul\":3928:3951   */\n  div\n    /* \"#utility.yul\":3918:3951   */\n  swap1\n  pop\n    /* \"#utility.yul\":3864:3957   */\n  swap2\n  swap1\n  pop\n  jump\t// out\n    /* \"#utility.yul\":3963:4070   */\ntag_27:\n    /* \"#utility.yul\":4007:4015   */\n  0x00\n    /* \"#utility.yul\":4057:4062   */\n  dup3\n    /* \"#utility.yul\":4051:4055   */\n  dup3\n    /* \"#utility.yul\":4047:4063   */\n  shl\n    /* \"#utility.yul\":4026:4063   */\n  swap1\n  pop\n    /* \"#utility.yul\":3963:4070   */\n  swap3\n  swap2\n  pop\n  pop\n  jump\t// out\n    /* \"#utility.yul\":4076:4469   */\ntag_28:\n    /* \"#utility.yul\":4145:4151   */\n  0x00\n    /* \"#utility.yul\":4195:4196   */\n  0x08\n    /* \"#utility.yul\":4183:4193   */\n  dup4\n    /* \"#utility.yul\":4179:4197   */\n  mul\n    /* \"#utility.yul\":4218:4315   */\n  tag_87\n    /* \"#utility.yul\":4248:4314   */\n  0xffffffffffffffffffffffffffffffffffffffffffffffffffffffffffffffff\n    /* \"#utility.yul\":4237:4246   */\n  dup3\n    /* \"#utility.yul\":4218:4315   */\n  tag_27\n  jump\t// in\ntag_87:\n    /* \"#utility.yul\":4336:4375   */\n  tag_88\n    /* \"#utility.yul\":4366:4374   */\n  dup7\n    /* \"#utility.yul\":4355:4364   */\n  dup4\n    /* \"#utility.yul\":4336:4375   */\n  tag_27\n  jump\t// in\ntag_88:\n    /* \"#utility.yul\":4324:4375   */\n  swap6\n  pop\n    /* \"#utility.yul\":4408:4412   */\n  dup1\n    /* \"#utility.yul\":4404:4413   */\n  not\n    /* \"#utility.yul\":4397:4402   */\n  dup5\n    /* \"#utility.yul\":4393:4414   */\n  and\n    /* \"#utility.yul\":4384:4414   */\n  swap4\n  pop\n    /* \"#utility.yul\":4457:4461   */\n  dup1\n    /* \"#utility.yul\":4447:4455   */\n  dup7\n    /* \"#utility.yul\":4443:4462   */\n  and\n    /* \"#utility.yul\":4436:4441   */\n  dup5\n    /* \"#utility.yul\":4433:4463   */\n  or\n    /* \"#utility.yul\":4423:4463   */\n  swap3\n  pop\n    /* \"#utility.yul\":4152:4469   */\n  pop\n  pop\n    /* \"#utility.yul\":4076:4469   */\n  swap4\n  swap3\n  pop\n  pop\n  pop\n  jump\t// out\n    /* \"#utility.yul\":4475:4552   */\ntag_29:\n    /* \"#utility.yul\":4512:4519   */\n  0x00\n    /* \"#utility.yul\":4541:4546   */\n  dup2\n    /* \"#utility.yul\":4530:4546   */\n  swap1\n  pop\n    /* \"#utility.yul\":4475:4552   */\n  swap2\n  swap1\n  pop\n  jump\t// out\n    /* \"#utility.yul\":4558:4618   */\ntag_30:\n    /* \"#utility.yul\":4586:4589   */\n  0x00\n    /* \"#utility.yul\":4607:4612   */\n  dup2\n    /* \"#utility.yul\":4600:4612   */\n  swap1\n  pop\n    /* \"#utility.yul\":4558:4618   */\n  swap2\n  swap1\n  pop\n  jump\t// out\n    /* \"#utility.yul\":4624:4766   */\ntag_31:\n    /* \"#utility.yul\":4674:4683   */\n  0x00\n    /* \"#utility.yul\":4707:4760   */\n  tag_92\n    /* \"#utility.yul\":4725:4759   */\n  tag_93\n    /* \"#utility.yul\":4734:4758   */\n  tag_94\n    /* \"#utility.yul\":4752:4757   */\n  dup5\n    /* \"#utility.yul\":4734:4758   */\n  tag_29\n  jump\t// in\ntag_94:\n    /* \"#utility.yul\":4725:4759   */\n  tag_30\n  jump\t// in\ntag_93:\n    /* \"#utility.yul\":4707:4760   */\n  tag_29\n  jump\t// in\ntag_92:\n    /* \"#utility.yul\":4694:4760   */\n  swap1\n  pop\n    /* \"#utility.yul\":4624:4766   */\n  swap2\n  swap1\n  pop\n  jump\t// out\n    /* \"#utility.yul\":4772:4847   */\ntag_32:\n    /* \"#utility.yul\":4815:4818   */\n  0x00\n    /* \"#utility.yul\":4836:4841   */\n  dup2\n    /* \"#utility.yul\":4829:4841   */\n  swap1\n  pop\n    /* \"#utility.yul\":4772:4847   */\n  swap2\n  swap1\n  pop\n  jump\t// out\n    /* \"#utility.yul\":4853:5122   */\ntag_33:\n    /* \"#utility.yul\":4963:5002   */\n  tag_97\n    /* \"#utility.yul\":4994:5001   */\n  dup4\n    /* \"#utility.yul\":4963:5002   */\n  tag_31\n  jump\t// in\ntag_97:\n    /* \"#utility.yul\":5024:5115   */\n  tag_98\n    /* \"#utility.yul\":5073:5114   */\n  tag_99\n    /* \"#utility.yul\":5097:5113   */\n  dup3\n    /* \"#utility.yul\":5073:5114   */\n  tag_32\n  jump\t// in\ntag_99:\n    /* \"#utility.yul\":5065:5071   */\n  dup5\n    /* \"#utility.yul\":5058:5062   */\n  dup5\n    /* \"#utility.yul\":5052:5063   */\n  sload\n    /* \"#utility.yul\":5024:5115   */\n  tag_28\n  jump\t// in\ntag_98:\n    /* \"#utility.yul\":5018:5022   */\n  dup3\n    /* \"#utility.yul\":5011:5116   */\n  sstore\n    /* \"#utility.yul\":4929:5122   */\n  pop\n    /* \"#utility.yul\":4853:5122   */\n  pop\n  pop\n  pop\n  jump\t// out\n    /* \"#utility.yul\":5128:5201   */\ntag_34:\n    /* \"#utility.yul\":5173:5176   */\n  0x00\n    /* \"#utility.yul\":5128:5201   */\n  swap1\n  jump\t// out\n    /* \"#utility.yul\":5207:5396   */\ntag_35:\n    /* \"#utility.yul\":5284:5316   */\n  tag_102\n  tag_34\n  jump\t// in\ntag_102:\n    /* \"#utility.yul\":5325:5390   */\n  tag_103\n    /* \"#utility.yul\":5383:5389   */\n  dup2\n    /* \"#utility.yul\":5375:5381   */\n  dup5\n    /* \"#utility.yul\":5369:5373   */\n  dup5\n    /* \"#utility.yul\":5325:5390   */\n  tag_33\n  jump\t// in\ntag_103:\n    /* \"#utility.yul\":5260:5396   */\n  pop\n    /* \"#utility.yul\":5207:5396   */\n  pop\n  pop\n  jump\t// out\n    /* \"#utility.yul\":5402:5588   */\ntag_36:\n    /* \"#utility.yul\":5462:5582   */\ntag_105:\n    /* \"#utility.yul\":5479:5482   */\n  dup2\n    /* \"#utility.yul\":5472:5477   */\n  dup2\n    /* \"#utility.yul\":5469:5483   */\n  lt\n    /* \"#utility.yul\":5462:5582   */\n  iszero\n  tag_107\n  jumpi\n    /* \"#utility.yul\":5533:5572   */\n  tag_108\n    /* \"#utility.yul\":5570:5571   */\n  0x00\n    /* \"#utility.yul\":5563:5568   */\n  dup3\n    /* \"#utility.yul\":5533:5572   */\n  tag_35\n  jump\t// in\ntag_108:\n    /* \"#utility.yul\":5506:5507   */\n  0x01\n    /* \"#utility.yul\":5499:5504   */\n  dup2\n    /* \"#utility.yul\":5495:5508   */\n  add\n    /* \"#utility.yul\":5486:5508   */\n  swap1\n  pop\n    /* \"#utility.yul\":5462:5582   */\n  jump(tag_105)\ntag_107:\n    /* \"#utility.yul\":5402:5588   */\n  pop\n  pop\n  jump\t// out\n    /* \"#utility.yul\":5594:6137   */\ntag_37:\n    /* \"#utility.yul\":5695:5697   */\n  0x1f\n    /* \"#utility.yul\":5690:5693   */\n  dup3\n    /* \"#utility.yul\":5687:5698   */\n  gt\n    /* \"#utility.yul\":5684:6130   */\n  iszero\n  tag_110\n  jumpi\n    /* \"#utility.yul\":5729:5767   */\n  tag_111\n    /* \"#utility.yul\":5761:5766   */\n  dup2\n    /* \"#utility.yul\":5729:5767   */\n  tag_25\n  jump\t// in\ntag_111:\n    /* \"#utility.yul\":5813:5842   */\n  tag_112\n    /* \"#utility.yul\":5831:5841   */\n  dup5\n    /* \"#utility.yul\":5813:5842   */\n  tag_26\n  jump\t// in\ntag_112:\n    /* \"#utility.yul\":5803:5811   */\n  dup2\n    /* \"#utility.yul\":5799:5843   */\n  add\n    /* \"#utility.yul\":5996:5998   */\n  0x20\n    /* \"#utility.yul\":5984:5994   */\n  dup6\n    /* \"#utility.yul\":5981:5999   */\n  lt\n    /* \"#utility.yul\":5978:6027   */\n  iszero\n  tag_113\n  jumpi\n    /* \"#utility.yul\":6017:6025   */\n  dup2\n    /* \"#utility.yul\":6002:6025   */\n  swap1\n  pop\n    /* \"#utility.yul\":5978:6027   */\ntag_113:\n    /* \"#utility.yul\":6040:6120   */\n  tag_114\n    /* \"#utility.yul\":6096:6118   */\n  tag_115\n    /* \"#utility.yul\":6114:6117   */\n  dup6\n    /* \"#utility.yul\":6096:6118   */\n  tag_26\n  jump\t// in\ntag_115:\n    /* \"#utility.yul\":6086:6094   */\n  dup4\n    /* \"#utility.yul\":6082:6119   */\n  add\n    /* \"#utility.yul\":6069:6080   */\n  dup3\n    /* \"#utility.yul\":6040:6120   */\n  tag_36\n  jump\t// in\ntag_114:\n    /* \"#utility.yul\":5699:6130   */\n  pop\n  pop\n    /* \"#utility.yul\":5684:6130   */\ntag_110:\n    /* \"#utility.yul\":5594:6137   */\n  pop\n  pop\n  pop\n  jump\t// out\n    /* \"#utility.yul\":6143:6260   */\ntag_38:\n    /* \"#utility.yul\":6197:6205   */\n  0x00\n    /* \"#utility.yul\":6247:6252   */\n  dup3\n    /* \"#utility.yul\":6241:6245   */\n  dup3\n    /* \"#utility.yul\":6237:6253   */\n  shr\n    /* \"#utility.yul\":6216:6253   */\n  swap1\n  pop\n    /* \"#utility.yul\":6143:6260   */\n  swap3\n  swap2\n  pop\n  pop\n  jump\t// out\n    /* \"#utility.yul\":6266:6435   */\ntag_39:\n    /* \"#utility.yul\":6310:6316   */\n  0x00\n    /* \"#utility.yul\":6343:6394   */\n  tag_118\n    /* \"#utility.yul\":6391:6392   */\n  0x00\n    /* \"#utility.yul\":6387:6393   */\n  not\n    /* \"#utility.yul\":6379:6384   */\n  dup5\n    /* \"#utility.yul\":6376:6377   */\n  0x08\n    /* \"#utility.yul\":6372:6385   */\n  mul\n    /* \"#utility.yul\":6343:6394   */\n  tag_38\n  jump\t// in\ntag_118:\n    /* \"#utility.yul\":6339:6395   */\n  not\n    /* \"#utility.yul\":6424:6428   */\n  dup1\n    /* \"#utility.yul\":6418:6422   */\n  dup4\n    /* \"#utility.yul\":6414:6429   */\n  and\n    /* \"#utility.yul\":6404:6429   */\n  swap2\n  pop\n    /* \"#utility.yul\":6317:6435   */\n  pop\n    /* \"#utility.yul\":6266:6435   */\n  swap3\n  swap2\n  pop\n  pop\n  jump\t// out\n    /* \"#utility.yul\":6440:6735   */\ntag_40:\n    /* \"#utility.yul\":6516:6520   */\n  0x00\n    /* \"#utility.yul\":6662:6691   */\n  tag_120\n    /* \"#utility.yul\":6687:6690   */\n  dup4\n    /* \"#utility.yul\":6681:6685   */\n  dup4\n    /* \"#utility.yul\":6662:6691   */\n  tag_39\n  jump\t// in\ntag_120:\n    /* \"#utility.yul\":6654:6691   */\n  swap2\n  pop\n    /* \"#utility.yul\":6724:6727   */\n  dup3\n    /* \"#utility.yul\":6721:6722   */\n  0x02\n    /* \"#utility.yul\":6717:6728   */\n  mul\n    /* \"#utility.yul\":6711:6715   */\n  dup3\n    /* \"#utility.yul\":6708:6729   */\n  or\n    /* \"#utility.yul\":6700:6729   */\n  swap1\n  pop\n    /* \"#utility.yul\":6440:6735   */\n  swap3\n  swap2\n  pop\n  pop\n  jump\t// out\n    /* \"#utility.yul\":6740:8135   */\ntag_7:\n    /* \"#utility.yul\":6857:6894   */\n  tag_122\n    /* \"#utility.yul\":6890:6893   */\n  dup3\n    /* \"#utility.yul\":6857:6894   */\n  tag_22\n  jump\t// in\ntag_122:\n    /* \"#utility.yul\":6959:6977   */\n  0xffffffffffffffff\n    /* \"#utility.yul\":6951:6957   */\n  dup2\n    /* \"#utility.yul\":6948:6978   */\n  gt\n    /* \"#utility.yul\":6945:7001   */\n  iszero\n  tag_123\n  jumpi\n    /* \"#utility.yul\":6981:6999   */\n  tag_124\n  tag_15\n  jump\t// in\ntag_124:\n    /* \"#utility.yul\":6945:7001   */\ntag_123:\n    /* \"#utility.yul\":7025:7063   */\n  tag_125\n    /* \"#utility.yul\":7057:7061   */\n  dup3\n    /* \"#utility.yul\":7051:7062   */\n  sload\n    /* \"#utility.yul\":7025:7063   */\n  tag_24\n  jump\t// in\ntag_125:\n    /* \"#utility.yul\":7110:7177   */\n  tag_126\n    /* \"#utility.yul\":7170:7176   */\n  dup3\n    /* \"#utility.yul\":7162:7168   */\n  dup3\n    /* \"#utility.yul\":7156:7160   */\n  dup6\n    /* \"#utility.yul\":7110:7177   */\n  tag_37\n  jump\t// in\ntag_126:\n    /* \"#utility.yul\":7204:7205   */\n  0x00\n    /* \"#utility.yul\":7228:7232   */\n  0x20\n    /* \"#utility.yul\":7215:7232   */\n  swap1\n  pop\n    /* \"#utility.yul\":7260:7262   */\n  0x1f\n    /* \"#utility.yul\":7252:7258   */\n  dup4\n    /* \"#utility.yul\":7249:7263   */\n  gt\n    /* \"#utility.yul\":7277:7278   */\n  0x01\n    /* \"#utility.yul\":7272:7890   */\n  dup2\n  eq\n  tag_128\n  jumpi\n    /* \"#utility.yul\":7934:7935   */\n  0x00\n    /* \"#utility.yul\":7951:7957   */\n  dup5\n    /* \"#utility.yul\":7948:8025   */\n  iszero\n  tag_129\n  jumpi\n    /* \"#utility.yul\":8000:8009   */\n  dup3\n    /* \"#utility.yul\":7995:7998   */\n  dup8\n    /* \"#utility.yul\":7991:8010   */\n  add\n    /* \"#utility.yul\":7985:8011   */\n  mload\n    /* \"#utility.yul\":7976:8011   */\n  swap1\n  pop\n    /* \"#utility.yul\":7948:8025   */\ntag_129:\n    /* \"#utility.yul\":8051:8118   */\n  tag_130\n    /* \"#utility.yul\":8111:8117   */\n  dup6\n    /* \"#utility.yul\":8104:8109   */\n  dup3\n    /* \"#utility.yul\":8051:8118   */\n  tag_40\n  jump\t// in\ntag_130:\n    /* \"#utility.yul\":8045:8049   */\n  dup7\n    /* \"#utility.yul\":8038:8119   */\n  sstore\n    /* \"#utility.yul\":7907:8129   */\n  pop\n    /* \"#utility.yul\":7242:8129   */\n  jump(tag_127)\n    /* \"#utility.yul\":7272:7890   */\ntag_128:\n    /* \"#utility.yul\":7324:7328   */\n  0x1f\n    /* \"#utility.yul\":7320:7329   */\n  not\n    /* \"#utility.yul\":7312:7318   */\n  dup5\n    /* \"#utility.yul\":7308:7330   */\n  and\n    /* \"#utility.yul\":7358:7395   */\n  tag_131\n    /* \"#utility.yul\":7390:7394   */\n  dup7\n    /* \"#utility.yul\":7358:7395   */\n  tag_25\n  jump\t// in\ntag_131:\n    /* \"#utility.yul\":7417:7418   */\n  0x00\n    /* \"#utility.yul\":7431:7639   */\ntag_132:\n    /* \"#utility.yul\":7445:7452   */\n  dup3\n    /* \"#utility.yul\":7442:7443   */\n  dup2\n    /* \"#utility.yul\":7439:7453   */\n  lt\n    /* \"#utility.yul\":7431:7639   */\n  iszero\n  tag_134\n  jumpi\n    /* \"#utility.yul\":7524:7533   */\n  dup5\n    /* \"#utility.yul\":7519:7522   */\n  dup10\n    /* \"#utility.yul\":7515:7534   */\n  add\n    /* \"#utility.yul\":7509:7535   */\n  mload\n    /* \"#utility.yul\":7501:7507   */\n  dup3\n    /* \"#utility.yul\":7494:7536   */\n  sstore\n    /* \"#utility.yul\":7575:7576   */\n  0x01\n    /* \"#utility.yul\":7567:7573   */\n  dup3\n    /* \"#utility.yul\":7563:7577   */\n  add\n    /* \"#utility.yul\":7553:7577   */\n  swap2\n  pop\n    /* \"#utility.yul\":7622:7624   */\n  0x20\n    /* \"#utility.yul\":7611:7620   */\n  dup6\n    /* \"#utility.yul\":7607:7625   */\n  add\n    /* \"#utility.yul\":7594:7625   */\n  swap5\n  pop\n    /* \"#utility.yul\":7468:7472   */\n  0x20\n    /* \"#utility.yul\":7465:7466   */\n  dup2\n    /* \"#utility.yul\":7461:7473   */\n  add\n    /* \"#utility.yul\":7456:7473   */\n  swap1\n  pop\n    /* \"#utility.yul\":7431:7639   */\n  jump(tag_132)\ntag_134:\n    /* \"#utility.yul\":7667:7673   */\n  dup7\n    /* \"#utility.yul\":7658:7665   */\n  dup4\n    /* \"#utility.yul\":7655:7674   */\n  lt\n    /* \"#utility.yul\":7652:7831   */\n  iszero\n  tag_135\n  jumpi\n    /* \"#utility.yul\":7725:7734   */\n  dup5\n    /* \"#utility.yul\":7720:7723   */\n  dup10\n    /* \"#utility.yul\":7716:7735   */\n  add\n    /* \"#utility.yul\":7710:7736   */\n  mload\n    /* \"#utility.yul\":7768:7816   */\n  tag_136\n    /* \"#utility.yul\":7810:7814   */\n  0x1f\n    /* \"#utility.yul\":7802:7808   */\n  dup10\n    /* \"#utility.yul\":7798:7815   */\n  and\n    /* \"#utility.yul\":7787:7796   */\n  dup3\n    /* \"#utility.yul\":7768:7816   */\n  tag_39\n  jump\t// in\ntag_136:\n    /* \"#utility.yul\":7760:7766   */\n  dup4\n    /* \"#utility.yul\":7753:7817   */\n  sstore\n    /* \"#utility.yul\":7675:7831   */\n  pop\n    /* \"#utility.yul\":7652:7831   */\ntag_135:\n    /* \"#utility.yul\":7877:7878   */\n  0x01\n    /* \"#utility.yul\":7873:7874   */\n  0x02\n    /* \"#utility.yul\":7865:7871   */\n  dup9\n    /* \"#utility.yul\":7861:7875   */\n  mul\n    /* \"#utility.yul\":7857:7879   */\n  add\n    /* \"#utility.yul\":7851:7855   */\n  dup9\n    /* \"#utility.yul\":7844:7880   */\n  sstore\n    /* \"#utility.yul\":7279:7890   */\n  pop\n  pop\n  pop\n    /* \"#utility.yul\":7242:8129   */\ntag_127:\n  pop\n    /* \"#utility.yul\":6832:8135   */\n  pop\n  pop\n  pop\n    /* \"#utility.yul\":6740:8135   */\n  pop\n  pop\n  jump\t// out\n    /* \"contracts/SoftCRStorageM2C1.sol\":108:1007  contract SoftCRStorageM2C1 {... */\ntag_8:\n  dataSize(sub_0)\n  dup1\n  dataOffset(sub_0)\n  0x00\n  codecopy\n  0x00\n  return\nstop\n\nsub_0: assembly {\n        /* \"contracts/SoftCRStorageM2C1.sol\":108:1007  contract SoftCRStorageM2C1 {... */\n      mstore(0x40, 0x80)\n      callvalue\n      dup1\n      iszero\n      tag_1\n      jumpi\n      0x00\n      dup1\n      revert\n    tag_1:\n      pop\n      jumpi(tag_2, lt(calldatasize, 0x04))\n      shr(0xe0, calldataload(0x00))\n      dup1\n      0x5a9b0b89\n      eq\n      tag_3\n      jumpi\n      dup1\n      0x664e3df4\n      eq\n      tag_4\n      jumpi\n      dup1\n      0x6fda29b2\n      eq\n      tag_5\n      jumpi\n      dup1\n      0x893d20e8\n      eq\n      tag_6\n      jumpi\n      dup1\n      0x937f6e77\n      eq\n      tag_7\n      jumpi\n    tag_2:\n      0x00\n      dup1\n      revert\n        /* \"contracts/SoftCRStorageM2C1.sol\":721:812  function getInfo() external view returns (string memory) {... */\n    tag_3:\n      tag_8\n      tag_9\n      jump\t// in\n    tag_8:\n      mload(0x40)\n      tag_10\n      swap2\n      swap1\n      tag_11\n      jump\t// in\n    tag_10:\n      mload(0x40)\n      dup1\n      swap2\n      sub\n      swap1\n      return\n        /* \"contracts/SoftCRStorageM2C1.sol\":818:916  function getStoredInfoChanges () external view returns (uint) {... */\n    tag_4:\n      tag_12\n      tag_13\n      jump\t// in\n    tag_12:\n      mload(0x40)\n      tag_14\n      swap2\n      swap1\n      tag_15\n      jump\t// in\n    tag_14:\n      mload(0x40)\n      dup1\n      swap2\n      sub\n      swap1\n      return\n        /* \"contracts/SoftCRStorageM2C1.sol\":183:213  address public lastExecutioner */\n    tag_5:\n      tag_16\n      tag_17\n      jump\t// in\n    tag_16:\n      mload(0x40)\n      tag_18\n      swap2\n      swap1\n      tag_19\n      jump\t// in\n    tag_18:\n      mload(0x40)\n      dup1\n      swap2\n      sub\n      swap1\n      return\n        /* \"contracts/SoftCRStorageM2C1.sol\":922:1004  function getOwner () external view returns (address) {... */\n    tag_6:\n      tag_20\n      tag_21\n      jump\t// in\n    tag_20:\n      mload(0x40)\n      tag_22\n      swap2\n      swap1\n      tag_19\n      jump\t// in\n    tag_22:\n      mload(0x40)\n      dup1\n      swap2\n      sub\n      swap1\n      return\n        /* \"contracts/SoftCRStorageM2C1.sol\":383:715  function setInfo(string memory storedInfo_) external {... */\n    tag_7:\n      tag_23\n      0x04\n      dup1\n      calldatasize\n      sub\n      dup2\n      add\n      swap1\n      tag_24\n      swap2\n      swap1\n      tag_25\n      jump\t// in\n    tag_24:\n      tag_26\n      jump\t// in\n    tag_23:\n      stop\n        /* \"contracts/SoftCRStorageM2C1.sol\":721:812  function getInfo() external view returns (string memory) {... */\n    tag_9:\n        /* \"contracts/SoftCRStorageM2C1.sol\":763:776  string memory */\n      0x60\n        /* \"contracts/SoftCRStorageM2C1.sol\":795:805  storedInfo */\n      0x00\n        /* \"contracts/SoftCRStorageM2C1.sol\":788:805  return storedInfo */\n      dup1\n      sload\n      tag_28\n      swap1\n      tag_29\n      jump\t// in\n    tag_28:\n      dup1\n      0x1f\n      add\n      0x20\n      dup1\n      swap2\n      div\n      mul\n      0x20\n      add\n      mload(0x40)\n      swap1\n      dup2\n      add\n      0x40\n      mstore\n      dup1\n      swap3\n      swap2\n      swap1\n      dup2\n      dup2\n      mstore\n      0x20\n      add\n      dup3\n      dup1\n      sload\n      tag_30\n      swap1\n      tag_29\n      jump\t// in\n    tag_30:\n      dup1\n      iszero\n      tag_31\n      jumpi\n      dup1\n      0x1f\n      lt\n      tag_32\n      jumpi\n      0x0100\n      dup1\n      dup4\n      sload\n      div\n      mul\n      dup4\n      mstore\n      swap2\n      0x20\n      add\n      swap2\n      jump(tag_31)\n    tag_32:\n      dup3\n      add\n      swap2\n      swap1\n      0x00\n      mstore\n      keccak256(0x00, 0x20)\n      swap1\n    tag_33:\n      dup2\n      sload\n      dup2\n      mstore\n      swap1\n      0x01\n      add\n      swap1\n      0x20\n      add\n      dup1\n      dup4\n      gt\n      tag_33\n      jumpi\n      dup3\n      swap1\n      sub\n      0x1f\n      and\n      dup3\n      add\n      swap2\n    tag_31:\n      pop\n      pop\n      pop\n      pop\n      pop\n      swap1\n      pop\n        /* \"contracts/SoftCRStorageM2C1.sol\":721:812  function getInfo() external view returns (string memory) {... */\n      swap1\n      jump\t// out\n        /* \"contracts/SoftCRStorageM2C1.sol\":818:916  function getStoredInfoChanges () external view returns (uint) {... */\n    tag_13:\n        /* \"contracts/SoftCRStorageM2C1.sol\":874:878  uint */\n      0x00\n        /* \"contracts/SoftCRStorageM2C1.sol\":897:909  countChanges */\n      sload(0x03)\n        /* \"contracts/SoftCRStorageM2C1.sol\":890:909  return countChanges */\n      swap1\n      pop\n        /* \"contracts/SoftCRStorageM2C1.sol\":818:916  function getStoredInfoChanges () external view returns (uint) {... */\n      swap1\n      jump\t// out\n        /* \"contracts/SoftCRStorageM2C1.sol\":183:213  address public lastExecutioner */\n    tag_17:\n      0x02\n      0x00\n      swap1\n      sload\n      swap1\n      0x0100\n      exp\n      swap1\n      div\n      0xffffffffffffffffffffffffffffffffffffffff\n      and\n      dup2\n      jump\t// out\n        /* \"contracts/SoftCRStorageM2C1.sol\":922:1004  function getOwner () external view returns (address) {... */\n    tag_21:\n        /* \"contracts/SoftCRStorageM2C1.sol\":966:973  address */\n      0x00\n        /* \"contracts/SoftCRStorageM2C1.sol\":992:997  owner */\n      0x01\n      0x00\n      swap1\n      sload\n      swap1\n      0x0100\n      exp\n      swap1\n      div\n      0xffffffffffffffffffffffffffffffffffffffff\n      and\n        /* \"contracts/SoftCRStorageM2C1.sol\":985:997  return owner */\n      swap1\n      pop\n        /* \"contracts/SoftCRStorageM2C1.sol\":922:1004  function getOwner () external view returns (address) {... */\n      swap1\n      jump\t// out\n        /* \"contracts/SoftCRStorageM2C1.sol\":383:715  function setInfo(string memory storedInfo_) external {... */\n    tag_26:\n        /* \"contracts/SoftCRStorageM2C1.sol\":446:458  countChanges */\n      0x03\n      0x00\n        /* \"contracts/SoftCRStorageM2C1.sol\":446:460  countChanges++ */\n      dup2\n      sload\n      dup1\n      swap3\n      swap2\n      swap1\n      tag_37\n      swap1\n      tag_38\n      jump\t// in\n    tag_37:\n      swap2\n      swap1\n      pop\n      sstore\n      pop\n        /* \"contracts/SoftCRStorageM2C1.sol\":492:497  owner */\n      0x01\n      0x00\n      swap1\n      sload\n      swap1\n      0x0100\n      exp\n      swap1\n      div\n      0xffffffffffffffffffffffffffffffffffffffff\n      and\n        /* \"contracts/SoftCRStorageM2C1.sol\":478:497  msg.sender == owner */\n      0xffffffffffffffffffffffffffffffffffffffff\n      and\n        /* \"contracts/SoftCRStorageM2C1.sol\":478:488  msg.sender */\n      caller\n        /* \"contracts/SoftCRStorageM2C1.sol\":478:497  msg.sender == owner */\n      0xffffffffffffffffffffffffffffffffffffffff\n      and\n      eq\n        /* \"contracts/SoftCRStorageM2C1.sol\":470:545  require(msg.sender == owner, \"Unicamente el owner puede cambiar el valor.\") */\n      tag_39\n      jumpi\n      mload(0x40)\n      0x08c379a000000000000000000000000000000000000000000000000000000000\n      dup2\n      mstore\n      0x04\n      add\n      tag_40\n      swap1\n      tag_41\n      jump\t// in\n    tag_40:\n      mload(0x40)\n      dup1\n      swap2\n      sub\n      swap1\n      revert\n    tag_39:\n        /* \"contracts/SoftCRStorageM2C1.sol\":586:587  5 */\n      0x05\n        /* \"contracts/SoftCRStorageM2C1.sol\":571:583  countChanges */\n      sload(0x03)\n        /* \"contracts/SoftCRStorageM2C1.sol\":571:587  countChanges < 5 */\n      lt\n        /* \"contracts/SoftCRStorageM2C1.sol\":563:637  require(countChanges < 5, \"Solo se puede cambiar hasta 4 veces el valor.\") */\n      tag_42\n      jumpi\n      mload(0x40)\n      0x08c379a000000000000000000000000000000000000000000000000000000000\n      dup2\n      mstore\n      0x04\n      add\n      tag_43\n      swap1\n      tag_44\n      jump\t// in\n    tag_43:\n      mload(0x40)\n      dup1\n      swap2\n      sub\n      swap1\n      revert\n    tag_42:\n        /* \"contracts/SoftCRStorageM2C1.sol\":660:671  storedInfo_ */\n      dup1\n        /* \"contracts/SoftCRStorageM2C1.sol\":647:657  storedInfo */\n      0x00\n        /* \"contracts/SoftCRStorageM2C1.sol\":647:671  storedInfo = storedInfo_ */\n      swap1\n      dup2\n      tag_45\n      swap2\n      swap1\n      tag_46\n      jump\t// in\n    tag_45:\n      pop\n        /* \"contracts/SoftCRStorageM2C1.sol\":698:708  msg.sender */\n      caller\n        /* \"contracts/SoftCRStorageM2C1.sol\":681:696  lastExecutioner */\n      0x02\n      0x00\n        /* \"contracts/SoftCRStorageM2C1.sol\":681:708  lastExecutioner= msg.sender */\n      0x0100\n      exp\n      dup2\n      sload\n      dup2\n      0xffffffffffffffffffffffffffffffffffffffff\n      mul\n      not\n      and\n      swap1\n      dup4\n      0xffffffffffffffffffffffffffffffffffffffff\n      and\n      mul\n      or\n      swap1\n      sstore\n      pop\n        /* \"contracts/SoftCRStorageM2C1.sol\":383:715  function setInfo(string memory storedInfo_) external {... */\n      pop\n      jump\t// out\n        /* \"#utility.yul\":7:106   */\n    tag_47:\n        /* \"#utility.yul\":59:65   */\n      0x00\n        /* \"#utility.yul\":93:98   */\n      dup2\n        /* \"#utility.yul\":87:99   */\n      mload\n        /* \"#utility.yul\":77:99   */\n      swap1\n      pop\n        /* \"#utility.yul\":7:106   */\n      swap2\n      swap1\n      pop\n      jump\t// out\n        /* \"#utility.yul\":112:281   */\n    tag_48:\n        /* \"#utility.yul\":196:207   */\n      0x00\n        /* \"#utility.yul\":230:236   */\n      dup3\n        /* \"#utility.yul\":225:228   */\n      dup3\n        /* \"#utility.yul\":218:237   */\n      mstore\n        /* \"#utility.yul\":270:274   */\n      0x20\n        /* \"#utility.yul\":265:268   */\n      dup3\n        /* \"#utility.yul\":261:275   */\n      add\n        /* \"#utility.yul\":246:275   */\n      swap1\n      pop\n        /* \"#utility.yul\":112:281   */\n      swap3\n      swap2\n      pop\n      pop\n      jump\t// out\n        /* \"#utility.yul\":287:426   */\n    tag_49:\n        /* \"#utility.yul\":376:382   */\n      dup3\n        /* \"#utility.yul\":371:374   */\n      dup2\n        /* \"#utility.yul\":366:369   */\n      dup4\n        /* \"#utility.yul\":360:383   */\n      mcopy\n        /* \"#utility.yul\":417:418   */\n      0x00\n        /* \"#utility.yul\":408:414   */\n      dup4\n        /* \"#utility.yul\":403:406   */\n      dup4\n        /* \"#utility.yul\":399:415   */\n      add\n        /* \"#utility.yul\":392:419   */\n      mstore\n        /* \"#utility.yul\":287:426   */\n      pop\n      pop\n      pop\n      jump\t// out\n        /* \"#utility.yul\":432:534   */\n    tag_50:\n        /* \"#utility.yul\":473:479   */\n      0x00\n        /* \"#utility.yul\":524:526   */\n      0x1f\n        /* \"#utility.yul\":520:527   */\n      not\n        /* \"#utility.yul\":515:517   */\n      0x1f\n        /* \"#utility.yul\":508:513   */\n      dup4\n        /* \"#utility.yul\":504:518   */\n      add\n        /* \"#utility.yul\":500:528   */\n      and\n        /* \"#utility.yul\":490:528   */\n      swap1\n      pop\n        /* \"#utility.yul\":432:534   */\n      swap2\n      swap1\n      pop\n      jump\t// out\n        /* \"#utility.yul\":540:917   */\n    tag_51:\n        /* \"#utility.yul\":628:631   */\n      0x00\n        /* \"#utility.yul\":656:695   */\n      tag_96\n        /* \"#utility.yul\":689:694   */\n      dup3\n        /* \"#utility.yul\":656:695   */\n      tag_47\n      jump\t// in\n    tag_96:\n        /* \"#utility.yul\":711:782   */\n      tag_97\n        /* \"#utility.yul\":775:781   */\n      dup2\n        /* \"#utility.yul\":770:773   */\n      dup6\n        /* \"#utility.yul\":711:782   */\n      tag_48\n      jump\t// in\n    tag_97:\n        /* \"#utility.yul\":704:782   */\n      swap4\n      pop\n        /* \"#utility.yul\":791:856   */\n      tag_98\n        /* \"#utility.yul\":849:855   */\n      dup2\n        /* \"#utility.yul\":844:847   */\n      dup6\n        /* \"#utility.yul\":837:841   */\n      0x20\n        /* \"#utility.yul\":830:835   */\n      dup7\n        /* \"#utility.yul\":826:842   */\n      add\n        /* \"#utility.yul\":791:856   */\n      tag_49\n      jump\t// in\n    tag_98:\n        /* \"#utility.yul\":881:910   */\n      tag_99\n        /* \"#utility.yul\":903:909   */\n      dup2\n        /* \"#utility.yul\":881:910   */\n      tag_50\n      jump\t// in\n    tag_99:\n        /* \"#utility.yul\":876:879   */\n      dup5\n        /* \"#utility.yul\":872:911   */\n      add\n        /* \"#utility.yul\":865:911   */\n      swap2\n      pop\n        /* \"#utility.yul\":632:917   */\n      pop\n        /* \"#utility.yul\":540:917   */\n      swap3\n      swap2\n      pop\n      pop\n      jump\t// out\n        /* \"#utility.yul\":923:1236   */\n    tag_11:\n        /* \"#utility.yul\":1036:1040   */\n      0x00\n        /* \"#utility.yul\":1074:1076   */\n      0x20\n        /* \"#utility.yul\":1063:1072   */\n      dup3\n        /* \"#utility.yul\":1059:1077   */\n      add\n        /* \"#utility.yul\":1051:1077   */\n      swap1\n      pop\n        /* \"#utility.yul\":1123:1132   */\n      dup2\n        /* \"#utility.yul\":1117:1121   */\n      dup2\n        /* \"#utility.yul\":1113:1133   */\n      sub\n        /* \"#utility.yul\":1109:1110   */\n      0x00\n        /* \"#utility.yul\":1098:1107   */\n      dup4\n        /* \"#utility.yul\":1094:1111   */\n      add\n        /* \"#utility.yul\":1087:1134   */\n      mstore\n        /* \"#utility.yul\":1151:1229   */\n      tag_101\n        /* \"#utility.yul\":1224:1228   */\n      dup2\n        /* \"#utility.yul\":1215:1221   */\n      dup5\n        /* \"#utility.yul\":1151:1229   */\n      tag_51\n      jump\t// in\n    tag_101:\n        /* \"#utility.yul\":1143:1229   */\n      swap1\n      pop\n        /* \"#utility.yul\":923:1236   */\n      swap3\n      swap2\n      pop\n      pop\n      jump\t// out\n        /* \"#utility.yul\":1242:1319   */\n    tag_52:\n        /* \"#utility.yul\":1279:1286   */\n      0x00\n        /* \"#utility.yul\":1308:1313   */\n      dup2\n        /* \"#utility.yul\":1297:1313   */\n      swap1\n      pop\n        /* \"#utility.yul\":1242:1319   */\n      swap2\n      swap1\n      pop\n      jump\t// out\n        /* \"#utility.yul\":1325:1443   */\n    tag_53:\n        /* \"#utility.yul\":1412:1436   */\n      tag_104\n        /* \"#utility.yul\":1430:1435   */\n      dup2\n        /* \"#utility.yul\":1412:1436   */\n      tag_52\n      jump\t// in\n    tag_104:\n        /* \"#utility.yul\":1407:1410   */\n      dup3\n        /* \"#utility.yul\":1400:1437   */\n      mstore\n        /* \"#utility.yul\":1325:1443   */\n      pop\n      pop\n      jump\t// out\n        /* \"#utility.yul\":1449:1671   */\n    tag_15:\n        /* \"#utility.yul\":1542:1546   */\n      0x00\n        /* \"#utility.yul\":1580:1582   */\n      0x20\n        /* \"#utility.yul\":1569:1578   */\n      dup3\n        /* \"#utility.yul\":1565:1583   */\n      add\n        /* \"#utility.yul\":1557:1583   */\n      swap1\n      pop\n        /* \"#utility.yul\":1593:1664   */\n      tag_106\n        /* \"#utility.yul\":1661:1662   */\n      0x00\n        /* \"#utility.yul\":1650:1659   */\n      dup4\n        /* \"#utility.yul\":1646:1663   */\n      add\n        /* \"#utility.yul\":1637:1643   */\n      dup5\n        /* \"#utility.yul\":1593:1664   */\n      tag_53\n      jump\t// in\n    tag_106:\n        /* \"#utility.yul\":1449:1671   */\n      swap3\n      swap2\n      pop\n      pop\n      jump\t// out\n        /* \"#utility.yul\":1677:1803   */\n    tag_54:\n        /* \"#utility.yul\":1714:1721   */\n      0x00\n        /* \"#utility.yul\":1754:1796   */\n      0xffffffffffffffffffffffffffffffffffffffff\n        /* \"#utility.yul\":1747:1752   */\n      dup3\n        /* \"#utility.yul\":1743:1797   */\n      and\n        /* \"#utility.yul\":1732:1797   */\n      swap1\n      pop\n        /* \"#utility.yul\":1677:1803   */\n      swap2\n      swap1\n      pop\n      jump\t// out\n        /* \"#utility.yul\":1809:1905   */\n    tag_55:\n        /* \"#utility.yul\":1846:1853   */\n      0x00\n        /* \"#utility.yul\":1875:1899   */\n      tag_109\n        /* \"#utility.yul\":1893:1898   */\n      dup3\n        /* \"#utility.yul\":1875:1899   */\n      tag_54\n      jump\t// in\n    tag_109:\n        /* \"#utility.yul\":1864:1899   */\n      swap1\n      pop\n        /* \"#utility.yul\":1809:1905   */\n      swap2\n      swap1\n      pop\n      jump\t// out\n        /* \"#utility.yul\":1911:2029   */\n    tag_56:\n        /* \"#utility.yul\":1998:2022   */\n      tag_111\n        /* \"#utility.yul\":2016:2021   */\n      dup2\n        /* \"#utility.yul\":1998:2022   */\n      tag_55\n      jump\t// in\n    tag_111:\n        /* \"#utility.yul\":1993:1996   */\n      dup3\n        /* \"#utility.yul\":1986:2023   */\n      mstore\n        /* \"#utility.yul\":1911:2029   */\n      pop\n      pop\n      jump\t// out\n        /* \"#utility.yul\":2035:2257   */\n    tag_19:\n        /* \"#utility.yul\":2128:2132   */\n      0x00\n        /* \"#utility.yul\":2166:2168   */\n      0x20\n        /* \"#utility.yul\":2155:2164   */\n      dup3\n        /* \"#utility.yul\":2151:2169   */\n      add\n        /* \"#utility.yul\":2143:2169   */\n      swap1\n      pop\n        /* \"#utility.yul\":2179:2250   */\n      tag_113\n        /* \"#utility.yul\":2247:2248   */\n      0x00\n        /* \"#utility.yul\":2236:2245   */\n      dup4\n        /* \"#utility.yul\":2232:2249   */\n      add\n        /* \"#utility.yul\":2223:2229   */\n      dup5\n        /* \"#utility.yul\":2179:2250   */\n      tag_56\n      jump\t// in\n    tag_113:\n        /* \"#utility.yul\":2035:2257   */\n      swap3\n      swap2\n      pop\n      pop\n      jump\t// out\n        /* \"#utility.yul\":2263:2338   */\n    tag_57:\n        /* \"#utility.yul\":2296:2302   */\n      0x00\n        /* \"#utility.yul\":2329:2331   */\n      0x40\n        /* \"#utility.yul\":2323:2332   */\n      mload\n        /* \"#utility.yul\":2313:2332   */\n      swap1\n      pop\n        /* \"#utility.yul\":2263:2338   */\n      swap1\n      jump\t// out\n        /* \"#utility.yul\":2344:2461   */\n    tag_58:\n        /* \"#utility.yul\":2453:2454   */\n      0x00\n        /* \"#utility.yul\":2450:2451   */\n      dup1\n        /* \"#utility.yul\":2443:2455   */\n      revert\n        /* \"#utility.yul\":2467:2584   */\n    tag_59:\n        /* \"#utility.yul\":2576:2577   */\n      0x00\n        /* \"#utility.yul\":2573:2574   */\n      dup1\n        /* \"#utility.yul\":2566:2578   */\n      revert\n        /* \"#utility.yul\":2590:2707   */\n    tag_60:\n        /* \"#utility.yul\":2699:2700   */\n      0x00\n        /* \"#utility.yul\":2696:2697   */\n      dup1\n        /* \"#utility.yul\":2689:2701   */\n      revert\n        /* \"#utility.yul\":2713:2830   */\n    tag_61:\n        /* \"#utility.yul\":2822:2823   */\n      0x00\n        /* \"#utility.yul\":2819:2820   */\n      dup1\n        /* \"#utility.yul\":2812:2824   */\n      revert\n        /* \"#utility.yul\":2836:3016   */\n    tag_62:\n        /* \"#utility.yul\":2884:2961   */\n      0x4e487b7100000000000000000000000000000000000000000000000000000000\n        /* \"#utility.yul\":2881:2882   */\n      0x00\n        /* \"#utility.yul\":2874:2962   */\n      mstore\n        /* \"#utility.yul\":2981:2985   */\n      0x41\n        /* \"#utility.yul\":2978:2979   */\n      0x04\n        /* \"#utility.yul\":2971:2986   */\n      mstore\n        /* \"#utility.yul\":3005:3009   */\n      0x24\n        /* \"#utility.yul\":3002:3003   */\n      0x00\n        /* \"#utility.yul\":2995:3010   */\n      revert\n        /* \"#utility.yul\":3022:3303   */\n    tag_63:\n        /* \"#utility.yul\":3105:3132   */\n      tag_121\n        /* \"#utility.yul\":3127:3131   */\n      dup3\n        /* \"#utility.yul\":3105:3132   */\n      tag_50\n      jump\t// in\n    tag_121:\n        /* \"#utility.yul\":3097:3103   */\n      dup2\n        /* \"#utility.yul\":3093:3133   */\n      add\n        /* \"#utility.yul\":3235:3241   */\n      dup2\n        /* \"#utility.yul\":3223:3233   */\n      dup2\n        /* \"#utility.yul\":3220:3242   */\n      lt\n        /* \"#utility.yul\":3199:3217   */\n      0xffffffffffffffff\n        /* \"#utility.yul\":3187:3197   */\n      dup3\n        /* \"#utility.yul\":3184:3218   */\n      gt\n        /* \"#utility.yul\":3181:3243   */\n      or\n        /* \"#utility.yul\":3178:3266   */\n      iszero\n      tag_122\n      jumpi\n        /* \"#utility.yul\":3246:3264   */\n      tag_123\n      tag_62\n      jump\t// in\n    tag_123:\n        /* \"#utility.yul\":3178:3266   */\n    tag_122:\n        /* \"#utility.yul\":3286:3296   */\n      dup1\n        /* \"#utility.yul\":3282:3284   */\n      0x40\n        /* \"#utility.yul\":3275:3297   */\n      mstore\n        /* \"#utility.yul\":3065:3303   */\n      pop\n        /* \"#utility.yul\":3022:3303   */\n      pop\n      pop\n      jump\t// out\n        /* \"#utility.yul\":3309:3438   */\n    tag_64:\n        /* \"#utility.yul\":3343:3349   */\n      0x00\n        /* \"#utility.yul\":3370:3390   */\n      tag_125\n      tag_57\n      jump\t// in\n    tag_125:\n        /* \"#utility.yul\":3360:3390   */\n      swap1\n      pop\n        /* \"#utility.yul\":3399:3432   */\n      tag_126\n        /* \"#utility.yul\":3427:3431   */\n      dup3\n        /* \"#utility.yul\":3419:3425   */\n      dup3\n        /* \"#utility.yul\":3399:3432   */\n      tag_63\n      jump\t// in\n    tag_126:\n        /* \"#utility.yul\":3309:3438   */\n      swap2\n      swap1\n      pop\n      jump\t// out\n        /* \"#utility.yul\":3444:3752   */\n    tag_65:\n        /* \"#utility.yul\":3506:3510   */\n      0x00\n        /* \"#utility.yul\":3596:3614   */\n      0xffffffffffffffff\n        /* \"#utility.yul\":3588:3594   */\n      dup3\n        /* \"#utility.yul\":3585:3615   */\n      gt\n        /* \"#utility.yul\":3582:3638   */\n      iszero\n      tag_128\n      jumpi\n        /* \"#utility.yul\":3618:3636   */\n      tag_129\n      tag_62\n      jump\t// in\n    tag_129:\n        /* \"#utility.yul\":3582:3638   */\n    tag_128:\n        /* \"#utility.yul\":3656:3685   */\n      tag_130\n        /* \"#utility.yul\":3678:3684   */\n      dup3\n        /* \"#utility.yul\":3656:3685   */\n      tag_50\n      jump\t// in\n    tag_130:\n        /* \"#utility.yul\":3648:3685   */\n      swap1\n      pop\n        /* \"#utility.yul\":3740:3744   */\n      0x20\n        /* \"#utility.yul\":3734:3738   */\n      dup2\n        /* \"#utility.yul\":3730:3745   */\n      add\n        /* \"#utility.yul\":3722:3745   */\n      swap1\n      pop\n        /* \"#utility.yul\":3444:3752   */\n      swap2\n      swap1\n      pop\n      jump\t// out\n        /* \"#utility.yul\":3758:3906   */\n    tag_66:\n        /* \"#utility.yul\":3856:3862   */\n      dup3\n        /* \"#utility.yul\":3851:3854   */\n      dup2\n        /* \"#utility.yul\":3846:3849   */\n      dup4\n        /* \"#utility.yul\":3833:3863   */\n      calldatacopy\n        /* \"#utility.yul\":3897:3898   */\n      0x00\n        /* \"#utility.yul\":3888:3894   */\n      dup4\n        /* \"#utility.yul\":3883:3886   */\n      dup4\n        /* \"#utility.yul\":3879:3895   */\n      add\n        /* \"#utility.yul\":3872:3899   */\n      mstore\n        /* \"#utility.yul\":3758:3906   */\n      pop\n      pop\n      pop\n      jump\t// out\n        /* \"#utility.yul\":3912:4337   */\n    tag_67:\n        /* \"#utility.yul\":3990:3995   */\n      0x00\n        /* \"#utility.yul\":4015:4081   */\n      tag_133\n        /* \"#utility.yul\":4031:4080   */\n      tag_134\n        /* \"#utility.yul\":4073:4079   */\n      dup5\n        /* \"#utility.yul\":4031:4080   */\n      tag_65\n      jump\t// in\n    tag_134:\n        /* \"#utility.yul\":4015:4081   */\n      tag_64\n      jump\t// in\n    tag_133:\n        /* \"#utility.yul\":4006:4081   */\n      swap1\n      pop\n        /* \"#utility.yul\":4104:4110   */\n      dup3\n        /* \"#utility.yul\":4097:4102   */\n      dup2\n        /* \"#utility.yul\":4090:4111   */\n      mstore\n        /* \"#utility.yul\":4142:4146   */\n      0x20\n        /* \"#utility.yul\":4135:4140   */\n      dup2\n        /* \"#utility.yul\":4131:4147   */\n      add\n        /* \"#utility.yul\":4180:4183   */\n      dup5\n        /* \"#utility.yul\":4171:4177   */\n      dup5\n        /* \"#utility.yul\":4166:4169   */\n      dup5\n        /* \"#utility.yul\":4162:4178   */\n      add\n        /* \"#utility.yul\":4159:4184   */\n      gt\n        /* \"#utility.yul\":4156:4268   */\n      iszero\n      tag_135\n      jumpi\n        /* \"#utility.yul\":4187:4266   */\n      tag_136\n      tag_61\n      jump\t// in\n    tag_136:\n        /* \"#utility.yul\":4156:4268   */\n    tag_135:\n        /* \"#utility.yul\":4277:4331   */\n      tag_137\n        /* \"#utility.yul\":4324:4330   */\n      dup5\n        /* \"#utility.yul\":4319:4322   */\n      dup3\n        /* \"#utility.yul\":4314:4317   */\n      dup6\n        /* \"#utility.yul\":4277:4331   */\n      tag_66\n      jump\t// in\n    tag_137:\n        /* \"#utility.yul\":3996:4337   */\n      pop\n        /* \"#utility.yul\":3912:4337   */\n      swap4\n      swap3\n      pop\n      pop\n      pop\n      jump\t// out\n        /* \"#utility.yul\":4357:4697   */\n    tag_68:\n        /* \"#utility.yul\":4413:4418   */\n      0x00\n        /* \"#utility.yul\":4462:4465   */\n      dup3\n        /* \"#utility.yul\":4455:4459   */\n      0x1f\n        /* \"#utility.yul\":4447:4453   */\n      dup4\n        /* \"#utility.yul\":4443:4460   */\n      add\n        /* \"#utility.yul\":4439:4466   */\n      slt\n        /* \"#utility.yul\":4429:4551   */\n      tag_139\n      jumpi\n        /* \"#utility.yul\":4470:4549   */\n      tag_140\n      tag_60\n      jump\t// in\n    tag_140:\n        /* \"#utility.yul\":4429:4551   */\n    tag_139:\n        /* \"#utility.yul\":4587:4593   */\n      dup2\n        /* \"#utility.yul\":4574:4594   */\n      calldataload\n        /* \"#utility.yul\":4612:4691   */\n      tag_141\n        /* \"#utility.yul\":4687:4690   */\n      dup5\n        /* \"#utility.yul\":4679:4685   */\n      dup3\n        /* \"#utility.yul\":4672:4676   */\n      0x20\n        /* \"#utility.yul\":4664:4670   */\n      dup7\n        /* \"#utility.yul\":4660:4677   */\n      add\n        /* \"#utility.yul\":4612:4691   */\n      tag_67\n      jump\t// in\n    tag_141:\n        /* \"#utility.yul\":4603:4691   */\n      swap2\n      pop\n        /* \"#utility.yul\":4419:4697   */\n      pop\n        /* \"#utility.yul\":4357:4697   */\n      swap3\n      swap2\n      pop\n      pop\n      jump\t// out\n        /* \"#utility.yul\":4703:5212   */\n    tag_25:\n        /* \"#utility.yul\":4772:4778   */\n      0x00\n        /* \"#utility.yul\":4821:4823   */\n      0x20\n        /* \"#utility.yul\":4809:4818   */\n      dup3\n        /* \"#utility.yul\":4800:4807   */\n      dup5\n        /* \"#utility.yul\":4796:4819   */\n      sub\n        /* \"#utility.yul\":4792:4824   */\n      slt\n        /* \"#utility.yul\":4789:4908   */\n      iszero\n      tag_143\n      jumpi\n        /* \"#utility.yul\":4827:4906   */\n      tag_144\n      tag_58\n      jump\t// in\n    tag_144:\n        /* \"#utility.yul\":4789:4908   */\n    tag_143:\n        /* \"#utility.yul\":4975:4976   */\n      0x00\n        /* \"#utility.yul\":4964:4973   */\n      dup3\n        /* \"#utility.yul\":4960:4977   */\n      add\n        /* \"#utility.yul\":4947:4978   */\n      calldataload\n        /* \"#utility.yul\":5005:5023   */\n      0xffffffffffffffff\n        /* \"#utility.yul\":4997:5003   */\n      dup2\n        /* \"#utility.yul\":4994:5024   */\n      gt\n        /* \"#utility.yul\":4991:5108   */\n      iszero\n      tag_145\n      jumpi\n        /* \"#utility.yul\":5027:5106   */\n      tag_146\n      tag_59\n      jump\t// in\n    tag_146:\n        /* \"#utility.yul\":4991:5108   */\n    tag_145:\n        /* \"#utility.yul\":5132:5195   */\n      tag_147\n        /* \"#utility.yul\":5187:5194   */\n      dup5\n        /* \"#utility.yul\":5178:5184   */\n      dup3\n        /* \"#utility.yul\":5167:5176   */\n      dup6\n        /* \"#utility.yul\":5163:5185   */\n      add\n        /* \"#utility.yul\":5132:5195   */\n      tag_68\n      jump\t// in\n    tag_147:\n        /* \"#utility.yul\":5122:5195   */\n      swap2\n      pop\n        /* \"#utility.yul\":4918:5205   */\n      pop\n        /* \"#utility.yul\":4703:5212   */\n      swap3\n      swap2\n      pop\n      pop\n      jump\t// out\n        /* \"#utility.yul\":5218:5398   */\n    tag_69:\n        /* \"#utility.yul\":5266:5343   */\n      0x4e487b7100000000000000000000000000000000000000000000000000000000\n        /* \"#utility.yul\":5263:5264   */\n      0x00\n        /* \"#utility.yul\":5256:5344   */\n      mstore\n        /* \"#utility.yul\":5363:5367   */\n      0x22\n        /* \"#utility.yul\":5360:5361   */\n      0x04\n        /* \"#utility.yul\":5353:5368   */\n      mstore\n        /* \"#utility.yul\":5387:5391   */\n      0x24\n        /* \"#utility.yul\":5384:5385   */\n      0x00\n        /* \"#utility.yul\":5377:5392   */\n      revert\n        /* \"#utility.yul\":5404:5724   */\n    tag_29:\n        /* \"#utility.yul\":5448:5454   */\n      0x00\n        /* \"#utility.yul\":5485:5486   */\n      0x02\n        /* \"#utility.yul\":5479:5483   */\n      dup3\n        /* \"#utility.yul\":5475:5487   */\n      div\n        /* \"#utility.yul\":5465:5487   */\n      swap1\n      pop\n        /* \"#utility.yul\":5532:5533   */\n      0x01\n        /* \"#utility.yul\":5526:5530   */\n      dup3\n        /* \"#utility.yul\":5522:5534   */\n      and\n        /* \"#utility.yul\":5553:5571   */\n      dup1\n        /* \"#utility.yul\":5543:5624   */\n      tag_150\n      jumpi\n        /* \"#utility.yul\":5609:5613   */\n      0x7f\n        /* \"#utility.yul\":5601:5607   */\n      dup3\n        /* \"#utility.yul\":5597:5614   */\n      and\n        /* \"#utility.yul\":5587:5614   */\n      swap2\n      pop\n        /* \"#utility.yul\":5543:5624   */\n    tag_150:\n        /* \"#utility.yul\":5671:5673   */\n      0x20\n        /* \"#utility.yul\":5663:5669   */\n      dup3\n        /* \"#utility.yul\":5660:5674   */\n      lt\n        /* \"#utility.yul\":5640:5658   */\n      dup2\n        /* \"#utility.yul\":5637:5675   */\n      sub\n        /* \"#utility.yul\":5634:5718   */\n      tag_151\n      jumpi\n        /* \"#utility.yul\":5690:5708   */\n      tag_152\n      tag_69\n      jump\t// in\n    tag_152:\n        /* \"#utility.yul\":5634:5718   */\n    tag_151:\n        /* \"#utility.yul\":5455:5724   */\n      pop\n        /* \"#utility.yul\":5404:5724   */\n      swap2\n      swap1\n      pop\n      jump\t// out\n        /* \"#utility.yul\":5730:5910   */\n    tag_70:\n        /* \"#utility.yul\":5778:5855   */\n      0x4e487b7100000000000000000000000000000000000000000000000000000000\n        /* \"#utility.yul\":5775:5776   */\n      0x00\n        /* \"#utility.yul\":5768:5856   */\n      mstore\n        /* \"#utility.yul\":5875:5879   */\n      0x11\n        /* \"#utility.yul\":5872:5873   */\n      0x04\n        /* \"#utility.yul\":5865:5880   */\n      mstore\n        /* \"#utility.yul\":5899:5903   */\n      0x24\n        /* \"#utility.yul\":5896:5897   */\n      0x00\n        /* \"#utility.yul\":5889:5904   */\n      revert\n        /* \"#utility.yul\":5916:6149   */\n    tag_38:\n        /* \"#utility.yul\":5955:5958   */\n      0x00\n        /* \"#utility.yul\":5978:6002   */\n      tag_155\n        /* \"#utility.yul\":5996:6001   */\n      dup3\n        /* \"#utility.yul\":5978:6002   */\n      tag_52\n      jump\t// in\n    tag_155:\n        /* \"#utility.yul\":5969:6002   */\n      swap2\n      pop\n        /* \"#utility.yul\":6024:6090   */\n      0xffffffffffffffffffffffffffffffffffffffffffffffffffffffffffffffff\n        /* \"#utility.yul\":6017:6022   */\n      dup3\n        /* \"#utility.yul\":6014:6091   */\n      sub\n        /* \"#utility.yul\":6011:6114   */\n      tag_156\n      jumpi\n        /* \"#utility.yul\":6094:6112   */\n      tag_157\n      tag_70\n      jump\t// in\n    tag_157:\n        /* \"#utility.yul\":6011:6114   */\n    tag_156:\n        /* \"#utility.yul\":6141:6142   */\n      0x01\n        /* \"#utility.yul\":6134:6139   */\n      dup3\n        /* \"#utility.yul\":6130:6143   */\n      add\n        /* \"#utility.yul\":6123:6143   */\n      swap1\n      pop\n        /* \"#utility.yul\":5916:6149   */\n      swap2\n      swap1\n      pop\n      jump\t// out\n        /* \"#utility.yul\":6155:6385   */\n    tag_71:\n        /* \"#utility.yul\":6295:6329   */\n      0x556e6963616d656e746520656c206f776e65722070756564652063616d626961\n        /* \"#utility.yul\":6291:6292   */\n      0x00\n        /* \"#utility.yul\":6283:6289   */\n      dup3\n        /* \"#utility.yul\":6279:6293   */\n      add\n        /* \"#utility.yul\":6272:6330   */\n      mstore\n        /* \"#utility.yul\":6364:6377   */\n      0x7220656c2076616c6f722e000000000000000000000000000000000000000000\n        /* \"#utility.yul\":6359:6361   */\n      0x20\n        /* \"#utility.yul\":6351:6357   */\n      dup3\n        /* \"#utility.yul\":6347:6362   */\n      add\n        /* \"#utility.yul\":6340:6378   */\n      mstore\n        /* \"#utility.yul\":6155:6385   */\n      pop\n      jump\t// out\n        /* \"#utility.yul\":6391:6757   */\n    tag_72:\n        /* \"#utility.yul\":6533:6536   */\n      0x00\n        /* \"#utility.yul\":6554:6621   */\n      tag_160\n        /* \"#utility.yul\":6618:6620   */\n      0x2b\n        /* \"#utility.yul\":6613:6616   */\n      dup4\n        /* \"#utility.yul\":6554:6621   */\n      tag_48\n      jump\t// in\n    tag_160:\n        /* \"#utility.yul\":6547:6621   */\n      swap2\n      pop\n        /* \"#utility.yul\":6630:6723   */\n      tag_161\n        /* \"#utility.yul\":6719:6722   */\n      dup3\n        /* \"#utility.yul\":6630:6723   */\n      tag_71\n      jump\t// in\n    tag_161:\n        /* \"#utility.yul\":6748:6750   */\n      0x40\n        /* \"#utility.yul\":6743:6746   */\n      dup3\n        /* \"#utility.yul\":6739:6751   */\n      add\n        /* \"#utility.yul\":6732:6751   */\n      swap1\n      pop\n        /* \"#utility.yul\":6391:6757   */\n      swap2\n      swap1\n      pop\n      jump\t// out\n        /* \"#utility.yul\":6763:7182   */\n    tag_41:\n        /* \"#utility.yul\":6929:6933   */\n      0x00\n        /* \"#utility.yul\":6967:6969   */\n      0x20\n        /* \"#utility.yul\":6956:6965   */\n      dup3\n        /* \"#utility.yul\":6952:6970   */\n      add\n        /* \"#utility.yul\":6944:6970   */\n      swap1\n      pop\n        /* \"#utility.yul\":7016:7025   */\n      dup2\n        /* \"#utility.yul\":7010:7014   */\n      dup2\n        /* \"#utility.yul\":7006:7026   */\n      sub\n        /* \"#utility.yul\":7002:7003   */\n      0x00\n        /* \"#utility.yul\":6991:7000   */\n      dup4\n        /* \"#utility.yul\":6987:7004   */\n      add\n        /* \"#utility.yul\":6980:7027   */\n      mstore\n        /* \"#utility.yul\":7044:7175   */\n      tag_163\n        /* \"#utility.yul\":7170:7174   */\n      dup2\n        /* \"#utility.yul\":7044:7175   */\n      tag_72\n      jump\t// in\n    tag_163:\n        /* \"#utility.yul\":7036:7175   */\n      swap1\n      pop\n        /* \"#utility.yul\":6763:7182   */\n      swap2\n      swap1\n      pop\n      jump\t// out\n        /* \"#utility.yul\":7188:7420   */\n    tag_73:\n        /* \"#utility.yul\":7328:7362   */\n      0x536f6c6f2073652070756564652063616d626961722068617374612034207665\n        /* \"#utility.yul\":7324:7325   */\n      0x00\n        /* \"#utility.yul\":7316:7322   */\n      dup3\n        /* \"#utility.yul\":7312:7326   */\n      add\n        /* \"#utility.yul\":7305:7363   */\n      mstore\n        /* \"#utility.yul\":7397:7412   */\n      0x63657320656c2076616c6f722e00000000000000000000000000000000000000\n        /* \"#utility.yul\":7392:7394   */\n      0x20\n        /* \"#utility.yul\":7384:7390   */\n      dup3\n        /* \"#utility.yul\":7380:7395   */\n      add\n        /* \"#utility.yul\":7373:7413   */\n      mstore\n        /* \"#utility.yul\":7188:7420   */\n      pop\n      jump\t// out\n        /* \"#utility.yul\":7426:7792   */\n    tag_74:\n        /* \"#utility.yul\":7568:7571   */\n      0x00\n        /* \"#utility.yul\":7589:7656   */\n      tag_166\n        /* \"#utility.yul\":7653:7655   */\n      0x2d\n        /* \"#utility.yul\":7648:7651   */\n      dup4\n        /* \"#utility.yul\":7589:7656   */\n      tag_48\n      jump\t// in\n    tag_166:\n        /* \"#utility.yul\":7582:7656   */\n      swap2\n      pop\n        /* \"#utility.yul\":7665:7758   */\n      tag_167\n        /* \"#utility.yul\":7754:7757   */\n      dup3\n        /* \"#utility.yul\":7665:7758   */\n      tag_73\n      jump\t// in\n    tag_167:\n        /* \"#utility.yul\":7783:7785   */\n      0x40\n        /* \"#utility.yul\":7778:7781   */\n      dup3\n        /* \"#utility.yul\":7774:7786   */\n      add\n        /* \"#utility.yul\":7767:7786   */\n      swap1\n      pop\n        /* \"#utility.yul\":7426:7792   */\n      swap2\n      swap1\n      pop\n      jump\t// out\n        /* \"#utility.yul\":7798:8217   */\n    tag_44:\n        /* \"#utility.yul\":7964:7968   */\n      0x00\n        /* \"#utility.yul\":8002:8004   */\n      0x20\n        /* \"#utility.yul\":7991:8000   */\n      dup3\n        /* \"#utility.yul\":7987:8005   */\n      add\n        /* \"#utility.yul\":7979:8005   */\n      swap1\n      pop\n        /* \"#utility.yul\":8051:8060   */\n      dup2\n        /* \"#utility.yul\":8045:8049   */\n      dup2\n        /* \"#utility.yul\":8041:8061   */\n      sub\n        /* \"#utility.yul\":8037:8038   */\n      0x00\n        /* \"#utility.yul\":8026:8035   */\n      dup4\n        /* \"#utility.yul\":8022:8039   */\n      add\n        /* \"#utility.yul\":8015:8062   */\n      mstore\n        /* \"#utility.yul\":8079:8210   */\n      tag_169\n        /* \"#utility.yul\":8205:8209   */\n      dup2\n        /* \"#utility.yul\":8079:8210   */\n      tag_74\n      jump\t// in\n    tag_169:\n        /* \"#utility.yul\":8071:8210   */\n      swap1\n      pop\n        /* \"#utility.yul\":7798:8217   */\n      swap2\n      swap1\n      pop\n      jump\t// out\n        /* \"#utility.yul\":8223:8364   */\n    tag_75:\n        /* \"#utility.yul\":8272:8276   */\n      0x00\n        /* \"#utility.yul\":8295:8298   */\n      dup2\n        /* \"#utility.yul\":8287:8298   */\n      swap1\n      pop\n        /* \"#utility.yul\":8318:8321   */\n      dup2\n        /* \"#utility.yul\":8315:8316   */\n      0x00\n        /* \"#utility.yul\":8308:8322   */\n      mstore\n        /* \"#utility.yul\":8352:8356   */\n      0x20\n        /* \"#utility.yul\":8349:8350   */\n      0x00\n        /* \"#utility.yul\":8339:8357   */\n      keccak256\n        /* \"#utility.yul\":8331:8357   */\n      swap1\n      pop\n        /* \"#utility.yul\":8223:8364   */\n      swap2\n      swap1\n      pop\n      jump\t// out\n        /* \"#utility.yul\":8370:8463   */\n    tag_76:\n        /* \"#utility.yul\":8407:8413   */\n      0x00\n        /* \"#utility.yul\":8454:8456   */\n      0x20\n        /* \"#utility.yul\":8449:8451   */\n      0x1f\n        /* \"#utility.yul\":8442:8447   */\n      dup4\n        /* \"#utility.yul\":8438:8452   */\n      add\n        /* \"#utility.yul\":8434:8457   */\n      div\n        /* \"#utility.yul\":8424:8457   */\n      swap1\n      pop\n        /* \"#utility.yul\":8370:8463   */\n      swap2\n      swap1\n      pop\n      jump\t// out\n        /* \"#utility.yul\":8469:8576   */\n    tag_77:\n        /* \"#utility.yul\":8513:8521   */\n      0x00\n        /* \"#utility.yul\":8563:8568   */\n      dup3\n        /* \"#utility.yul\":8557:8561   */\n      dup3\n        /* \"#utility.yul\":8553:8569   */\n      shl\n        /* \"#utility.yul\":8532:8569   */\n      swap1\n      pop\n        /* \"#utility.yul\":8469:8576   */\n      swap3\n      swap2\n      pop\n      pop\n      jump\t// out\n        /* \"#utility.yul\":8582:8975   */\n    tag_78:\n        /* \"#utility.yul\":8651:8657   */\n      0x00\n        /* \"#utility.yul\":8701:8702   */\n      0x08\n        /* \"#utility.yul\":8689:8699   */\n      dup4\n        /* \"#utility.yul\":8685:8703   */\n      mul\n        /* \"#utility.yul\":8724:8821   */\n      tag_174\n        /* \"#utility.yul\":8754:8820   */\n      0xffffffffffffffffffffffffffffffffffffffffffffffffffffffffffffffff\n        /* \"#utility.yul\":8743:8752   */\n      dup3\n        /* \"#utility.yul\":8724:8821   */\n      tag_77\n      jump\t// in\n    tag_174:\n        /* \"#utility.yul\":8842:8881   */\n      tag_175\n        /* \"#utility.yul\":8872:8880   */\n      dup7\n        /* \"#utility.yul\":8861:8870   */\n      dup4\n        /* \"#utility.yul\":8842:8881   */\n      tag_77\n      jump\t// in\n    tag_175:\n        /* \"#utility.yul\":8830:8881   */\n      swap6\n      pop\n        /* \"#utility.yul\":8914:8918   */\n      dup1\n        /* \"#utility.yul\":8910:8919   */\n      not\n        /* \"#utility.yul\":8903:8908   */\n      dup5\n        /* \"#utility.yul\":8899:8920   */\n      and\n        /* \"#utility.yul\":8890:8920   */\n      swap4\n      pop\n        /* \"#utility.yul\":8963:8967   */\n      dup1\n        /* \"#utility.yul\":8953:8961   */\n      dup7\n        /* \"#utility.yul\":8949:8968   */\n      and\n        /* \"#utility.yul\":8942:8947   */\n      dup5\n        /* \"#utility.yul\":8939:8969   */\n      or\n        /* \"#utility.yul\":8929:8969   */\n      swap3\n      pop\n        /* \"#utility.yul\":8658:8975   */\n      pop\n      pop\n        /* \"#utility.yul\":8582:8975   */\n      swap4\n      swap3\n      pop\n      pop\n      pop\n      jump\t// out\n        /* \"#utility.yul\":8981:9041   */\n    tag_79:\n        /* \"#utility.yul\":9009:9012   */\n      0x00\n        /* \"#utility.yul\":9030:9035   */\n      dup2\n        /* \"#utility.yul\":9023:9035   */\n      swap1\n      pop\n        /* \"#utility.yul\":8981:9041   */\n      swap2\n      swap1\n      pop\n      jump\t// out\n        /* \"#utility.yul\":9047:9189   */\n    tag_80:\n        /* \"#utility.yul\":9097:9106   */\n      0x00\n        /* \"#utility.yul\":9130:9183   */\n      tag_178\n        /* \"#utility.yul\":9148:9182   */\n      tag_179\n        /* \"#utility.yul\":9157:9181   */\n      tag_180\n        /* \"#utility.yul\":9175:9180   */\n      dup5\n        /* \"#utility.yul\":9157:9181   */\n      tag_52\n      jump\t// in\n    tag_180:\n        /* \"#utility.yul\":9148:9182   */\n      tag_79\n      jump\t// in\n    tag_179:\n        /* \"#utility.yul\":9130:9183   */\n      tag_52\n      jump\t// in\n    tag_178:\n        /* \"#utility.yul\":9117:9183   */\n      swap1\n      pop\n        /* \"#utility.yul\":9047:9189   */\n      swap2\n      swap1\n      pop\n      jump\t// out\n        /* \"#utility.yul\":9195:9270   */\n    tag_81:\n        /* \"#utility.yul\":9238:9241   */\n      0x00\n        /* \"#utility.yul\":9259:9264   */\n      dup2\n        /* \"#utility.yul\":9252:9264   */\n      swap1\n      pop\n        /* \"#utility.yul\":9195:9270   */\n      swap2\n      swap1\n      pop\n      jump\t// out\n        /* \"#utility.yul\":9276:9545   */\n    tag_82:\n        /* \"#utility.yul\":9386:9425   */\n      tag_183\n        /* \"#utility.yul\":9417:9424   */\n      dup4\n        /* \"#utility.yul\":9386:9425   */\n      tag_80\n      jump\t// in\n    tag_183:\n        /* \"#utility.yul\":9447:9538   */\n      tag_184\n        /* \"#utility.yul\":9496:9537   */\n      tag_185\n        /* \"#utility.yul\":9520:9536   */\n      dup3\n        /* \"#utility.yul\":9496:9537   */\n      tag_81\n      jump\t// in\n    tag_185:\n        /* \"#utility.yul\":9488:9494   */\n      dup5\n        /* \"#utility.yul\":9481:9485   */\n      dup5\n        /* \"#utility.yul\":9475:9486   */\n      sload\n        /* \"#utility.yul\":9447:9538   */\n      tag_78\n      jump\t// in\n    tag_184:\n        /* \"#utility.yul\":9441:9445   */\n      dup3\n        /* \"#utility.yul\":9434:9539   */\n      sstore\n        /* \"#utility.yul\":9352:9545   */\n      pop\n        /* \"#utility.yul\":9276:9545   */\n      pop\n      pop\n      pop\n      jump\t// out\n        /* \"#utility.yul\":9551:9624   */\n    tag_83:\n        /* \"#utility.yul\":9596:9599   */\n      0x00\n        /* \"#utility.yul\":9551:9624   */\n      swap1\n      jump\t// out\n        /* \"#utility.yul\":9630:9819   */\n    tag_84:\n        /* \"#utility.yul\":9707:9739   */\n      tag_188\n      tag_83\n      jump\t// in\n    tag_188:\n        /* \"#utility.yul\":9748:9813   */\n      tag_189\n        /* \"#utility.yul\":9806:9812   */\n      dup2\n        /* \"#utility.yul\":9798:9804   */\n      dup5\n        /* \"#utility.yul\":9792:9796   */\n      dup5\n        /* \"#utility.yul\":9748:9813   */\n      tag_82\n      jump\t// in\n    tag_189:\n        /* \"#utility.yul\":9683:9819   */\n      pop\n        /* \"#utility.yul\":9630:9819   */\n      pop\n      pop\n      jump\t// out\n        /* \"#utility.yul\":9825:10011   */\n    tag_85:\n        /* \"#utility.yul\":9885:10005   */\n    tag_191:\n        /* \"#utility.yul\":9902:9905   */\n      dup2\n        /* \"#utility.yul\":9895:9900   */\n      dup2\n        /* \"#utility.yul\":9892:9906   */\n      lt\n        /* \"#utility.yul\":9885:10005   */\n      iszero\n      tag_193\n      jumpi\n        /* \"#utility.yul\":9956:9995   */\n      tag_194\n        /* \"#utility.yul\":9993:9994   */\n      0x00\n        /* \"#utility.yul\":9986:9991   */\n      dup3\n        /* \"#utility.yul\":9956:9995   */\n      tag_84\n      jump\t// in\n    tag_194:\n        /* \"#utility.yul\":9929:9930   */\n      0x01\n        /* \"#utility.yul\":9922:9927   */\n      dup2\n        /* \"#utility.yul\":9918:9931   */\n      add\n        /* \"#utility.yul\":9909:9931   */\n      swap1\n      pop\n        /* \"#utility.yul\":9885:10005   */\n      jump(tag_191)\n    tag_193:\n        /* \"#utility.yul\":9825:10011   */\n      pop\n      pop\n      jump\t// out\n        /* \"#utility.yul\":10017:10560   */\n    tag_86:\n        /* \"#utility.yul\":10118:10120   */\n      0x1f\n        /* \"#utility.yul\":10113:10116   */\n      dup3\n        /* \"#utility.yul\":10110:10121   */\n      gt\n        /* \"#utility.yul\":10107:10553   */\n      iszero\n      tag_196\n      jumpi\n        /* \"#utility.yul\":10152:10190   */\n      tag_197\n        /* \"#utility.yul\":10184:10189   */\n      dup2\n        /* \"#utility.yul\":10152:10190   */\n      tag_75\n      jump\t// in\n    tag_197:\n        /* \"#utility.yul\":10236:10265   */\n      tag_198\n        /* \"#utility.yul\":10254:10264   */\n      dup5\n        /* \"#utility.yul\":10236:10265   */\n      tag_76\n      jump\t// in\n    tag_198:\n        /* \"#utility.yul\":10226:10234   */\n      dup2\n        /* \"#utility.yul\":10222:10266   */\n      add\n        /* \"#utility.yul\":10419:10421   */\n      0x20\n        /* \"#utility.yul\":10407:10417   */\n      dup6\n        /* \"#utility.yul\":10404:10422   */\n      lt\n        /* \"#utility.yul\":10401:10450   */\n      iszero\n      tag_199\n      jumpi\n        /* \"#utility.yul\":10440:10448   */\n      dup2\n        /* \"#utility.yul\":10425:10448   */\n      swap1\n      pop\n        /* \"#utility.yul\":10401:10450   */\n    tag_199:\n        /* \"#utility.yul\":10463:10543   */\n      tag_200\n        /* \"#utility.yul\":10519:10541   */\n      tag_201\n        /* \"#utility.yul\":10537:10540   */\n      dup6\n        /* \"#utility.yul\":10519:10541   */\n      tag_76\n      jump\t// in\n    tag_201:\n        /* \"#utility.yul\":10509:10517   */\n      dup4\n        /* \"#utility.yul\":10505:10542   */\n      add\n        /* \"#utility.yul\":10492:10503   */\n      dup3\n        /* \"#utility.yul\":10463:10543   */\n      tag_85\n      jump\t// in\n    tag_200:\n        /* \"#utility.yul\":10122:10553   */\n      pop\n      pop\n        /* \"#utility.yul\":10107:10553   */\n    tag_196:\n        /* \"#utility.yul\":10017:10560   */\n      pop\n      pop\n      pop\n      jump\t// out\n        /* \"#utility.yul\":10566:10683   */\n    tag_87:\n        /* \"#utility.yul\":10620:10628   */\n      0x00\n        /* \"#utility.yul\":10670:10675   */\n      dup3\n        /* \"#utility.yul\":10664:10668   */\n      dup3\n        /* \"#utility.yul\":10660:10676   */\n      shr\n        /* \"#utility.yul\":10639:10676   */\n      swap1\n      pop\n        /* \"#utility.yul\":10566:10683   */\n      swap3\n      swap2\n      pop\n      pop\n      jump\t// out\n        /* \"#utility.yul\":10689:10858   */\n    tag_88:\n        /* \"#utility.yul\":10733:10739   */\n      0x00\n        /* \"#utility.yul\":10766:10817   */\n      tag_204\n        /* \"#utility.yul\":10814:10815   */\n      0x00\n        /* \"#utility.yul\":10810:10816   */\n      not\n        /* \"#utility.yul\":10802:10807   */\n      dup5\n        /* \"#utility.yul\":10799:10800   */\n      0x08\n        /* \"#utility.yul\":10795:10808   */\n      mul\n        /* \"#utility.yul\":10766:10817   */\n      tag_87\n      jump\t// in\n    tag_204:\n        /* \"#utility.yul\":10762:10818   */\n      not\n        /* \"#utility.yul\":10847:10851   */\n      dup1\n        /* \"#utility.yul\":10841:10845   */\n      dup4\n        /* \"#utility.yul\":10837:10852   */\n      and\n        /* \"#utility.yul\":10827:10852   */\n      swap2\n      pop\n        /* \"#utility.yul\":10740:10858   */\n      pop\n        /* \"#utility.yul\":10689:10858   */\n      swap3\n      swap2\n      pop\n      pop\n      jump\t// out\n        /* \"#utility.yul\":10863:11158   */\n    tag_89:\n        /* \"#utility.yul\":10939:10943   */\n      0x00\n        /* \"#utility.yul\":11085:11114   */\n      tag_206\n        /* \"#utility.yul\":11110:11113   */\n      dup4\n        /* \"#utility.yul\":11104:11108   */\n      dup4\n        /* \"#utility.yul\":11085:11114   */\n      tag_88\n      jump\t// in\n    tag_206:\n        /* \"#utility.yul\":11077:11114   */\n      swap2\n      pop\n        /* \"#utility.yul\":11147:11150   */\n      dup3\n        /* \"#utility.yul\":11144:11145   */\n      0x02\n        /* \"#utility.yul\":11140:11151   */\n      mul\n        /* \"#utility.yul\":11134:11138   */\n      dup3\n        /* \"#utility.yul\":11131:11152   */\n      or\n        /* \"#utility.yul\":11123:11152   */\n      swap1\n      pop\n        /* \"#utility.yul\":10863:11158   */\n      swap3\n      swap2\n      pop\n      pop\n      jump\t// out\n        /* \"#utility.yul\":11163:12558   */\n    tag_46:\n        /* \"#utility.yul\":11280:11317   */\n      tag_208\n        /* \"#utility.yul\":11313:11316   */\n      dup3\n        /* \"#utility.yul\":11280:11317   */\n      tag_47\n      jump\t// in\n    tag_208:\n        /* \"#utility.yul\":11382:11400   */\n      0xffffffffffffffff\n        /* \"#utility.yul\":11374:11380   */\n      dup2\n        /* \"#utility.yul\":11371:11401   */\n      gt\n        /* \"#utility.yul\":11368:11424   */\n      iszero\n      tag_209\n      jumpi\n        /* \"#utility.yul\":11404:11422   */\n      tag_210\n      tag_62\n      jump\t// in\n    tag_210:\n        /* \"#utility.yul\":11368:11424   */\n    tag_209:\n        /* \"#utility.yul\":11448:11486   */\n      tag_211\n        /* \"#utility.yul\":11480:11484   */\n      dup3\n        /* \"#utility.yul\":11474:11485   */\n      sload\n        /* \"#utility.yul\":11448:11486   */\n      tag_29\n      jump\t// in\n    tag_211:\n        /* \"#utility.yul\":11533:11600   */\n      tag_212\n        /* \"#utility.yul\":11593:11599   */\n      dup3\n        /* \"#utility.yul\":11585:11591   */\n      dup3\n        /* \"#utility.yul\":11579:11583   */\n      dup6\n        /* \"#utility.yul\":11533:11600   */\n      tag_86\n      jump\t// in\n    tag_212:\n        /* \"#utility.yul\":11627:11628   */\n      0x00\n        /* \"#utility.yul\":11651:11655   */\n      0x20\n        /* \"#utility.yul\":11638:11655   */\n      swap1\n      pop\n        /* \"#utility.yul\":11683:11685   */\n      0x1f\n        /* \"#utility.yul\":11675:11681   */\n      dup4\n        /* \"#utility.yul\":11672:11686   */\n      gt\n        /* \"#utility.yul\":11700:11701   */\n      0x01\n        /* \"#utility.yul\":11695:12313   */\n      dup2\n      eq\n      tag_214\n      jumpi\n        /* \"#utility.yul\":12357:12358   */\n      0x00\n        /* \"#utility.yul\":12374:12380   */\n      dup5\n        /* \"#utility.yul\":12371:12448   */\n      iszero\n      tag_215\n      jumpi\n        /* \"#utility.yul\":12423:12432   */\n      dup3\n        /* \"#utility.yul\":12418:12421   */\n      dup8\n        /* \"#utility.yul\":12414:12433   */\n      add\n        /* \"#utility.yul\":12408:12434   */\n      mload\n        /* \"#utility.yul\":12399:12434   */\n      swap1\n      pop\n        /* \"#utility.yul\":12371:12448   */\n    tag_215:\n        /* \"#utility.yul\":12474:12541   */\n      tag_216\n        /* \"#utility.yul\":12534:12540   */\n      dup6\n        /* \"#utility.yul\":12527:12532   */\n      dup3\n        /* \"#utility.yul\":12474:12541   */\n      tag_89\n      jump\t// in\n    tag_216:\n        /* \"#utility.yul\":12468:12472   */\n      dup7\n        /* \"#utility.yul\":12461:12542   */\n      sstore\n        /* \"#utility.yul\":12330:12552   */\n      pop\n        /* \"#utility.yul\":11665:12552   */\n      jump(tag_213)\n        /* \"#utility.yul\":11695:12313   */\n    tag_214:\n        /* \"#utility.yul\":11747:11751   */\n      0x1f\n        /* \"#utility.yul\":11743:11752   */\n      not\n        /* \"#utility.yul\":11735:11741   */\n      dup5\n        /* \"#utility.yul\":11731:11753   */\n      and\n        /* \"#utility.yul\":11781:11818   */\n      tag_217\n        /* \"#utility.yul\":11813:11817   */\n      dup7\n        /* \"#utility.yul\":11781:11818   */\n      tag_75\n      jump\t// in\n    tag_217:\n        /* \"#utility.yul\":11840:11841   */\n      0x00\n        /* \"#utility.yul\":11854:12062   */\n    tag_218:\n        /* \"#utility.yul\":11868:11875   */\n      dup3\n        /* \"#utility.yul\":11865:11866   */\n      dup2\n        /* \"#utility.yul\":11862:11876   */\n      lt\n        /* \"#utility.yul\":11854:12062   */\n      iszero\n      tag_220\n      jumpi\n        /* \"#utility.yul\":11947:11956   */\n      dup5\n        /* \"#utility.yul\":11942:11945   */\n      dup10\n        /* \"#utility.yul\":11938:11957   */\n      add\n        /* \"#utility.yul\":11932:11958   */\n      mload\n        /* \"#utility.yul\":11924:11930   */\n      dup3\n        /* \"#utility.yul\":11917:11959   */\n      sstore\n        /* \"#utility.yul\":11998:11999   */\n      0x01\n        /* \"#utility.yul\":11990:11996   */\n      dup3\n        /* \"#utility.yul\":11986:12000   */\n      add\n        /* \"#utility.yul\":11976:12000   */\n      swap2\n      pop\n        /* \"#utility.yul\":12045:12047   */\n      0x20\n        /* \"#utility.yul\":12034:12043   */\n      dup6\n        /* \"#utility.yul\":12030:12048   */\n      add\n        /* \"#utility.yul\":12017:12048   */\n      swap5\n      pop\n        /* \"#utility.yul\":11891:11895   */\n      0x20\n        /* \"#utility.yul\":11888:11889   */\n      dup2\n        /* \"#utility.yul\":11884:11896   */\n      add\n        /* \"#utility.yul\":11879:11896   */\n      swap1\n      pop\n        /* \"#utility.yul\":11854:12062   */\n      jump(tag_218)\n    tag_220:\n        /* \"#utility.yul\":12090:12096   */\n      dup7\n        /* \"#utility.yul\":12081:12088   */\n      dup4\n        /* \"#utility.yul\":12078:12097   */\n      lt\n        /* \"#utility.yul\":12075:12254   */\n      iszero\n      tag_221\n      jumpi\n        /* \"#utility.yul\":12148:12157   */\n      dup5\n        /* \"#utility.yul\":12143:12146   */\n      dup10\n        /* \"#utility.yul\":12139:12158   */\n      add\n        /* \"#utility.yul\":12133:12159   */\n      mload\n        /* \"#utility.yul\":12191:12239   */\n      tag_222\n        /* \"#utility.yul\":12233:12237   */\n      0x1f\n        /* \"#utility.yul\":12225:12231   */\n      dup10\n        /* \"#utility.yul\":12221:12238   */\n      and\n        /* \"#utility.yul\":12210:12219   */\n      dup3\n        /* \"#utility.yul\":12191:12239   */\n      tag_88\n      jump\t// in\n    tag_222:\n        /* \"#utility.yul\":12183:12189   */\n      dup4\n        /* \"#utility.yul\":12176:12240   */\n      sstore\n        /* \"#utility.yul\":12098:12254   */\n      pop\n        /* \"#utility.yul\":12075:12254   */\n    tag_221:\n        /* \"#utility.yul\":12300:12301   */\n      0x01\n        /* \"#utility.yul\":12296:12297   */\n      0x02\n        /* \"#utility.yul\":12288:12294   */\n      dup9\n        /* \"#utility.yul\":12284:12298   */\n      mul\n        /* \"#utility.yul\":12280:12302   */\n      add\n        /* \"#utility.yul\":12274:12278   */\n      dup9\n        /* \"#utility.yul\":12267:12303   */\n      sstore\n        /* \"#utility.yul\":11702:12313   */\n      pop\n      pop\n      pop\n        /* \"#utility.yul\":11665:12552   */\n    tag_213:\n      pop\n        /* \"#utility.yul\":11255:12558   */\n      pop\n      pop\n      pop\n        /* \"#utility.yul\":11163:12558   */\n      pop\n      pop\n      jump\t// out\n\n    auxdata: 0xa2646970667358221220f6ee0d346740cf72453f6e61deb8f17ab6acaff23a55cf27251a90ef01ac792364736f6c634300081a0033\n}\n",
				"bytecode": {
					"linkReferences": {},
					"object": "608060405234801561000f575f80fd5b50604051610f45380380610f45833981810160405281019061003191906101da565b805f908161003f919061042e565b505f6003819055503360015f6101000a81548173ffffffffffffffffffffffffffffffffffffffff021916908373ffffffffffffffffffffffffffffffffffffffff160217905550506104fd565b5f604051905090565b5f80fd5b5f80fd5b5f80fd5b5f80fd5b5f601f19601f8301169050919050565b7f4e487b71000000000000000000000000000000000000000000000000000000005f52604160045260245ffd5b6100ec826100a6565b810181811067ffffffffffffffff8211171561010b5761010a6100b6565b5b80604052505050565b5f61011d61008d565b905061012982826100e3565b919050565b5f67ffffffffffffffff821115610148576101476100b6565b5b610151826100a6565b9050602081019050919050565b8281835e5f83830152505050565b5f61017e6101798461012e565b610114565b90508281526020810184848401111561019a576101996100a2565b5b6101a584828561015e565b509392505050565b5f82601f8301126101c1576101c061009e565b5b81516101d184826020860161016c565b91505092915050565b5f602082840312156101ef576101ee610096565b5b5f82015167ffffffffffffffff81111561020c5761020b61009a565b5b610218848285016101ad565b91505092915050565b5f81519050919050565b7f4e487b71000000000000000000000000000000000000000000000000000000005f52602260045260245ffd5b5f600282049050600182168061026f57607f821691505b6020821081036102825761028161022b565b5b50919050565b5f819050815f5260205f209050919050565b5f6020601f8301049050919050565b5f82821b905092915050565b5f600883026102e47fffffffffffffffffffffffffffffffffffffffffffffffffffffffffffffffff826102a9565b6102ee86836102a9565b95508019841693508086168417925050509392505050565b5f819050919050565b5f819050919050565b5f61033261032d61032884610306565b61030f565b610306565b9050919050565b5f819050919050565b61034b83610318565b61035f61035782610339565b8484546102b5565b825550505050565b5f90565b610373610367565b61037e818484610342565b505050565b5b818110156103a1576103965f8261036b565b600181019050610384565b5050565b601f8211156103e6576103b781610288565b6103c08461029a565b810160208510156103cf578190505b6103e36103db8561029a565b830182610383565b50505b505050565b5f82821c905092915050565b5f6104065f19846008026103eb565b1980831691505092915050565b5f61041e83836103f7565b9150826002028217905092915050565b61043782610221565b67ffffffffffffffff8111156104505761044f6100b6565b5b61045a8254610258565b6104658282856103a5565b5f60209050601f831160018114610496575f8415610484578287015190505b61048e8582610413565b8655506104f5565b601f1984166104a486610288565b5f5b828110156104cb578489015182556001820191506020850194506020810190506104a6565b868310156104e857848901516104e4601f8916826103f7565b8355505b6001600288020188555050505b505050505050565b610a3b8061050a5f395ff3fe608060405234801561000f575f80fd5b5060043610610055575f3560e01c80635a9b0b8914610059578063664e3df4146100775780636fda29b214610095578063893d20e8146100b3578063937f6e77146100d1575b5f80fd5b6100616100ed565b60405161006e919061037f565b60405180910390f35b61007f61017c565b60405161008c91906103b7565b60405180910390f35b61009d610185565b6040516100aa919061040f565b60405180910390f35b6100bb6101aa565b6040516100c8919061040f565b60405180910390f35b6100eb60048036038101906100e69190610565565b6101d2565b005b60605f80546100fb906105d9565b80601f0160208091040260200160405190810160405280929190818152602001828054610127906105d9565b80156101725780601f1061014957610100808354040283529160200191610172565b820191905f5260205f20905b81548152906001019060200180831161015557829003601f168201915b5050505050905090565b5f600354905090565b60025f9054906101000a900473ffffffffffffffffffffffffffffffffffffffff1681565b5f60015f9054906101000a900473ffffffffffffffffffffffffffffffffffffffff16905090565b60035f8154809291906101e490610636565b919050555060015f9054906101000a900473ffffffffffffffffffffffffffffffffffffffff1673ffffffffffffffffffffffffffffffffffffffff163373ffffffffffffffffffffffffffffffffffffffff1614610278576040517f08c379a000000000000000000000000000000000000000000000000000000000815260040161026f906106ed565b60405180910390fd5b6005600354106102bd576040517f08c379a00000000000000000000000000000000000000000000000000000000081526004016102b49061077b565b60405180910390fd5b805f90816102cb9190610936565b503360025f6101000a81548173ffffffffffffffffffffffffffffffffffffffff021916908373ffffffffffffffffffffffffffffffffffffffff16021790555050565b5f81519050919050565b5f82825260208201905092915050565b8281835e5f83830152505050565b5f601f19601f8301169050919050565b5f6103518261030f565b61035b8185610319565b935061036b818560208601610329565b61037481610337565b840191505092915050565b5f6020820190508181035f8301526103978184610347565b905092915050565b5f819050919050565b6103b18161039f565b82525050565b5f6020820190506103ca5f8301846103a8565b92915050565b5f73ffffffffffffffffffffffffffffffffffffffff82169050919050565b5f6103f9826103d0565b9050919050565b610409816103ef565b82525050565b5f6020820190506104225f830184610400565b92915050565b5f604051905090565b5f80fd5b5f80fd5b5f80fd5b5f80fd5b7f4e487b71000000000000000000000000000000000000000000000000000000005f52604160045260245ffd5b61047782610337565b810181811067ffffffffffffffff8211171561049657610495610441565b5b80604052505050565b5f6104a8610428565b90506104b4828261046e565b919050565b5f67ffffffffffffffff8211156104d3576104d2610441565b5b6104dc82610337565b9050602081019050919050565b828183375f83830152505050565b5f610509610504846104b9565b61049f565b9050828152602081018484840111156105255761052461043d565b5b6105308482856104e9565b509392505050565b5f82601f83011261054c5761054b610439565b5b813561055c8482602086016104f7565b91505092915050565b5f6020828403121561057a57610579610431565b5b5f82013567ffffffffffffffff81111561059757610596610435565b5b6105a384828501610538565b91505092915050565b7f4e487b71000000000000000000000000000000000000000000000000000000005f52602260045260245ffd5b5f60028204905060018216806105f057607f821691505b602082108103610603576106026105ac565b5b50919050565b7f4e487b71000000000000000000000000000000000000000000000000000000005f52601160045260245ffd5b5f6106408261039f565b91507fffffffffffffffffffffffffffffffffffffffffffffffffffffffffffffffff820361067257610671610609565b5b600182019050919050565b7f556e6963616d656e746520656c206f776e65722070756564652063616d6269615f8201527f7220656c2076616c6f722e000000000000000000000000000000000000000000602082015250565b5f6106d7602b83610319565b91506106e28261067d565b604082019050919050565b5f6020820190508181035f830152610704816106cb565b9050919050565b7f536f6c6f2073652070756564652063616d6269617220686173746120342076655f8201527f63657320656c2076616c6f722e00000000000000000000000000000000000000602082015250565b5f610765602d83610319565b91506107708261070b565b604082019050919050565b5f6020820190508181035f83015261079281610759565b9050919050565b5f819050815f5260205f209050919050565b5f6020601f8301049050919050565b5f82821b905092915050565b5f600883026107f57fffffffffffffffffffffffffffffffffffffffffffffffffffffffffffffffff826107ba565b6107ff86836107ba565b95508019841693508086168417925050509392505050565b5f819050919050565b5f61083a6108356108308461039f565b610817565b61039f565b9050919050565b5f819050919050565b61085383610820565b61086761085f82610841565b8484546107c6565b825550505050565b5f90565b61087b61086f565b61088681848461084a565b505050565b5b818110156108a95761089e5f82610873565b60018101905061088c565b5050565b601f8211156108ee576108bf81610799565b6108c8846107ab565b810160208510156108d7578190505b6108eb6108e3856107ab565b83018261088b565b50505b505050565b5f82821c905092915050565b5f61090e5f19846008026108f3565b1980831691505092915050565b5f61092683836108ff565b9150826002028217905092915050565b61093f8261030f565b67ffffffffffffffff81111561095857610957610441565b5b61096282546105d9565b61096d8282856108ad565b5f60209050601f83116001811461099e575f841561098c578287015190505b610996858261091b565b8655506109fd565b601f1984166109ac86610799565b5f5b828110156109d3578489015182556001820191506020850194506020810190506109ae565b868310156109f057848901516109ec601f8916826108ff565b8355505b6001600288020188555050505b50505050505056fea2646970667358221220f6ee0d346740cf72453f6e61deb8f17ab6acaff23a55cf27251a90ef01ac792364736f6c634300081a0033",
					"opcodes": "PUSH1 0x80 PUSH1 0x40 MSTORE CALLVALUE DUP1 ISZERO PUSH2 0xF JUMPI PUSH0 DUP1 REVERT JUMPDEST POP PUSH1 0x40 MLOAD PUSH2 0xF45 CODESIZE SUB DUP1 PUSH2 0xF45 DUP4 CODECOPY DUP2 DUP2 ADD PUSH1 0x40 MSTORE DUP2 ADD SWAP1 PUSH2 0x31 SWAP2 SWAP1 PUSH2 0x1DA JUMP JUMPDEST DUP1 PUSH0 SWAP1 DUP2 PUSH2 0x3F SWAP2 SWAP1 PUSH2 0x42E JUMP JUMPDEST POP PUSH0 PUSH1 0x3 DUP2 SWAP1 SSTORE POP CALLER PUSH1 0x1 PUSH0 PUSH2 0x100 EXP DUP2 SLOAD DUP2 PUSH20 0xFFFFFFFFFFFFFFFFFFFFFFFFFFFFFFFFFFFFFFFF MUL NOT AND SWAP1 DUP4 PUSH20 0xFFFFFFFFFFFFFFFFFFFFFFFFFFFFFFFFFFFFFFFF AND MUL OR SWAP1 SSTORE POP POP PUSH2 0x4FD JUMP JUMPDEST PUSH0 PUSH1 0x40 MLOAD SWAP1 POP SWAP1 JUMP JUMPDEST PUSH0 DUP1 REVERT JUMPDEST PUSH0 DUP1 REVERT JUMPDEST PUSH0 DUP1 REVERT JUMPDEST PUSH0 DUP1 REVERT JUMPDEST PUSH0 PUSH1 0x1F NOT PUSH1 0x1F DUP4 ADD AND SWAP1 POP SWAP2 SWAP1 POP JUMP JUMPDEST PUSH32 0x4E487B7100000000000000000000000000000000000000000000000000000000 PUSH0 MSTORE PUSH1 0x41 PUSH1 0x4 MSTORE PUSH1 0x24 PUSH0 REVERT JUMPDEST PUSH2 0xEC DUP3 PUSH2 0xA6 JUMP JUMPDEST DUP2 ADD DUP2 DUP2 LT PUSH8 0xFFFFFFFFFFFFFFFF DUP3 GT OR ISZERO PUSH2 0x10B JUMPI PUSH2 0x10A PUSH2 0xB6 JUMP JUMPDEST JUMPDEST DUP1 PUSH1 0x40 MSTORE POP POP POP JUMP JUMPDEST PUSH0 PUSH2 0x11D PUSH2 0x8D JUMP JUMPDEST SWAP1 POP PUSH2 0x129 DUP3 DUP3 PUSH2 0xE3 JUMP JUMPDEST SWAP2 SWAP1 POP JUMP JUMPDEST PUSH0 PUSH8 0xFFFFFFFFFFFFFFFF DUP3 GT ISZERO PUSH2 0x148 JUMPI PUSH2 0x147 PUSH2 0xB6 JUMP JUMPDEST JUMPDEST PUSH2 0x151 DUP3 PUSH2 0xA6 JUMP JUMPDEST SWAP1 POP PUSH1 0x20 DUP2 ADD SWAP1 POP SWAP2 SWAP1 POP JUMP JUMPDEST DUP3 DUP2 DUP4 MCOPY PUSH0 DUP4 DUP4 ADD MSTORE POP POP POP JUMP JUMPDEST PUSH0 PUSH2 0x17E PUSH2 0x179 DUP5 PUSH2 0x12E JUMP JUMPDEST PUSH2 0x114 JUMP JUMPDEST SWAP1 POP DUP3 DUP2 MSTORE PUSH1 0x20 DUP2 ADD DUP5 DUP5 DUP5 ADD GT ISZERO PUSH2 0x19A JUMPI PUSH2 0x199 PUSH2 0xA2 JUMP JUMPDEST JUMPDEST PUSH2 0x1A5 DUP5 DUP3 DUP6 PUSH2 0x15E JUMP JUMPDEST POP SWAP4 SWAP3 POP POP POP JUMP JUMPDEST PUSH0 DUP3 PUSH1 0x1F DUP4 ADD SLT PUSH2 0x1C1 JUMPI PUSH2 0x1C0 PUSH2 0x9E JUMP JUMPDEST JUMPDEST DUP2 MLOAD PUSH2 0x1D1 DUP5 DUP3 PUSH1 0x20 DUP7 ADD PUSH2 0x16C JUMP JUMPDEST SWAP2 POP POP SWAP3 SWAP2 POP POP JUMP JUMPDEST PUSH0 PUSH1 0x20 DUP3 DUP5 SUB SLT ISZERO PUSH2 0x1EF JUMPI PUSH2 0x1EE PUSH2 0x96 JUMP JUMPDEST JUMPDEST PUSH0 DUP3 ADD MLOAD PUSH8 0xFFFFFFFFFFFFFFFF DUP2 GT ISZERO PUSH2 0x20C JUMPI PUSH2 0x20B PUSH2 0x9A JUMP JUMPDEST JUMPDEST PUSH2 0x218 DUP5 DUP3 DUP6 ADD PUSH2 0x1AD JUMP JUMPDEST SWAP2 POP POP SWAP3 SWAP2 POP POP JUMP JUMPDEST PUSH0 DUP2 MLOAD SWAP1 POP SWAP2 SWAP1 POP JUMP JUMPDEST PUSH32 0x4E487B7100000000000000000000000000000000000000000000000000000000 PUSH0 MSTORE PUSH1 0x22 PUSH1 0x4 MSTORE PUSH1 0x24 PUSH0 REVERT JUMPDEST PUSH0 PUSH1 0x2 DUP3 DIV SWAP1 POP PUSH1 0x1 DUP3 AND DUP1 PUSH2 0x26F JUMPI PUSH1 0x7F DUP3 AND SWAP2 POP JUMPDEST PUSH1 0x20 DUP3 LT DUP2 SUB PUSH2 0x282 JUMPI PUSH2 0x281 PUSH2 0x22B JUMP JUMPDEST JUMPDEST POP SWAP2 SWAP1 POP JUMP JUMPDEST PUSH0 DUP2 SWAP1 POP DUP2 PUSH0 MSTORE PUSH1 0x20 PUSH0 KECCAK256 SWAP1 POP SWAP2 SWAP1 POP JUMP JUMPDEST PUSH0 PUSH1 0x20 PUSH1 0x1F DUP4 ADD DIV SWAP1 POP SWAP2 SWAP1 POP JUMP JUMPDEST PUSH0 DUP3 DUP3 SHL SWAP1 POP SWAP3 SWAP2 POP POP JUMP JUMPDEST PUSH0 PUSH1 0x8 DUP4 MUL PUSH2 0x2E4 PUSH32 0xFFFFFFFFFFFFFFFFFFFFFFFFFFFFFFFFFFFFFFFFFFFFFFFFFFFFFFFFFFFFFFFF DUP3 PUSH2 0x2A9 JUMP JUMPDEST PUSH2 0x2EE DUP7 DUP4 PUSH2 0x2A9 JUMP JUMPDEST SWAP6 POP DUP1 NOT DUP5 AND SWAP4 POP DUP1 DUP7 AND DUP5 OR SWAP3 POP POP POP SWAP4 SWAP3 POP POP POP JUMP JUMPDEST PUSH0 DUP2 SWAP1 POP SWAP2 SWAP1 POP JUMP JUMPDEST PUSH0 DUP2 SWAP1 POP SWAP2 SWAP1 POP JUMP JUMPDEST PUSH0 PUSH2 0x332 PUSH2 0x32D PUSH2 0x328 DUP5 PUSH2 0x306 JUMP JUMPDEST PUSH2 0x30F JUMP JUMPDEST PUSH2 0x306 JUMP JUMPDEST SWAP1 POP SWAP2 SWAP1 POP JUMP JUMPDEST PUSH0 DUP2 SWAP1 POP SWAP2 SWAP1 POP JUMP JUMPDEST PUSH2 0x34B DUP4 PUSH2 0x318 JUMP JUMPDEST PUSH2 0x35F PUSH2 0x357 DUP3 PUSH2 0x339 JUMP JUMPDEST DUP5 DUP5 SLOAD PUSH2 0x2B5 JUMP JUMPDEST DUP3 SSTORE POP POP POP POP JUMP JUMPDEST PUSH0 SWAP1 JUMP JUMPDEST PUSH2 0x373 PUSH2 0x367 JUMP JUMPDEST PUSH2 0x37E DUP2 DUP5 DUP5 PUSH2 0x342 JUMP JUMPDEST POP POP POP JUMP JUMPDEST JUMPDEST DUP2 DUP2 LT ISZERO PUSH2 0x3A1 JUMPI PUSH2 0x396 PUSH0 DUP3 PUSH2 0x36B JUMP JUMPDEST PUSH1 0x1 DUP2 ADD SWAP1 POP PUSH2 0x384 JUMP JUMPDEST POP POP JUMP JUMPDEST PUSH1 0x1F DUP3 GT ISZERO PUSH2 0x3E6 JUMPI PUSH2 0x3B7 DUP2 PUSH2 0x288 JUMP JUMPDEST PUSH2 0x3C0 DUP5 PUSH2 0x29A JUMP JUMPDEST DUP2 ADD PUSH1 0x20 DUP6 LT ISZERO PUSH2 0x3CF JUMPI DUP2 SWAP1 POP JUMPDEST PUSH2 0x3E3 PUSH2 0x3DB DUP6 PUSH2 0x29A JUMP JUMPDEST DUP4 ADD DUP3 PUSH2 0x383 JUMP JUMPDEST POP POP JUMPDEST POP POP POP JUMP JUMPDEST PUSH0 DUP3 DUP3 SHR SWAP1 POP SWAP3 SWAP2 POP POP JUMP JUMPDEST PUSH0 PUSH2 0x406 PUSH0 NOT DUP5 PUSH1 0x8 MUL PUSH2 0x3EB JUMP JUMPDEST NOT DUP1 DUP4 AND SWAP2 POP POP SWAP3 SWAP2 POP POP JUMP JUMPDEST PUSH0 PUSH2 0x41E DUP4 DUP4 PUSH2 0x3F7 JUMP JUMPDEST SWAP2 POP DUP3 PUSH1 0x2 MUL DUP3 OR SWAP1 POP SWAP3 SWAP2 POP POP JUMP JUMPDEST PUSH2 0x437 DUP3 PUSH2 0x221 JUMP JUMPDEST PUSH8 0xFFFFFFFFFFFFFFFF DUP2 GT ISZERO PUSH2 0x450 JUMPI PUSH2 0x44F PUSH2 0xB6 JUMP JUMPDEST JUMPDEST PUSH2 0x45A DUP3 SLOAD PUSH2 0x258 JUMP JUMPDEST PUSH2 0x465 DUP3 DUP3 DUP6 PUSH2 0x3A5 JUMP JUMPDEST PUSH0 PUSH1 0x20 SWAP1 POP PUSH1 0x1F DUP4 GT PUSH1 0x1 DUP2 EQ PUSH2 0x496 JUMPI PUSH0 DUP5 ISZERO PUSH2 0x484 JUMPI DUP3 DUP8 ADD MLOAD SWAP1 POP JUMPDEST PUSH2 0x48E DUP6 DUP3 PUSH2 0x413 JUMP JUMPDEST DUP7 SSTORE POP PUSH2 0x4F5 JUMP JUMPDEST PUSH1 0x1F NOT DUP5 AND PUSH2 0x4A4 DUP7 PUSH2 0x288 JUMP JUMPDEST PUSH0 JUMPDEST DUP3 DUP2 LT ISZERO PUSH2 0x4CB JUMPI DUP5 DUP10 ADD MLOAD DUP3 SSTORE PUSH1 0x1 DUP3 ADD SWAP2 POP PUSH1 0x20 DUP6 ADD SWAP5 POP PUSH1 0x20 DUP2 ADD SWAP1 POP PUSH2 0x4A6 JUMP JUMPDEST DUP7 DUP4 LT ISZERO PUSH2 0x4E8 JUMPI DUP5 DUP10 ADD MLOAD PUSH2 0x4E4 PUSH1 0x1F DUP10 AND DUP3 PUSH2 0x3F7 JUMP JUMPDEST DUP4 SSTORE POP JUMPDEST PUSH1 0x1 PUSH1 0x2 DUP9 MUL ADD DUP9 SSTORE POP POP POP JUMPDEST POP POP POP POP POP POP JUMP JUMPDEST PUSH2 0xA3B DUP1 PUSH2 0x50A PUSH0 CODECOPY PUSH0 RETURN INVALID PUSH1 0x80 PUSH1 0x40 MSTORE CALLVALUE DUP1 ISZERO PUSH2 0xF JUMPI PUSH0 DUP1 REVERT JUMPDEST POP PUSH1 0x4 CALLDATASIZE LT PUSH2 0x55 JUMPI PUSH0 CALLDATALOAD PUSH1 0xE0 SHR DUP1 PUSH4 0x5A9B0B89 EQ PUSH2 0x59 JUMPI DUP1 PUSH4 0x664E3DF4 EQ PUSH2 0x77 JUMPI DUP1 PUSH4 0x6FDA29B2 EQ PUSH2 0x95 JUMPI DUP1 PUSH4 0x893D20E8 EQ PUSH2 0xB3 JUMPI DUP1 PUSH4 0x937F6E77 EQ PUSH2 0xD1 JUMPI JUMPDEST PUSH0 DUP1 REVERT JUMPDEST PUSH2 0x61 PUSH2 0xED JUMP JUMPDEST PUSH1 0x40 MLOAD PUSH2 0x6E SWAP2 SWAP1 PUSH2 0x37F JUMP JUMPDEST PUSH1 0x40 MLOAD DUP1 SWAP2 SUB SWAP1 RETURN JUMPDEST PUSH2 0x7F PUSH2 0x17C JUMP JUMPDEST PUSH1 0x40 MLOAD PUSH2 0x8C SWAP2 SWAP1 PUSH2 0x3B7 JUMP JUMPDEST PUSH1 0x40 MLOAD DUP1 SWAP2 SUB SWAP1 RETURN JUMPDEST PUSH2 0x9D PUSH2 0x185 JUMP JUMPDEST PUSH1 0x40 MLOAD PUSH2 0xAA SWAP2 SWAP1 PUSH2 0x40F JUMP JUMPDEST PUSH1 0x40 MLOAD DUP1 SWAP2 SUB SWAP1 RETURN JUMPDEST PUSH2 0xBB PUSH2 0x1AA JUMP JUMPDEST PUSH1 0x40 MLOAD PUSH2 0xC8 SWAP2 SWAP1 PUSH2 0x40F JUMP JUMPDEST PUSH1 0x40 MLOAD DUP1 SWAP2 SUB SWAP1 RETURN JUMPDEST PUSH2 0xEB PUSH1 0x4 DUP1 CALLDATASIZE SUB DUP2 ADD SWAP1 PUSH2 0xE6 SWAP2 SWAP1 PUSH2 0x565 JUMP JUMPDEST PUSH2 0x1D2 JUMP JUMPDEST STOP JUMPDEST PUSH1 0x60 PUSH0 DUP1 SLOAD PUSH2 0xFB SWAP1 PUSH2 0x5D9 JUMP JUMPDEST DUP1 PUSH1 0x1F ADD PUSH1 0x20 DUP1 SWAP2 DIV MUL PUSH1 0x20 ADD PUSH1 0x40 MLOAD SWAP1 DUP2 ADD PUSH1 0x40 MSTORE DUP1 SWAP3 SWAP2 SWAP1 DUP2 DUP2 MSTORE PUSH1 0x20 ADD DUP3 DUP1 SLOAD PUSH2 0x127 SWAP1 PUSH2 0x5D9 JUMP JUMPDEST DUP1 ISZERO PUSH2 0x172 JUMPI DUP1 PUSH1 0x1F LT PUSH2 0x149 JUMPI PUSH2 0x100 DUP1 DUP4 SLOAD DIV MUL DUP4 MSTORE SWAP2 PUSH1 0x20 ADD SWAP2 PUSH2 0x172 JUMP JUMPDEST DUP3 ADD SWAP2 SWAP1 PUSH0 MSTORE PUSH1 0x20 PUSH0 KECCAK256 SWAP1 JUMPDEST DUP2 SLOAD DUP2 MSTORE SWAP1 PUSH1 0x1 ADD SWAP1 PUSH1 0x20 ADD DUP1 DUP4 GT PUSH2 0x155 JUMPI DUP3 SWAP1 SUB PUSH1 0x1F AND DUP3 ADD SWAP2 JUMPDEST POP POP POP POP POP SWAP1 POP SWAP1 JUMP JUMPDEST PUSH0 PUSH1 0x3 SLOAD SWAP1 POP SWAP1 JUMP JUMPDEST PUSH1 0x2 PUSH0 SWAP1 SLOAD SWAP1 PUSH2 0x100 EXP SWAP1 DIV PUSH20 0xFFFFFFFFFFFFFFFFFFFFFFFFFFFFFFFFFFFFFFFF AND DUP2 JUMP JUMPDEST PUSH0 PUSH1 0x1 PUSH0 SWAP1 SLOAD SWAP1 PUSH2 0x100 EXP SWAP1 DIV PUSH20 0xFFFFFFFFFFFFFFFFFFFFFFFFFFFFFFFFFFFFFFFF AND SWAP1 POP SWAP1 JUMP JUMPDEST PUSH1 0x3 PUSH0 DUP2 SLOAD DUP1 SWAP3 SWAP2 SWAP1 PUSH2 0x1E4 SWAP1 PUSH2 0x636 JUMP JUMPDEST SWAP2 SWAP1 POP SSTORE POP PUSH1 0x1 PUSH0 SWAP1 SLOAD SWAP1 PUSH2 0x100 EXP SWAP1 DIV PUSH20 0xFFFFFFFFFFFFFFFFFFFFFFFFFFFFFFFFFFFFFFFF AND PUSH20 0xFFFFFFFFFFFFFFFFFFFFFFFFFFFFFFFFFFFFFFFF AND CALLER PUSH20 0xFFFFFFFFFFFFFFFFFFFFFFFFFFFFFFFFFFFFFFFF AND EQ PUSH2 0x278 JUMPI PUSH1 0x40 MLOAD PUSH32 0x8C379A000000000000000000000000000000000000000000000000000000000 DUP2 MSTORE PUSH1 0x4 ADD PUSH2 0x26F SWAP1 PUSH2 0x6ED JUMP JUMPDEST PUSH1 0x40 MLOAD DUP1 SWAP2 SUB SWAP1 REVERT JUMPDEST PUSH1 0x5 PUSH1 0x3 SLOAD LT PUSH2 0x2BD JUMPI PUSH1 0x40 MLOAD PUSH32 0x8C379A000000000000000000000000000000000000000000000000000000000 DUP2 MSTORE PUSH1 0x4 ADD PUSH2 0x2B4 SWAP1 PUSH2 0x77B JUMP JUMPDEST PUSH1 0x40 MLOAD DUP1 SWAP2 SUB SWAP1 REVERT JUMPDEST DUP1 PUSH0 SWAP1 DUP2 PUSH2 0x2CB SWAP2 SWAP1 PUSH2 0x936 JUMP JUMPDEST POP CALLER PUSH1 0x2 PUSH0 PUSH2 0x100 EXP DUP2 SLOAD DUP2 PUSH20 0xFFFFFFFFFFFFFFFFFFFFFFFFFFFFFFFFFFFFFFFF MUL NOT AND SWAP1 DUP4 PUSH20 0xFFFFFFFFFFFFFFFFFFFFFFFFFFFFFFFFFFFFFFFF AND MUL OR SWAP1 SSTORE POP POP JUMP JUMPDEST PUSH0 DUP2 MLOAD SWAP1 POP SWAP2 SWAP1 POP JUMP JUMPDEST PUSH0 DUP3 DUP3 MSTORE PUSH1 0x20 DUP3 ADD SWAP1 POP SWAP3 SWAP2 POP POP JUMP JUMPDEST DUP3 DUP2 DUP4 MCOPY PUSH0 DUP4 DUP4 ADD MSTORE POP POP POP JUMP JUMPDEST PUSH0 PUSH1 0x1F NOT PUSH1 0x1F DUP4 ADD AND SWAP1 POP SWAP2 SWAP1 POP JUMP JUMPDEST PUSH0 PUSH2 0x351 DUP3 PUSH2 0x30F JUMP JUMPDEST PUSH2 0x35B DUP2 DUP6 PUSH2 0x319 JUMP JUMPDEST SWAP4 POP PUSH2 0x36B DUP2 DUP6 PUSH1 0x20 DUP7 ADD PUSH2 0x329 JUMP JUMPDEST PUSH2 0x374 DUP2 PUSH2 0x337 JUMP JUMPDEST DUP5 ADD SWAP2 POP POP SWAP3 SWAP2 POP POP JUMP JUMPDEST PUSH0 PUSH1 0x20 DUP3 ADD SWAP1 POP DUP2 DUP2 SUB PUSH0 DUP4 ADD MSTORE PUSH2 0x397 DUP2 DUP5 PUSH2 0x347 JUMP JUMPDEST SWAP1 POP SWAP3 SWAP2 POP POP JUMP JUMPDEST PUSH0 DUP2 SWAP1 POP SWAP2 SWAP1 POP JUMP JUMPDEST PUSH2 0x3B1 DUP2 PUSH2 0x39F JUMP JUMPDEST DUP3 MSTORE POP POP JUMP JUMPDEST PUSH0 PUSH1 0x20 DUP3 ADD SWAP1 POP PUSH2 0x3CA PUSH0 DUP4 ADD DUP5 PUSH2 0x3A8 JUMP JUMPDEST SWAP3 SWAP2 POP POP JUMP JUMPDEST PUSH0 PUSH20 0xFFFFFFFFFFFFFFFFFFFFFFFFFFFFFFFFFFFFFFFF DUP3 AND SWAP1 POP SWAP2 SWAP1 POP JUMP JUMPDEST PUSH0 PUSH2 0x3F9 DUP3 PUSH2 0x3D0 JUMP JUMPDEST SWAP1 POP SWAP2 SWAP1 POP JUMP JUMPDEST PUSH2 0x409 DUP2 PUSH2 0x3EF JUMP JUMPDEST DUP3 MSTORE POP POP JUMP JUMPDEST PUSH0 PUSH1 0x20 DUP3 ADD SWAP1 POP PUSH2 0x422 PUSH0 DUP4 ADD DUP5 PUSH2 0x400 JUMP JUMPDEST SWAP3 SWAP2 POP POP JUMP JUMPDEST PUSH0 PUSH1 0x40 MLOAD SWAP1 POP SWAP1 JUMP JUMPDEST PUSH0 DUP1 REVERT JUMPDEST PUSH0 DUP1 REVERT JUMPDEST PUSH0 DUP1 REVERT JUMPDEST PUSH0 DUP1 REVERT JUMPDEST PUSH32 0x4E487B7100000000000000000000000000000000000000000000000000000000 PUSH0 MSTORE PUSH1 0x41 PUSH1 0x4 MSTORE PUSH1 0x24 PUSH0 REVERT JUMPDEST PUSH2 0x477 DUP3 PUSH2 0x337 JUMP JUMPDEST DUP2 ADD DUP2 DUP2 LT PUSH8 0xFFFFFFFFFFFFFFFF DUP3 GT OR ISZERO PUSH2 0x496 JUMPI PUSH2 0x495 PUSH2 0x441 JUMP JUMPDEST JUMPDEST DUP1 PUSH1 0x40 MSTORE POP POP POP JUMP JUMPDEST PUSH0 PUSH2 0x4A8 PUSH2 0x428 JUMP JUMPDEST SWAP1 POP PUSH2 0x4B4 DUP3 DUP3 PUSH2 0x46E JUMP JUMPDEST SWAP2 SWAP1 POP JUMP JUMPDEST PUSH0 PUSH8 0xFFFFFFFFFFFFFFFF DUP3 GT ISZERO PUSH2 0x4D3 JUMPI PUSH2 0x4D2 PUSH2 0x441 JUMP JUMPDEST JUMPDEST PUSH2 0x4DC DUP3 PUSH2 0x337 JUMP JUMPDEST SWAP1 POP PUSH1 0x20 DUP2 ADD SWAP1 POP SWAP2 SWAP1 POP JUMP JUMPDEST DUP3 DUP2 DUP4 CALLDATACOPY PUSH0 DUP4 DUP4 ADD MSTORE POP POP POP JUMP JUMPDEST PUSH0 PUSH2 0x509 PUSH2 0x504 DUP5 PUSH2 0x4B9 JUMP JUMPDEST PUSH2 0x49F JUMP JUMPDEST SWAP1 POP DUP3 DUP2 MSTORE PUSH1 0x20 DUP2 ADD DUP5 DUP5 DUP5 ADD GT ISZERO PUSH2 0x525 JUMPI PUSH2 0x524 PUSH2 0x43D JUMP JUMPDEST JUMPDEST PUSH2 0x530 DUP5 DUP3 DUP6 PUSH2 0x4E9 JUMP JUMPDEST POP SWAP4 SWAP3 POP POP POP JUMP JUMPDEST PUSH0 DUP3 PUSH1 0x1F DUP4 ADD SLT PUSH2 0x54C JUMPI PUSH2 0x54B PUSH2 0x439 JUMP JUMPDEST JUMPDEST DUP2 CALLDATALOAD PUSH2 0x55C DUP5 DUP3 PUSH1 0x20 DUP7 ADD PUSH2 0x4F7 JUMP JUMPDEST SWAP2 POP POP SWAP3 SWAP2 POP POP JUMP JUMPDEST PUSH0 PUSH1 0x20 DUP3 DUP5 SUB SLT ISZERO PUSH2 0x57A JUMPI PUSH2 0x579 PUSH2 0x431 JUMP JUMPDEST JUMPDEST PUSH0 DUP3 ADD CALLDATALOAD PUSH8 0xFFFFFFFFFFFFFFFF DUP2 GT ISZERO PUSH2 0x597 JUMPI PUSH2 0x596 PUSH2 0x435 JUMP JUMPDEST JUMPDEST PUSH2 0x5A3 DUP5 DUP3 DUP6 ADD PUSH2 0x538 JUMP JUMPDEST SWAP2 POP POP SWAP3 SWAP2 POP POP JUMP JUMPDEST PUSH32 0x4E487B7100000000000000000000000000000000000000000000000000000000 PUSH0 MSTORE PUSH1 0x22 PUSH1 0x4 MSTORE PUSH1 0x24 PUSH0 REVERT JUMPDEST PUSH0 PUSH1 0x2 DUP3 DIV SWAP1 POP PUSH1 0x1 DUP3 AND DUP1 PUSH2 0x5F0 JUMPI PUSH1 0x7F DUP3 AND SWAP2 POP JUMPDEST PUSH1 0x20 DUP3 LT DUP2 SUB PUSH2 0x603 JUMPI PUSH2 0x602 PUSH2 0x5AC JUMP JUMPDEST JUMPDEST POP SWAP2 SWAP1 POP JUMP JUMPDEST PUSH32 0x4E487B7100000000000000000000000000000000000000000000000000000000 PUSH0 MSTORE PUSH1 0x11 PUSH1 0x4 MSTORE PUSH1 0x24 PUSH0 REVERT JUMPDEST PUSH0 PUSH2 0x640 DUP3 PUSH2 0x39F JUMP JUMPDEST SWAP2 POP PUSH32 0xFFFFFFFFFFFFFFFFFFFFFFFFFFFFFFFFFFFFFFFFFFFFFFFFFFFFFFFFFFFFFFFF DUP3 SUB PUSH2 0x672 JUMPI PUSH2 0x671 PUSH2 0x609 JUMP JUMPDEST JUMPDEST PUSH1 0x1 DUP3 ADD SWAP1 POP SWAP2 SWAP1 POP JUMP JUMPDEST PUSH32 0x556E6963616D656E746520656C206F776E65722070756564652063616D626961 PUSH0 DUP3 ADD MSTORE PUSH32 0x7220656C2076616C6F722E000000000000000000000000000000000000000000 PUSH1 0x20 DUP3 ADD MSTORE POP JUMP JUMPDEST PUSH0 PUSH2 0x6D7 PUSH1 0x2B DUP4 PUSH2 0x319 JUMP JUMPDEST SWAP2 POP PUSH2 0x6E2 DUP3 PUSH2 0x67D JUMP JUMPDEST PUSH1 0x40 DUP3 ADD SWAP1 POP SWAP2 SWAP1 POP JUMP JUMPDEST PUSH0 PUSH1 0x20 DUP3 ADD SWAP1 POP DUP2 DUP2 SUB PUSH0 DUP4 ADD MSTORE PUSH2 0x704 DUP2 PUSH2 0x6CB JUMP JUMPDEST SWAP1 POP SWAP2 SWAP1 POP JUMP JUMPDEST PUSH32 0x536F6C6F2073652070756564652063616D626961722068617374612034207665 PUSH0 DUP3 ADD MSTORE PUSH32 0x63657320656C2076616C6F722E00000000000000000000000000000000000000 PUSH1 0x20 DUP3 ADD MSTORE POP JUMP JUMPDEST PUSH0 PUSH2 0x765 PUSH1 0x2D DUP4 PUSH2 0x319 JUMP JUMPDEST SWAP2 POP PUSH2 0x770 DUP3 PUSH2 0x70B JUMP JUMPDEST PUSH1 0x40 DUP3 ADD SWAP1 POP SWAP2 SWAP1 POP JUMP JUMPDEST PUSH0 PUSH1 0x20 DUP3 ADD SWAP1 POP DUP2 DUP2 SUB PUSH0 DUP4 ADD MSTORE PUSH2 0x792 DUP2 PUSH2 0x759 JUMP JUMPDEST SWAP1 POP SWAP2 SWAP1 POP JUMP JUMPDEST PUSH0 DUP2 SWAP1 POP DUP2 PUSH0 MSTORE PUSH1 0x20 PUSH0 KECCAK256 SWAP1 POP SWAP2 SWAP1 POP JUMP JUMPDEST PUSH0 PUSH1 0x20 PUSH1 0x1F DUP4 ADD DIV SWAP1 POP SWAP2 SWAP1 POP JUMP JUMPDEST PUSH0 DUP3 DUP3 SHL SWAP1 POP SWAP3 SWAP2 POP POP JUMP JUMPDEST PUSH0 PUSH1 0x8 DUP4 MUL PUSH2 0x7F5 PUSH32 0xFFFFFFFFFFFFFFFFFFFFFFFFFFFFFFFFFFFFFFFFFFFFFFFFFFFFFFFFFFFFFFFF DUP3 PUSH2 0x7BA JUMP JUMPDEST PUSH2 0x7FF DUP7 DUP4 PUSH2 0x7BA JUMP JUMPDEST SWAP6 POP DUP1 NOT DUP5 AND SWAP4 POP DUP1 DUP7 AND DUP5 OR SWAP3 POP POP POP SWAP4 SWAP3 POP POP POP JUMP JUMPDEST PUSH0 DUP2 SWAP1 POP SWAP2 SWAP1 POP JUMP JUMPDEST PUSH0 PUSH2 0x83A PUSH2 0x835 PUSH2 0x830 DUP5 PUSH2 0x39F JUMP JUMPDEST PUSH2 0x817 JUMP JUMPDEST PUSH2 0x39F JUMP JUMPDEST SWAP1 POP SWAP2 SWAP1 POP JUMP JUMPDEST PUSH0 DUP2 SWAP1 POP SWAP2 SWAP1 POP JUMP JUMPDEST PUSH2 0x853 DUP4 PUSH2 0x820 JUMP JUMPDEST PUSH2 0x867 PUSH2 0x85F DUP3 PUSH2 0x841 JUMP JUMPDEST DUP5 DUP5 SLOAD PUSH2 0x7C6 JUMP JUMPDEST DUP3 SSTORE POP POP POP POP JUMP JUMPDEST PUSH0 SWAP1 JUMP JUMPDEST PUSH2 0x87B PUSH2 0x86F JUMP JUMPDEST PUSH2 0x886 DUP2 DUP5 DUP5 PUSH2 0x84A JUMP JUMPDEST POP POP POP JUMP JUMPDEST JUMPDEST DUP2 DUP2 LT ISZERO PUSH2 0x8A9 JUMPI PUSH2 0x89E PUSH0 DUP3 PUSH2 0x873 JUMP JUMPDEST PUSH1 0x1 DUP2 ADD SWAP1 POP PUSH2 0x88C JUMP JUMPDEST POP POP JUMP JUMPDEST PUSH1 0x1F DUP3 GT ISZERO PUSH2 0x8EE JUMPI PUSH2 0x8BF DUP2 PUSH2 0x799 JUMP JUMPDEST PUSH2 0x8C8 DUP5 PUSH2 0x7AB JUMP JUMPDEST DUP2 ADD PUSH1 0x20 DUP6 LT ISZERO PUSH2 0x8D7 JUMPI DUP2 SWAP1 POP JUMPDEST PUSH2 0x8EB PUSH2 0x8E3 DUP6 PUSH2 0x7AB JUMP JUMPDEST DUP4 ADD DUP3 PUSH2 0x88B JUMP JUMPDEST POP POP JUMPDEST POP POP POP JUMP JUMPDEST PUSH0 DUP3 DUP3 SHR SWAP1 POP SWAP3 SWAP2 POP POP JUMP JUMPDEST PUSH0 PUSH2 0x90E PUSH0 NOT DUP5 PUSH1 0x8 MUL PUSH2 0x8F3 JUMP JUMPDEST NOT DUP1 DUP4 AND SWAP2 POP POP SWAP3 SWAP2 POP POP JUMP JUMPDEST PUSH0 PUSH2 0x926 DUP4 DUP4 PUSH2 0x8FF JUMP JUMPDEST SWAP2 POP DUP3 PUSH1 0x2 MUL DUP3 OR SWAP1 POP SWAP3 SWAP2 POP POP JUMP JUMPDEST PUSH2 0x93F DUP3 PUSH2 0x30F JUMP JUMPDEST PUSH8 0xFFFFFFFFFFFFFFFF DUP2 GT ISZERO PUSH2 0x958 JUMPI PUSH2 0x957 PUSH2 0x441 JUMP JUMPDEST JUMPDEST PUSH2 0x962 DUP3 SLOAD PUSH2 0x5D9 JUMP JUMPDEST PUSH2 0x96D DUP3 DUP3 DUP6 PUSH2 0x8AD JUMP JUMPDEST PUSH0 PUSH1 0x20 SWAP1 POP PUSH1 0x1F DUP4 GT PUSH1 0x1 DUP2 EQ PUSH2 0x99E JUMPI PUSH0 DUP5 ISZERO PUSH2 0x98C JUMPI DUP3 DUP8 ADD MLOAD SWAP1 POP JUMPDEST PUSH2 0x996 DUP6 DUP3 PUSH2 0x91B JUMP JUMPDEST DUP7 SSTORE POP PUSH2 0x9FD JUMP JUMPDEST PUSH1 0x1F NOT DUP5 AND PUSH2 0x9AC DUP7 PUSH2 0x799 JUMP JUMPDEST PUSH0 JUMPDEST DUP3 DUP2 LT ISZERO PUSH2 0x9D3 JUMPI DUP5 DUP10 ADD MLOAD DUP3 SSTORE PUSH1 0x1 DUP3 ADD SWAP2 POP PUSH1 0x20 DUP6 ADD SWAP5 POP PUSH1 0x20 DUP2 ADD SWAP1 POP PUSH2 0x9AE JUMP JUMPDEST DUP7 DUP4 LT ISZERO PUSH2 0x9F0 JUMPI DUP5 DUP10 ADD MLOAD PUSH2 0x9EC PUSH1 0x1F DUP10 AND DUP3 PUSH2 0x8FF JUMP JUMPDEST DUP4 SSTORE POP JUMPDEST PUSH1 0x1 PUSH1 0x2 DUP9 MUL ADD DUP9 SSTORE POP POP POP JUMPDEST POP POP POP POP POP POP JUMP INVALID LOG2 PUSH5 0x6970667358 0x22 SLT KECCAK256 0xF6 0xEE 0xD CALLVALUE PUSH8 0x40CF72453F6E61DE 0xB8 CALL PUSH27 0xB6ACAFF23A55CF27251A90EF01AC792364736F6C634300081A0033 "
				},
				"gasEstimates": {
					"creation": {
						"codeDepositCost": "523800",
						"executionCost": "infinite",
						"totalCost": "infinite"
					},
					"external": {
						"getInfo()": "infinite",
						"getOwner()": "2559",
						"getStoredInfoChanges()": "2432",
						"lastExecutioner()": "2530",
						"setInfo(string)": "infinite"
					}
				},
				"methodIdentifiers": {
					"getInfo()": "5a9b0b89",
					"getOwner()": "893d20e8",
					"getStoredInfoChanges()": "664e3df4",
					"lastExecutioner()": "6fda29b2",
					"setInfo(string)": "937f6e77"
				}
			},
			"storageLayout": {
				"storage": [
					{
						"astId": 3,
						"contract": "contracts/SoftCRStorageM2C1.sol:SoftCRStorageM2C1",
						"label": "storedInfo",
						"offset": 0,
						"slot": "0",
						"type": "t_string_storage"
					},
					{
						"astId": 5,
						"contract": "contracts/SoftCRStorageM2C1.sol:SoftCRStorageM2C1",
						"label": "owner",
						"offset": 0,
						"slot": "1",
						"type": "t_address"
					},
					{
						"astId": 7,
						"contract": "contracts/SoftCRStorageM2C1.sol:SoftCRStorageM2C1",
						"label": "lastExecutioner",
						"offset": 0,
						"slot": "2",
						"type": "t_address"
					},
					{
						"astId": 9,
						"contract": "contracts/SoftCRStorageM2C1.sol:SoftCRStorageM2C1",
						"label": "countChanges",
						"offset": 0,
						"slot": "3",
						"type": "t_uint256"
					}
				],
				"types": {
					"t_address": {
						"encoding": "inplace",
						"label": "address",
						"numberOfBytes": "20"
					},
					"t_string_storage": {
						"encoding": "bytes",
						"label": "string",
						"numberOfBytes": "32"
					},
					"t_uint256": {
						"encoding": "inplace",
						"label": "uint256",
						"numberOfBytes": "32"
					}
				}
			},
			"userdoc": {
				"kind": "user",
				"methods": {},
				"version": 1
			}
		}
	}
}