{
	"contracts/SoftCRStruct.sol": {
		"SoftCRStruct": {
			"abi": [
				{
					"inputs": [],
					"name": "car",
					"outputs": [
						{
							"internalType": "string",
							"name": "brand",
							"type": "string"
						},
						{
							"internalType": "uint256",
							"name": "year",
							"type": "uint256"
						},
						{
							"internalType": "bool",
							"name": "crashed",
							"type": "bool"
						}
					],
					"stateMutability": "view",
					"type": "function"
				},
				{
					"inputs": [
						{
							"internalType": "string",
							"name": "_brand",
							"type": "string"
						},
						{
							"internalType": "uint256",
							"name": "_year",
							"type": "uint256"
						},
						{
							"internalType": "bool",
							"name": "_crashed",
							"type": "bool"
						}
					],
					"name": "createCar",
					"outputs": [],
					"stateMutability": "nonpayable",
					"type": "function"
				}
			],
			"devdoc": {
				"kind": "dev",
				"methods": {},
				"version": 1
			},
			"evm": {
				"assembly": "    /* \"contracts/SoftCRStruct.sol\":108:482  contract SoftCRStruct {... */\n  mstore(0x40, 0x80)\n  callvalue\n  dup1\n  iszero\n  tag_1\n  jumpi\n  0x00\n  dup1\n  revert\ntag_1:\n  pop\n  dataSize(sub_0)\n  dup1\n  dataOffset(sub_0)\n  0x00\n  codecopy\n  0x00\n  return\nstop\n\nsub_0: assembly {\n        /* \"contracts/SoftCRStruct.sol\":108:482  contract SoftCRStruct {... */\n      mstore(0x40, 0x80)\n      callvalue\n      dup1\n      iszero\n      tag_1\n      jumpi\n      0x00\n      dup1\n      revert\n    tag_1:\n      pop\n      jumpi(tag_2, lt(calldatasize, 0x04))\n      shr(0xe0, calldataload(0x00))\n      dup1\n      0x7f7f0c24\n      eq\n      tag_3\n      jumpi\n      dup1\n      0xee26fac3\n      eq\n      tag_4\n      jumpi\n    tag_2:\n      0x00\n      dup1\n      revert\n        /* \"contracts/SoftCRStruct.sol\":244:479  function createCar (string memory _brand, uint _year, bool _crashed) public {... */\n    tag_3:\n      tag_5\n      0x04\n      dup1\n      calldatasize\n      sub\n      dup2\n      add\n      swap1\n      tag_6\n      swap2\n      swap1\n      tag_7\n      jump\t// in\n    tag_6:\n      tag_8\n      jump\t// in\n    tag_5:\n      stop\n        /* \"contracts/SoftCRStruct.sol\":223:237  Car public car */\n    tag_4:\n      tag_9\n      tag_10\n      jump\t// in\n    tag_9:\n      mload(0x40)\n      tag_11\n      swap4\n      swap3\n      swap2\n      swap1\n      tag_12\n      jump\t// in\n    tag_11:\n      mload(0x40)\n      dup1\n      swap2\n      sub\n      swap1\n      return\n        /* \"contracts/SoftCRStruct.sol\":244:479  function createCar (string memory _brand, uint _year, bool _crashed) public {... */\n    tag_8:\n        /* \"contracts/SoftCRStruct.sol\":444:472  Car(_brand, _year, _crashed) */\n      mload(0x40)\n      dup1\n      0x60\n      add\n      0x40\n      mstore\n      dup1\n        /* \"contracts/SoftCRStruct.sol\":448:454  _brand */\n      dup5\n        /* \"contracts/SoftCRStruct.sol\":444:472  Car(_brand, _year, _crashed) */\n      dup2\n      mstore\n      0x20\n      add\n        /* \"contracts/SoftCRStruct.sol\":456:461  _year */\n      dup4\n        /* \"contracts/SoftCRStruct.sol\":444:472  Car(_brand, _year, _crashed) */\n      dup2\n      mstore\n      0x20\n      add\n        /* \"contracts/SoftCRStruct.sol\":463:471  _crashed */\n      dup3\n        /* \"contracts/SoftCRStruct.sol\":444:472  Car(_brand, _year, _crashed) */\n      iszero\n      iszero\n      dup2\n      mstore\n      pop\n        /* \"contracts/SoftCRStruct.sol\":438:441  car */\n      0x00\n        /* \"contracts/SoftCRStruct.sol\":438:472  car = Car(_brand, _year, _crashed) */\n      dup1\n      dup3\n      add\n      mload\n      dup2\n      0x00\n      add\n      swap1\n      dup2\n      tag_14\n      swap2\n      swap1\n      tag_15\n      jump\t// in\n    tag_14:\n      pop\n      0x20\n      dup3\n      add\n      mload\n      dup2\n      0x01\n      add\n      sstore\n      0x40\n      dup3\n      add\n      mload\n      dup2\n      0x02\n      add\n      exp(0x0100, 0x00)\n      dup2\n      sload\n      dup2\n      0xff\n      mul\n      not\n      and\n      swap1\n      dup4\n      iszero\n      iszero\n      mul\n      or\n      swap1\n      sstore\n      pop\n      swap1\n      pop\n      pop\n        /* \"contracts/SoftCRStruct.sol\":244:479  function createCar (string memory _brand, uint _year, bool _crashed) public {... */\n      pop\n      pop\n      pop\n      jump\t// out\n        /* \"contracts/SoftCRStruct.sol\":223:237  Car public car */\n    tag_10:\n      0x00\n      dup1\n      0x00\n      add\n      dup1\n      sload\n      tag_16\n      swap1\n      tag_17\n      jump\t// in\n    tag_16:\n      dup1\n      0x1f\n      add\n      0x20\n      dup1\n      swap2\n      div\n      mul\n      0x20\n      add\n      mload(0x40)\n      swap1\n      dup2\n      add\n      0x40\n      mstore\n      dup1\n      swap3\n      swap2\n      swap1\n      dup2\n      dup2\n      mstore\n      0x20\n      add\n      dup3\n      dup1\n      sload\n      tag_18\n      swap1\n      tag_17\n      jump\t// in\n    tag_18:\n      dup1\n      iszero\n      tag_19\n      jumpi\n      dup1\n      0x1f\n      lt\n      tag_20\n      jumpi\n      0x0100\n      dup1\n      dup4\n      sload\n      div\n      mul\n      dup4\n      mstore\n      swap2\n      0x20\n      add\n      swap2\n      jump(tag_19)\n    tag_20:\n      dup3\n      add\n      swap2\n      swap1\n      0x00\n      mstore\n      keccak256(0x00, 0x20)\n      swap1\n    tag_21:\n      dup2\n      sload\n      dup2\n      mstore\n      swap1\n      0x01\n      add\n      swap1\n      0x20\n      add\n      dup1\n      dup4\n      gt\n      tag_21\n      jumpi\n      dup3\n      swap1\n      sub\n      0x1f\n      and\n      dup3\n      add\n      swap2\n    tag_19:\n      pop\n      pop\n      pop\n      pop\n      pop\n      swap1\n      dup1\n      0x01\n      add\n      sload\n      swap1\n      dup1\n      0x02\n      add\n      0x00\n      swap1\n      sload\n      swap1\n      0x0100\n      exp\n      swap1\n      div\n      0xff\n      and\n      swap1\n      pop\n      dup4\n      jump\t// out\n        /* \"#utility.yul\":7:82   */\n    tag_22:\n        /* \"#utility.yul\":40:46   */\n      0x00\n        /* \"#utility.yul\":73:75   */\n      0x40\n        /* \"#utility.yul\":67:76   */\n      mload\n        /* \"#utility.yul\":57:76   */\n      swap1\n      pop\n        /* \"#utility.yul\":7:82   */\n      swap1\n      jump\t// out\n        /* \"#utility.yul\":88:205   */\n    tag_23:\n        /* \"#utility.yul\":197:198   */\n      0x00\n        /* \"#utility.yul\":194:195   */\n      dup1\n        /* \"#utility.yul\":187:199   */\n      revert\n        /* \"#utility.yul\":211:328   */\n    tag_24:\n        /* \"#utility.yul\":320:321   */\n      0x00\n        /* \"#utility.yul\":317:318   */\n      dup1\n        /* \"#utility.yul\":310:322   */\n      revert\n        /* \"#utility.yul\":334:451   */\n    tag_25:\n        /* \"#utility.yul\":443:444   */\n      0x00\n        /* \"#utility.yul\":440:441   */\n      dup1\n        /* \"#utility.yul\":433:445   */\n      revert\n        /* \"#utility.yul\":457:574   */\n    tag_26:\n        /* \"#utility.yul\":566:567   */\n      0x00\n        /* \"#utility.yul\":563:564   */\n      dup1\n        /* \"#utility.yul\":556:568   */\n      revert\n        /* \"#utility.yul\":580:682   */\n    tag_27:\n        /* \"#utility.yul\":621:627   */\n      0x00\n        /* \"#utility.yul\":672:674   */\n      0x1f\n        /* \"#utility.yul\":668:675   */\n      not\n        /* \"#utility.yul\":663:665   */\n      0x1f\n        /* \"#utility.yul\":656:661   */\n      dup4\n        /* \"#utility.yul\":652:666   */\n      add\n        /* \"#utility.yul\":648:676   */\n      and\n        /* \"#utility.yul\":638:676   */\n      swap1\n      pop\n        /* \"#utility.yul\":580:682   */\n      swap2\n      swap1\n      pop\n      jump\t// out\n        /* \"#utility.yul\":688:868   */\n    tag_28:\n        /* \"#utility.yul\":736:813   */\n      0x4e487b7100000000000000000000000000000000000000000000000000000000\n        /* \"#utility.yul\":733:734   */\n      0x00\n        /* \"#utility.yul\":726:814   */\n      mstore\n        /* \"#utility.yul\":833:837   */\n      0x41\n        /* \"#utility.yul\":830:831   */\n      0x04\n        /* \"#utility.yul\":823:838   */\n      mstore\n        /* \"#utility.yul\":857:861   */\n      0x24\n        /* \"#utility.yul\":854:855   */\n      0x00\n        /* \"#utility.yul\":847:862   */\n      revert\n        /* \"#utility.yul\":874:1155   */\n    tag_29:\n        /* \"#utility.yul\":957:984   */\n      tag_72\n        /* \"#utility.yul\":979:983   */\n      dup3\n        /* \"#utility.yul\":957:984   */\n      tag_27\n      jump\t// in\n    tag_72:\n        /* \"#utility.yul\":949:955   */\n      dup2\n        /* \"#utility.yul\":945:985   */\n      add\n        /* \"#utility.yul\":1087:1093   */\n      dup2\n        /* \"#utility.yul\":1075:1085   */\n      dup2\n        /* \"#utility.yul\":1072:1094   */\n      lt\n        /* \"#utility.yul\":1051:1069   */\n      0xffffffffffffffff\n        /* \"#utility.yul\":1039:1049   */\n      dup3\n        /* \"#utility.yul\":1036:1070   */\n      gt\n        /* \"#utility.yul\":1033:1095   */\n      or\n        /* \"#utility.yul\":1030:1118   */\n      iszero\n      tag_73\n      jumpi\n        /* \"#utility.yul\":1098:1116   */\n      tag_74\n      tag_28\n      jump\t// in\n    tag_74:\n        /* \"#utility.yul\":1030:1118   */\n    tag_73:\n        /* \"#utility.yul\":1138:1148   */\n      dup1\n        /* \"#utility.yul\":1134:1136   */\n      0x40\n        /* \"#utility.yul\":1127:1149   */\n      mstore\n        /* \"#utility.yul\":917:1155   */\n      pop\n        /* \"#utility.yul\":874:1155   */\n      pop\n      pop\n      jump\t// out\n        /* \"#utility.yul\":1161:1290   */\n    tag_30:\n        /* \"#utility.yul\":1195:1201   */\n      0x00\n        /* \"#utility.yul\":1222:1242   */\n      tag_76\n      tag_22\n      jump\t// in\n    tag_76:\n        /* \"#utility.yul\":1212:1242   */\n      swap1\n      pop\n        /* \"#utility.yul\":1251:1284   */\n      tag_77\n        /* \"#utility.yul\":1279:1283   */\n      dup3\n        /* \"#utility.yul\":1271:1277   */\n      dup3\n        /* \"#utility.yul\":1251:1284   */\n      tag_29\n      jump\t// in\n    tag_77:\n        /* \"#utility.yul\":1161:1290   */\n      swap2\n      swap1\n      pop\n      jump\t// out\n        /* \"#utility.yul\":1296:1604   */\n    tag_31:\n        /* \"#utility.yul\":1358:1362   */\n      0x00\n        /* \"#utility.yul\":1448:1466   */\n      0xffffffffffffffff\n        /* \"#utility.yul\":1440:1446   */\n      dup3\n        /* \"#utility.yul\":1437:1467   */\n      gt\n        /* \"#utility.yul\":1434:1490   */\n      iszero\n      tag_79\n      jumpi\n        /* \"#utility.yul\":1470:1488   */\n      tag_80\n      tag_28\n      jump\t// in\n    tag_80:\n        /* \"#utility.yul\":1434:1490   */\n    tag_79:\n        /* \"#utility.yul\":1508:1537   */\n      tag_81\n        /* \"#utility.yul\":1530:1536   */\n      dup3\n        /* \"#utility.yul\":1508:1537   */\n      tag_27\n      jump\t// in\n    tag_81:\n        /* \"#utility.yul\":1500:1537   */\n      swap1\n      pop\n        /* \"#utility.yul\":1592:1596   */\n      0x20\n        /* \"#utility.yul\":1586:1590   */\n      dup2\n        /* \"#utility.yul\":1582:1597   */\n      add\n        /* \"#utility.yul\":1574:1597   */\n      swap1\n      pop\n        /* \"#utility.yul\":1296:1604   */\n      swap2\n      swap1\n      pop\n      jump\t// out\n        /* \"#utility.yul\":1610:1758   */\n    tag_32:\n        /* \"#utility.yul\":1708:1714   */\n      dup3\n        /* \"#utility.yul\":1703:1706   */\n      dup2\n        /* \"#utility.yul\":1698:1701   */\n      dup4\n        /* \"#utility.yul\":1685:1715   */\n      calldatacopy\n        /* \"#utility.yul\":1749:1750   */\n      0x00\n        /* \"#utility.yul\":1740:1746   */\n      dup4\n        /* \"#utility.yul\":1735:1738   */\n      dup4\n        /* \"#utility.yul\":1731:1747   */\n      add\n        /* \"#utility.yul\":1724:1751   */\n      mstore\n        /* \"#utility.yul\":1610:1758   */\n      pop\n      pop\n      pop\n      jump\t// out\n        /* \"#utility.yul\":1764:2189   */\n    tag_33:\n        /* \"#utility.yul\":1842:1847   */\n      0x00\n        /* \"#utility.yul\":1867:1933   */\n      tag_84\n        /* \"#utility.yul\":1883:1932   */\n      tag_85\n        /* \"#utility.yul\":1925:1931   */\n      dup5\n        /* \"#utility.yul\":1883:1932   */\n      tag_31\n      jump\t// in\n    tag_85:\n        /* \"#utility.yul\":1867:1933   */\n      tag_30\n      jump\t// in\n    tag_84:\n        /* \"#utility.yul\":1858:1933   */\n      swap1\n      pop\n        /* \"#utility.yul\":1956:1962   */\n      dup3\n        /* \"#utility.yul\":1949:1954   */\n      dup2\n        /* \"#utility.yul\":1942:1963   */\n      mstore\n        /* \"#utility.yul\":1994:1998   */\n      0x20\n        /* \"#utility.yul\":1987:1992   */\n      dup2\n        /* \"#utility.yul\":1983:1999   */\n      add\n        /* \"#utility.yul\":2032:2035   */\n      dup5\n        /* \"#utility.yul\":2023:2029   */\n      dup5\n        /* \"#utility.yul\":2018:2021   */\n      dup5\n        /* \"#utility.yul\":2014:2030   */\n      add\n        /* \"#utility.yul\":2011:2036   */\n      gt\n        /* \"#utility.yul\":2008:2120   */\n      iszero\n      tag_86\n      jumpi\n        /* \"#utility.yul\":2039:2118   */\n      tag_87\n      tag_26\n      jump\t// in\n    tag_87:\n        /* \"#utility.yul\":2008:2120   */\n    tag_86:\n        /* \"#utility.yul\":2129:2183   */\n      tag_88\n        /* \"#utility.yul\":2176:2182   */\n      dup5\n        /* \"#utility.yul\":2171:2174   */\n      dup3\n        /* \"#utility.yul\":2166:2169   */\n      dup6\n        /* \"#utility.yul\":2129:2183   */\n      tag_32\n      jump\t// in\n    tag_88:\n        /* \"#utility.yul\":1848:2189   */\n      pop\n        /* \"#utility.yul\":1764:2189   */\n      swap4\n      swap3\n      pop\n      pop\n      pop\n      jump\t// out\n        /* \"#utility.yul\":2209:2549   */\n    tag_34:\n        /* \"#utility.yul\":2265:2270   */\n      0x00\n        /* \"#utility.yul\":2314:2317   */\n      dup3\n        /* \"#utility.yul\":2307:2311   */\n      0x1f\n        /* \"#utility.yul\":2299:2305   */\n      dup4\n        /* \"#utility.yul\":2295:2312   */\n      add\n        /* \"#utility.yul\":2291:2318   */\n      slt\n        /* \"#utility.yul\":2281:2403   */\n      tag_90\n      jumpi\n        /* \"#utility.yul\":2322:2401   */\n      tag_91\n      tag_25\n      jump\t// in\n    tag_91:\n        /* \"#utility.yul\":2281:2403   */\n    tag_90:\n        /* \"#utility.yul\":2439:2445   */\n      dup2\n        /* \"#utility.yul\":2426:2446   */\n      calldataload\n        /* \"#utility.yul\":2464:2543   */\n      tag_92\n        /* \"#utility.yul\":2539:2542   */\n      dup5\n        /* \"#utility.yul\":2531:2537   */\n      dup3\n        /* \"#utility.yul\":2524:2528   */\n      0x20\n        /* \"#utility.yul\":2516:2522   */\n      dup7\n        /* \"#utility.yul\":2512:2529   */\n      add\n        /* \"#utility.yul\":2464:2543   */\n      tag_33\n      jump\t// in\n    tag_92:\n        /* \"#utility.yul\":2455:2543   */\n      swap2\n      pop\n        /* \"#utility.yul\":2271:2549   */\n      pop\n        /* \"#utility.yul\":2209:2549   */\n      swap3\n      swap2\n      pop\n      pop\n      jump\t// out\n        /* \"#utility.yul\":2555:2632   */\n    tag_35:\n        /* \"#utility.yul\":2592:2599   */\n      0x00\n        /* \"#utility.yul\":2621:2626   */\n      dup2\n        /* \"#utility.yul\":2610:2626   */\n      swap1\n      pop\n        /* \"#utility.yul\":2555:2632   */\n      swap2\n      swap1\n      pop\n      jump\t// out\n        /* \"#utility.yul\":2638:2760   */\n    tag_36:\n        /* \"#utility.yul\":2711:2735   */\n      tag_95\n        /* \"#utility.yul\":2729:2734   */\n      dup2\n        /* \"#utility.yul\":2711:2735   */\n      tag_35\n      jump\t// in\n    tag_95:\n        /* \"#utility.yul\":2704:2709   */\n      dup2\n        /* \"#utility.yul\":2701:2736   */\n      eq\n        /* \"#utility.yul\":2691:2754   */\n      tag_96\n      jumpi\n        /* \"#utility.yul\":2750:2751   */\n      0x00\n        /* \"#utility.yul\":2747:2748   */\n      dup1\n        /* \"#utility.yul\":2740:2752   */\n      revert\n        /* \"#utility.yul\":2691:2754   */\n    tag_96:\n        /* \"#utility.yul\":2638:2760   */\n      pop\n      jump\t// out\n        /* \"#utility.yul\":2766:2905   */\n    tag_37:\n        /* \"#utility.yul\":2812:2817   */\n      0x00\n        /* \"#utility.yul\":2850:2856   */\n      dup2\n        /* \"#utility.yul\":2837:2857   */\n      calldataload\n        /* \"#utility.yul\":2828:2857   */\n      swap1\n      pop\n        /* \"#utility.yul\":2866:2899   */\n      tag_98\n        /* \"#utility.yul\":2893:2898   */\n      dup2\n        /* \"#utility.yul\":2866:2899   */\n      tag_36\n      jump\t// in\n    tag_98:\n        /* \"#utility.yul\":2766:2905   */\n      swap3\n      swap2\n      pop\n      pop\n      jump\t// out\n        /* \"#utility.yul\":2911:3001   */\n    tag_38:\n        /* \"#utility.yul\":2945:2952   */\n      0x00\n        /* \"#utility.yul\":2988:2993   */\n      dup2\n        /* \"#utility.yul\":2981:2994   */\n      iszero\n        /* \"#utility.yul\":2974:2995   */\n      iszero\n        /* \"#utility.yul\":2963:2995   */\n      swap1\n      pop\n        /* \"#utility.yul\":2911:3001   */\n      swap2\n      swap1\n      pop\n      jump\t// out\n        /* \"#utility.yul\":3007:3123   */\n    tag_39:\n        /* \"#utility.yul\":3077:3098   */\n      tag_101\n        /* \"#utility.yul\":3092:3097   */\n      dup2\n        /* \"#utility.yul\":3077:3098   */\n      tag_38\n      jump\t// in\n    tag_101:\n        /* \"#utility.yul\":3070:3075   */\n      dup2\n        /* \"#utility.yul\":3067:3099   */\n      eq\n        /* \"#utility.yul\":3057:3117   */\n      tag_102\n      jumpi\n        /* \"#utility.yul\":3113:3114   */\n      0x00\n        /* \"#utility.yul\":3110:3111   */\n      dup1\n        /* \"#utility.yul\":3103:3115   */\n      revert\n        /* \"#utility.yul\":3057:3117   */\n    tag_102:\n        /* \"#utility.yul\":3007:3123   */\n      pop\n      jump\t// out\n        /* \"#utility.yul\":3129:3262   */\n    tag_40:\n        /* \"#utility.yul\":3172:3177   */\n      0x00\n        /* \"#utility.yul\":3210:3216   */\n      dup2\n        /* \"#utility.yul\":3197:3217   */\n      calldataload\n        /* \"#utility.yul\":3188:3217   */\n      swap1\n      pop\n        /* \"#utility.yul\":3226:3256   */\n      tag_104\n        /* \"#utility.yul\":3250:3255   */\n      dup2\n        /* \"#utility.yul\":3226:3256   */\n      tag_39\n      jump\t// in\n    tag_104:\n        /* \"#utility.yul\":3129:3262   */\n      swap3\n      swap2\n      pop\n      pop\n      jump\t// out\n        /* \"#utility.yul\":3268:4061   */\n    tag_7:\n        /* \"#utility.yul\":3352:3358   */\n      0x00\n        /* \"#utility.yul\":3360:3366   */\n      dup1\n        /* \"#utility.yul\":3368:3374   */\n      0x00\n        /* \"#utility.yul\":3417:3419   */\n      0x60\n        /* \"#utility.yul\":3405:3414   */\n      dup5\n        /* \"#utility.yul\":3396:3403   */\n      dup7\n        /* \"#utility.yul\":3392:3415   */\n      sub\n        /* \"#utility.yul\":3388:3420   */\n      slt\n        /* \"#utility.yul\":3385:3504   */\n      iszero\n      tag_106\n      jumpi\n        /* \"#utility.yul\":3423:3502   */\n      tag_107\n      tag_23\n      jump\t// in\n    tag_107:\n        /* \"#utility.yul\":3385:3504   */\n    tag_106:\n        /* \"#utility.yul\":3571:3572   */\n      0x00\n        /* \"#utility.yul\":3560:3569   */\n      dup5\n        /* \"#utility.yul\":3556:3573   */\n      add\n        /* \"#utility.yul\":3543:3574   */\n      calldataload\n        /* \"#utility.yul\":3601:3619   */\n      0xffffffffffffffff\n        /* \"#utility.yul\":3593:3599   */\n      dup2\n        /* \"#utility.yul\":3590:3620   */\n      gt\n        /* \"#utility.yul\":3587:3704   */\n      iszero\n      tag_108\n      jumpi\n        /* \"#utility.yul\":3623:3702   */\n      tag_109\n      tag_24\n      jump\t// in\n    tag_109:\n        /* \"#utility.yul\":3587:3704   */\n    tag_108:\n        /* \"#utility.yul\":3728:3791   */\n      tag_110\n        /* \"#utility.yul\":3783:3790   */\n      dup7\n        /* \"#utility.yul\":3774:3780   */\n      dup3\n        /* \"#utility.yul\":3763:3772   */\n      dup8\n        /* \"#utility.yul\":3759:3781   */\n      add\n        /* \"#utility.yul\":3728:3791   */\n      tag_34\n      jump\t// in\n    tag_110:\n        /* \"#utility.yul\":3718:3791   */\n      swap4\n      pop\n        /* \"#utility.yul\":3514:3801   */\n      pop\n        /* \"#utility.yul\":3840:3842   */\n      0x20\n        /* \"#utility.yul\":3866:3919   */\n      tag_111\n        /* \"#utility.yul\":3911:3918   */\n      dup7\n        /* \"#utility.yul\":3902:3908   */\n      dup3\n        /* \"#utility.yul\":3891:3900   */\n      dup8\n        /* \"#utility.yul\":3887:3909   */\n      add\n        /* \"#utility.yul\":3866:3919   */\n      tag_37\n      jump\t// in\n    tag_111:\n        /* \"#utility.yul\":3856:3919   */\n      swap3\n      pop\n        /* \"#utility.yul\":3811:3929   */\n      pop\n        /* \"#utility.yul\":3968:3970   */\n      0x40\n        /* \"#utility.yul\":3994:4044   */\n      tag_112\n        /* \"#utility.yul\":4036:4043   */\n      dup7\n        /* \"#utility.yul\":4027:4033   */\n      dup3\n        /* \"#utility.yul\":4016:4025   */\n      dup8\n        /* \"#utility.yul\":4012:4034   */\n      add\n        /* \"#utility.yul\":3994:4044   */\n      tag_40\n      jump\t// in\n    tag_112:\n        /* \"#utility.yul\":3984:4044   */\n      swap2\n      pop\n        /* \"#utility.yul\":3939:4054   */\n      pop\n        /* \"#utility.yul\":3268:4061   */\n      swap3\n      pop\n      swap3\n      pop\n      swap3\n      jump\t// out\n        /* \"#utility.yul\":4067:4166   */\n    tag_41:\n        /* \"#utility.yul\":4119:4125   */\n      0x00\n        /* \"#utility.yul\":4153:4158   */\n      dup2\n        /* \"#utility.yul\":4147:4159   */\n      mload\n        /* \"#utility.yul\":4137:4159   */\n      swap1\n      pop\n        /* \"#utility.yul\":4067:4166   */\n      swap2\n      swap1\n      pop\n      jump\t// out\n        /* \"#utility.yul\":4172:4341   */\n    tag_42:\n        /* \"#utility.yul\":4256:4267   */\n      0x00\n        /* \"#utility.yul\":4290:4296   */\n      dup3\n        /* \"#utility.yul\":4285:4288   */\n      dup3\n        /* \"#utility.yul\":4278:4297   */\n      mstore\n        /* \"#utility.yul\":4330:4334   */\n      0x20\n        /* \"#utility.yul\":4325:4328   */\n      dup3\n        /* \"#utility.yul\":4321:4335   */\n      add\n        /* \"#utility.yul\":4306:4335   */\n      swap1\n      pop\n        /* \"#utility.yul\":4172:4341   */\n      swap3\n      swap2\n      pop\n      pop\n      jump\t// out\n        /* \"#utility.yul\":4347:4486   */\n    tag_43:\n        /* \"#utility.yul\":4436:4442   */\n      dup3\n        /* \"#utility.yul\":4431:4434   */\n      dup2\n        /* \"#utility.yul\":4426:4429   */\n      dup4\n        /* \"#utility.yul\":4420:4443   */\n      mcopy\n        /* \"#utility.yul\":4477:4478   */\n      0x00\n        /* \"#utility.yul\":4468:4474   */\n      dup4\n        /* \"#utility.yul\":4463:4466   */\n      dup4\n        /* \"#utility.yul\":4459:4475   */\n      add\n        /* \"#utility.yul\":4452:4479   */\n      mstore\n        /* \"#utility.yul\":4347:4486   */\n      pop\n      pop\n      pop\n      jump\t// out\n        /* \"#utility.yul\":4492:4869   */\n    tag_44:\n        /* \"#utility.yul\":4580:4583   */\n      0x00\n        /* \"#utility.yul\":4608:4647   */\n      tag_117\n        /* \"#utility.yul\":4641:4646   */\n      dup3\n        /* \"#utility.yul\":4608:4647   */\n      tag_41\n      jump\t// in\n    tag_117:\n        /* \"#utility.yul\":4663:4734   */\n      tag_118\n        /* \"#utility.yul\":4727:4733   */\n      dup2\n        /* \"#utility.yul\":4722:4725   */\n      dup6\n        /* \"#utility.yul\":4663:4734   */\n      tag_42\n      jump\t// in\n    tag_118:\n        /* \"#utility.yul\":4656:4734   */\n      swap4\n      pop\n        /* \"#utility.yul\":4743:4808   */\n      tag_119\n        /* \"#utility.yul\":4801:4807   */\n      dup2\n        /* \"#utility.yul\":4796:4799   */\n      dup6\n        /* \"#utility.yul\":4789:4793   */\n      0x20\n        /* \"#utility.yul\":4782:4787   */\n      dup7\n        /* \"#utility.yul\":4778:4794   */\n      add\n        /* \"#utility.yul\":4743:4808   */\n      tag_43\n      jump\t// in\n    tag_119:\n        /* \"#utility.yul\":4833:4862   */\n      tag_120\n        /* \"#utility.yul\":4855:4861   */\n      dup2\n        /* \"#utility.yul\":4833:4862   */\n      tag_27\n      jump\t// in\n    tag_120:\n        /* \"#utility.yul\":4828:4831   */\n      dup5\n        /* \"#utility.yul\":4824:4863   */\n      add\n        /* \"#utility.yul\":4817:4863   */\n      swap2\n      pop\n        /* \"#utility.yul\":4584:4869   */\n      pop\n        /* \"#utility.yul\":4492:4869   */\n      swap3\n      swap2\n      pop\n      pop\n      jump\t// out\n        /* \"#utility.yul\":4875:4993   */\n    tag_45:\n        /* \"#utility.yul\":4962:4986   */\n      tag_122\n        /* \"#utility.yul\":4980:4985   */\n      dup2\n        /* \"#utility.yul\":4962:4986   */\n      tag_35\n      jump\t// in\n    tag_122:\n        /* \"#utility.yul\":4957:4960   */\n      dup3\n        /* \"#utility.yul\":4950:4987   */\n      mstore\n        /* \"#utility.yul\":4875:4993   */\n      pop\n      pop\n      jump\t// out\n        /* \"#utility.yul\":4999:5108   */\n    tag_46:\n        /* \"#utility.yul\":5080:5101   */\n      tag_124\n        /* \"#utility.yul\":5095:5100   */\n      dup2\n        /* \"#utility.yul\":5080:5101   */\n      tag_38\n      jump\t// in\n    tag_124:\n        /* \"#utility.yul\":5075:5078   */\n      dup3\n        /* \"#utility.yul\":5068:5102   */\n      mstore\n        /* \"#utility.yul\":4999:5108   */\n      pop\n      pop\n      jump\t// out\n        /* \"#utility.yul\":5114:5635   */\n    tag_12:\n        /* \"#utility.yul\":5277:5281   */\n      0x00\n        /* \"#utility.yul\":5315:5317   */\n      0x60\n        /* \"#utility.yul\":5304:5313   */\n      dup3\n        /* \"#utility.yul\":5300:5318   */\n      add\n        /* \"#utility.yul\":5292:5318   */\n      swap1\n      pop\n        /* \"#utility.yul\":5364:5373   */\n      dup2\n        /* \"#utility.yul\":5358:5362   */\n      dup2\n        /* \"#utility.yul\":5354:5374   */\n      sub\n        /* \"#utility.yul\":5350:5351   */\n      0x00\n        /* \"#utility.yul\":5339:5348   */\n      dup4\n        /* \"#utility.yul\":5335:5352   */\n      add\n        /* \"#utility.yul\":5328:5375   */\n      mstore\n        /* \"#utility.yul\":5392:5470   */\n      tag_126\n        /* \"#utility.yul\":5465:5469   */\n      dup2\n        /* \"#utility.yul\":5456:5462   */\n      dup7\n        /* \"#utility.yul\":5392:5470   */\n      tag_44\n      jump\t// in\n    tag_126:\n        /* \"#utility.yul\":5384:5470   */\n      swap1\n      pop\n        /* \"#utility.yul\":5480:5552   */\n      tag_127\n        /* \"#utility.yul\":5548:5550   */\n      0x20\n        /* \"#utility.yul\":5537:5546   */\n      dup4\n        /* \"#utility.yul\":5533:5551   */\n      add\n        /* \"#utility.yul\":5524:5530   */\n      dup6\n        /* \"#utility.yul\":5480:5552   */\n      tag_45\n      jump\t// in\n    tag_127:\n        /* \"#utility.yul\":5562:5628   */\n      tag_128\n        /* \"#utility.yul\":5624:5626   */\n      0x40\n        /* \"#utility.yul\":5613:5622   */\n      dup4\n        /* \"#utility.yul\":5609:5627   */\n      add\n        /* \"#utility.yul\":5600:5606   */\n      dup5\n        /* \"#utility.yul\":5562:5628   */\n      tag_46\n      jump\t// in\n    tag_128:\n        /* \"#utility.yul\":5114:5635   */\n      swap5\n      swap4\n      pop\n      pop\n      pop\n      pop\n      jump\t// out\n        /* \"#utility.yul\":5641:5821   */\n    tag_47:\n        /* \"#utility.yul\":5689:5766   */\n      0x4e487b7100000000000000000000000000000000000000000000000000000000\n        /* \"#utility.yul\":5686:5687   */\n      0x00\n        /* \"#utility.yul\":5679:5767   */\n      mstore\n        /* \"#utility.yul\":5786:5790   */\n      0x22\n        /* \"#utility.yul\":5783:5784   */\n      0x04\n        /* \"#utility.yul\":5776:5791   */\n      mstore\n        /* \"#utility.yul\":5810:5814   */\n      0x24\n        /* \"#utility.yul\":5807:5808   */\n      0x00\n        /* \"#utility.yul\":5800:5815   */\n      revert\n        /* \"#utility.yul\":5827:6147   */\n    tag_17:\n        /* \"#utility.yul\":5871:5877   */\n      0x00\n        /* \"#utility.yul\":5908:5909   */\n      0x02\n        /* \"#utility.yul\":5902:5906   */\n      dup3\n        /* \"#utility.yul\":5898:5910   */\n      div\n        /* \"#utility.yul\":5888:5910   */\n      swap1\n      pop\n        /* \"#utility.yul\":5955:5956   */\n      0x01\n        /* \"#utility.yul\":5949:5953   */\n      dup3\n        /* \"#utility.yul\":5945:5957   */\n      and\n        /* \"#utility.yul\":5976:5994   */\n      dup1\n        /* \"#utility.yul\":5966:6047   */\n      tag_131\n      jumpi\n        /* \"#utility.yul\":6032:6036   */\n      0x7f\n        /* \"#utility.yul\":6024:6030   */\n      dup3\n        /* \"#utility.yul\":6020:6037   */\n      and\n        /* \"#utility.yul\":6010:6037   */\n      swap2\n      pop\n        /* \"#utility.yul\":5966:6047   */\n    tag_131:\n        /* \"#utility.yul\":6094:6096   */\n      0x20\n        /* \"#utility.yul\":6086:6092   */\n      dup3\n        /* \"#utility.yul\":6083:6097   */\n      lt\n        /* \"#utility.yul\":6063:6081   */\n      dup2\n        /* \"#utility.yul\":6060:6098   */\n      sub\n        /* \"#utility.yul\":6057:6141   */\n      tag_132\n      jumpi\n        /* \"#utility.yul\":6113:6131   */\n      tag_133\n      tag_47\n      jump\t// in\n    tag_133:\n        /* \"#utility.yul\":6057:6141   */\n    tag_132:\n        /* \"#utility.yul\":5878:6147   */\n      pop\n        /* \"#utility.yul\":5827:6147   */\n      swap2\n      swap1\n      pop\n      jump\t// out\n        /* \"#utility.yul\":6153:6294   */\n    tag_48:\n        /* \"#utility.yul\":6202:6206   */\n      0x00\n        /* \"#utility.yul\":6225:6228   */\n      dup2\n        /* \"#utility.yul\":6217:6228   */\n      swap1\n      pop\n        /* \"#utility.yul\":6248:6251   */\n      dup2\n        /* \"#utility.yul\":6245:6246   */\n      0x00\n        /* \"#utility.yul\":6238:6252   */\n      mstore\n        /* \"#utility.yul\":6282:6286   */\n      0x20\n        /* \"#utility.yul\":6279:6280   */\n      0x00\n        /* \"#utility.yul\":6269:6287   */\n      keccak256\n        /* \"#utility.yul\":6261:6287   */\n      swap1\n      pop\n        /* \"#utility.yul\":6153:6294   */\n      swap2\n      swap1\n      pop\n      jump\t// out\n        /* \"#utility.yul\":6300:6393   */\n    tag_49:\n        /* \"#utility.yul\":6337:6343   */\n      0x00\n        /* \"#utility.yul\":6384:6386   */\n      0x20\n        /* \"#utility.yul\":6379:6381   */\n      0x1f\n        /* \"#utility.yul\":6372:6377   */\n      dup4\n        /* \"#utility.yul\":6368:6382   */\n      add\n        /* \"#utility.yul\":6364:6387   */\n      div\n        /* \"#utility.yul\":6354:6387   */\n      swap1\n      pop\n        /* \"#utility.yul\":6300:6393   */\n      swap2\n      swap1\n      pop\n      jump\t// out\n        /* \"#utility.yul\":6399:6506   */\n    tag_50:\n        /* \"#utility.yul\":6443:6451   */\n      0x00\n        /* \"#utility.yul\":6493:6498   */\n      dup3\n        /* \"#utility.yul\":6487:6491   */\n      dup3\n        /* \"#utility.yul\":6483:6499   */\n      shl\n        /* \"#utility.yul\":6462:6499   */\n      swap1\n      pop\n        /* \"#utility.yul\":6399:6506   */\n      swap3\n      swap2\n      pop\n      pop\n      jump\t// out\n        /* \"#utility.yul\":6512:6905   */\n    tag_51:\n        /* \"#utility.yul\":6581:6587   */\n      0x00\n        /* \"#utility.yul\":6631:6632   */\n      0x08\n        /* \"#utility.yul\":6619:6629   */\n      dup4\n        /* \"#utility.yul\":6615:6633   */\n      mul\n        /* \"#utility.yul\":6654:6751   */\n      tag_138\n        /* \"#utility.yul\":6684:6750   */\n      0xffffffffffffffffffffffffffffffffffffffffffffffffffffffffffffffff\n        /* \"#utility.yul\":6673:6682   */\n      dup3\n        /* \"#utility.yul\":6654:6751   */\n      tag_50\n      jump\t// in\n    tag_138:\n        /* \"#utility.yul\":6772:6811   */\n      tag_139\n        /* \"#utility.yul\":6802:6810   */\n      dup7\n        /* \"#utility.yul\":6791:6800   */\n      dup4\n        /* \"#utility.yul\":6772:6811   */\n      tag_50\n      jump\t// in\n    tag_139:\n        /* \"#utility.yul\":6760:6811   */\n      swap6\n      pop\n        /* \"#utility.yul\":6844:6848   */\n      dup1\n        /* \"#utility.yul\":6840:6849   */\n      not\n        /* \"#utility.yul\":6833:6838   */\n      dup5\n        /* \"#utility.yul\":6829:6850   */\n      and\n        /* \"#utility.yul\":6820:6850   */\n      swap4\n      pop\n        /* \"#utility.yul\":6893:6897   */\n      dup1\n        /* \"#utility.yul\":6883:6891   */\n      dup7\n        /* \"#utility.yul\":6879:6898   */\n      and\n        /* \"#utility.yul\":6872:6877   */\n      dup5\n        /* \"#utility.yul\":6869:6899   */\n      or\n        /* \"#utility.yul\":6859:6899   */\n      swap3\n      pop\n        /* \"#utility.yul\":6588:6905   */\n      pop\n      pop\n        /* \"#utility.yul\":6512:6905   */\n      swap4\n      swap3\n      pop\n      pop\n      pop\n      jump\t// out\n        /* \"#utility.yul\":6911:6971   */\n    tag_52:\n        /* \"#utility.yul\":6939:6942   */\n      0x00\n        /* \"#utility.yul\":6960:6965   */\n      dup2\n        /* \"#utility.yul\":6953:6965   */\n      swap1\n      pop\n        /* \"#utility.yul\":6911:6971   */\n      swap2\n      swap1\n      pop\n      jump\t// out\n        /* \"#utility.yul\":6977:7119   */\n    tag_53:\n        /* \"#utility.yul\":7027:7036   */\n      0x00\n        /* \"#utility.yul\":7060:7113   */\n      tag_142\n        /* \"#utility.yul\":7078:7112   */\n      tag_143\n        /* \"#utility.yul\":7087:7111   */\n      tag_144\n        /* \"#utility.yul\":7105:7110   */\n      dup5\n        /* \"#utility.yul\":7087:7111   */\n      tag_35\n      jump\t// in\n    tag_144:\n        /* \"#utility.yul\":7078:7112   */\n      tag_52\n      jump\t// in\n    tag_143:\n        /* \"#utility.yul\":7060:7113   */\n      tag_35\n      jump\t// in\n    tag_142:\n        /* \"#utility.yul\":7047:7113   */\n      swap1\n      pop\n        /* \"#utility.yul\":6977:7119   */\n      swap2\n      swap1\n      pop\n      jump\t// out\n        /* \"#utility.yul\":7125:7200   */\n    tag_54:\n        /* \"#utility.yul\":7168:7171   */\n      0x00\n        /* \"#utility.yul\":7189:7194   */\n      dup2\n        /* \"#utility.yul\":7182:7194   */\n      swap1\n      pop\n        /* \"#utility.yul\":7125:7200   */\n      swap2\n      swap1\n      pop\n      jump\t// out\n        /* \"#utility.yul\":7206:7475   */\n    tag_55:\n        /* \"#utility.yul\":7316:7355   */\n      tag_147\n        /* \"#utility.yul\":7347:7354   */\n      dup4\n        /* \"#utility.yul\":7316:7355   */\n      tag_53\n      jump\t// in\n    tag_147:\n        /* \"#utility.yul\":7377:7468   */\n      tag_148\n        /* \"#utility.yul\":7426:7467   */\n      tag_149\n        /* \"#utility.yul\":7450:7466   */\n      dup3\n        /* \"#utility.yul\":7426:7467   */\n      tag_54\n      jump\t// in\n    tag_149:\n        /* \"#utility.yul\":7418:7424   */\n      dup5\n        /* \"#utility.yul\":7411:7415   */\n      dup5\n        /* \"#utility.yul\":7405:7416   */\n      sload\n        /* \"#utility.yul\":7377:7468   */\n      tag_51\n      jump\t// in\n    tag_148:\n        /* \"#utility.yul\":7371:7375   */\n      dup3\n        /* \"#utility.yul\":7364:7469   */\n      sstore\n        /* \"#utility.yul\":7282:7475   */\n      pop\n        /* \"#utility.yul\":7206:7475   */\n      pop\n      pop\n      pop\n      jump\t// out\n        /* \"#utility.yul\":7481:7554   */\n    tag_56:\n        /* \"#utility.yul\":7526:7529   */\n      0x00\n        /* \"#utility.yul\":7481:7554   */\n      swap1\n      jump\t// out\n        /* \"#utility.yul\":7560:7749   */\n    tag_57:\n        /* \"#utility.yul\":7637:7669   */\n      tag_152\n      tag_56\n      jump\t// in\n    tag_152:\n        /* \"#utility.yul\":7678:7743   */\n      tag_153\n        /* \"#utility.yul\":7736:7742   */\n      dup2\n        /* \"#utility.yul\":7728:7734   */\n      dup5\n        /* \"#utility.yul\":7722:7726   */\n      dup5\n        /* \"#utility.yul\":7678:7743   */\n      tag_55\n      jump\t// in\n    tag_153:\n        /* \"#utility.yul\":7613:7749   */\n      pop\n        /* \"#utility.yul\":7560:7749   */\n      pop\n      pop\n      jump\t// out\n        /* \"#utility.yul\":7755:7941   */\n    tag_58:\n        /* \"#utility.yul\":7815:7935   */\n    tag_155:\n        /* \"#utility.yul\":7832:7835   */\n      dup2\n        /* \"#utility.yul\":7825:7830   */\n      dup2\n        /* \"#utility.yul\":7822:7836   */\n      lt\n        /* \"#utility.yul\":7815:7935   */\n      iszero\n      tag_157\n      jumpi\n        /* \"#utility.yul\":7886:7925   */\n      tag_158\n        /* \"#utility.yul\":7923:7924   */\n      0x00\n        /* \"#utility.yul\":7916:7921   */\n      dup3\n        /* \"#utility.yul\":7886:7925   */\n      tag_57\n      jump\t// in\n    tag_158:\n        /* \"#utility.yul\":7859:7860   */\n      0x01\n        /* \"#utility.yul\":7852:7857   */\n      dup2\n        /* \"#utility.yul\":7848:7861   */\n      add\n        /* \"#utility.yul\":7839:7861   */\n      swap1\n      pop\n        /* \"#utility.yul\":7815:7935   */\n      jump(tag_155)\n    tag_157:\n        /* \"#utility.yul\":7755:7941   */\n      pop\n      pop\n      jump\t// out\n        /* \"#utility.yul\":7947:8490   */\n    tag_59:\n        /* \"#utility.yul\":8048:8050   */\n      0x1f\n        /* \"#utility.yul\":8043:8046   */\n      dup3\n        /* \"#utility.yul\":8040:8051   */\n      gt\n        /* \"#utility.yul\":8037:8483   */\n      iszero\n      tag_160\n      jumpi\n        /* \"#utility.yul\":8082:8120   */\n      tag_161\n        /* \"#utility.yul\":8114:8119   */\n      dup2\n        /* \"#utility.yul\":8082:8120   */\n      tag_48\n      jump\t// in\n    tag_161:\n        /* \"#utility.yul\":8166:8195   */\n      tag_162\n        /* \"#utility.yul\":8184:8194   */\n      dup5\n        /* \"#utility.yul\":8166:8195   */\n      tag_49\n      jump\t// in\n    tag_162:\n        /* \"#utility.yul\":8156:8164   */\n      dup2\n        /* \"#utility.yul\":8152:8196   */\n      add\n        /* \"#utility.yul\":8349:8351   */\n      0x20\n        /* \"#utility.yul\":8337:8347   */\n      dup6\n        /* \"#utility.yul\":8334:8352   */\n      lt\n        /* \"#utility.yul\":8331:8380   */\n      iszero\n      tag_163\n      jumpi\n        /* \"#utility.yul\":8370:8378   */\n      dup2\n        /* \"#utility.yul\":8355:8378   */\n      swap1\n      pop\n        /* \"#utility.yul\":8331:8380   */\n    tag_163:\n        /* \"#utility.yul\":8393:8473   */\n      tag_164\n        /* \"#utility.yul\":8449:8471   */\n      tag_165\n        /* \"#utility.yul\":8467:8470   */\n      dup6\n        /* \"#utility.yul\":8449:8471   */\n      tag_49\n      jump\t// in\n    tag_165:\n        /* \"#utility.yul\":8439:8447   */\n      dup4\n        /* \"#utility.yul\":8435:8472   */\n      add\n        /* \"#utility.yul\":8422:8433   */\n      dup3\n        /* \"#utility.yul\":8393:8473   */\n      tag_58\n      jump\t// in\n    tag_164:\n        /* \"#utility.yul\":8052:8483   */\n      pop\n      pop\n        /* \"#utility.yul\":8037:8483   */\n    tag_160:\n        /* \"#utility.yul\":7947:8490   */\n      pop\n      pop\n      pop\n      jump\t// out\n        /* \"#utility.yul\":8496:8613   */\n    tag_60:\n        /* \"#utility.yul\":8550:8558   */\n      0x00\n        /* \"#utility.yul\":8600:8605   */\n      dup3\n        /* \"#utility.yul\":8594:8598   */\n      dup3\n        /* \"#utility.yul\":8590:8606   */\n      shr\n        /* \"#utility.yul\":8569:8606   */\n      swap1\n      pop\n        /* \"#utility.yul\":8496:8613   */\n      swap3\n      swap2\n      pop\n      pop\n      jump\t// out\n        /* \"#utility.yul\":8619:8788   */\n    tag_61:\n        /* \"#utility.yul\":8663:8669   */\n      0x00\n        /* \"#utility.yul\":8696:8747   */\n      tag_168\n        /* \"#utility.yul\":8744:8745   */\n      0x00\n        /* \"#utility.yul\":8740:8746   */\n      not\n        /* \"#utility.yul\":8732:8737   */\n      dup5\n        /* \"#utility.yul\":8729:8730   */\n      0x08\n        /* \"#utility.yul\":8725:8738   */\n      mul\n        /* \"#utility.yul\":8696:8747   */\n      tag_60\n      jump\t// in\n    tag_168:\n        /* \"#utility.yul\":8692:8748   */\n      not\n        /* \"#utility.yul\":8777:8781   */\n      dup1\n        /* \"#utility.yul\":8771:8775   */\n      dup4\n        /* \"#utility.yul\":8767:8782   */\n      and\n        /* \"#utility.yul\":8757:8782   */\n      swap2\n      pop\n        /* \"#utility.yul\":8670:8788   */\n      pop\n        /* \"#utility.yul\":8619:8788   */\n      swap3\n      swap2\n      pop\n      pop\n      jump\t// out\n        /* \"#utility.yul\":8793:9088   */\n    tag_62:\n        /* \"#utility.yul\":8869:8873   */\n      0x00\n        /* \"#utility.yul\":9015:9044   */\n      tag_170\n        /* \"#utility.yul\":9040:9043   */\n      dup4\n        /* \"#utility.yul\":9034:9038   */\n      dup4\n        /* \"#utility.yul\":9015:9044   */\n      tag_61\n      jump\t// in\n    tag_170:\n        /* \"#utility.yul\":9007:9044   */\n      swap2\n      pop\n        /* \"#utility.yul\":9077:9080   */\n      dup3\n        /* \"#utility.yul\":9074:9075   */\n      0x02\n        /* \"#utility.yul\":9070:9081   */\n      mul\n        /* \"#utility.yul\":9064:9068   */\n      dup3\n        /* \"#utility.yul\":9061:9082   */\n      or\n        /* \"#utility.yul\":9053:9082   */\n      swap1\n      pop\n        /* \"#utility.yul\":8793:9088   */\n      swap3\n      swap2\n      pop\n      pop\n      jump\t// out\n        /* \"#utility.yul\":9093:10488   */\n    tag_15:\n        /* \"#utility.yul\":9210:9247   */\n      tag_172\n        /* \"#utility.yul\":9243:9246   */\n      dup3\n        /* \"#utility.yul\":9210:9247   */\n      tag_41\n      jump\t// in\n    tag_172:\n        /* \"#utility.yul\":9312:9330   */\n      0xffffffffffffffff\n        /* \"#utility.yul\":9304:9310   */\n      dup2\n        /* \"#utility.yul\":9301:9331   */\n      gt\n        /* \"#utility.yul\":9298:9354   */\n      iszero\n      tag_173\n      jumpi\n        /* \"#utility.yul\":9334:9352   */\n      tag_174\n      tag_28\n      jump\t// in\n    tag_174:\n        /* \"#utility.yul\":9298:9354   */\n    tag_173:\n        /* \"#utility.yul\":9378:9416   */\n      tag_175\n        /* \"#utility.yul\":9410:9414   */\n      dup3\n        /* \"#utility.yul\":9404:9415   */\n      sload\n        /* \"#utility.yul\":9378:9416   */\n      tag_17\n      jump\t// in\n    tag_175:\n        /* \"#utility.yul\":9463:9530   */\n      tag_176\n        /* \"#utility.yul\":9523:9529   */\n      dup3\n        /* \"#utility.yul\":9515:9521   */\n      dup3\n        /* \"#utility.yul\":9509:9513   */\n      dup6\n        /* \"#utility.yul\":9463:9530   */\n      tag_59\n      jump\t// in\n    tag_176:\n        /* \"#utility.yul\":9557:9558   */\n      0x00\n        /* \"#utility.yul\":9581:9585   */\n      0x20\n        /* \"#utility.yul\":9568:9585   */\n      swap1\n      pop\n        /* \"#utility.yul\":9613:9615   */\n      0x1f\n        /* \"#utility.yul\":9605:9611   */\n      dup4\n        /* \"#utility.yul\":9602:9616   */\n      gt\n        /* \"#utility.yul\":9630:9631   */\n      0x01\n        /* \"#utility.yul\":9625:10243   */\n      dup2\n      eq\n      tag_178\n      jumpi\n        /* \"#utility.yul\":10287:10288   */\n      0x00\n        /* \"#utility.yul\":10304:10310   */\n      dup5\n        /* \"#utility.yul\":10301:10378   */\n      iszero\n      tag_179\n      jumpi\n        /* \"#utility.yul\":10353:10362   */\n      dup3\n        /* \"#utility.yul\":10348:10351   */\n      dup8\n        /* \"#utility.yul\":10344:10363   */\n      add\n        /* \"#utility.yul\":10338:10364   */\n      mload\n        /* \"#utility.yul\":10329:10364   */\n      swap1\n      pop\n        /* \"#utility.yul\":10301:10378   */\n    tag_179:\n        /* \"#utility.yul\":10404:10471   */\n      tag_180\n        /* \"#utility.yul\":10464:10470   */\n      dup6\n        /* \"#utility.yul\":10457:10462   */\n      dup3\n        /* \"#utility.yul\":10404:10471   */\n      tag_62\n      jump\t// in\n    tag_180:\n        /* \"#utility.yul\":10398:10402   */\n      dup7\n        /* \"#utility.yul\":10391:10472   */\n      sstore\n        /* \"#utility.yul\":10260:10482   */\n      pop\n        /* \"#utility.yul\":9595:10482   */\n      jump(tag_177)\n        /* \"#utility.yul\":9625:10243   */\n    tag_178:\n        /* \"#utility.yul\":9677:9681   */\n      0x1f\n        /* \"#utility.yul\":9673:9682   */\n      not\n        /* \"#utility.yul\":9665:9671   */\n      dup5\n        /* \"#utility.yul\":9661:9683   */\n      and\n        /* \"#utility.yul\":9711:9748   */\n      tag_181\n        /* \"#utility.yul\":9743:9747   */\n      dup7\n        /* \"#utility.yul\":9711:9748   */\n      tag_48\n      jump\t// in\n    tag_181:\n        /* \"#utility.yul\":9770:9771   */\n      0x00\n        /* \"#utility.yul\":9784:9992   */\n    tag_182:\n        /* \"#utility.yul\":9798:9805   */\n      dup3\n        /* \"#utility.yul\":9795:9796   */\n      dup2\n        /* \"#utility.yul\":9792:9806   */\n      lt\n        /* \"#utility.yul\":9784:9992   */\n      iszero\n      tag_184\n      jumpi\n        /* \"#utility.yul\":9877:9886   */\n      dup5\n        /* \"#utility.yul\":9872:9875   */\n      dup10\n        /* \"#utility.yul\":9868:9887   */\n      add\n        /* \"#utility.yul\":9862:9888   */\n      mload\n        /* \"#utility.yul\":9854:9860   */\n      dup3\n        /* \"#utility.yul\":9847:9889   */\n      sstore\n        /* \"#utility.yul\":9928:9929   */\n      0x01\n        /* \"#utility.yul\":9920:9926   */\n      dup3\n        /* \"#utility.yul\":9916:9930   */\n      add\n        /* \"#utility.yul\":9906:9930   */\n      swap2\n      pop\n        /* \"#utility.yul\":9975:9977   */\n      0x20\n        /* \"#utility.yul\":9964:9973   */\n      dup6\n        /* \"#utility.yul\":9960:9978   */\n      add\n        /* \"#utility.yul\":9947:9978   */\n      swap5\n      pop\n        /* \"#utility.yul\":9821:9825   */\n      0x20\n        /* \"#utility.yul\":9818:9819   */\n      dup2\n        /* \"#utility.yul\":9814:9826   */\n      add\n        /* \"#utility.yul\":9809:9826   */\n      swap1\n      pop\n        /* \"#utility.yul\":9784:9992   */\n      jump(tag_182)\n    tag_184:\n        /* \"#utility.yul\":10020:10026   */\n      dup7\n        /* \"#utility.yul\":10011:10018   */\n      dup4\n        /* \"#utility.yul\":10008:10027   */\n      lt\n        /* \"#utility.yul\":10005:10184   */\n      iszero\n      tag_185\n      jumpi\n        /* \"#utility.yul\":10078:10087   */\n      dup5\n        /* \"#utility.yul\":10073:10076   */\n      dup10\n        /* \"#utility.yul\":10069:10088   */\n      add\n        /* \"#utility.yul\":10063:10089   */\n      mload\n        /* \"#utility.yul\":10121:10169   */\n      tag_186\n        /* \"#utility.yul\":10163:10167   */\n      0x1f\n        /* \"#utility.yul\":10155:10161   */\n      dup10\n        /* \"#utility.yul\":10151:10168   */\n      and\n        /* \"#utility.yul\":10140:10149   */\n      dup3\n        /* \"#utility.yul\":10121:10169   */\n      tag_61\n      jump\t// in\n    tag_186:\n        /* \"#utility.yul\":10113:10119   */\n      dup4\n        /* \"#utility.yul\":10106:10170   */\n      sstore\n        /* \"#utility.yul\":10028:10184   */\n      pop\n        /* \"#utility.yul\":10005:10184   */\n    tag_185:\n        /* \"#utility.yul\":10230:10231   */\n      0x01\n        /* \"#utility.yul\":10226:10227   */\n      0x02\n        /* \"#utility.yul\":10218:10224   */\n      dup9\n        /* \"#utility.yul\":10214:10228   */\n      mul\n        /* \"#utility.yul\":10210:10232   */\n      add\n        /* \"#utility.yul\":10204:10208   */\n      dup9\n        /* \"#utility.yul\":10197:10233   */\n      sstore\n        /* \"#utility.yul\":9632:10243   */\n      pop\n      pop\n      pop\n        /* \"#utility.yul\":9595:10482   */\n    tag_177:\n      pop\n        /* \"#utility.yul\":9185:10488   */\n      pop\n      pop\n      pop\n        /* \"#utility.yul\":9093:10488   */\n      pop\n      pop\n      jump\t// out\n\n    auxdata: 0xa264697066735822122005c3c5f5f39941962a94dea5c3cfe7f205b1580f87932ae13e480552deaa680f64736f6c634300081a0033\n}\n",
				"bytecode": {
					"linkReferences": {},
					"object": "6080604052348015600e575f80fd5b506107598061001c5f395ff3fe608060405234801561000f575f80fd5b5060043610610034575f3560e01c80637f7f0c2414610038578063ee26fac314610054575b5f80fd5b610052600480360381019061004d9190610334565b610074565b005b61005c6100d7565b60405161006b9392919061041e565b60405180910390f35b60405180606001604052808481526020018381526020018215158152505f80820151815f0190816100a59190610654565b50602082015181600101556040820151816002015f6101000a81548160ff021916908315150217905550905050505050565b5f805f0180546100e690610487565b80601f016020809104026020016040519081016040528092919081815260200182805461011290610487565b801561015d5780601f106101345761010080835404028352916020019161015d565b820191905f5260205f20905b81548152906001019060200180831161014057829003601f168201915b505050505090806001015490806002015f9054906101000a900460ff16905083565b5f604051905090565b5f80fd5b5f80fd5b5f80fd5b5f80fd5b5f601f19601f8301169050919050565b7f4e487b71000000000000000000000000000000000000000000000000000000005f52604160045260245ffd5b6101de82610198565b810181811067ffffffffffffffff821117156101fd576101fc6101a8565b5b80604052505050565b5f61020f61017f565b905061021b82826101d5565b919050565b5f67ffffffffffffffff82111561023a576102396101a8565b5b61024382610198565b9050602081019050919050565b828183375f83830152505050565b5f61027061026b84610220565b610206565b90508281526020810184848401111561028c5761028b610194565b5b610297848285610250565b509392505050565b5f82601f8301126102b3576102b2610190565b5b81356102c384826020860161025e565b91505092915050565b5f819050919050565b6102de816102cc565b81146102e8575f80fd5b50565b5f813590506102f9816102d5565b92915050565b5f8115159050919050565b610313816102ff565b811461031d575f80fd5b50565b5f8135905061032e8161030a565b92915050565b5f805f6060848603121561034b5761034a610188565b5b5f84013567ffffffffffffffff8111156103685761036761018c565b5b6103748682870161029f565b9350506020610385868287016102eb565b925050604061039686828701610320565b9150509250925092565b5f81519050919050565b5f82825260208201905092915050565b8281835e5f83830152505050565b5f6103d2826103a0565b6103dc81856103aa565b93506103ec8185602086016103ba565b6103f581610198565b840191505092915050565b610409816102cc565b82525050565b610418816102ff565b82525050565b5f6060820190508181035f83015261043681866103c8565b90506104456020830185610400565b610452604083018461040f565b949350505050565b7f4e487b71000000000000000000000000000000000000000000000000000000005f52602260045260245ffd5b5f600282049050600182168061049e57607f821691505b6020821081036104b1576104b061045a565b5b50919050565b5f819050815f5260205f209050919050565b5f6020601f8301049050919050565b5f82821b905092915050565b5f600883026105137fffffffffffffffffffffffffffffffffffffffffffffffffffffffffffffffff826104d8565b61051d86836104d8565b95508019841693508086168417925050509392505050565b5f819050919050565b5f61055861055361054e846102cc565b610535565b6102cc565b9050919050565b5f819050919050565b6105718361053e565b61058561057d8261055f565b8484546104e4565b825550505050565b5f90565b61059961058d565b6105a4818484610568565b505050565b5b818110156105c7576105bc5f82610591565b6001810190506105aa565b5050565b601f82111561060c576105dd816104b7565b6105e6846104c9565b810160208510156105f5578190505b610609610601856104c9565b8301826105a9565b50505b505050565b5f82821c905092915050565b5f61062c5f1984600802610611565b1980831691505092915050565b5f610644838361061d565b9150826002028217905092915050565b61065d826103a0565b67ffffffffffffffff811115610676576106756101a8565b5b6106808254610487565b61068b8282856105cb565b5f60209050601f8311600181146106bc575f84156106aa578287015190505b6106b48582610639565b86555061071b565b601f1984166106ca866104b7565b5f5b828110156106f1578489015182556001820191506020850194506020810190506106cc565b8683101561070e578489015161070a601f89168261061d565b8355505b6001600288020188555050505b50505050505056fea264697066735822122005c3c5f5f39941962a94dea5c3cfe7f205b1580f87932ae13e480552deaa680f64736f6c634300081a0033",
					"opcodes": "PUSH1 0x80 PUSH1 0x40 MSTORE CALLVALUE DUP1 ISZERO PUSH1 0xE JUMPI PUSH0 DUP1 REVERT JUMPDEST POP PUSH2 0x759 DUP1 PUSH2 0x1C PUSH0 CODECOPY PUSH0 RETURN INVALID PUSH1 0x80 PUSH1 0x40 MSTORE CALLVALUE DUP1 ISZERO PUSH2 0xF JUMPI PUSH0 DUP1 REVERT JUMPDEST POP PUSH1 0x4 CALLDATASIZE LT PUSH2 0x34 JUMPI PUSH0 CALLDATALOAD PUSH1 0xE0 SHR DUP1 PUSH4 0x7F7F0C24 EQ PUSH2 0x38 JUMPI DUP1 PUSH4 0xEE26FAC3 EQ PUSH2 0x54 JUMPI JUMPDEST PUSH0 DUP1 REVERT JUMPDEST PUSH2 0x52 PUSH1 0x4 DUP1 CALLDATASIZE SUB DUP2 ADD SWAP1 PUSH2 0x4D SWAP2 SWAP1 PUSH2 0x334 JUMP JUMPDEST PUSH2 0x74 JUMP JUMPDEST STOP JUMPDEST PUSH2 0x5C PUSH2 0xD7 JUMP JUMPDEST PUSH1 0x40 MLOAD PUSH2 0x6B SWAP4 SWAP3 SWAP2 SWAP1 PUSH2 0x41E JUMP JUMPDEST PUSH1 0x40 MLOAD DUP1 SWAP2 SUB SWAP1 RETURN JUMPDEST PUSH1 0x40 MLOAD DUP1 PUSH1 0x60 ADD PUSH1 0x40 MSTORE DUP1 DUP5 DUP2 MSTORE PUSH1 0x20 ADD DUP4 DUP2 MSTORE PUSH1 0x20 ADD DUP3 ISZERO ISZERO DUP2 MSTORE POP PUSH0 DUP1 DUP3 ADD MLOAD DUP2 PUSH0 ADD SWAP1 DUP2 PUSH2 0xA5 SWAP2 SWAP1 PUSH2 0x654 JUMP JUMPDEST POP PUSH1 0x20 DUP3 ADD MLOAD DUP2 PUSH1 0x1 ADD SSTORE PUSH1 0x40 DUP3 ADD MLOAD DUP2 PUSH1 0x2 ADD PUSH0 PUSH2 0x100 EXP DUP2 SLOAD DUP2 PUSH1 0xFF MUL NOT AND SWAP1 DUP4 ISZERO ISZERO MUL OR SWAP1 SSTORE POP SWAP1 POP POP POP POP POP JUMP JUMPDEST PUSH0 DUP1 PUSH0 ADD DUP1 SLOAD PUSH2 0xE6 SWAP1 PUSH2 0x487 JUMP JUMPDEST DUP1 PUSH1 0x1F ADD PUSH1 0x20 DUP1 SWAP2 DIV MUL PUSH1 0x20 ADD PUSH1 0x40 MLOAD SWAP1 DUP2 ADD PUSH1 0x40 MSTORE DUP1 SWAP3 SWAP2 SWAP1 DUP2 DUP2 MSTORE PUSH1 0x20 ADD DUP3 DUP1 SLOAD PUSH2 0x112 SWAP1 PUSH2 0x487 JUMP JUMPDEST DUP1 ISZERO PUSH2 0x15D JUMPI DUP1 PUSH1 0x1F LT PUSH2 0x134 JUMPI PUSH2 0x100 DUP1 DUP4 SLOAD DIV MUL DUP4 MSTORE SWAP2 PUSH1 0x20 ADD SWAP2 PUSH2 0x15D JUMP JUMPDEST DUP3 ADD SWAP2 SWAP1 PUSH0 MSTORE PUSH1 0x20 PUSH0 KECCAK256 SWAP1 JUMPDEST DUP2 SLOAD DUP2 MSTORE SWAP1 PUSH1 0x1 ADD SWAP1 PUSH1 0x20 ADD DUP1 DUP4 GT PUSH2 0x140 JUMPI DUP3 SWAP1 SUB PUSH1 0x1F AND DUP3 ADD SWAP2 JUMPDEST POP POP POP POP POP SWAP1 DUP1 PUSH1 0x1 ADD SLOAD SWAP1 DUP1 PUSH1 0x2 ADD PUSH0 SWAP1 SLOAD SWAP1 PUSH2 0x100 EXP SWAP1 DIV PUSH1 0xFF AND SWAP1 POP DUP4 JUMP JUMPDEST PUSH0 PUSH1 0x40 MLOAD SWAP1 POP SWAP1 JUMP JUMPDEST PUSH0 DUP1 REVERT JUMPDEST PUSH0 DUP1 REVERT JUMPDEST PUSH0 DUP1 REVERT JUMPDEST PUSH0 DUP1 REVERT JUMPDEST PUSH0 PUSH1 0x1F NOT PUSH1 0x1F DUP4 ADD AND SWAP1 POP SWAP2 SWAP1 POP JUMP JUMPDEST PUSH32 0x4E487B7100000000000000000000000000000000000000000000000000000000 PUSH0 MSTORE PUSH1 0x41 PUSH1 0x4 MSTORE PUSH1 0x24 PUSH0 REVERT JUMPDEST PUSH2 0x1DE DUP3 PUSH2 0x198 JUMP JUMPDEST DUP2 ADD DUP2 DUP2 LT PUSH8 0xFFFFFFFFFFFFFFFF DUP3 GT OR ISZERO PUSH2 0x1FD JUMPI PUSH2 0x1FC PUSH2 0x1A8 JUMP JUMPDEST JUMPDEST DUP1 PUSH1 0x40 MSTORE POP POP POP JUMP JUMPDEST PUSH0 PUSH2 0x20F PUSH2 0x17F JUMP JUMPDEST SWAP1 POP PUSH2 0x21B DUP3 DUP3 PUSH2 0x1D5 JUMP JUMPDEST SWAP2 SWAP1 POP JUMP JUMPDEST PUSH0 PUSH8 0xFFFFFFFFFFFFFFFF DUP3 GT ISZERO PUSH2 0x23A JUMPI PUSH2 0x239 PUSH2 0x1A8 JUMP JUMPDEST JUMPDEST PUSH2 0x243 DUP3 PUSH2 0x198 JUMP JUMPDEST SWAP1 POP PUSH1 0x20 DUP2 ADD SWAP1 POP SWAP2 SWAP1 POP JUMP JUMPDEST DUP3 DUP2 DUP4 CALLDATACOPY PUSH0 DUP4 DUP4 ADD MSTORE POP POP POP JUMP JUMPDEST PUSH0 PUSH2 0x270 PUSH2 0x26B DUP5 PUSH2 0x220 JUMP JUMPDEST PUSH2 0x206 JUMP JUMPDEST SWAP1 POP DUP3 DUP2 MSTORE PUSH1 0x20 DUP2 ADD DUP5 DUP5 DUP5 ADD GT ISZERO PUSH2 0x28C JUMPI PUSH2 0x28B PUSH2 0x194 JUMP JUMPDEST JUMPDEST PUSH2 0x297 DUP5 DUP3 DUP6 PUSH2 0x250 JUMP JUMPDEST POP SWAP4 SWAP3 POP POP POP JUMP JUMPDEST PUSH0 DUP3 PUSH1 0x1F DUP4 ADD SLT PUSH2 0x2B3 JUMPI PUSH2 0x2B2 PUSH2 0x190 JUMP JUMPDEST JUMPDEST DUP2 CALLDATALOAD PUSH2 0x2C3 DUP5 DUP3 PUSH1 0x20 DUP7 ADD PUSH2 0x25E JUMP JUMPDEST SWAP2 POP POP SWAP3 SWAP2 POP POP JUMP JUMPDEST PUSH0 DUP2 SWAP1 POP SWAP2 SWAP1 POP JUMP JUMPDEST PUSH2 0x2DE DUP2 PUSH2 0x2CC JUMP JUMPDEST DUP2 EQ PUSH2 0x2E8 JUMPI PUSH0 DUP1 REVERT JUMPDEST POP JUMP JUMPDEST PUSH0 DUP2 CALLDATALOAD SWAP1 POP PUSH2 0x2F9 DUP2 PUSH2 0x2D5 JUMP JUMPDEST SWAP3 SWAP2 POP POP JUMP JUMPDEST PUSH0 DUP2 ISZERO ISZERO SWAP1 POP SWAP2 SWAP1 POP JUMP JUMPDEST PUSH2 0x313 DUP2 PUSH2 0x2FF JUMP JUMPDEST DUP2 EQ PUSH2 0x31D JUMPI PUSH0 DUP1 REVERT JUMPDEST POP JUMP JUMPDEST PUSH0 DUP2 CALLDATALOAD SWAP1 POP PUSH2 0x32E DUP2 PUSH2 0x30A JUMP JUMPDEST SWAP3 SWAP2 POP POP JUMP JUMPDEST PUSH0 DUP1 PUSH0 PUSH1 0x60 DUP5 DUP7 SUB SLT ISZERO PUSH2 0x34B JUMPI PUSH2 0x34A PUSH2 0x188 JUMP JUMPDEST JUMPDEST PUSH0 DUP5 ADD CALLDATALOAD PUSH8 0xFFFFFFFFFFFFFFFF DUP2 GT ISZERO PUSH2 0x368 JUMPI PUSH2 0x367 PUSH2 0x18C JUMP JUMPDEST JUMPDEST PUSH2 0x374 DUP7 DUP3 DUP8 ADD PUSH2 0x29F JUMP JUMPDEST SWAP4 POP POP PUSH1 0x20 PUSH2 0x385 DUP7 DUP3 DUP8 ADD PUSH2 0x2EB JUMP JUMPDEST SWAP3 POP POP PUSH1 0x40 PUSH2 0x396 DUP7 DUP3 DUP8 ADD PUSH2 0x320 JUMP JUMPDEST SWAP2 POP POP SWAP3 POP SWAP3 POP SWAP3 JUMP JUMPDEST PUSH0 DUP2 MLOAD SWAP1 POP SWAP2 SWAP1 POP JUMP JUMPDEST PUSH0 DUP3 DUP3 MSTORE PUSH1 0x20 DUP3 ADD SWAP1 POP SWAP3 SWAP2 POP POP JUMP JUMPDEST DUP3 DUP2 DUP4 MCOPY PUSH0 DUP4 DUP4 ADD MSTORE POP POP POP JUMP JUMPDEST PUSH0 PUSH2 0x3D2 DUP3 PUSH2 0x3A0 JUMP JUMPDEST PUSH2 0x3DC DUP2 DUP6 PUSH2 0x3AA JUMP JUMPDEST SWAP4 POP PUSH2 0x3EC DUP2 DUP6 PUSH1 0x20 DUP7 ADD PUSH2 0x3BA JUMP JUMPDEST PUSH2 0x3F5 DUP2 PUSH2 0x198 JUMP JUMPDEST DUP5 ADD SWAP2 POP POP SWAP3 SWAP2 POP POP JUMP JUMPDEST PUSH2 0x409 DUP2 PUSH2 0x2CC JUMP JUMPDEST DUP3 MSTORE POP POP JUMP JUMPDEST PUSH2 0x418 DUP2 PUSH2 0x2FF JUMP JUMPDEST DUP3 MSTORE POP POP JUMP JUMPDEST PUSH0 PUSH1 0x60 DUP3 ADD SWAP1 POP DUP2 DUP2 SUB PUSH0 DUP4 ADD MSTORE PUSH2 0x436 DUP2 DUP7 PUSH2 0x3C8 JUMP JUMPDEST SWAP1 POP PUSH2 0x445 PUSH1 0x20 DUP4 ADD DUP6 PUSH2 0x400 JUMP JUMPDEST PUSH2 0x452 PUSH1 0x40 DUP4 ADD DUP5 PUSH2 0x40F JUMP JUMPDEST SWAP5 SWAP4 POP POP POP POP JUMP JUMPDEST PUSH32 0x4E487B7100000000000000000000000000000000000000000000000000000000 PUSH0 MSTORE PUSH1 0x22 PUSH1 0x4 MSTORE PUSH1 0x24 PUSH0 REVERT JUMPDEST PUSH0 PUSH1 0x2 DUP3 DIV SWAP1 POP PUSH1 0x1 DUP3 AND DUP1 PUSH2 0x49E JUMPI PUSH1 0x7F DUP3 AND SWAP2 POP JUMPDEST PUSH1 0x20 DUP3 LT DUP2 SUB PUSH2 0x4B1 JUMPI PUSH2 0x4B0 PUSH2 0x45A JUMP JUMPDEST JUMPDEST POP SWAP2 SWAP1 POP JUMP JUMPDEST PUSH0 DUP2 SWAP1 POP DUP2 PUSH0 MSTORE PUSH1 0x20 PUSH0 KECCAK256 SWAP1 POP SWAP2 SWAP1 POP JUMP JUMPDEST PUSH0 PUSH1 0x20 PUSH1 0x1F DUP4 ADD DIV SWAP1 POP SWAP2 SWAP1 POP JUMP JUMPDEST PUSH0 DUP3 DUP3 SHL SWAP1 POP SWAP3 SWAP2 POP POP JUMP JUMPDEST PUSH0 PUSH1 0x8 DUP4 MUL PUSH2 0x513 PUSH32 0xFFFFFFFFFFFFFFFFFFFFFFFFFFFFFFFFFFFFFFFFFFFFFFFFFFFFFFFFFFFFFFFF DUP3 PUSH2 0x4D8 JUMP JUMPDEST PUSH2 0x51D DUP7 DUP4 PUSH2 0x4D8 JUMP JUMPDEST SWAP6 POP DUP1 NOT DUP5 AND SWAP4 POP DUP1 DUP7 AND DUP5 OR SWAP3 POP POP POP SWAP4 SWAP3 POP POP POP JUMP JUMPDEST PUSH0 DUP2 SWAP1 POP SWAP2 SWAP1 POP JUMP JUMPDEST PUSH0 PUSH2 0x558 PUSH2 0x553 PUSH2 0x54E DUP5 PUSH2 0x2CC JUMP JUMPDEST PUSH2 0x535 JUMP JUMPDEST PUSH2 0x2CC JUMP JUMPDEST SWAP1 POP SWAP2 SWAP1 POP JUMP JUMPDEST PUSH0 DUP2 SWAP1 POP SWAP2 SWAP1 POP JUMP JUMPDEST PUSH2 0x571 DUP4 PUSH2 0x53E JUMP JUMPDEST PUSH2 0x585 PUSH2 0x57D DUP3 PUSH2 0x55F JUMP JUMPDEST DUP5 DUP5 SLOAD PUSH2 0x4E4 JUMP JUMPDEST DUP3 SSTORE POP POP POP POP JUMP JUMPDEST PUSH0 SWAP1 JUMP JUMPDEST PUSH2 0x599 PUSH2 0x58D JUMP JUMPDEST PUSH2 0x5A4 DUP2 DUP5 DUP5 PUSH2 0x568 JUMP JUMPDEST POP POP POP JUMP JUMPDEST JUMPDEST DUP2 DUP2 LT ISZERO PUSH2 0x5C7 JUMPI PUSH2 0x5BC PUSH0 DUP3 PUSH2 0x591 JUMP JUMPDEST PUSH1 0x1 DUP2 ADD SWAP1 POP PUSH2 0x5AA JUMP JUMPDEST POP POP JUMP JUMPDEST PUSH1 0x1F DUP3 GT ISZERO PUSH2 0x60C JUMPI PUSH2 0x5DD DUP2 PUSH2 0x4B7 JUMP JUMPDEST PUSH2 0x5E6 DUP5 PUSH2 0x4C9 JUMP JUMPDEST DUP2 ADD PUSH1 0x20 DUP6 LT ISZERO PUSH2 0x5F5 JUMPI DUP2 SWAP1 POP JUMPDEST PUSH2 0x609 PUSH2 0x601 DUP6 PUSH2 0x4C9 JUMP JUMPDEST DUP4 ADD DUP3 PUSH2 0x5A9 JUMP JUMPDEST POP POP JUMPDEST POP POP POP JUMP JUMPDEST PUSH0 DUP3 DUP3 SHR SWAP1 POP SWAP3 SWAP2 POP POP JUMP JUMPDEST PUSH0 PUSH2 0x62C PUSH0 NOT DUP5 PUSH1 0x8 MUL PUSH2 0x611 JUMP JUMPDEST NOT DUP1 DUP4 AND SWAP2 POP POP SWAP3 SWAP2 POP POP JUMP JUMPDEST PUSH0 PUSH2 0x644 DUP4 DUP4 PUSH2 0x61D JUMP JUMPDEST SWAP2 POP DUP3 PUSH1 0x2 MUL DUP3 OR SWAP1 POP SWAP3 SWAP2 POP POP JUMP JUMPDEST PUSH2 0x65D DUP3 PUSH2 0x3A0 JUMP JUMPDEST PUSH8 0xFFFFFFFFFFFFFFFF DUP2 GT ISZERO PUSH2 0x676 JUMPI PUSH2 0x675 PUSH2 0x1A8 JUMP JUMPDEST JUMPDEST PUSH2 0x680 DUP3 SLOAD PUSH2 0x487 JUMP JUMPDEST PUSH2 0x68B DUP3 DUP3 DUP6 PUSH2 0x5CB JUMP JUMPDEST PUSH0 PUSH1 0x20 SWAP1 POP PUSH1 0x1F DUP4 GT PUSH1 0x1 DUP2 EQ PUSH2 0x6BC JUMPI PUSH0 DUP5 ISZERO PUSH2 0x6AA JUMPI DUP3 DUP8 ADD MLOAD SWAP1 POP JUMPDEST PUSH2 0x6B4 DUP6 DUP3 PUSH2 0x639 JUMP JUMPDEST DUP7 SSTORE POP PUSH2 0x71B JUMP JUMPDEST PUSH1 0x1F NOT DUP5 AND PUSH2 0x6CA DUP7 PUSH2 0x4B7 JUMP JUMPDEST PUSH0 JUMPDEST DUP3 DUP2 LT ISZERO PUSH2 0x6F1 JUMPI DUP5 DUP10 ADD MLOAD DUP3 SSTORE PUSH1 0x1 DUP3 ADD SWAP2 POP PUSH1 0x20 DUP6 ADD SWAP5 POP PUSH1 0x20 DUP2 ADD SWAP1 POP PUSH2 0x6CC JUMP JUMPDEST DUP7 DUP4 LT ISZERO PUSH2 0x70E JUMPI DUP5 DUP10 ADD MLOAD PUSH2 0x70A PUSH1 0x1F DUP10 AND DUP3 PUSH2 0x61D JUMP JUMPDEST DUP4 SSTORE POP JUMPDEST PUSH1 0x1 PUSH1 0x2 DUP9 MUL ADD DUP9 SSTORE POP POP POP JUMPDEST POP POP POP POP POP POP JUMP INVALID LOG2 PUSH5 0x6970667358 0x22 SLT KECCAK256 SDIV 0xC3 0xC5 CREATE2 RETURN SWAP10 COINBASE SWAP7 0x2A SWAP5 0xDE 0xA5 0xC3 0xCF 0xE7 CALLCODE SDIV 0xB1 PC 0xF DUP8 SWAP4 0x2A 0xE1 RETURNDATACOPY BASEFEE SDIV MSTORE 0xDE 0xAA PUSH9 0xF64736F6C63430008 BYTE STOP CALLER "
				},
				"gasEstimates": {
					"creation": {
						"codeDepositCost": "376200",
						"executionCost": "409",
						"totalCost": "376609"
					},
					"external": {
						"car()": "infinite",
						"createCar(string,uint256,bool)": "infinite"
					}
				},
				"methodIdentifiers": {
					"car()": "ee26fac3",
					"createCar(string,uint256,bool)": "7f7f0c24"
				}
			},
			"storageLayout": {
				"storage": [
					{
						"astId": 11,
						"contract": "contracts/SoftCRStruct.sol:SoftCRStruct",
						"label": "car",
						"offset": 0,
						"slot": "0",
						"type": "t_struct(Car)8_storage"
					}
				],
				"types": {
					"t_bool": {
						"encoding": "inplace",
						"label": "bool",
						"numberOfBytes": "1"
					},
					"t_string_storage": {
						"encoding": "bytes",
						"label": "string",
						"numberOfBytes": "32"
					},
					"t_struct(Car)8_storage": {
						"encoding": "inplace",
						"label": "struct SoftCRStruct.Car",
						"members": [
							{
								"astId": 3,
								"contract": "contracts/SoftCRStruct.sol:SoftCRStruct",
								"label": "brand",
								"offset": 0,
								"slot": "0",
								"type": "t_string_storage"
							},
							{
								"astId": 5,
								"contract": "contracts/SoftCRStruct.sol:SoftCRStruct",
								"label": "year",
								"offset": 0,
								"slot": "1",
								"type": "t_uint256"
							},
							{
								"astId": 7,
								"contract": "contracts/SoftCRStruct.sol:SoftCRStruct",
								"label": "crashed",
								"offset": 0,
								"slot": "2",
								"type": "t_bool"
							}
						],
						"numberOfBytes": "96"
					},
					"t_uint256": {
						"encoding": "inplace",
						"label": "uint256",
						"numberOfBytes": "32"
					}
				}
			},
			"userdoc": {
				"kind": "user",
				"methods": {},
				"version": 1
			}
		}
	}
}