{
	"contracts/SoftCRCounter.sol": {
		"SoftCRCounter": {
			"abi": [
				{
					"inputs": [],
					"stateMutability": "nonpayable",
					"type": "constructor"
				},
				{
					"anonymous": false,
					"inputs": [
						{
							"indexed": true,
							"internalType": "address",
							"name": "editor",
							"type": "address"
						},
						{
							"indexed": false,
							"internalType": "string",
							"name": "key",
							"type": "string"
						},
						{
							"indexed": false,
							"internalType": "string",
							"name": "value",
							"type": "string"
						}
					],
					"name": "DataModified",
					"type": "event"
				},
				{
					"inputs": [],
					"name": "name",
					"outputs": [
						{
							"internalType": "string",
							"name": "",
							"type": "string"
						}
					],
					"stateMutability": "view",
					"type": "function"
				},
				{
					"inputs": [],
					"name": "owner",
					"outputs": [
						{
							"internalType": "address",
							"name": "",
							"type": "address"
						}
					],
					"stateMutability": "view",
					"type": "function"
				},
				{
					"inputs": [
						{
							"internalType": "string",
							"name": "_name",
							"type": "string"
						}
					],
					"name": "setName",
					"outputs": [],
					"stateMutability": "nonpayable",
					"type": "function"
				}
			],
			"devdoc": {
				"kind": "dev",
				"methods": {},
				"version": 1
			},
			"evm": {
				"assembly": "    /* \"contracts/SoftCRCounter.sol\":61:654  contract SoftCRCounter {... */\n  mstore(0x40, 0x80)\n    /* \"contracts/SoftCRCounter.sol\":141:190  constructor() {... */\n  callvalue\n  dup1\n  iszero\n  tag_1\n  jumpi\n  0x00\n  dup1\n  revert\ntag_1:\n  pop\n    /* \"contracts/SoftCRCounter.sol\":173:183  msg.sender */\n  caller\n    /* \"contracts/SoftCRCounter.sol\":165:170  owner */\n  0x01\n  0x00\n    /* \"contracts/SoftCRCounter.sol\":165:183  owner = msg.sender */\n  0x0100\n  exp\n  dup2\n  sload\n  dup2\n  0xffffffffffffffffffffffffffffffffffffffff\n  mul\n  not\n  and\n  swap1\n  dup4\n  0xffffffffffffffffffffffffffffffffffffffff\n  and\n  mul\n  or\n  swap1\n  sstore\n  pop\n    /* \"contracts/SoftCRCounter.sol\":61:654  contract SoftCRCounter {... */\n  dataSize(sub_0)\n  dup1\n  dataOffset(sub_0)\n  0x00\n  codecopy\n  0x00\n  return\nstop\n\nsub_0: assembly {\n        /* \"contracts/SoftCRCounter.sol\":61:654  contract SoftCRCounter {... */\n      mstore(0x40, 0x80)\n      callvalue\n      dup1\n      iszero\n      tag_1\n      jumpi\n      0x00\n      dup1\n      revert\n    tag_1:\n      pop\n      jumpi(tag_2, lt(calldatasize, 0x04))\n      shr(0xe0, calldataload(0x00))\n      dup1\n      0x06fdde03\n      eq\n      tag_3\n      jumpi\n      dup1\n      0x8da5cb5b\n      eq\n      tag_4\n      jumpi\n      dup1\n      0xc47f0027\n      eq\n      tag_5\n      jumpi\n    tag_2:\n      0x00\n      dup1\n      revert\n        /* \"contracts/SoftCRCounter.sol\":90:108  string public name */\n    tag_3:\n      tag_6\n      tag_7\n      jump\t// in\n    tag_6:\n      mload(0x40)\n      tag_8\n      swap2\n      swap1\n      tag_9\n      jump\t// in\n    tag_8:\n      mload(0x40)\n      dup1\n      swap2\n      sub\n      swap1\n      return\n        /* \"contracts/SoftCRCounter.sol\":114:134  address public owner */\n    tag_4:\n      tag_10\n      tag_11\n      jump\t// in\n    tag_10:\n      mload(0x40)\n      tag_12\n      swap2\n      swap1\n      tag_13\n      jump\t// in\n    tag_12:\n      mload(0x40)\n      dup1\n      swap2\n      sub\n      swap1\n      return\n        /* \"contracts/SoftCRCounter.sol\":505:651  function setName(string memory _name) onlyOwner public {        ... */\n    tag_5:\n      tag_14\n      0x04\n      dup1\n      calldatasize\n      sub\n      dup2\n      add\n      swap1\n      tag_15\n      swap2\n      swap1\n      tag_16\n      jump\t// in\n    tag_15:\n      tag_17\n      jump\t// in\n    tag_14:\n      stop\n        /* \"contracts/SoftCRCounter.sol\":90:108  string public name */\n    tag_7:\n      0x00\n      dup1\n      sload\n      tag_18\n      swap1\n      tag_19\n      jump\t// in\n    tag_18:\n      dup1\n      0x1f\n      add\n      0x20\n      dup1\n      swap2\n      div\n      mul\n      0x20\n      add\n      mload(0x40)\n      swap1\n      dup2\n      add\n      0x40\n      mstore\n      dup1\n      swap3\n      swap2\n      swap1\n      dup2\n      dup2\n      mstore\n      0x20\n      add\n      dup3\n      dup1\n      sload\n      tag_20\n      swap1\n      tag_19\n      jump\t// in\n    tag_20:\n      dup1\n      iszero\n      tag_21\n      jumpi\n      dup1\n      0x1f\n      lt\n      tag_22\n      jumpi\n      0x0100\n      dup1\n      dup4\n      sload\n      div\n      mul\n      dup4\n      mstore\n      swap2\n      0x20\n      add\n      swap2\n      jump(tag_21)\n    tag_22:\n      dup3\n      add\n      swap2\n      swap1\n      0x00\n      mstore\n      keccak256(0x00, 0x20)\n      swap1\n    tag_23:\n      dup2\n      sload\n      dup2\n      mstore\n      swap1\n      0x01\n      add\n      swap1\n      0x20\n      add\n      dup1\n      dup4\n      gt\n      tag_23\n      jumpi\n      dup3\n      swap1\n      sub\n      0x1f\n      and\n      dup3\n      add\n      swap2\n    tag_21:\n      pop\n      pop\n      pop\n      pop\n      pop\n      dup2\n      jump\t// out\n        /* \"contracts/SoftCRCounter.sol\":114:134  address public owner */\n    tag_11:\n      0x01\n      0x00\n      swap1\n      sload\n      swap1\n      0x0100\n      exp\n      swap1\n      div\n      0xffffffffffffffffffffffffffffffffffffffff\n      and\n      dup2\n      jump\t// out\n        /* \"contracts/SoftCRCounter.sol\":505:651  function setName(string memory _name) onlyOwner public {        ... */\n    tag_17:\n        /* \"contracts/SoftCRCounter.sol\":245:255  msg.sender */\n      caller\n        /* \"contracts/SoftCRCounter.sol\":236:255  owner == msg.sender */\n      0xffffffffffffffffffffffffffffffffffffffff\n      and\n        /* \"contracts/SoftCRCounter.sol\":236:241  owner */\n      0x01\n      0x00\n      swap1\n      sload\n      swap1\n      0x0100\n      exp\n      swap1\n      div\n      0xffffffffffffffffffffffffffffffffffffffff\n      and\n        /* \"contracts/SoftCRCounter.sol\":236:255  owner == msg.sender */\n      0xffffffffffffffffffffffffffffffffffffffff\n      and\n      eq\n        /* \"contracts/SoftCRCounter.sol\":228:298  require(owner == msg.sender, \"Solo el owner puede cambiar este valor\") */\n      tag_25\n      jumpi\n      mload(0x40)\n      0x08c379a000000000000000000000000000000000000000000000000000000000\n      dup2\n      mstore\n      0x04\n      add\n      tag_26\n      swap1\n      tag_27\n      jump\t// in\n    tag_26:\n      mload(0x40)\n      dup1\n      swap2\n      sub\n      swap1\n      revert\n    tag_25:\n        /* \"contracts/SoftCRCounter.sol\":585:590  _name */\n      dup1\n        /* \"contracts/SoftCRCounter.sol\":578:582  name */\n      0x00\n        /* \"contracts/SoftCRCounter.sol\":578:590  name = _name */\n      swap1\n      dup2\n      tag_29\n      swap2\n      swap1\n      tag_30\n      jump\t// in\n    tag_29:\n      pop\n        /* \"contracts/SoftCRCounter.sol\":618:628  msg.sender */\n      caller\n        /* \"contracts/SoftCRCounter.sol\":605:644  DataModified(msg.sender, \"name\", _name) */\n      0xffffffffffffffffffffffffffffffffffffffff\n      and\n      0xde4389d0e2b82c1da27da351a07c61a1c281a257dd810bc7fad7e95a2fffd0d2\n        /* \"contracts/SoftCRCounter.sol\":638:643  _name */\n      dup3\n        /* \"contracts/SoftCRCounter.sol\":605:644  DataModified(msg.sender, \"name\", _name) */\n      mload(0x40)\n      tag_31\n      swap2\n      swap1\n      tag_32\n      jump\t// in\n    tag_31:\n      mload(0x40)\n      dup1\n      swap2\n      sub\n      swap1\n      log2\n        /* \"contracts/SoftCRCounter.sol\":505:651  function setName(string memory _name) onlyOwner public {        ... */\n      pop\n      jump\t// out\n        /* \"#utility.yul\":7:106   */\n    tag_33:\n        /* \"#utility.yul\":59:65   */\n      0x00\n        /* \"#utility.yul\":93:98   */\n      dup2\n        /* \"#utility.yul\":87:99   */\n      mload\n        /* \"#utility.yul\":77:99   */\n      swap1\n      pop\n        /* \"#utility.yul\":7:106   */\n      swap2\n      swap1\n      pop\n      jump\t// out\n        /* \"#utility.yul\":112:281   */\n    tag_34:\n        /* \"#utility.yul\":196:207   */\n      0x00\n        /* \"#utility.yul\":230:236   */\n      dup3\n        /* \"#utility.yul\":225:228   */\n      dup3\n        /* \"#utility.yul\":218:237   */\n      mstore\n        /* \"#utility.yul\":270:274   */\n      0x20\n        /* \"#utility.yul\":265:268   */\n      dup3\n        /* \"#utility.yul\":261:275   */\n      add\n        /* \"#utility.yul\":246:275   */\n      swap1\n      pop\n        /* \"#utility.yul\":112:281   */\n      swap3\n      swap2\n      pop\n      pop\n      jump\t// out\n        /* \"#utility.yul\":287:426   */\n    tag_35:\n        /* \"#utility.yul\":376:382   */\n      dup3\n        /* \"#utility.yul\":371:374   */\n      dup2\n        /* \"#utility.yul\":366:369   */\n      dup4\n        /* \"#utility.yul\":360:383   */\n      mcopy\n        /* \"#utility.yul\":417:418   */\n      0x00\n        /* \"#utility.yul\":408:414   */\n      dup4\n        /* \"#utility.yul\":403:406   */\n      dup4\n        /* \"#utility.yul\":399:415   */\n      add\n        /* \"#utility.yul\":392:419   */\n      mstore\n        /* \"#utility.yul\":287:426   */\n      pop\n      pop\n      pop\n      jump\t// out\n        /* \"#utility.yul\":432:534   */\n    tag_36:\n        /* \"#utility.yul\":473:479   */\n      0x00\n        /* \"#utility.yul\":524:526   */\n      0x1f\n        /* \"#utility.yul\":520:527   */\n      not\n        /* \"#utility.yul\":515:517   */\n      0x1f\n        /* \"#utility.yul\":508:513   */\n      dup4\n        /* \"#utility.yul\":504:518   */\n      add\n        /* \"#utility.yul\":500:528   */\n      and\n        /* \"#utility.yul\":490:528   */\n      swap1\n      pop\n        /* \"#utility.yul\":432:534   */\n      swap2\n      swap1\n      pop\n      jump\t// out\n        /* \"#utility.yul\":540:917   */\n    tag_37:\n        /* \"#utility.yul\":628:631   */\n      0x00\n        /* \"#utility.yul\":656:695   */\n      tag_80\n        /* \"#utility.yul\":689:694   */\n      dup3\n        /* \"#utility.yul\":656:695   */\n      tag_33\n      jump\t// in\n    tag_80:\n        /* \"#utility.yul\":711:782   */\n      tag_81\n        /* \"#utility.yul\":775:781   */\n      dup2\n        /* \"#utility.yul\":770:773   */\n      dup6\n        /* \"#utility.yul\":711:782   */\n      tag_34\n      jump\t// in\n    tag_81:\n        /* \"#utility.yul\":704:782   */\n      swap4\n      pop\n        /* \"#utility.yul\":791:856   */\n      tag_82\n        /* \"#utility.yul\":849:855   */\n      dup2\n        /* \"#utility.yul\":844:847   */\n      dup6\n        /* \"#utility.yul\":837:841   */\n      0x20\n        /* \"#utility.yul\":830:835   */\n      dup7\n        /* \"#utility.yul\":826:842   */\n      add\n        /* \"#utility.yul\":791:856   */\n      tag_35\n      jump\t// in\n    tag_82:\n        /* \"#utility.yul\":881:910   */\n      tag_83\n        /* \"#utility.yul\":903:909   */\n      dup2\n        /* \"#utility.yul\":881:910   */\n      tag_36\n      jump\t// in\n    tag_83:\n        /* \"#utility.yul\":876:879   */\n      dup5\n        /* \"#utility.yul\":872:911   */\n      add\n        /* \"#utility.yul\":865:911   */\n      swap2\n      pop\n        /* \"#utility.yul\":632:917   */\n      pop\n        /* \"#utility.yul\":540:917   */\n      swap3\n      swap2\n      pop\n      pop\n      jump\t// out\n        /* \"#utility.yul\":923:1236   */\n    tag_9:\n        /* \"#utility.yul\":1036:1040   */\n      0x00\n        /* \"#utility.yul\":1074:1076   */\n      0x20\n        /* \"#utility.yul\":1063:1072   */\n      dup3\n        /* \"#utility.yul\":1059:1077   */\n      add\n        /* \"#utility.yul\":1051:1077   */\n      swap1\n      pop\n        /* \"#utility.yul\":1123:1132   */\n      dup2\n        /* \"#utility.yul\":1117:1121   */\n      dup2\n        /* \"#utility.yul\":1113:1133   */\n      sub\n        /* \"#utility.yul\":1109:1110   */\n      0x00\n        /* \"#utility.yul\":1098:1107   */\n      dup4\n        /* \"#utility.yul\":1094:1111   */\n      add\n        /* \"#utility.yul\":1087:1134   */\n      mstore\n        /* \"#utility.yul\":1151:1229   */\n      tag_85\n        /* \"#utility.yul\":1224:1228   */\n      dup2\n        /* \"#utility.yul\":1215:1221   */\n      dup5\n        /* \"#utility.yul\":1151:1229   */\n      tag_37\n      jump\t// in\n    tag_85:\n        /* \"#utility.yul\":1143:1229   */\n      swap1\n      pop\n        /* \"#utility.yul\":923:1236   */\n      swap3\n      swap2\n      pop\n      pop\n      jump\t// out\n        /* \"#utility.yul\":1242:1368   */\n    tag_38:\n        /* \"#utility.yul\":1279:1286   */\n      0x00\n        /* \"#utility.yul\":1319:1361   */\n      0xffffffffffffffffffffffffffffffffffffffff\n        /* \"#utility.yul\":1312:1317   */\n      dup3\n        /* \"#utility.yul\":1308:1362   */\n      and\n        /* \"#utility.yul\":1297:1362   */\n      swap1\n      pop\n        /* \"#utility.yul\":1242:1368   */\n      swap2\n      swap1\n      pop\n      jump\t// out\n        /* \"#utility.yul\":1374:1470   */\n    tag_39:\n        /* \"#utility.yul\":1411:1418   */\n      0x00\n        /* \"#utility.yul\":1440:1464   */\n      tag_88\n        /* \"#utility.yul\":1458:1463   */\n      dup3\n        /* \"#utility.yul\":1440:1464   */\n      tag_38\n      jump\t// in\n    tag_88:\n        /* \"#utility.yul\":1429:1464   */\n      swap1\n      pop\n        /* \"#utility.yul\":1374:1470   */\n      swap2\n      swap1\n      pop\n      jump\t// out\n        /* \"#utility.yul\":1476:1594   */\n    tag_40:\n        /* \"#utility.yul\":1563:1587   */\n      tag_90\n        /* \"#utility.yul\":1581:1586   */\n      dup2\n        /* \"#utility.yul\":1563:1587   */\n      tag_39\n      jump\t// in\n    tag_90:\n        /* \"#utility.yul\":1558:1561   */\n      dup3\n        /* \"#utility.yul\":1551:1588   */\n      mstore\n        /* \"#utility.yul\":1476:1594   */\n      pop\n      pop\n      jump\t// out\n        /* \"#utility.yul\":1600:1822   */\n    tag_13:\n        /* \"#utility.yul\":1693:1697   */\n      0x00\n        /* \"#utility.yul\":1731:1733   */\n      0x20\n        /* \"#utility.yul\":1720:1729   */\n      dup3\n        /* \"#utility.yul\":1716:1734   */\n      add\n        /* \"#utility.yul\":1708:1734   */\n      swap1\n      pop\n        /* \"#utility.yul\":1744:1815   */\n      tag_92\n        /* \"#utility.yul\":1812:1813   */\n      0x00\n        /* \"#utility.yul\":1801:1810   */\n      dup4\n        /* \"#utility.yul\":1797:1814   */\n      add\n        /* \"#utility.yul\":1788:1794   */\n      dup5\n        /* \"#utility.yul\":1744:1815   */\n      tag_40\n      jump\t// in\n    tag_92:\n        /* \"#utility.yul\":1600:1822   */\n      swap3\n      swap2\n      pop\n      pop\n      jump\t// out\n        /* \"#utility.yul\":1828:1903   */\n    tag_41:\n        /* \"#utility.yul\":1861:1867   */\n      0x00\n        /* \"#utility.yul\":1894:1896   */\n      0x40\n        /* \"#utility.yul\":1888:1897   */\n      mload\n        /* \"#utility.yul\":1878:1897   */\n      swap1\n      pop\n        /* \"#utility.yul\":1828:1903   */\n      swap1\n      jump\t// out\n        /* \"#utility.yul\":1909:2026   */\n    tag_42:\n        /* \"#utility.yul\":2018:2019   */\n      0x00\n        /* \"#utility.yul\":2015:2016   */\n      dup1\n        /* \"#utility.yul\":2008:2020   */\n      revert\n        /* \"#utility.yul\":2032:2149   */\n    tag_43:\n        /* \"#utility.yul\":2141:2142   */\n      0x00\n        /* \"#utility.yul\":2138:2139   */\n      dup1\n        /* \"#utility.yul\":2131:2143   */\n      revert\n        /* \"#utility.yul\":2155:2272   */\n    tag_44:\n        /* \"#utility.yul\":2264:2265   */\n      0x00\n        /* \"#utility.yul\":2261:2262   */\n      dup1\n        /* \"#utility.yul\":2254:2266   */\n      revert\n        /* \"#utility.yul\":2278:2395   */\n    tag_45:\n        /* \"#utility.yul\":2387:2388   */\n      0x00\n        /* \"#utility.yul\":2384:2385   */\n      dup1\n        /* \"#utility.yul\":2377:2389   */\n      revert\n        /* \"#utility.yul\":2401:2581   */\n    tag_46:\n        /* \"#utility.yul\":2449:2526   */\n      0x4e487b7100000000000000000000000000000000000000000000000000000000\n        /* \"#utility.yul\":2446:2447   */\n      0x00\n        /* \"#utility.yul\":2439:2527   */\n      mstore\n        /* \"#utility.yul\":2546:2550   */\n      0x41\n        /* \"#utility.yul\":2543:2544   */\n      0x04\n        /* \"#utility.yul\":2536:2551   */\n      mstore\n        /* \"#utility.yul\":2570:2574   */\n      0x24\n        /* \"#utility.yul\":2567:2568   */\n      0x00\n        /* \"#utility.yul\":2560:2575   */\n      revert\n        /* \"#utility.yul\":2587:2868   */\n    tag_47:\n        /* \"#utility.yul\":2670:2697   */\n      tag_100\n        /* \"#utility.yul\":2692:2696   */\n      dup3\n        /* \"#utility.yul\":2670:2697   */\n      tag_36\n      jump\t// in\n    tag_100:\n        /* \"#utility.yul\":2662:2668   */\n      dup2\n        /* \"#utility.yul\":2658:2698   */\n      add\n        /* \"#utility.yul\":2800:2806   */\n      dup2\n        /* \"#utility.yul\":2788:2798   */\n      dup2\n        /* \"#utility.yul\":2785:2807   */\n      lt\n        /* \"#utility.yul\":2764:2782   */\n      0xffffffffffffffff\n        /* \"#utility.yul\":2752:2762   */\n      dup3\n        /* \"#utility.yul\":2749:2783   */\n      gt\n        /* \"#utility.yul\":2746:2808   */\n      or\n        /* \"#utility.yul\":2743:2831   */\n      iszero\n      tag_101\n      jumpi\n        /* \"#utility.yul\":2811:2829   */\n      tag_102\n      tag_46\n      jump\t// in\n    tag_102:\n        /* \"#utility.yul\":2743:2831   */\n    tag_101:\n        /* \"#utility.yul\":2851:2861   */\n      dup1\n        /* \"#utility.yul\":2847:2849   */\n      0x40\n        /* \"#utility.yul\":2840:2862   */\n      mstore\n        /* \"#utility.yul\":2630:2868   */\n      pop\n        /* \"#utility.yul\":2587:2868   */\n      pop\n      pop\n      jump\t// out\n        /* \"#utility.yul\":2874:3003   */\n    tag_48:\n        /* \"#utility.yul\":2908:2914   */\n      0x00\n        /* \"#utility.yul\":2935:2955   */\n      tag_104\n      tag_41\n      jump\t// in\n    tag_104:\n        /* \"#utility.yul\":2925:2955   */\n      swap1\n      pop\n        /* \"#utility.yul\":2964:2997   */\n      tag_105\n        /* \"#utility.yul\":2992:2996   */\n      dup3\n        /* \"#utility.yul\":2984:2990   */\n      dup3\n        /* \"#utility.yul\":2964:2997   */\n      tag_47\n      jump\t// in\n    tag_105:\n        /* \"#utility.yul\":2874:3003   */\n      swap2\n      swap1\n      pop\n      jump\t// out\n        /* \"#utility.yul\":3009:3317   */\n    tag_49:\n        /* \"#utility.yul\":3071:3075   */\n      0x00\n        /* \"#utility.yul\":3161:3179   */\n      0xffffffffffffffff\n        /* \"#utility.yul\":3153:3159   */\n      dup3\n        /* \"#utility.yul\":3150:3180   */\n      gt\n        /* \"#utility.yul\":3147:3203   */\n      iszero\n      tag_107\n      jumpi\n        /* \"#utility.yul\":3183:3201   */\n      tag_108\n      tag_46\n      jump\t// in\n    tag_108:\n        /* \"#utility.yul\":3147:3203   */\n    tag_107:\n        /* \"#utility.yul\":3221:3250   */\n      tag_109\n        /* \"#utility.yul\":3243:3249   */\n      dup3\n        /* \"#utility.yul\":3221:3250   */\n      tag_36\n      jump\t// in\n    tag_109:\n        /* \"#utility.yul\":3213:3250   */\n      swap1\n      pop\n        /* \"#utility.yul\":3305:3309   */\n      0x20\n        /* \"#utility.yul\":3299:3303   */\n      dup2\n        /* \"#utility.yul\":3295:3310   */\n      add\n        /* \"#utility.yul\":3287:3310   */\n      swap1\n      pop\n        /* \"#utility.yul\":3009:3317   */\n      swap2\n      swap1\n      pop\n      jump\t// out\n        /* \"#utility.yul\":3323:3471   */\n    tag_50:\n        /* \"#utility.yul\":3421:3427   */\n      dup3\n        /* \"#utility.yul\":3416:3419   */\n      dup2\n        /* \"#utility.yul\":3411:3414   */\n      dup4\n        /* \"#utility.yul\":3398:3428   */\n      calldatacopy\n        /* \"#utility.yul\":3462:3463   */\n      0x00\n        /* \"#utility.yul\":3453:3459   */\n      dup4\n        /* \"#utility.yul\":3448:3451   */\n      dup4\n        /* \"#utility.yul\":3444:3460   */\n      add\n        /* \"#utility.yul\":3437:3464   */\n      mstore\n        /* \"#utility.yul\":3323:3471   */\n      pop\n      pop\n      pop\n      jump\t// out\n        /* \"#utility.yul\":3477:3902   */\n    tag_51:\n        /* \"#utility.yul\":3555:3560   */\n      0x00\n        /* \"#utility.yul\":3580:3646   */\n      tag_112\n        /* \"#utility.yul\":3596:3645   */\n      tag_113\n        /* \"#utility.yul\":3638:3644   */\n      dup5\n        /* \"#utility.yul\":3596:3645   */\n      tag_49\n      jump\t// in\n    tag_113:\n        /* \"#utility.yul\":3580:3646   */\n      tag_48\n      jump\t// in\n    tag_112:\n        /* \"#utility.yul\":3571:3646   */\n      swap1\n      pop\n        /* \"#utility.yul\":3669:3675   */\n      dup3\n        /* \"#utility.yul\":3662:3667   */\n      dup2\n        /* \"#utility.yul\":3655:3676   */\n      mstore\n        /* \"#utility.yul\":3707:3711   */\n      0x20\n        /* \"#utility.yul\":3700:3705   */\n      dup2\n        /* \"#utility.yul\":3696:3712   */\n      add\n        /* \"#utility.yul\":3745:3748   */\n      dup5\n        /* \"#utility.yul\":3736:3742   */\n      dup5\n        /* \"#utility.yul\":3731:3734   */\n      dup5\n        /* \"#utility.yul\":3727:3743   */\n      add\n        /* \"#utility.yul\":3724:3749   */\n      gt\n        /* \"#utility.yul\":3721:3833   */\n      iszero\n      tag_114\n      jumpi\n        /* \"#utility.yul\":3752:3831   */\n      tag_115\n      tag_45\n      jump\t// in\n    tag_115:\n        /* \"#utility.yul\":3721:3833   */\n    tag_114:\n        /* \"#utility.yul\":3842:3896   */\n      tag_116\n        /* \"#utility.yul\":3889:3895   */\n      dup5\n        /* \"#utility.yul\":3884:3887   */\n      dup3\n        /* \"#utility.yul\":3879:3882   */\n      dup6\n        /* \"#utility.yul\":3842:3896   */\n      tag_50\n      jump\t// in\n    tag_116:\n        /* \"#utility.yul\":3561:3902   */\n      pop\n        /* \"#utility.yul\":3477:3902   */\n      swap4\n      swap3\n      pop\n      pop\n      pop\n      jump\t// out\n        /* \"#utility.yul\":3922:4262   */\n    tag_52:\n        /* \"#utility.yul\":3978:3983   */\n      0x00\n        /* \"#utility.yul\":4027:4030   */\n      dup3\n        /* \"#utility.yul\":4020:4024   */\n      0x1f\n        /* \"#utility.yul\":4012:4018   */\n      dup4\n        /* \"#utility.yul\":4008:4025   */\n      add\n        /* \"#utility.yul\":4004:4031   */\n      slt\n        /* \"#utility.yul\":3994:4116   */\n      tag_118\n      jumpi\n        /* \"#utility.yul\":4035:4114   */\n      tag_119\n      tag_44\n      jump\t// in\n    tag_119:\n        /* \"#utility.yul\":3994:4116   */\n    tag_118:\n        /* \"#utility.yul\":4152:4158   */\n      dup2\n        /* \"#utility.yul\":4139:4159   */\n      calldataload\n        /* \"#utility.yul\":4177:4256   */\n      tag_120\n        /* \"#utility.yul\":4252:4255   */\n      dup5\n        /* \"#utility.yul\":4244:4250   */\n      dup3\n        /* \"#utility.yul\":4237:4241   */\n      0x20\n        /* \"#utility.yul\":4229:4235   */\n      dup7\n        /* \"#utility.yul\":4225:4242   */\n      add\n        /* \"#utility.yul\":4177:4256   */\n      tag_51\n      jump\t// in\n    tag_120:\n        /* \"#utility.yul\":4168:4256   */\n      swap2\n      pop\n        /* \"#utility.yul\":3984:4262   */\n      pop\n        /* \"#utility.yul\":3922:4262   */\n      swap3\n      swap2\n      pop\n      pop\n      jump\t// out\n        /* \"#utility.yul\":4268:4777   */\n    tag_16:\n        /* \"#utility.yul\":4337:4343   */\n      0x00\n        /* \"#utility.yul\":4386:4388   */\n      0x20\n        /* \"#utility.yul\":4374:4383   */\n      dup3\n        /* \"#utility.yul\":4365:4372   */\n      dup5\n        /* \"#utility.yul\":4361:4384   */\n      sub\n        /* \"#utility.yul\":4357:4389   */\n      slt\n        /* \"#utility.yul\":4354:4473   */\n      iszero\n      tag_122\n      jumpi\n        /* \"#utility.yul\":4392:4471   */\n      tag_123\n      tag_42\n      jump\t// in\n    tag_123:\n        /* \"#utility.yul\":4354:4473   */\n    tag_122:\n        /* \"#utility.yul\":4540:4541   */\n      0x00\n        /* \"#utility.yul\":4529:4538   */\n      dup3\n        /* \"#utility.yul\":4525:4542   */\n      add\n        /* \"#utility.yul\":4512:4543   */\n      calldataload\n        /* \"#utility.yul\":4570:4588   */\n      0xffffffffffffffff\n        /* \"#utility.yul\":4562:4568   */\n      dup2\n        /* \"#utility.yul\":4559:4589   */\n      gt\n        /* \"#utility.yul\":4556:4673   */\n      iszero\n      tag_124\n      jumpi\n        /* \"#utility.yul\":4592:4671   */\n      tag_125\n      tag_43\n      jump\t// in\n    tag_125:\n        /* \"#utility.yul\":4556:4673   */\n    tag_124:\n        /* \"#utility.yul\":4697:4760   */\n      tag_126\n        /* \"#utility.yul\":4752:4759   */\n      dup5\n        /* \"#utility.yul\":4743:4749   */\n      dup3\n        /* \"#utility.yul\":4732:4741   */\n      dup6\n        /* \"#utility.yul\":4728:4750   */\n      add\n        /* \"#utility.yul\":4697:4760   */\n      tag_52\n      jump\t// in\n    tag_126:\n        /* \"#utility.yul\":4687:4760   */\n      swap2\n      pop\n        /* \"#utility.yul\":4483:4770   */\n      pop\n        /* \"#utility.yul\":4268:4777   */\n      swap3\n      swap2\n      pop\n      pop\n      jump\t// out\n        /* \"#utility.yul\":4783:4963   */\n    tag_53:\n        /* \"#utility.yul\":4831:4908   */\n      0x4e487b7100000000000000000000000000000000000000000000000000000000\n        /* \"#utility.yul\":4828:4829   */\n      0x00\n        /* \"#utility.yul\":4821:4909   */\n      mstore\n        /* \"#utility.yul\":4928:4932   */\n      0x22\n        /* \"#utility.yul\":4925:4926   */\n      0x04\n        /* \"#utility.yul\":4918:4933   */\n      mstore\n        /* \"#utility.yul\":4952:4956   */\n      0x24\n        /* \"#utility.yul\":4949:4950   */\n      0x00\n        /* \"#utility.yul\":4942:4957   */\n      revert\n        /* \"#utility.yul\":4969:5289   */\n    tag_19:\n        /* \"#utility.yul\":5013:5019   */\n      0x00\n        /* \"#utility.yul\":5050:5051   */\n      0x02\n        /* \"#utility.yul\":5044:5048   */\n      dup3\n        /* \"#utility.yul\":5040:5052   */\n      div\n        /* \"#utility.yul\":5030:5052   */\n      swap1\n      pop\n        /* \"#utility.yul\":5097:5098   */\n      0x01\n        /* \"#utility.yul\":5091:5095   */\n      dup3\n        /* \"#utility.yul\":5087:5099   */\n      and\n        /* \"#utility.yul\":5118:5136   */\n      dup1\n        /* \"#utility.yul\":5108:5189   */\n      tag_129\n      jumpi\n        /* \"#utility.yul\":5174:5178   */\n      0x7f\n        /* \"#utility.yul\":5166:5172   */\n      dup3\n        /* \"#utility.yul\":5162:5179   */\n      and\n        /* \"#utility.yul\":5152:5179   */\n      swap2\n      pop\n        /* \"#utility.yul\":5108:5189   */\n    tag_129:\n        /* \"#utility.yul\":5236:5238   */\n      0x20\n        /* \"#utility.yul\":5228:5234   */\n      dup3\n        /* \"#utility.yul\":5225:5239   */\n      lt\n        /* \"#utility.yul\":5205:5223   */\n      dup2\n        /* \"#utility.yul\":5202:5240   */\n      sub\n        /* \"#utility.yul\":5199:5283   */\n      tag_130\n      jumpi\n        /* \"#utility.yul\":5255:5273   */\n      tag_131\n      tag_53\n      jump\t// in\n    tag_131:\n        /* \"#utility.yul\":5199:5283   */\n    tag_130:\n        /* \"#utility.yul\":5020:5289   */\n      pop\n        /* \"#utility.yul\":4969:5289   */\n      swap2\n      swap1\n      pop\n      jump\t// out\n        /* \"#utility.yul\":5295:5520   */\n    tag_54:\n        /* \"#utility.yul\":5435:5469   */\n      0x536f6c6f20656c206f776e65722070756564652063616d626961722065737465\n        /* \"#utility.yul\":5431:5432   */\n      0x00\n        /* \"#utility.yul\":5423:5429   */\n      dup3\n        /* \"#utility.yul\":5419:5433   */\n      add\n        /* \"#utility.yul\":5412:5470   */\n      mstore\n        /* \"#utility.yul\":5504:5512   */\n      0x2076616c6f720000000000000000000000000000000000000000000000000000\n        /* \"#utility.yul\":5499:5501   */\n      0x20\n        /* \"#utility.yul\":5491:5497   */\n      dup3\n        /* \"#utility.yul\":5487:5502   */\n      add\n        /* \"#utility.yul\":5480:5513   */\n      mstore\n        /* \"#utility.yul\":5295:5520   */\n      pop\n      jump\t// out\n        /* \"#utility.yul\":5526:5892   */\n    tag_55:\n        /* \"#utility.yul\":5668:5671   */\n      0x00\n        /* \"#utility.yul\":5689:5756   */\n      tag_134\n        /* \"#utility.yul\":5753:5755   */\n      0x26\n        /* \"#utility.yul\":5748:5751   */\n      dup4\n        /* \"#utility.yul\":5689:5756   */\n      tag_34\n      jump\t// in\n    tag_134:\n        /* \"#utility.yul\":5682:5756   */\n      swap2\n      pop\n        /* \"#utility.yul\":5765:5858   */\n      tag_135\n        /* \"#utility.yul\":5854:5857   */\n      dup3\n        /* \"#utility.yul\":5765:5858   */\n      tag_54\n      jump\t// in\n    tag_135:\n        /* \"#utility.yul\":5883:5885   */\n      0x40\n        /* \"#utility.yul\":5878:5881   */\n      dup3\n        /* \"#utility.yul\":5874:5886   */\n      add\n        /* \"#utility.yul\":5867:5886   */\n      swap1\n      pop\n        /* \"#utility.yul\":5526:5892   */\n      swap2\n      swap1\n      pop\n      jump\t// out\n        /* \"#utility.yul\":5898:6317   */\n    tag_27:\n        /* \"#utility.yul\":6064:6068   */\n      0x00\n        /* \"#utility.yul\":6102:6104   */\n      0x20\n        /* \"#utility.yul\":6091:6100   */\n      dup3\n        /* \"#utility.yul\":6087:6105   */\n      add\n        /* \"#utility.yul\":6079:6105   */\n      swap1\n      pop\n        /* \"#utility.yul\":6151:6160   */\n      dup2\n        /* \"#utility.yul\":6145:6149   */\n      dup2\n        /* \"#utility.yul\":6141:6161   */\n      sub\n        /* \"#utility.yul\":6137:6138   */\n      0x00\n        /* \"#utility.yul\":6126:6135   */\n      dup4\n        /* \"#utility.yul\":6122:6139   */\n      add\n        /* \"#utility.yul\":6115:6162   */\n      mstore\n        /* \"#utility.yul\":6179:6310   */\n      tag_137\n        /* \"#utility.yul\":6305:6309   */\n      dup2\n        /* \"#utility.yul\":6179:6310   */\n      tag_55\n      jump\t// in\n    tag_137:\n        /* \"#utility.yul\":6171:6310   */\n      swap1\n      pop\n        /* \"#utility.yul\":5898:6317   */\n      swap2\n      swap1\n      pop\n      jump\t// out\n        /* \"#utility.yul\":6323:6464   */\n    tag_56:\n        /* \"#utility.yul\":6372:6376   */\n      0x00\n        /* \"#utility.yul\":6395:6398   */\n      dup2\n        /* \"#utility.yul\":6387:6398   */\n      swap1\n      pop\n        /* \"#utility.yul\":6418:6421   */\n      dup2\n        /* \"#utility.yul\":6415:6416   */\n      0x00\n        /* \"#utility.yul\":6408:6422   */\n      mstore\n        /* \"#utility.yul\":6452:6456   */\n      0x20\n        /* \"#utility.yul\":6449:6450   */\n      0x00\n        /* \"#utility.yul\":6439:6457   */\n      keccak256\n        /* \"#utility.yul\":6431:6457   */\n      swap1\n      pop\n        /* \"#utility.yul\":6323:6464   */\n      swap2\n      swap1\n      pop\n      jump\t// out\n        /* \"#utility.yul\":6470:6563   */\n    tag_57:\n        /* \"#utility.yul\":6507:6513   */\n      0x00\n        /* \"#utility.yul\":6554:6556   */\n      0x20\n        /* \"#utility.yul\":6549:6551   */\n      0x1f\n        /* \"#utility.yul\":6542:6547   */\n      dup4\n        /* \"#utility.yul\":6538:6552   */\n      add\n        /* \"#utility.yul\":6534:6557   */\n      div\n        /* \"#utility.yul\":6524:6557   */\n      swap1\n      pop\n        /* \"#utility.yul\":6470:6563   */\n      swap2\n      swap1\n      pop\n      jump\t// out\n        /* \"#utility.yul\":6569:6676   */\n    tag_58:\n        /* \"#utility.yul\":6613:6621   */\n      0x00\n        /* \"#utility.yul\":6663:6668   */\n      dup3\n        /* \"#utility.yul\":6657:6661   */\n      dup3\n        /* \"#utility.yul\":6653:6669   */\n      shl\n        /* \"#utility.yul\":6632:6669   */\n      swap1\n      pop\n        /* \"#utility.yul\":6569:6676   */\n      swap3\n      swap2\n      pop\n      pop\n      jump\t// out\n        /* \"#utility.yul\":6682:7075   */\n    tag_59:\n        /* \"#utility.yul\":6751:6757   */\n      0x00\n        /* \"#utility.yul\":6801:6802   */\n      0x08\n        /* \"#utility.yul\":6789:6799   */\n      dup4\n        /* \"#utility.yul\":6785:6803   */\n      mul\n        /* \"#utility.yul\":6824:6921   */\n      tag_142\n        /* \"#utility.yul\":6854:6920   */\n      0xffffffffffffffffffffffffffffffffffffffffffffffffffffffffffffffff\n        /* \"#utility.yul\":6843:6852   */\n      dup3\n        /* \"#utility.yul\":6824:6921   */\n      tag_58\n      jump\t// in\n    tag_142:\n        /* \"#utility.yul\":6942:6981   */\n      tag_143\n        /* \"#utility.yul\":6972:6980   */\n      dup7\n        /* \"#utility.yul\":6961:6970   */\n      dup4\n        /* \"#utility.yul\":6942:6981   */\n      tag_58\n      jump\t// in\n    tag_143:\n        /* \"#utility.yul\":6930:6981   */\n      swap6\n      pop\n        /* \"#utility.yul\":7014:7018   */\n      dup1\n        /* \"#utility.yul\":7010:7019   */\n      not\n        /* \"#utility.yul\":7003:7008   */\n      dup5\n        /* \"#utility.yul\":6999:7020   */\n      and\n        /* \"#utility.yul\":6990:7020   */\n      swap4\n      pop\n        /* \"#utility.yul\":7063:7067   */\n      dup1\n        /* \"#utility.yul\":7053:7061   */\n      dup7\n        /* \"#utility.yul\":7049:7068   */\n      and\n        /* \"#utility.yul\":7042:7047   */\n      dup5\n        /* \"#utility.yul\":7039:7069   */\n      or\n        /* \"#utility.yul\":7029:7069   */\n      swap3\n      pop\n        /* \"#utility.yul\":6758:7075   */\n      pop\n      pop\n        /* \"#utility.yul\":6682:7075   */\n      swap4\n      swap3\n      pop\n      pop\n      pop\n      jump\t// out\n        /* \"#utility.yul\":7081:7158   */\n    tag_60:\n        /* \"#utility.yul\":7118:7125   */\n      0x00\n        /* \"#utility.yul\":7147:7152   */\n      dup2\n        /* \"#utility.yul\":7136:7152   */\n      swap1\n      pop\n        /* \"#utility.yul\":7081:7158   */\n      swap2\n      swap1\n      pop\n      jump\t// out\n        /* \"#utility.yul\":7164:7224   */\n    tag_61:\n        /* \"#utility.yul\":7192:7195   */\n      0x00\n        /* \"#utility.yul\":7213:7218   */\n      dup2\n        /* \"#utility.yul\":7206:7218   */\n      swap1\n      pop\n        /* \"#utility.yul\":7164:7224   */\n      swap2\n      swap1\n      pop\n      jump\t// out\n        /* \"#utility.yul\":7230:7372   */\n    tag_62:\n        /* \"#utility.yul\":7280:7289   */\n      0x00\n        /* \"#utility.yul\":7313:7366   */\n      tag_147\n        /* \"#utility.yul\":7331:7365   */\n      tag_148\n        /* \"#utility.yul\":7340:7364   */\n      tag_149\n        /* \"#utility.yul\":7358:7363   */\n      dup5\n        /* \"#utility.yul\":7340:7364   */\n      tag_60\n      jump\t// in\n    tag_149:\n        /* \"#utility.yul\":7331:7365   */\n      tag_61\n      jump\t// in\n    tag_148:\n        /* \"#utility.yul\":7313:7366   */\n      tag_60\n      jump\t// in\n    tag_147:\n        /* \"#utility.yul\":7300:7366   */\n      swap1\n      pop\n        /* \"#utility.yul\":7230:7372   */\n      swap2\n      swap1\n      pop\n      jump\t// out\n        /* \"#utility.yul\":7378:7453   */\n    tag_63:\n        /* \"#utility.yul\":7421:7424   */\n      0x00\n        /* \"#utility.yul\":7442:7447   */\n      dup2\n        /* \"#utility.yul\":7435:7447   */\n      swap1\n      pop\n        /* \"#utility.yul\":7378:7453   */\n      swap2\n      swap1\n      pop\n      jump\t// out\n        /* \"#utility.yul\":7459:7728   */\n    tag_64:\n        /* \"#utility.yul\":7569:7608   */\n      tag_152\n        /* \"#utility.yul\":7600:7607   */\n      dup4\n        /* \"#utility.yul\":7569:7608   */\n      tag_62\n      jump\t// in\n    tag_152:\n        /* \"#utility.yul\":7630:7721   */\n      tag_153\n        /* \"#utility.yul\":7679:7720   */\n      tag_154\n        /* \"#utility.yul\":7703:7719   */\n      dup3\n        /* \"#utility.yul\":7679:7720   */\n      tag_63\n      jump\t// in\n    tag_154:\n        /* \"#utility.yul\":7671:7677   */\n      dup5\n        /* \"#utility.yul\":7664:7668   */\n      dup5\n        /* \"#utility.yul\":7658:7669   */\n      sload\n        /* \"#utility.yul\":7630:7721   */\n      tag_59\n      jump\t// in\n    tag_153:\n        /* \"#utility.yul\":7624:7628   */\n      dup3\n        /* \"#utility.yul\":7617:7722   */\n      sstore\n        /* \"#utility.yul\":7535:7728   */\n      pop\n        /* \"#utility.yul\":7459:7728   */\n      pop\n      pop\n      pop\n      jump\t// out\n        /* \"#utility.yul\":7734:7807   */\n    tag_65:\n        /* \"#utility.yul\":7779:7782   */\n      0x00\n        /* \"#utility.yul\":7734:7807   */\n      swap1\n      jump\t// out\n        /* \"#utility.yul\":7813:8002   */\n    tag_66:\n        /* \"#utility.yul\":7890:7922   */\n      tag_157\n      tag_65\n      jump\t// in\n    tag_157:\n        /* \"#utility.yul\":7931:7996   */\n      tag_158\n        /* \"#utility.yul\":7989:7995   */\n      dup2\n        /* \"#utility.yul\":7981:7987   */\n      dup5\n        /* \"#utility.yul\":7975:7979   */\n      dup5\n        /* \"#utility.yul\":7931:7996   */\n      tag_64\n      jump\t// in\n    tag_158:\n        /* \"#utility.yul\":7866:8002   */\n      pop\n        /* \"#utility.yul\":7813:8002   */\n      pop\n      pop\n      jump\t// out\n        /* \"#utility.yul\":8008:8194   */\n    tag_67:\n        /* \"#utility.yul\":8068:8188   */\n    tag_160:\n        /* \"#utility.yul\":8085:8088   */\n      dup2\n        /* \"#utility.yul\":8078:8083   */\n      dup2\n        /* \"#utility.yul\":8075:8089   */\n      lt\n        /* \"#utility.yul\":8068:8188   */\n      iszero\n      tag_162\n      jumpi\n        /* \"#utility.yul\":8139:8178   */\n      tag_163\n        /* \"#utility.yul\":8176:8177   */\n      0x00\n        /* \"#utility.yul\":8169:8174   */\n      dup3\n        /* \"#utility.yul\":8139:8178   */\n      tag_66\n      jump\t// in\n    tag_163:\n        /* \"#utility.yul\":8112:8113   */\n      0x01\n        /* \"#utility.yul\":8105:8110   */\n      dup2\n        /* \"#utility.yul\":8101:8114   */\n      add\n        /* \"#utility.yul\":8092:8114   */\n      swap1\n      pop\n        /* \"#utility.yul\":8068:8188   */\n      jump(tag_160)\n    tag_162:\n        /* \"#utility.yul\":8008:8194   */\n      pop\n      pop\n      jump\t// out\n        /* \"#utility.yul\":8200:8743   */\n    tag_68:\n        /* \"#utility.yul\":8301:8303   */\n      0x1f\n        /* \"#utility.yul\":8296:8299   */\n      dup3\n        /* \"#utility.yul\":8293:8304   */\n      gt\n        /* \"#utility.yul\":8290:8736   */\n      iszero\n      tag_165\n      jumpi\n        /* \"#utility.yul\":8335:8373   */\n      tag_166\n        /* \"#utility.yul\":8367:8372   */\n      dup2\n        /* \"#utility.yul\":8335:8373   */\n      tag_56\n      jump\t// in\n    tag_166:\n        /* \"#utility.yul\":8419:8448   */\n      tag_167\n        /* \"#utility.yul\":8437:8447   */\n      dup5\n        /* \"#utility.yul\":8419:8448   */\n      tag_57\n      jump\t// in\n    tag_167:\n        /* \"#utility.yul\":8409:8417   */\n      dup2\n        /* \"#utility.yul\":8405:8449   */\n      add\n        /* \"#utility.yul\":8602:8604   */\n      0x20\n        /* \"#utility.yul\":8590:8600   */\n      dup6\n        /* \"#utility.yul\":8587:8605   */\n      lt\n        /* \"#utility.yul\":8584:8633   */\n      iszero\n      tag_168\n      jumpi\n        /* \"#utility.yul\":8623:8631   */\n      dup2\n        /* \"#utility.yul\":8608:8631   */\n      swap1\n      pop\n        /* \"#utility.yul\":8584:8633   */\n    tag_168:\n        /* \"#utility.yul\":8646:8726   */\n      tag_169\n        /* \"#utility.yul\":8702:8724   */\n      tag_170\n        /* \"#utility.yul\":8720:8723   */\n      dup6\n        /* \"#utility.yul\":8702:8724   */\n      tag_57\n      jump\t// in\n    tag_170:\n        /* \"#utility.yul\":8692:8700   */\n      dup4\n        /* \"#utility.yul\":8688:8725   */\n      add\n        /* \"#utility.yul\":8675:8686   */\n      dup3\n        /* \"#utility.yul\":8646:8726   */\n      tag_67\n      jump\t// in\n    tag_169:\n        /* \"#utility.yul\":8305:8736   */\n      pop\n      pop\n        /* \"#utility.yul\":8290:8736   */\n    tag_165:\n        /* \"#utility.yul\":8200:8743   */\n      pop\n      pop\n      pop\n      jump\t// out\n        /* \"#utility.yul\":8749:8866   */\n    tag_69:\n        /* \"#utility.yul\":8803:8811   */\n      0x00\n        /* \"#utility.yul\":8853:8858   */\n      dup3\n        /* \"#utility.yul\":8847:8851   */\n      dup3\n        /* \"#utility.yul\":8843:8859   */\n      shr\n        /* \"#utility.yul\":8822:8859   */\n      swap1\n      pop\n        /* \"#utility.yul\":8749:8866   */\n      swap3\n      swap2\n      pop\n      pop\n      jump\t// out\n        /* \"#utility.yul\":8872:9041   */\n    tag_70:\n        /* \"#utility.yul\":8916:8922   */\n      0x00\n        /* \"#utility.yul\":8949:9000   */\n      tag_173\n        /* \"#utility.yul\":8997:8998   */\n      0x00\n        /* \"#utility.yul\":8993:8999   */\n      not\n        /* \"#utility.yul\":8985:8990   */\n      dup5\n        /* \"#utility.yul\":8982:8983   */\n      0x08\n        /* \"#utility.yul\":8978:8991   */\n      mul\n        /* \"#utility.yul\":8949:9000   */\n      tag_69\n      jump\t// in\n    tag_173:\n        /* \"#utility.yul\":8945:9001   */\n      not\n        /* \"#utility.yul\":9030:9034   */\n      dup1\n        /* \"#utility.yul\":9024:9028   */\n      dup4\n        /* \"#utility.yul\":9020:9035   */\n      and\n        /* \"#utility.yul\":9010:9035   */\n      swap2\n      pop\n        /* \"#utility.yul\":8923:9041   */\n      pop\n        /* \"#utility.yul\":8872:9041   */\n      swap3\n      swap2\n      pop\n      pop\n      jump\t// out\n        /* \"#utility.yul\":9046:9341   */\n    tag_71:\n        /* \"#utility.yul\":9122:9126   */\n      0x00\n        /* \"#utility.yul\":9268:9297   */\n      tag_175\n        /* \"#utility.yul\":9293:9296   */\n      dup4\n        /* \"#utility.yul\":9287:9291   */\n      dup4\n        /* \"#utility.yul\":9268:9297   */\n      tag_70\n      jump\t// in\n    tag_175:\n        /* \"#utility.yul\":9260:9297   */\n      swap2\n      pop\n        /* \"#utility.yul\":9330:9333   */\n      dup3\n        /* \"#utility.yul\":9327:9328   */\n      0x02\n        /* \"#utility.yul\":9323:9334   */\n      mul\n        /* \"#utility.yul\":9317:9321   */\n      dup3\n        /* \"#utility.yul\":9314:9335   */\n      or\n        /* \"#utility.yul\":9306:9335   */\n      swap1\n      pop\n        /* \"#utility.yul\":9046:9341   */\n      swap3\n      swap2\n      pop\n      pop\n      jump\t// out\n        /* \"#utility.yul\":9346:10741   */\n    tag_30:\n        /* \"#utility.yul\":9463:9500   */\n      tag_177\n        /* \"#utility.yul\":9496:9499   */\n      dup3\n        /* \"#utility.yul\":9463:9500   */\n      tag_33\n      jump\t// in\n    tag_177:\n        /* \"#utility.yul\":9565:9583   */\n      0xffffffffffffffff\n        /* \"#utility.yul\":9557:9563   */\n      dup2\n        /* \"#utility.yul\":9554:9584   */\n      gt\n        /* \"#utility.yul\":9551:9607   */\n      iszero\n      tag_178\n      jumpi\n        /* \"#utility.yul\":9587:9605   */\n      tag_179\n      tag_46\n      jump\t// in\n    tag_179:\n        /* \"#utility.yul\":9551:9607   */\n    tag_178:\n        /* \"#utility.yul\":9631:9669   */\n      tag_180\n        /* \"#utility.yul\":9663:9667   */\n      dup3\n        /* \"#utility.yul\":9657:9668   */\n      sload\n        /* \"#utility.yul\":9631:9669   */\n      tag_19\n      jump\t// in\n    tag_180:\n        /* \"#utility.yul\":9716:9783   */\n      tag_181\n        /* \"#utility.yul\":9776:9782   */\n      dup3\n        /* \"#utility.yul\":9768:9774   */\n      dup3\n        /* \"#utility.yul\":9762:9766   */\n      dup6\n        /* \"#utility.yul\":9716:9783   */\n      tag_68\n      jump\t// in\n    tag_181:\n        /* \"#utility.yul\":9810:9811   */\n      0x00\n        /* \"#utility.yul\":9834:9838   */\n      0x20\n        /* \"#utility.yul\":9821:9838   */\n      swap1\n      pop\n        /* \"#utility.yul\":9866:9868   */\n      0x1f\n        /* \"#utility.yul\":9858:9864   */\n      dup4\n        /* \"#utility.yul\":9855:9869   */\n      gt\n        /* \"#utility.yul\":9883:9884   */\n      0x01\n        /* \"#utility.yul\":9878:10496   */\n      dup2\n      eq\n      tag_183\n      jumpi\n        /* \"#utility.yul\":10540:10541   */\n      0x00\n        /* \"#utility.yul\":10557:10563   */\n      dup5\n        /* \"#utility.yul\":10554:10631   */\n      iszero\n      tag_184\n      jumpi\n        /* \"#utility.yul\":10606:10615   */\n      dup3\n        /* \"#utility.yul\":10601:10604   */\n      dup8\n        /* \"#utility.yul\":10597:10616   */\n      add\n        /* \"#utility.yul\":10591:10617   */\n      mload\n        /* \"#utility.yul\":10582:10617   */\n      swap1\n      pop\n        /* \"#utility.yul\":10554:10631   */\n    tag_184:\n        /* \"#utility.yul\":10657:10724   */\n      tag_185\n        /* \"#utility.yul\":10717:10723   */\n      dup6\n        /* \"#utility.yul\":10710:10715   */\n      dup3\n        /* \"#utility.yul\":10657:10724   */\n      tag_71\n      jump\t// in\n    tag_185:\n        /* \"#utility.yul\":10651:10655   */\n      dup7\n        /* \"#utility.yul\":10644:10725   */\n      sstore\n        /* \"#utility.yul\":10513:10735   */\n      pop\n        /* \"#utility.yul\":9848:10735   */\n      jump(tag_182)\n        /* \"#utility.yul\":9878:10496   */\n    tag_183:\n        /* \"#utility.yul\":9930:9934   */\n      0x1f\n        /* \"#utility.yul\":9926:9935   */\n      not\n        /* \"#utility.yul\":9918:9924   */\n      dup5\n        /* \"#utility.yul\":9914:9936   */\n      and\n        /* \"#utility.yul\":9964:10001   */\n      tag_186\n        /* \"#utility.yul\":9996:10000   */\n      dup7\n        /* \"#utility.yul\":9964:10001   */\n      tag_56\n      jump\t// in\n    tag_186:\n        /* \"#utility.yul\":10023:10024   */\n      0x00\n        /* \"#utility.yul\":10037:10245   */\n    tag_187:\n        /* \"#utility.yul\":10051:10058   */\n      dup3\n        /* \"#utility.yul\":10048:10049   */\n      dup2\n        /* \"#utility.yul\":10045:10059   */\n      lt\n        /* \"#utility.yul\":10037:10245   */\n      iszero\n      tag_189\n      jumpi\n        /* \"#utility.yul\":10130:10139   */\n      dup5\n        /* \"#utility.yul\":10125:10128   */\n      dup10\n        /* \"#utility.yul\":10121:10140   */\n      add\n        /* \"#utility.yul\":10115:10141   */\n      mload\n        /* \"#utility.yul\":10107:10113   */\n      dup3\n        /* \"#utility.yul\":10100:10142   */\n      sstore\n        /* \"#utility.yul\":10181:10182   */\n      0x01\n        /* \"#utility.yul\":10173:10179   */\n      dup3\n        /* \"#utility.yul\":10169:10183   */\n      add\n        /* \"#utility.yul\":10159:10183   */\n      swap2\n      pop\n        /* \"#utility.yul\":10228:10230   */\n      0x20\n        /* \"#utility.yul\":10217:10226   */\n      dup6\n        /* \"#utility.yul\":10213:10231   */\n      add\n        /* \"#utility.yul\":10200:10231   */\n      swap5\n      pop\n        /* \"#utility.yul\":10074:10078   */\n      0x20\n        /* \"#utility.yul\":10071:10072   */\n      dup2\n        /* \"#utility.yul\":10067:10079   */\n      add\n        /* \"#utility.yul\":10062:10079   */\n      swap1\n      pop\n        /* \"#utility.yul\":10037:10245   */\n      jump(tag_187)\n    tag_189:\n        /* \"#utility.yul\":10273:10279   */\n      dup7\n        /* \"#utility.yul\":10264:10271   */\n      dup4\n        /* \"#utility.yul\":10261:10280   */\n      lt\n        /* \"#utility.yul\":10258:10437   */\n      iszero\n      tag_190\n      jumpi\n        /* \"#utility.yul\":10331:10340   */\n      dup5\n        /* \"#utility.yul\":10326:10329   */\n      dup10\n        /* \"#utility.yul\":10322:10341   */\n      add\n        /* \"#utility.yul\":10316:10342   */\n      mload\n        /* \"#utility.yul\":10374:10422   */\n      tag_191\n        /* \"#utility.yul\":10416:10420   */\n      0x1f\n        /* \"#utility.yul\":10408:10414   */\n      dup10\n        /* \"#utility.yul\":10404:10421   */\n      and\n        /* \"#utility.yul\":10393:10402   */\n      dup3\n        /* \"#utility.yul\":10374:10422   */\n      tag_70\n      jump\t// in\n    tag_191:\n        /* \"#utility.yul\":10366:10372   */\n      dup4\n        /* \"#utility.yul\":10359:10423   */\n      sstore\n        /* \"#utility.yul\":10281:10437   */\n      pop\n        /* \"#utility.yul\":10258:10437   */\n    tag_190:\n        /* \"#utility.yul\":10483:10484   */\n      0x01\n        /* \"#utility.yul\":10479:10480   */\n      0x02\n        /* \"#utility.yul\":10471:10477   */\n      dup9\n        /* \"#utility.yul\":10467:10481   */\n      mul\n        /* \"#utility.yul\":10463:10485   */\n      add\n        /* \"#utility.yul\":10457:10461   */\n      dup9\n        /* \"#utility.yul\":10450:10486   */\n      sstore\n        /* \"#utility.yul\":9885:10496   */\n      pop\n      pop\n      pop\n        /* \"#utility.yul\":9848:10735   */\n    tag_182:\n      pop\n        /* \"#utility.yul\":9438:10741   */\n      pop\n      pop\n      pop\n        /* \"#utility.yul\":9346:10741   */\n      pop\n      pop\n      jump\t// out\n        /* \"#utility.yul\":10747:10901   */\n    tag_72:\n        /* \"#utility.yul\":10887:10893   */\n      0x6e616d6500000000000000000000000000000000000000000000000000000000\n        /* \"#utility.yul\":10883:10884   */\n      0x00\n        /* \"#utility.yul\":10875:10881   */\n      dup3\n        /* \"#utility.yul\":10871:10885   */\n      add\n        /* \"#utility.yul\":10864:10894   */\n      mstore\n        /* \"#utility.yul\":10747:10901   */\n      pop\n      jump\t// out\n        /* \"#utility.yul\":10907:11272   */\n    tag_73:\n        /* \"#utility.yul\":11049:11052   */\n      0x00\n        /* \"#utility.yul\":11070:11136   */\n      tag_194\n        /* \"#utility.yul\":11134:11135   */\n      0x04\n        /* \"#utility.yul\":11129:11132   */\n      dup4\n        /* \"#utility.yul\":11070:11136   */\n      tag_34\n      jump\t// in\n    tag_194:\n        /* \"#utility.yul\":11063:11136   */\n      swap2\n      pop\n        /* \"#utility.yul\":11145:11238   */\n      tag_195\n        /* \"#utility.yul\":11234:11237   */\n      dup3\n        /* \"#utility.yul\":11145:11238   */\n      tag_72\n      jump\t// in\n    tag_195:\n        /* \"#utility.yul\":11263:11265   */\n      0x20\n        /* \"#utility.yul\":11258:11261   */\n      dup3\n        /* \"#utility.yul\":11254:11266   */\n      add\n        /* \"#utility.yul\":11247:11266   */\n      swap1\n      pop\n        /* \"#utility.yul\":10907:11272   */\n      swap2\n      swap1\n      pop\n      jump\t// out\n        /* \"#utility.yul\":11278:11898   */\n    tag_32:\n        /* \"#utility.yul\":11492:11496   */\n      0x00\n        /* \"#utility.yul\":11530:11532   */\n      0x40\n        /* \"#utility.yul\":11519:11528   */\n      dup3\n        /* \"#utility.yul\":11515:11533   */\n      add\n        /* \"#utility.yul\":11507:11533   */\n      swap1\n      pop\n        /* \"#utility.yul\":11579:11588   */\n      dup2\n        /* \"#utility.yul\":11573:11577   */\n      dup2\n        /* \"#utility.yul\":11569:11589   */\n      sub\n        /* \"#utility.yul\":11565:11566   */\n      0x00\n        /* \"#utility.yul\":11554:11563   */\n      dup4\n        /* \"#utility.yul\":11550:11567   */\n      add\n        /* \"#utility.yul\":11543:11590   */\n      mstore\n        /* \"#utility.yul\":11607:11738   */\n      tag_197\n        /* \"#utility.yul\":11733:11737   */\n      dup2\n        /* \"#utility.yul\":11607:11738   */\n      tag_73\n      jump\t// in\n    tag_197:\n        /* \"#utility.yul\":11599:11738   */\n      swap1\n      pop\n        /* \"#utility.yul\":11785:11794   */\n      dup2\n        /* \"#utility.yul\":11779:11783   */\n      dup2\n        /* \"#utility.yul\":11775:11795   */\n      sub\n        /* \"#utility.yul\":11770:11772   */\n      0x20\n        /* \"#utility.yul\":11759:11768   */\n      dup4\n        /* \"#utility.yul\":11755:11773   */\n      add\n        /* \"#utility.yul\":11748:11796   */\n      mstore\n        /* \"#utility.yul\":11813:11891   */\n      tag_198\n        /* \"#utility.yul\":11886:11890   */\n      dup2\n        /* \"#utility.yul\":11877:11883   */\n      dup5\n        /* \"#utility.yul\":11813:11891   */\n      tag_37\n      jump\t// in\n    tag_198:\n        /* \"#utility.yul\":11805:11891   */\n      swap1\n      pop\n        /* \"#utility.yul\":11278:11898   */\n      swap3\n      swap2\n      pop\n      pop\n      jump\t// out\n\n    auxdata: 0xa2646970667358221220259f78afe64b16bf3188fd7fde517f243403464d3cb037d1716ef0cc6bd2f4bc64736f6c634300081a0033\n}\n",
				"bytecode": {
					"linkReferences": {},
					"object": "6080604052348015600e575f80fd5b503360015f6101000a81548173ffffffffffffffffffffffffffffffffffffffff021916908373ffffffffffffffffffffffffffffffffffffffff1602179055506108b98061005c5f395ff3fe608060405234801561000f575f80fd5b506004361061003f575f3560e01c806306fdde03146100435780638da5cb5b14610061578063c47f00271461007f575b5f80fd5b61004b61009b565b60405161005891906102aa565b60405180910390f35b610069610126565b6040516100769190610309565b60405180910390f35b6100996004803603810190610094919061045f565b61014b565b005b5f80546100a7906104d3565b80601f01602080910402602001604051908101604052809291908181526020018280546100d3906104d3565b801561011e5780601f106100f55761010080835404028352916020019161011e565b820191905f5260205f20905b81548152906001019060200180831161010157829003601f168201915b505050505081565b60015f9054906101000a900473ffffffffffffffffffffffffffffffffffffffff1681565b3373ffffffffffffffffffffffffffffffffffffffff1660015f9054906101000a900473ffffffffffffffffffffffffffffffffffffffff1673ffffffffffffffffffffffffffffffffffffffff16146101da576040517f08c379a00000000000000000000000000000000000000000000000000000000081526004016101d190610573565b60405180910390fd5b805f90816101e89190610737565b503373ffffffffffffffffffffffffffffffffffffffff167fde4389d0e2b82c1da27da351a07c61a1c281a257dd810bc7fad7e95a2fffd0d28260405161022f9190610850565b60405180910390a250565b5f81519050919050565b5f82825260208201905092915050565b8281835e5f83830152505050565b5f601f19601f8301169050919050565b5f61027c8261023a565b6102868185610244565b9350610296818560208601610254565b61029f81610262565b840191505092915050565b5f6020820190508181035f8301526102c28184610272565b905092915050565b5f73ffffffffffffffffffffffffffffffffffffffff82169050919050565b5f6102f3826102ca565b9050919050565b610303816102e9565b82525050565b5f60208201905061031c5f8301846102fa565b92915050565b5f604051905090565b5f80fd5b5f80fd5b5f80fd5b5f80fd5b7f4e487b71000000000000000000000000000000000000000000000000000000005f52604160045260245ffd5b61037182610262565b810181811067ffffffffffffffff821117156103905761038f61033b565b5b80604052505050565b5f6103a2610322565b90506103ae8282610368565b919050565b5f67ffffffffffffffff8211156103cd576103cc61033b565b5b6103d682610262565b9050602081019050919050565b828183375f83830152505050565b5f6104036103fe846103b3565b610399565b90508281526020810184848401111561041f5761041e610337565b5b61042a8482856103e3565b509392505050565b5f82601f83011261044657610445610333565b5b81356104568482602086016103f1565b91505092915050565b5f602082840312156104745761047361032b565b5b5f82013567ffffffffffffffff8111156104915761049061032f565b5b61049d84828501610432565b91505092915050565b7f4e487b71000000000000000000000000000000000000000000000000000000005f52602260045260245ffd5b5f60028204905060018216806104ea57607f821691505b6020821081036104fd576104fc6104a6565b5b50919050565b7f536f6c6f20656c206f776e65722070756564652063616d6269617220657374655f8201527f2076616c6f720000000000000000000000000000000000000000000000000000602082015250565b5f61055d602683610244565b915061056882610503565b604082019050919050565b5f6020820190508181035f83015261058a81610551565b9050919050565b5f819050815f5260205f209050919050565b5f6020601f8301049050919050565b5f82821b905092915050565b5f600883026105ed7fffffffffffffffffffffffffffffffffffffffffffffffffffffffffffffffff826105b2565b6105f786836105b2565b95508019841693508086168417925050509392505050565b5f819050919050565b5f819050919050565b5f61063b6106366106318461060f565b610618565b61060f565b9050919050565b5f819050919050565b61065483610621565b61066861066082610642565b8484546105be565b825550505050565b5f90565b61067c610670565b61068781848461064b565b505050565b5b818110156106aa5761069f5f82610674565b60018101905061068d565b5050565b601f8211156106ef576106c081610591565b6106c9846105a3565b810160208510156106d8578190505b6106ec6106e4856105a3565b83018261068c565b50505b505050565b5f82821c905092915050565b5f61070f5f19846008026106f4565b1980831691505092915050565b5f6107278383610700565b9150826002028217905092915050565b6107408261023a565b67ffffffffffffffff8111156107595761075861033b565b5b61076382546104d3565b61076e8282856106ae565b5f60209050601f83116001811461079f575f841561078d578287015190505b610797858261071c565b8655506107fe565b601f1984166107ad86610591565b5f5b828110156107d4578489015182556001820191506020850194506020810190506107af565b868310156107f157848901516107ed601f891682610700565b8355505b6001600288020188555050505b505050505050565b7f6e616d65000000000000000000000000000000000000000000000000000000005f82015250565b5f61083a600483610244565b915061084582610806565b602082019050919050565b5f6040820190508181035f8301526108678161082e565b9050818103602083015261087b8184610272565b90509291505056fea2646970667358221220259f78afe64b16bf3188fd7fde517f243403464d3cb037d1716ef0cc6bd2f4bc64736f6c634300081a0033",
					"opcodes": "PUSH1 0x80 PUSH1 0x40 MSTORE CALLVALUE DUP1 ISZERO PUSH1 0xE JUMPI PUSH0 DUP1 REVERT JUMPDEST POP CALLER PUSH1 0x1 PUSH0 PUSH2 0x100 EXP DUP2 SLOAD DUP2 PUSH20 0xFFFFFFFFFFFFFFFFFFFFFFFFFFFFFFFFFFFFFFFF MUL NOT AND SWAP1 DUP4 PUSH20 0xFFFFFFFFFFFFFFFFFFFFFFFFFFFFFFFFFFFFFFFF AND MUL OR SWAP1 SSTORE POP PUSH2 0x8B9 DUP1 PUSH2 0x5C PUSH0 CODECOPY PUSH0 RETURN INVALID PUSH1 0x80 PUSH1 0x40 MSTORE CALLVALUE DUP1 ISZERO PUSH2 0xF JUMPI PUSH0 DUP1 REVERT JUMPDEST POP PUSH1 0x4 CALLDATASIZE LT PUSH2 0x3F JUMPI PUSH0 CALLDATALOAD PUSH1 0xE0 SHR DUP1 PUSH4 0x6FDDE03 EQ PUSH2 0x43 JUMPI DUP1 PUSH4 0x8DA5CB5B EQ PUSH2 0x61 JUMPI DUP1 PUSH4 0xC47F0027 EQ PUSH2 0x7F JUMPI JUMPDEST PUSH0 DUP1 REVERT JUMPDEST PUSH2 0x4B PUSH2 0x9B JUMP JUMPDEST PUSH1 0x40 MLOAD PUSH2 0x58 SWAP2 SWAP1 PUSH2 0x2AA JUMP JUMPDEST PUSH1 0x40 MLOAD DUP1 SWAP2 SUB SWAP1 RETURN JUMPDEST PUSH2 0x69 PUSH2 0x126 JUMP JUMPDEST PUSH1 0x40 MLOAD PUSH2 0x76 SWAP2 SWAP1 PUSH2 0x309 JUMP JUMPDEST PUSH1 0x40 MLOAD DUP1 SWAP2 SUB SWAP1 RETURN JUMPDEST PUSH2 0x99 PUSH1 0x4 DUP1 CALLDATASIZE SUB DUP2 ADD SWAP1 PUSH2 0x94 SWAP2 SWAP1 PUSH2 0x45F JUMP JUMPDEST PUSH2 0x14B JUMP JUMPDEST STOP JUMPDEST PUSH0 DUP1 SLOAD PUSH2 0xA7 SWAP1 PUSH2 0x4D3 JUMP JUMPDEST DUP1 PUSH1 0x1F ADD PUSH1 0x20 DUP1 SWAP2 DIV MUL PUSH1 0x20 ADD PUSH1 0x40 MLOAD SWAP1 DUP2 ADD PUSH1 0x40 MSTORE DUP1 SWAP3 SWAP2 SWAP1 DUP2 DUP2 MSTORE PUSH1 0x20 ADD DUP3 DUP1 SLOAD PUSH2 0xD3 SWAP1 PUSH2 0x4D3 JUMP JUMPDEST DUP1 ISZERO PUSH2 0x11E JUMPI DUP1 PUSH1 0x1F LT PUSH2 0xF5 JUMPI PUSH2 0x100 DUP1 DUP4 SLOAD DIV MUL DUP4 MSTORE SWAP2 PUSH1 0x20 ADD SWAP2 PUSH2 0x11E JUMP JUMPDEST DUP3 ADD SWAP2 SWAP1 PUSH0 MSTORE PUSH1 0x20 PUSH0 KECCAK256 SWAP1 JUMPDEST DUP2 SLOAD DUP2 MSTORE SWAP1 PUSH1 0x1 ADD SWAP1 PUSH1 0x20 ADD DUP1 DUP4 GT PUSH2 0x101 JUMPI DUP3 SWAP1 SUB PUSH1 0x1F AND DUP3 ADD SWAP2 JUMPDEST POP POP POP POP POP DUP2 JUMP JUMPDEST PUSH1 0x1 PUSH0 SWAP1 SLOAD SWAP1 PUSH2 0x100 EXP SWAP1 DIV PUSH20 0xFFFFFFFFFFFFFFFFFFFFFFFFFFFFFFFFFFFFFFFF AND DUP2 JUMP JUMPDEST CALLER PUSH20 0xFFFFFFFFFFFFFFFFFFFFFFFFFFFFFFFFFFFFFFFF AND PUSH1 0x1 PUSH0 SWAP1 SLOAD SWAP1 PUSH2 0x100 EXP SWAP1 DIV PUSH20 0xFFFFFFFFFFFFFFFFFFFFFFFFFFFFFFFFFFFFFFFF AND PUSH20 0xFFFFFFFFFFFFFFFFFFFFFFFFFFFFFFFFFFFFFFFF AND EQ PUSH2 0x1DA JUMPI PUSH1 0x40 MLOAD PUSH32 0x8C379A000000000000000000000000000000000000000000000000000000000 DUP2 MSTORE PUSH1 0x4 ADD PUSH2 0x1D1 SWAP1 PUSH2 0x573 JUMP JUMPDEST PUSH1 0x40 MLOAD DUP1 SWAP2 SUB SWAP1 REVERT JUMPDEST DUP1 PUSH0 SWAP1 DUP2 PUSH2 0x1E8 SWAP2 SWAP1 PUSH2 0x737 JUMP JUMPDEST POP CALLER PUSH20 0xFFFFFFFFFFFFFFFFFFFFFFFFFFFFFFFFFFFFFFFF AND PUSH32 0xDE4389D0E2B82C1DA27DA351A07C61A1C281A257DD810BC7FAD7E95A2FFFD0D2 DUP3 PUSH1 0x40 MLOAD PUSH2 0x22F SWAP2 SWAP1 PUSH2 0x850 JUMP JUMPDEST PUSH1 0x40 MLOAD DUP1 SWAP2 SUB SWAP1 LOG2 POP JUMP JUMPDEST PUSH0 DUP2 MLOAD SWAP1 POP SWAP2 SWAP1 POP JUMP JUMPDEST PUSH0 DUP3 DUP3 MSTORE PUSH1 0x20 DUP3 ADD SWAP1 POP SWAP3 SWAP2 POP POP JUMP JUMPDEST DUP3 DUP2 DUP4 MCOPY PUSH0 DUP4 DUP4 ADD MSTORE POP POP POP JUMP JUMPDEST PUSH0 PUSH1 0x1F NOT PUSH1 0x1F DUP4 ADD AND SWAP1 POP SWAP2 SWAP1 POP JUMP JUMPDEST PUSH0 PUSH2 0x27C DUP3 PUSH2 0x23A JUMP JUMPDEST PUSH2 0x286 DUP2 DUP6 PUSH2 0x244 JUMP JUMPDEST SWAP4 POP PUSH2 0x296 DUP2 DUP6 PUSH1 0x20 DUP7 ADD PUSH2 0x254 JUMP JUMPDEST PUSH2 0x29F DUP2 PUSH2 0x262 JUMP JUMPDEST DUP5 ADD SWAP2 POP POP SWAP3 SWAP2 POP POP JUMP JUMPDEST PUSH0 PUSH1 0x20 DUP3 ADD SWAP1 POP DUP2 DUP2 SUB PUSH0 DUP4 ADD MSTORE PUSH2 0x2C2 DUP2 DUP5 PUSH2 0x272 JUMP JUMPDEST SWAP1 POP SWAP3 SWAP2 POP POP JUMP JUMPDEST PUSH0 PUSH20 0xFFFFFFFFFFFFFFFFFFFFFFFFFFFFFFFFFFFFFFFF DUP3 AND SWAP1 POP SWAP2 SWAP1 POP JUMP JUMPDEST PUSH0 PUSH2 0x2F3 DUP3 PUSH2 0x2CA JUMP JUMPDEST SWAP1 POP SWAP2 SWAP1 POP JUMP JUMPDEST PUSH2 0x303 DUP2 PUSH2 0x2E9 JUMP JUMPDEST DUP3 MSTORE POP POP JUMP JUMPDEST PUSH0 PUSH1 0x20 DUP3 ADD SWAP1 POP PUSH2 0x31C PUSH0 DUP4 ADD DUP5 PUSH2 0x2FA JUMP JUMPDEST SWAP3 SWAP2 POP POP JUMP JUMPDEST PUSH0 PUSH1 0x40 MLOAD SWAP1 POP SWAP1 JUMP JUMPDEST PUSH0 DUP1 REVERT JUMPDEST PUSH0 DUP1 REVERT JUMPDEST PUSH0 DUP1 REVERT JUMPDEST PUSH0 DUP1 REVERT JUMPDEST PUSH32 0x4E487B7100000000000000000000000000000000000000000000000000000000 PUSH0 MSTORE PUSH1 0x41 PUSH1 0x4 MSTORE PUSH1 0x24 PUSH0 REVERT JUMPDEST PUSH2 0x371 DUP3 PUSH2 0x262 JUMP JUMPDEST DUP2 ADD DUP2 DUP2 LT PUSH8 0xFFFFFFFFFFFFFFFF DUP3 GT OR ISZERO PUSH2 0x390 JUMPI PUSH2 0x38F PUSH2 0x33B JUMP JUMPDEST JUMPDEST DUP1 PUSH1 0x40 MSTORE POP POP POP JUMP JUMPDEST PUSH0 PUSH2 0x3A2 PUSH2 0x322 JUMP JUMPDEST SWAP1 POP PUSH2 0x3AE DUP3 DUP3 PUSH2 0x368 JUMP JUMPDEST SWAP2 SWAP1 POP JUMP JUMPDEST PUSH0 PUSH8 0xFFFFFFFFFFFFFFFF DUP3 GT ISZERO PUSH2 0x3CD JUMPI PUSH2 0x3CC PUSH2 0x33B JUMP JUMPDEST JUMPDEST PUSH2 0x3D6 DUP3 PUSH2 0x262 JUMP JUMPDEST SWAP1 POP PUSH1 0x20 DUP2 ADD SWAP1 POP SWAP2 SWAP1 POP JUMP JUMPDEST DUP3 DUP2 DUP4 CALLDATACOPY PUSH0 DUP4 DUP4 ADD MSTORE POP POP POP JUMP JUMPDEST PUSH0 PUSH2 0x403 PUSH2 0x3FE DUP5 PUSH2 0x3B3 JUMP JUMPDEST PUSH2 0x399 JUMP JUMPDEST SWAP1 POP DUP3 DUP2 MSTORE PUSH1 0x20 DUP2 ADD DUP5 DUP5 DUP5 ADD GT ISZERO PUSH2 0x41F JUMPI PUSH2 0x41E PUSH2 0x337 JUMP JUMPDEST JUMPDEST PUSH2 0x42A DUP5 DUP3 DUP6 PUSH2 0x3E3 JUMP JUMPDEST POP SWAP4 SWAP3 POP POP POP JUMP JUMPDEST PUSH0 DUP3 PUSH1 0x1F DUP4 ADD SLT PUSH2 0x446 JUMPI PUSH2 0x445 PUSH2 0x333 JUMP JUMPDEST JUMPDEST DUP2 CALLDATALOAD PUSH2 0x456 DUP5 DUP3 PUSH1 0x20 DUP7 ADD PUSH2 0x3F1 JUMP JUMPDEST SWAP2 POP POP SWAP3 SWAP2 POP POP JUMP JUMPDEST PUSH0 PUSH1 0x20 DUP3 DUP5 SUB SLT ISZERO PUSH2 0x474 JUMPI PUSH2 0x473 PUSH2 0x32B JUMP JUMPDEST JUMPDEST PUSH0 DUP3 ADD CALLDATALOAD PUSH8 0xFFFFFFFFFFFFFFFF DUP2 GT ISZERO PUSH2 0x491 JUMPI PUSH2 0x490 PUSH2 0x32F JUMP JUMPDEST JUMPDEST PUSH2 0x49D DUP5 DUP3 DUP6 ADD PUSH2 0x432 JUMP JUMPDEST SWAP2 POP POP SWAP3 SWAP2 POP POP JUMP JUMPDEST PUSH32 0x4E487B7100000000000000000000000000000000000000000000000000000000 PUSH0 MSTORE PUSH1 0x22 PUSH1 0x4 MSTORE PUSH1 0x24 PUSH0 REVERT JUMPDEST PUSH0 PUSH1 0x2 DUP3 DIV SWAP1 POP PUSH1 0x1 DUP3 AND DUP1 PUSH2 0x4EA JUMPI PUSH1 0x7F DUP3 AND SWAP2 POP JUMPDEST PUSH1 0x20 DUP3 LT DUP2 SUB PUSH2 0x4FD JUMPI PUSH2 0x4FC PUSH2 0x4A6 JUMP JUMPDEST JUMPDEST POP SWAP2 SWAP1 POP JUMP JUMPDEST PUSH32 0x536F6C6F20656C206F776E65722070756564652063616D626961722065737465 PUSH0 DUP3 ADD MSTORE PUSH32 0x2076616C6F720000000000000000000000000000000000000000000000000000 PUSH1 0x20 DUP3 ADD MSTORE POP JUMP JUMPDEST PUSH0 PUSH2 0x55D PUSH1 0x26 DUP4 PUSH2 0x244 JUMP JUMPDEST SWAP2 POP PUSH2 0x568 DUP3 PUSH2 0x503 JUMP JUMPDEST PUSH1 0x40 DUP3 ADD SWAP1 POP SWAP2 SWAP1 POP JUMP JUMPDEST PUSH0 PUSH1 0x20 DUP3 ADD SWAP1 POP DUP2 DUP2 SUB PUSH0 DUP4 ADD MSTORE PUSH2 0x58A DUP2 PUSH2 0x551 JUMP JUMPDEST SWAP1 POP SWAP2 SWAP1 POP JUMP JUMPDEST PUSH0 DUP2 SWAP1 POP DUP2 PUSH0 MSTORE PUSH1 0x20 PUSH0 KECCAK256 SWAP1 POP SWAP2 SWAP1 POP JUMP JUMPDEST PUSH0 PUSH1 0x20 PUSH1 0x1F DUP4 ADD DIV SWAP1 POP SWAP2 SWAP1 POP JUMP JUMPDEST PUSH0 DUP3 DUP3 SHL SWAP1 POP SWAP3 SWAP2 POP POP JUMP JUMPDEST PUSH0 PUSH1 0x8 DUP4 MUL PUSH2 0x5ED PUSH32 0xFFFFFFFFFFFFFFFFFFFFFFFFFFFFFFFFFFFFFFFFFFFFFFFFFFFFFFFFFFFFFFFF DUP3 PUSH2 0x5B2 JUMP JUMPDEST PUSH2 0x5F7 DUP7 DUP4 PUSH2 0x5B2 JUMP JUMPDEST SWAP6 POP DUP1 NOT DUP5 AND SWAP4 POP DUP1 DUP7 AND DUP5 OR SWAP3 POP POP POP SWAP4 SWAP3 POP POP POP JUMP JUMPDEST PUSH0 DUP2 SWAP1 POP SWAP2 SWAP1 POP JUMP JUMPDEST PUSH0 DUP2 SWAP1 POP SWAP2 SWAP1 POP JUMP JUMPDEST PUSH0 PUSH2 0x63B PUSH2 0x636 PUSH2 0x631 DUP5 PUSH2 0x60F JUMP JUMPDEST PUSH2 0x618 JUMP JUMPDEST PUSH2 0x60F JUMP JUMPDEST SWAP1 POP SWAP2 SWAP1 POP JUMP JUMPDEST PUSH0 DUP2 SWAP1 POP SWAP2 SWAP1 POP JUMP JUMPDEST PUSH2 0x654 DUP4 PUSH2 0x621 JUMP JUMPDEST PUSH2 0x668 PUSH2 0x660 DUP3 PUSH2 0x642 JUMP JUMPDEST DUP5 DUP5 SLOAD PUSH2 0x5BE JUMP JUMPDEST DUP3 SSTORE POP POP POP POP JUMP JUMPDEST PUSH0 SWAP1 JUMP JUMPDEST PUSH2 0x67C PUSH2 0x670 JUMP JUMPDEST PUSH2 0x687 DUP2 DUP5 DUP5 PUSH2 0x64B JUMP JUMPDEST POP POP POP JUMP JUMPDEST JUMPDEST DUP2 DUP2 LT ISZERO PUSH2 0x6AA JUMPI PUSH2 0x69F PUSH0 DUP3 PUSH2 0x674 JUMP JUMPDEST PUSH1 0x1 DUP2 ADD SWAP1 POP PUSH2 0x68D JUMP JUMPDEST POP POP JUMP JUMPDEST PUSH1 0x1F DUP3 GT ISZERO PUSH2 0x6EF JUMPI PUSH2 0x6C0 DUP2 PUSH2 0x591 JUMP JUMPDEST PUSH2 0x6C9 DUP5 PUSH2 0x5A3 JUMP JUMPDEST DUP2 ADD PUSH1 0x20 DUP6 LT ISZERO PUSH2 0x6D8 JUMPI DUP2 SWAP1 POP JUMPDEST PUSH2 0x6EC PUSH2 0x6E4 DUP6 PUSH2 0x5A3 JUMP JUMPDEST DUP4 ADD DUP3 PUSH2 0x68C JUMP JUMPDEST POP POP JUMPDEST POP POP POP JUMP JUMPDEST PUSH0 DUP3 DUP3 SHR SWAP1 POP SWAP3 SWAP2 POP POP JUMP JUMPDEST PUSH0 PUSH2 0x70F PUSH0 NOT DUP5 PUSH1 0x8 MUL PUSH2 0x6F4 JUMP JUMPDEST NOT DUP1 DUP4 AND SWAP2 POP POP SWAP3 SWAP2 POP POP JUMP JUMPDEST PUSH0 PUSH2 0x727 DUP4 DUP4 PUSH2 0x700 JUMP JUMPDEST SWAP2 POP DUP3 PUSH1 0x2 MUL DUP3 OR SWAP1 POP SWAP3 SWAP2 POP POP JUMP JUMPDEST PUSH2 0x740 DUP3 PUSH2 0x23A JUMP JUMPDEST PUSH8 0xFFFFFFFFFFFFFFFF DUP2 GT ISZERO PUSH2 0x759 JUMPI PUSH2 0x758 PUSH2 0x33B JUMP JUMPDEST JUMPDEST PUSH2 0x763 DUP3 SLOAD PUSH2 0x4D3 JUMP JUMPDEST PUSH2 0x76E DUP3 DUP3 DUP6 PUSH2 0x6AE JUMP JUMPDEST PUSH0 PUSH1 0x20 SWAP1 POP PUSH1 0x1F DUP4 GT PUSH1 0x1 DUP2 EQ PUSH2 0x79F JUMPI PUSH0 DUP5 ISZERO PUSH2 0x78D JUMPI DUP3 DUP8 ADD MLOAD SWAP1 POP JUMPDEST PUSH2 0x797 DUP6 DUP3 PUSH2 0x71C JUMP JUMPDEST DUP7 SSTORE POP PUSH2 0x7FE JUMP JUMPDEST PUSH1 0x1F NOT DUP5 AND PUSH2 0x7AD DUP7 PUSH2 0x591 JUMP JUMPDEST PUSH0 JUMPDEST DUP3 DUP2 LT ISZERO PUSH2 0x7D4 JUMPI DUP5 DUP10 ADD MLOAD DUP3 SSTORE PUSH1 0x1 DUP3 ADD SWAP2 POP PUSH1 0x20 DUP6 ADD SWAP5 POP PUSH1 0x20 DUP2 ADD SWAP1 POP PUSH2 0x7AF JUMP JUMPDEST DUP7 DUP4 LT ISZERO PUSH2 0x7F1 JUMPI DUP5 DUP10 ADD MLOAD PUSH2 0x7ED PUSH1 0x1F DUP10 AND DUP3 PUSH2 0x700 JUMP JUMPDEST DUP4 SSTORE POP JUMPDEST PUSH1 0x1 PUSH1 0x2 DUP9 MUL ADD DUP9 SSTORE POP POP POP JUMPDEST POP POP POP POP POP POP JUMP JUMPDEST PUSH32 0x6E616D6500000000000000000000000000000000000000000000000000000000 PUSH0 DUP3 ADD MSTORE POP JUMP JUMPDEST PUSH0 PUSH2 0x83A PUSH1 0x4 DUP4 PUSH2 0x244 JUMP JUMPDEST SWAP2 POP PUSH2 0x845 DUP3 PUSH2 0x806 JUMP JUMPDEST PUSH1 0x20 DUP3 ADD SWAP1 POP SWAP2 SWAP1 POP JUMP JUMPDEST PUSH0 PUSH1 0x40 DUP3 ADD SWAP1 POP DUP2 DUP2 SUB PUSH0 DUP4 ADD MSTORE PUSH2 0x867 DUP2 PUSH2 0x82E JUMP JUMPDEST SWAP1 POP DUP2 DUP2 SUB PUSH1 0x20 DUP4 ADD MSTORE PUSH2 0x87B DUP2 DUP5 PUSH2 0x272 JUMP JUMPDEST SWAP1 POP SWAP3 SWAP2 POP POP JUMP INVALID LOG2 PUSH5 0x6970667358 0x22 SLT KECCAK256 0x25 SWAP16 PUSH25 0xAFE64B16BF3188FD7FDE517F243403464D3CB037D1716EF0CC PUSH12 0xD2F4BC64736F6C634300081A STOP CALLER "
				},
				"gasEstimates": {
					"creation": {
						"codeDepositCost": "446600",
						"executionCost": "24743",
						"totalCost": "471343"
					},
					"external": {
						"name()": "infinite",
						"owner()": "2508",
						"setName(string)": "infinite"
					}
				},
				"methodIdentifiers": {
					"name()": "06fdde03",
					"owner()": "8da5cb5b",
					"setName(string)": "c47f0027"
				}
			},
			"storageLayout": {
				"storage": [
					{
						"astId": 3,
						"contract": "contracts/SoftCRCounter.sol:SoftCRCounter",
						"label": "name",
						"offset": 0,
						"slot": "0",
						"type": "t_string_storage"
					},
					{
						"astId": 5,
						"contract": "contracts/SoftCRCounter.sol:SoftCRCounter",
						"label": "owner",
						"offset": 0,
						"slot": "1",
						"type": "t_address"
					}
				],
				"types": {
					"t_address": {
						"encoding": "inplace",
						"label": "address",
						"numberOfBytes": "20"
					},
					"t_string_storage": {
						"encoding": "bytes",
						"label": "string",
						"numberOfBytes": "32"
					}
				}
			},
			"userdoc": {
				"kind": "user",
				"methods": {},
				"version": 1
			}
		}
	}
}