{
	"data": {
		"bytecode": {
			"linkReferences": {},
			"object": "6080604052348015600e575f80fd5b503360015f6101000a81548173ffffffffffffffffffffffffffffffffffffffff021916908373ffffffffffffffffffffffffffffffffffffffff160217905550610b2c8061005c5f395ff3fe608060405234801561000f575f80fd5b506004361061004a575f3560e01c80630bf803e41461004e57806361bc221a1461006a57806394b1a5bc14610088578063de60790d146100b8575b5f80fd5b610068600480360381019061006391906104fb565b6100d4565b005b610072610197565b60405161007f919061055a565b60405180910390f35b6100a2600480360381019061009d919061059d565b61019d565b6040516100af9190610628565b60405180910390f35b6100d260048036038101906100cd9190610648565b610248565b005b3373ffffffffffffffffffffffffffffffffffffffff1660015f9054906101000a900473ffffffffffffffffffffffffffffffffffffffff1673ffffffffffffffffffffffffffffffffffffffff1614610163576040517f08c379a000000000000000000000000000000000000000000000000000000000815260040161015a90610712565b60405180910390fd5b5f81908060018154018082558091505060019003905f5260205f20015f909190919091509081610193919061092a565b5050565b60025481565b60605f82815481106101b2576101b16109f9565b5b905f5260205f200180546101c59061075d565b80601f01602080910402602001604051908101604052809291908181526020018280546101f19061075d565b801561023c5780601f106102135761010080835404028352916020019161023c565b820191905f5260205f20905b81548152906001019060200180831161021f57829003601f168201915b50505050509050919050565b3373ffffffffffffffffffffffffffffffffffffffff1660015f9054906101000a900473ffffffffffffffffffffffffffffffffffffffff1673ffffffffffffffffffffffffffffffffffffffff16146102d7576040517f08c379a00000000000000000000000000000000000000000000000000000000081526004016102ce90610712565b60405180910390fd5b815f80549050811061031e576040517f08c379a000000000000000000000000000000000000000000000000000000000815260040161031590610a70565b60405180910390fd5b60405161032a90610ae2565b60405180910390203373ffffffffffffffffffffffffffffffffffffffff167fde4389d0e2b82c1da27da351a07c61a1c281a257dd810bc7fad7e95a2fffd0d2846040516103789190610628565b60405180910390a3815f8481548110610394576103936109f9565b5b905f5260205f200190816103a8919061092a565b50505050565b5f604051905090565b5f80fd5b5f80fd5b5f80fd5b5f80fd5b5f601f19601f8301169050919050565b7f4e487b71000000000000000000000000000000000000000000000000000000005f52604160045260245ffd5b61040d826103c7565b810181811067ffffffffffffffff8211171561042c5761042b6103d7565b5b80604052505050565b5f61043e6103ae565b905061044a8282610404565b919050565b5f67ffffffffffffffff821115610469576104686103d7565b5b610472826103c7565b9050602081019050919050565b828183375f83830152505050565b5f61049f61049a8461044f565b610435565b9050828152602081018484840111156104bb576104ba6103c3565b5b6104c684828561047f565b509392505050565b5f82601f8301126104e2576104e16103bf565b5b81356104f284826020860161048d565b91505092915050565b5f602082840312156105105761050f6103b7565b5b5f82013567ffffffffffffffff81111561052d5761052c6103bb565b5b610539848285016104ce565b91505092915050565b5f819050919050565b61055481610542565b82525050565b5f60208201905061056d5f83018461054b565b92915050565b61057c81610542565b8114610586575f80fd5b50565b5f8135905061059781610573565b92915050565b5f602082840312156105b2576105b16103b7565b5b5f6105bf84828501610589565b91505092915050565b5f81519050919050565b5f82825260208201905092915050565b8281835e5f83830152505050565b5f6105fa826105c8565b61060481856105d2565b93506106148185602086016105e2565b61061d816103c7565b840191505092915050565b5f6020820190508181035f83015261064081846105f0565b905092915050565b5f806040838503121561065e5761065d6103b7565b5b5f61066b85828601610589565b925050602083013567ffffffffffffffff81111561068c5761068b6103bb565b5b610698858286016104ce565b9150509250929050565b7f536f6c6f20656c206f776e6572207075656465206d6f6469666963617220656c5f8201527f2076616c6f720000000000000000000000000000000000000000000000000000602082015250565b5f6106fc6026836105d2565b9150610707826106a2565b604082019050919050565b5f6020820190508181035f830152610729816106f0565b9050919050565b7f4e487b71000000000000000000000000000000000000000000000000000000005f52602260045260245ffd5b5f600282049050600182168061077457607f821691505b60208210810361078757610786610730565b5b50919050565b5f819050815f5260205f209050919050565b5f6020601f8301049050919050565b5f82821b905092915050565b5f600883026107e97fffffffffffffffffffffffffffffffffffffffffffffffffffffffffffffffff826107ae565b6107f386836107ae565b95508019841693508086168417925050509392505050565b5f819050919050565b5f61082e61082961082484610542565b61080b565b610542565b9050919050565b5f819050919050565b61084783610814565b61085b61085382610835565b8484546107ba565b825550505050565b5f90565b61086f610863565b61087a81848461083e565b505050565b5b8181101561089d576108925f82610867565b600181019050610880565b5050565b601f8211156108e2576108b38161078d565b6108bc8461079f565b810160208510156108cb578190505b6108df6108d78561079f565b83018261087f565b50505b505050565b5f82821c905092915050565b5f6109025f19846008026108e7565b1980831691505092915050565b5f61091a83836108f3565b9150826002028217905092915050565b610933826105c8565b67ffffffffffffffff81111561094c5761094b6103d7565b5b610956825461075d565b6109618282856108a1565b5f60209050601f831160018114610992575f8415610980578287015190505b61098a858261090f565b8655506109f1565b601f1984166109a08661078d565b5f5b828110156109c7578489015182556001820191506020850194506020810190506109a2565b868310156109e457848901516109e0601f8916826108f3565b8355505b6001600288020188555050505b505050505050565b7f4e487b71000000000000000000000000000000000000000000000000000000005f52603260045260245ffd5b7f496e646578206f7574206f6620626f756e6473000000000000000000000000005f82015250565b5f610a5a6013836105d2565b9150610a6582610a26565b602082019050919050565b5f6020820190508181035f830152610a8781610a4e565b9050919050565b5f81905092915050565b7f73746f726564496e666f000000000000000000000000000000000000000000005f82015250565b5f610acc600a83610a8e565b9150610ad782610a98565b600a82019050919050565b5f610aec82610ac0565b915081905091905056fea26469706673582212207a3e5dbe7f822b046a8b974d9a421ddad51be099e92403538f6785c827bed58e64736f6c634300081a0033",
			"opcodes": "PUSH1 0x80 PUSH1 0x40 MSTORE CALLVALUE DUP1 ISZERO PUSH1 0xE JUMPI PUSH0 DUP1 REVERT JUMPDEST POP CALLER PUSH1 0x1 PUSH0 PUSH2 0x100 EXP DUP2 SLOAD DUP2 PUSH20 0xFFFFFFFFFFFFFFFFFFFFFFFFFFFFFFFFFFFFFFFF MUL NOT AND SWAP1 DUP4 PUSH20 0xFFFFFFFFFFFFFFFFFFFFFFFFFFFFFFFFFFFFFFFF AND MUL OR SWAP1 SSTORE POP PUSH2 0xB2C DUP1 PUSH2 0x5C PUSH0 CODECOPY PUSH0 RETURN INVALID PUSH1 0x80 PUSH1 0x40 MSTORE CALLVALUE DUP1 ISZERO PUSH2 0xF JUMPI PUSH0 DUP1 REVERT JUMPDEST POP PUSH1 0x4 CALLDATASIZE LT PUSH2 0x4A JUMPI PUSH0 CALLDATALOAD PUSH1 0xE0 SHR DUP1 PUSH4 0xBF803E4 EQ PUSH2 0x4E JUMPI DUP1 PUSH4 0x61BC221A EQ PUSH2 0x6A JUMPI DUP1 PUSH4 0x94B1A5BC EQ PUSH2 0x88 JUMPI DUP1 PUSH4 0xDE60790D EQ PUSH2 0xB8 JUMPI JUMPDEST PUSH0 DUP1 REVERT JUMPDEST PUSH2 0x68 PUSH1 0x4 DUP1 CALLDATASIZE SUB DUP2 ADD SWAP1 PUSH2 0x63 SWAP2 SWAP1 PUSH2 0x4FB JUMP JUMPDEST PUSH2 0xD4 JUMP JUMPDEST STOP JUMPDEST PUSH2 0x72 PUSH2 0x197 JUMP JUMPDEST PUSH1 0x40 MLOAD PUSH2 0x7F SWAP2 SWAP1 PUSH2 0x55A JUMP JUMPDEST PUSH1 0x40 MLOAD DUP1 SWAP2 SUB SWAP1 RETURN JUMPDEST PUSH2 0xA2 PUSH1 0x4 DUP1 CALLDATASIZE SUB DUP2 ADD SWAP1 PUSH2 0x9D SWAP2 SWAP1 PUSH2 0x59D JUMP JUMPDEST PUSH2 0x19D JUMP JUMPDEST PUSH1 0x40 MLOAD PUSH2 0xAF SWAP2 SWAP1 PUSH2 0x628 JUMP JUMPDEST PUSH1 0x40 MLOAD DUP1 SWAP2 SUB SWAP1 RETURN JUMPDEST PUSH2 0xD2 PUSH1 0x4 DUP1 CALLDATASIZE SUB DUP2 ADD SWAP1 PUSH2 0xCD SWAP2 SWAP1 PUSH2 0x648 JUMP JUMPDEST PUSH2 0x248 JUMP JUMPDEST STOP JUMPDEST CALLER PUSH20 0xFFFFFFFFFFFFFFFFFFFFFFFFFFFFFFFFFFFFFFFF AND PUSH1 0x1 PUSH0 SWAP1 SLOAD SWAP1 PUSH2 0x100 EXP SWAP1 DIV PUSH20 0xFFFFFFFFFFFFFFFFFFFFFFFFFFFFFFFFFFFFFFFF AND PUSH20 0xFFFFFFFFFFFFFFFFFFFFFFFFFFFFFFFFFFFFFFFF AND EQ PUSH2 0x163 JUMPI PUSH1 0x40 MLOAD PUSH32 0x8C379A000000000000000000000000000000000000000000000000000000000 DUP2 MSTORE PUSH1 0x4 ADD PUSH2 0x15A SWAP1 PUSH2 0x712 JUMP JUMPDEST PUSH1 0x40 MLOAD DUP1 SWAP2 SUB SWAP1 REVERT JUMPDEST PUSH0 DUP2 SWAP1 DUP1 PUSH1 0x1 DUP2 SLOAD ADD DUP1 DUP3 SSTORE DUP1 SWAP2 POP POP PUSH1 0x1 SWAP1 SUB SWAP1 PUSH0 MSTORE PUSH1 0x20 PUSH0 KECCAK256 ADD PUSH0 SWAP1 SWAP2 SWAP1 SWAP2 SWAP1 SWAP2 POP SWAP1 DUP2 PUSH2 0x193 SWAP2 SWAP1 PUSH2 0x92A JUMP JUMPDEST POP POP JUMP JUMPDEST PUSH1 0x2 SLOAD DUP2 JUMP JUMPDEST PUSH1 0x60 PUSH0 DUP3 DUP2 SLOAD DUP2 LT PUSH2 0x1B2 JUMPI PUSH2 0x1B1 PUSH2 0x9F9 JUMP JUMPDEST JUMPDEST SWAP1 PUSH0 MSTORE PUSH1 0x20 PUSH0 KECCAK256 ADD DUP1 SLOAD PUSH2 0x1C5 SWAP1 PUSH2 0x75D JUMP JUMPDEST DUP1 PUSH1 0x1F ADD PUSH1 0x20 DUP1 SWAP2 DIV MUL PUSH1 0x20 ADD PUSH1 0x40 MLOAD SWAP1 DUP2 ADD PUSH1 0x40 MSTORE DUP1 SWAP3 SWAP2 SWAP1 DUP2 DUP2 MSTORE PUSH1 0x20 ADD DUP3 DUP1 SLOAD PUSH2 0x1F1 SWAP1 PUSH2 0x75D JUMP JUMPDEST DUP1 ISZERO PUSH2 0x23C JUMPI DUP1 PUSH1 0x1F LT PUSH2 0x213 JUMPI PUSH2 0x100 DUP1 DUP4 SLOAD DIV MUL DUP4 MSTORE SWAP2 PUSH1 0x20 ADD SWAP2 PUSH2 0x23C JUMP JUMPDEST DUP3 ADD SWAP2 SWAP1 PUSH0 MSTORE PUSH1 0x20 PUSH0 KECCAK256 SWAP1 JUMPDEST DUP2 SLOAD DUP2 MSTORE SWAP1 PUSH1 0x1 ADD SWAP1 PUSH1 0x20 ADD DUP1 DUP4 GT PUSH2 0x21F JUMPI DUP3 SWAP1 SUB PUSH1 0x1F AND DUP3 ADD SWAP2 JUMPDEST POP POP POP POP POP SWAP1 POP SWAP2 SWAP1 POP JUMP JUMPDEST CALLER PUSH20 0xFFFFFFFFFFFFFFFFFFFFFFFFFFFFFFFFFFFFFFFF AND PUSH1 0x1 PUSH0 SWAP1 SLOAD SWAP1 PUSH2 0x100 EXP SWAP1 DIV PUSH20 0xFFFFFFFFFFFFFFFFFFFFFFFFFFFFFFFFFFFFFFFF AND PUSH20 0xFFFFFFFFFFFFFFFFFFFFFFFFFFFFFFFFFFFFFFFF AND EQ PUSH2 0x2D7 JUMPI PUSH1 0x40 MLOAD PUSH32 0x8C379A000000000000000000000000000000000000000000000000000000000 DUP2 MSTORE PUSH1 0x4 ADD PUSH2 0x2CE SWAP1 PUSH2 0x712 JUMP JUMPDEST PUSH1 0x40 MLOAD DUP1 SWAP2 SUB SWAP1 REVERT JUMPDEST DUP2 PUSH0 DUP1 SLOAD SWAP1 POP DUP2 LT PUSH2 0x31E JUMPI PUSH1 0x40 MLOAD PUSH32 0x8C379A000000000000000000000000000000000000000000000000000000000 DUP2 MSTORE PUSH1 0x4 ADD PUSH2 0x315 SWAP1 PUSH2 0xA70 JUMP JUMPDEST PUSH1 0x40 MLOAD DUP1 SWAP2 SUB SWAP1 REVERT JUMPDEST PUSH1 0x40 MLOAD PUSH2 0x32A SWAP1 PUSH2 0xAE2 JUMP JUMPDEST PUSH1 0x40 MLOAD DUP1 SWAP2 SUB SWAP1 KECCAK256 CALLER PUSH20 0xFFFFFFFFFFFFFFFFFFFFFFFFFFFFFFFFFFFFFFFF AND PUSH32 0xDE4389D0E2B82C1DA27DA351A07C61A1C281A257DD810BC7FAD7E95A2FFFD0D2 DUP5 PUSH1 0x40 MLOAD PUSH2 0x378 SWAP2 SWAP1 PUSH2 0x628 JUMP JUMPDEST PUSH1 0x40 MLOAD DUP1 SWAP2 SUB SWAP1 LOG3 DUP2 PUSH0 DUP5 DUP2 SLOAD DUP2 LT PUSH2 0x394 JUMPI PUSH2 0x393 PUSH2 0x9F9 JUMP JUMPDEST JUMPDEST SWAP1 PUSH0 MSTORE PUSH1 0x20 PUSH0 KECCAK256 ADD SWAP1 DUP2 PUSH2 0x3A8 SWAP2 SWAP1 PUSH2 0x92A JUMP JUMPDEST POP POP POP POP JUMP JUMPDEST PUSH0 PUSH1 0x40 MLOAD SWAP1 POP SWAP1 JUMP JUMPDEST PUSH0 DUP1 REVERT JUMPDEST PUSH0 DUP1 REVERT JUMPDEST PUSH0 DUP1 REVERT JUMPDEST PUSH0 DUP1 REVERT JUMPDEST PUSH0 PUSH1 0x1F NOT PUSH1 0x1F DUP4 ADD AND SWAP1 POP SWAP2 SWAP1 POP JUMP JUMPDEST PUSH32 0x4E487B7100000000000000000000000000000000000000000000000000000000 PUSH0 MSTORE PUSH1 0x41 PUSH1 0x4 MSTORE PUSH1 0x24 PUSH0 REVERT JUMPDEST PUSH2 0x40D DUP3 PUSH2 0x3C7 JUMP JUMPDEST DUP2 ADD DUP2 DUP2 LT PUSH8 0xFFFFFFFFFFFFFFFF DUP3 GT OR ISZERO PUSH2 0x42C JUMPI PUSH2 0x42B PUSH2 0x3D7 JUMP JUMPDEST JUMPDEST DUP1 PUSH1 0x40 MSTORE POP POP POP JUMP JUMPDEST PUSH0 PUSH2 0x43E PUSH2 0x3AE JUMP JUMPDEST SWAP1 POP PUSH2 0x44A DUP3 DUP3 PUSH2 0x404 JUMP JUMPDEST SWAP2 SWAP1 POP JUMP JUMPDEST PUSH0 PUSH8 0xFFFFFFFFFFFFFFFF DUP3 GT ISZERO PUSH2 0x469 JUMPI PUSH2 0x468 PUSH2 0x3D7 JUMP JUMPDEST JUMPDEST PUSH2 0x472 DUP3 PUSH2 0x3C7 JUMP JUMPDEST SWAP1 POP PUSH1 0x20 DUP2 ADD SWAP1 POP SWAP2 SWAP1 POP JUMP JUMPDEST DUP3 DUP2 DUP4 CALLDATACOPY PUSH0 DUP4 DUP4 ADD MSTORE POP POP POP JUMP JUMPDEST PUSH0 PUSH2 0x49F PUSH2 0x49A DUP5 PUSH2 0x44F JUMP JUMPDEST PUSH2 0x435 JUMP JUMPDEST SWAP1 POP DUP3 DUP2 MSTORE PUSH1 0x20 DUP2 ADD DUP5 DUP5 DUP5 ADD GT ISZERO PUSH2 0x4BB JUMPI PUSH2 0x4BA PUSH2 0x3C3 JUMP JUMPDEST JUMPDEST PUSH2 0x4C6 DUP5 DUP3 DUP6 PUSH2 0x47F JUMP JUMPDEST POP SWAP4 SWAP3 POP POP POP JUMP JUMPDEST PUSH0 DUP3 PUSH1 0x1F DUP4 ADD SLT PUSH2 0x4E2 JUMPI PUSH2 0x4E1 PUSH2 0x3BF JUMP JUMPDEST JUMPDEST DUP2 CALLDATALOAD PUSH2 0x4F2 DUP5 DUP3 PUSH1 0x20 DUP7 ADD PUSH2 0x48D JUMP JUMPDEST SWAP2 POP POP SWAP3 SWAP2 POP POP JUMP JUMPDEST PUSH0 PUSH1 0x20 DUP3 DUP5 SUB SLT ISZERO PUSH2 0x510 JUMPI PUSH2 0x50F PUSH2 0x3B7 JUMP JUMPDEST JUMPDEST PUSH0 DUP3 ADD CALLDATALOAD PUSH8 0xFFFFFFFFFFFFFFFF DUP2 GT ISZERO PUSH2 0x52D JUMPI PUSH2 0x52C PUSH2 0x3BB JUMP JUMPDEST JUMPDEST PUSH2 0x539 DUP5 DUP3 DUP6 ADD PUSH2 0x4CE JUMP JUMPDEST SWAP2 POP POP SWAP3 SWAP2 POP POP JUMP JUMPDEST PUSH0 DUP2 SWAP1 POP SWAP2 SWAP1 POP JUMP JUMPDEST PUSH2 0x554 DUP2 PUSH2 0x542 JUMP JUMPDEST DUP3 MSTORE POP POP JUMP JUMPDEST PUSH0 PUSH1 0x20 DUP3 ADD SWAP1 POP PUSH2 0x56D PUSH0 DUP4 ADD DUP5 PUSH2 0x54B JUMP JUMPDEST SWAP3 SWAP2 POP POP JUMP JUMPDEST PUSH2 0x57C DUP2 PUSH2 0x542 JUMP JUMPDEST DUP2 EQ PUSH2 0x586 JUMPI PUSH0 DUP1 REVERT JUMPDEST POP JUMP JUMPDEST PUSH0 DUP2 CALLDATALOAD SWAP1 POP PUSH2 0x597 DUP2 PUSH2 0x573 JUMP JUMPDEST SWAP3 SWAP2 POP POP JUMP JUMPDEST PUSH0 PUSH1 0x20 DUP3 DUP5 SUB SLT ISZERO PUSH2 0x5B2 JUMPI PUSH2 0x5B1 PUSH2 0x3B7 JUMP JUMPDEST JUMPDEST PUSH0 PUSH2 0x5BF DUP5 DUP3 DUP6 ADD PUSH2 0x589 JUMP JUMPDEST SWAP2 POP POP SWAP3 SWAP2 POP POP JUMP JUMPDEST PUSH0 DUP2 MLOAD SWAP1 POP SWAP2 SWAP1 POP JUMP JUMPDEST PUSH0 DUP3 DUP3 MSTORE PUSH1 0x20 DUP3 ADD SWAP1 POP SWAP3 SWAP2 POP POP JUMP JUMPDEST DUP3 DUP2 DUP4 MCOPY PUSH0 DUP4 DUP4 ADD MSTORE POP POP POP JUMP JUMPDEST PUSH0 PUSH2 0x5FA DUP3 PUSH2 0x5C8 JUMP JUMPDEST PUSH2 0x604 DUP2 DUP6 PUSH2 0x5D2 JUMP JUMPDEST SWAP4 POP PUSH2 0x614 DUP2 DUP6 PUSH1 0x20 DUP7 ADD PUSH2 0x5E2 JUMP JUMPDEST PUSH2 0x61D DUP2 PUSH2 0x3C7 JUMP JUMPDEST DUP5 ADD SWAP2 POP POP SWAP3 SWAP2 POP POP JUMP JUMPDEST PUSH0 PUSH1 0x20 DUP3 ADD SWAP1 POP DUP2 DUP2 SUB PUSH0 DUP4 ADD MSTORE PUSH2 0x640 DUP2 DUP5 PUSH2 0x5F0 JUMP JUMPDEST SWAP1 POP SWAP3 SWAP2 POP POP JUMP JUMPDEST PUSH0 DUP1 PUSH1 0x40 DUP4 DUP6 SUB SLT ISZERO PUSH2 0x65E JUMPI PUSH2 0x65D PUSH2 0x3B7 JUMP JUMPDEST JUMPDEST PUSH0 PUSH2 0x66B DUP6 DUP3 DUP7 ADD PUSH2 0x589 JUMP JUMPDEST SWAP3 POP POP PUSH1 0x20 DUP4 ADD CALLDATALOAD PUSH8 0xFFFFFFFFFFFFFFFF DUP2 GT ISZERO PUSH2 0x68C JUMPI PUSH2 0x68B PUSH2 0x3BB JUMP JUMPDEST JUMPDEST PUSH2 0x698 DUP6 DUP3 DUP7 ADD PUSH2 0x4CE JUMP JUMPDEST SWAP2 POP POP SWAP3 POP SWAP3 SWAP1 POP JUMP JUMPDEST PUSH32 0x536F6C6F20656C206F776E6572207075656465206D6F6469666963617220656C PUSH0 DUP3 ADD MSTORE PUSH32 0x2076616C6F720000000000000000000000000000000000000000000000000000 PUSH1 0x20 DUP3 ADD MSTORE POP JUMP JUMPDEST PUSH0 PUSH2 0x6FC PUSH1 0x26 DUP4 PUSH2 0x5D2 JUMP JUMPDEST SWAP2 POP PUSH2 0x707 DUP3 PUSH2 0x6A2 JUMP JUMPDEST PUSH1 0x40 DUP3 ADD SWAP1 POP SWAP2 SWAP1 POP JUMP JUMPDEST PUSH0 PUSH1 0x20 DUP3 ADD SWAP1 POP DUP2 DUP2 SUB PUSH0 DUP4 ADD MSTORE PUSH2 0x729 DUP2 PUSH2 0x6F0 JUMP JUMPDEST SWAP1 POP SWAP2 SWAP1 POP JUMP JUMPDEST PUSH32 0x4E487B7100000000000000000000000000000000000000000000000000000000 PUSH0 MSTORE PUSH1 0x22 PUSH1 0x4 MSTORE PUSH1 0x24 PUSH0 REVERT JUMPDEST PUSH0 PUSH1 0x2 DUP3 DIV SWAP1 POP PUSH1 0x1 DUP3 AND DUP1 PUSH2 0x774 JUMPI PUSH1 0x7F DUP3 AND SWAP2 POP JUMPDEST PUSH1 0x20 DUP3 LT DUP2 SUB PUSH2 0x787 JUMPI PUSH2 0x786 PUSH2 0x730 JUMP JUMPDEST JUMPDEST POP SWAP2 SWAP1 POP JUMP JUMPDEST PUSH0 DUP2 SWAP1 POP DUP2 PUSH0 MSTORE PUSH1 0x20 PUSH0 KECCAK256 SWAP1 POP SWAP2 SWAP1 POP JUMP JUMPDEST PUSH0 PUSH1 0x20 PUSH1 0x1F DUP4 ADD DIV SWAP1 POP SWAP2 SWAP1 POP JUMP JUMPDEST PUSH0 DUP3 DUP3 SHL SWAP1 POP SWAP3 SWAP2 POP POP JUMP JUMPDEST PUSH0 PUSH1 0x8 DUP4 MUL PUSH2 0x7E9 PUSH32 0xFFFFFFFFFFFFFFFFFFFFFFFFFFFFFFFFFFFFFFFFFFFFFFFFFFFFFFFFFFFFFFFF DUP3 PUSH2 0x7AE JUMP JUMPDEST PUSH2 0x7F3 DUP7 DUP4 PUSH2 0x7AE JUMP JUMPDEST SWAP6 POP DUP1 NOT DUP5 AND SWAP4 POP DUP1 DUP7 AND DUP5 OR SWAP3 POP POP POP SWAP4 SWAP3 POP POP POP JUMP JUMPDEST PUSH0 DUP2 SWAP1 POP SWAP2 SWAP1 POP JUMP JUMPDEST PUSH0 PUSH2 0x82E PUSH2 0x829 PUSH2 0x824 DUP5 PUSH2 0x542 JUMP JUMPDEST PUSH2 0x80B JUMP JUMPDEST PUSH2 0x542 JUMP JUMPDEST SWAP1 POP SWAP2 SWAP1 POP JUMP JUMPDEST PUSH0 DUP2 SWAP1 POP SWAP2 SWAP1 POP JUMP JUMPDEST PUSH2 0x847 DUP4 PUSH2 0x814 JUMP JUMPDEST PUSH2 0x85B PUSH2 0x853 DUP3 PUSH2 0x835 JUMP JUMPDEST DUP5 DUP5 SLOAD PUSH2 0x7BA JUMP JUMPDEST DUP3 SSTORE POP POP POP POP JUMP JUMPDEST PUSH0 SWAP1 JUMP JUMPDEST PUSH2 0x86F PUSH2 0x863 JUMP JUMPDEST PUSH2 0x87A DUP2 DUP5 DUP5 PUSH2 0x83E JUMP JUMPDEST POP POP POP JUMP JUMPDEST JUMPDEST DUP2 DUP2 LT ISZERO PUSH2 0x89D JUMPI PUSH2 0x892 PUSH0 DUP3 PUSH2 0x867 JUMP JUMPDEST PUSH1 0x1 DUP2 ADD SWAP1 POP PUSH2 0x880 JUMP JUMPDEST POP POP JUMP JUMPDEST PUSH1 0x1F DUP3 GT ISZERO PUSH2 0x8E2 JUMPI PUSH2 0x8B3 DUP2 PUSH2 0x78D JUMP JUMPDEST PUSH2 0x8BC DUP5 PUSH2 0x79F JUMP JUMPDEST DUP2 ADD PUSH1 0x20 DUP6 LT ISZERO PUSH2 0x8CB JUMPI DUP2 SWAP1 POP JUMPDEST PUSH2 0x8DF PUSH2 0x8D7 DUP6 PUSH2 0x79F JUMP JUMPDEST DUP4 ADD DUP3 PUSH2 0x87F JUMP JUMPDEST POP POP JUMPDEST POP POP POP JUMP JUMPDEST PUSH0 DUP3 DUP3 SHR SWAP1 POP SWAP3 SWAP2 POP POP JUMP JUMPDEST PUSH0 PUSH2 0x902 PUSH0 NOT DUP5 PUSH1 0x8 MUL PUSH2 0x8E7 JUMP JUMPDEST NOT DUP1 DUP4 AND SWAP2 POP POP SWAP3 SWAP2 POP POP JUMP JUMPDEST PUSH0 PUSH2 0x91A DUP4 DUP4 PUSH2 0x8F3 JUMP JUMPDEST SWAP2 POP DUP3 PUSH1 0x2 MUL DUP3 OR SWAP1 POP SWAP3 SWAP2 POP POP JUMP JUMPDEST PUSH2 0x933 DUP3 PUSH2 0x5C8 JUMP JUMPDEST PUSH8 0xFFFFFFFFFFFFFFFF DUP2 GT ISZERO PUSH2 0x94C JUMPI PUSH2 0x94B PUSH2 0x3D7 JUMP JUMPDEST JUMPDEST PUSH2 0x956 DUP3 SLOAD PUSH2 0x75D JUMP JUMPDEST PUSH2 0x961 DUP3 DUP3 DUP6 PUSH2 0x8A1 JUMP JUMPDEST PUSH0 PUSH1 0x20 SWAP1 POP PUSH1 0x1F DUP4 GT PUSH1 0x1 DUP2 EQ PUSH2 0x992 JUMPI PUSH0 DUP5 ISZERO PUSH2 0x980 JUMPI DUP3 DUP8 ADD MLOAD SWAP1 POP JUMPDEST PUSH2 0x98A DUP6 DUP3 PUSH2 0x90F JUMP JUMPDEST DUP7 SSTORE POP PUSH2 0x9F1 JUMP JUMPDEST PUSH1 0x1F NOT DUP5 AND PUSH2 0x9A0 DUP7 PUSH2 0x78D JUMP JUMPDEST PUSH0 JUMPDEST DUP3 DUP2 LT ISZERO PUSH2 0x9C7 JUMPI DUP5 DUP10 ADD MLOAD DUP3 SSTORE PUSH1 0x1 DUP3 ADD SWAP2 POP PUSH1 0x20 DUP6 ADD SWAP5 POP PUSH1 0x20 DUP2 ADD SWAP1 POP PUSH2 0x9A2 JUMP JUMPDEST DUP7 DUP4 LT ISZERO PUSH2 0x9E4 JUMPI DUP5 DUP10 ADD MLOAD PUSH2 0x9E0 PUSH1 0x1F DUP10 AND DUP3 PUSH2 0x8F3 JUMP JUMPDEST DUP4 SSTORE POP JUMPDEST PUSH1 0x1 PUSH1 0x2 DUP9 MUL ADD DUP9 SSTORE POP POP POP JUMPDEST POP POP POP POP POP POP JUMP JUMPDEST PUSH32 0x4E487B7100000000000000000000000000000000000000000000000000000000 PUSH0 MSTORE PUSH1 0x32 PUSH1 0x4 MSTORE PUSH1 0x24 PUSH0 REVERT JUMPDEST PUSH32 0x496E646578206F7574206F6620626F756E647300000000000000000000000000 PUSH0 DUP3 ADD MSTORE POP JUMP JUMPDEST PUSH0 PUSH2 0xA5A PUSH1 0x13 DUP4 PUSH2 0x5D2 JUMP JUMPDEST SWAP2 POP PUSH2 0xA65 DUP3 PUSH2 0xA26 JUMP JUMPDEST PUSH1 0x20 DUP3 ADD SWAP1 POP SWAP2 SWAP1 POP JUMP JUMPDEST PUSH0 PUSH1 0x20 DUP3 ADD SWAP1 POP DUP2 DUP2 SUB PUSH0 DUP4 ADD MSTORE PUSH2 0xA87 DUP2 PUSH2 0xA4E JUMP JUMPDEST SWAP1 POP SWAP2 SWAP1 POP JUMP JUMPDEST PUSH0 DUP2 SWAP1 POP SWAP3 SWAP2 POP POP JUMP JUMPDEST PUSH32 0x73746F726564496E666F00000000000000000000000000000000000000000000 PUSH0 DUP3 ADD MSTORE POP JUMP JUMPDEST PUSH0 PUSH2 0xACC PUSH1 0xA DUP4 PUSH2 0xA8E JUMP JUMPDEST SWAP2 POP PUSH2 0xAD7 DUP3 PUSH2 0xA98 JUMP JUMPDEST PUSH1 0xA DUP3 ADD SWAP1 POP SWAP2 SWAP1 POP JUMP JUMPDEST PUSH0 PUSH2 0xAEC DUP3 PUSH2 0xAC0 JUMP JUMPDEST SWAP2 POP DUP2 SWAP1 POP SWAP2 SWAP1 POP JUMP INVALID LOG2 PUSH5 0x6970667358 0x22 SLT KECCAK256 PUSH27 0x3E5DBE7F822B046A8B974D9A421DDAD51BE099E92403538F6785C8 0x27 0xBE 0xD5 DUP15 PUSH5 0x736F6C6343 STOP ADDMOD BYTE STOP CALLER "
		},
		"gasEstimates": {
			"creation": {
				"codeDepositCost": "572000",
				"executionCost": "24869",
				"totalCost": "596869"
			},
			"external": {
				"addInfo(string)": "infinite",
				"counter()": "2425",
				"getOneInfo(uint256)": "infinite",
				"updateStoredInfo(uint256,string)": "infinite"
			}
		},
		"methodIdentifiers": {
			"addInfo(string)": "0bf803e4",
			"counter()": "61bc221a",
			"getOneInfo(uint256)": "94b1a5bc",
			"updateStoredInfo(uint256,string)": "de60790d"
		}
	},
	"abi": [
		{
			"inputs": [],
			"stateMutability": "nonpayable",
			"type": "constructor"
		},
		{
			"anonymous": false,
			"inputs": [
				{
					"indexed": true,
					"internalType": "address",
					"name": "editor",
					"type": "address"
				},
				{
					"indexed": true,
					"internalType": "string",
					"name": "key",
					"type": "string"
				},
				{
					"indexed": false,
					"internalType": "string",
					"name": "value",
					"type": "string"
				}
			],
			"name": "DataModified",
			"type": "event"
		},
		{
			"inputs": [
				{
					"internalType": "string",
					"name": "_value",
					"type": "string"
				}
			],
			"name": "addInfo",
			"outputs": [],
			"stateMutability": "nonpayable",
			"type": "function"
		},
		{
			"inputs": [],
			"name": "counter",
			"outputs": [
				{
					"internalType": "uint256",
					"name": "",
					"type": "uint256"
				}
			],
			"stateMutability": "view",
			"type": "function"
		},
		{
			"inputs": [
				{
					"internalType": "uint256",
					"name": "_index",
					"type": "uint256"
				}
			],
			"name": "getOneInfo",
			"outputs": [
				{
					"internalType": "string",
					"name": "",
					"type": "string"
				}
			],
			"stateMutability": "view",
			"type": "function"
		},
		{
			"inputs": [
				{
					"internalType": "uint256",
					"name": "_index",
					"type": "uint256"
				},
				{
					"internalType": "string",
					"name": "_value",
					"type": "string"
				}
			],
			"name": "updateStoredInfo",
			"outputs": [],
			"stateMutability": "nonpayable",
			"type": "function"
		}
	]
}